:020000040000FA
:1000000050250020150400001D0400001F040000FE
:10001000210400002304000025040000000000006B
:1000200000000000000000000000000027040000A5
:1000300029040000000000002B0400002D04000033
:100040002F0400002F040000D50700002F0400003B
:100050002F0400002F0400002F0400002F040000D4
:100060002F0400002F0400002F0400002F040000C4
:100070002F0400002F0400002F0400002F040000B4
:100080002F0400002F0400002F0400002F040000A4
:100090002F0400002F0400002F0400002F04000094
:1000A0002F0400002F0400002F0400002F04000084
:1000B0002F0400002F0400000000000000000000DA
:1000C0002F0400002F0400002F0400002F04000064
:1000D0002F0400002F0400002F0400000000000087
:1000E0000000000000000000000000000000000010
:1000F0000000000000000000000000000000000000
:1001000000000000000000000000000000000000EF
:1001100000000000000000000000000000000000DF
:10040000DFF80CD000F066F800480047050F000048
:10041000502500200648804706480047FEE7FEE7D3
:10042000FEE7FEE7FEE7FEE7FEE7FEE7FEE7FEE7A4
:10043000390500000104000000487047381C000026
:1004400040EA01039B0703D009E008C9121F08C056
:10045000042AFAD203E011F8013B00F8013B521ED6
:10046000F9D27047421C10F8011B0029FBD1801AF9
:1004700070472DE9F05F0546002092469B4688466E
:100480000646814640241BE0284641464746224610
:1004900000F041F853465A46C01A914110D3114614
:1004A0001846224600F028F82D1A67EB01084F463F
:1004B00022460120002100F01FF817EB00094E41F1
:1004C000201EA4F10104DFDC484631462A4643469B
:1004D000BDE8F09F064C074D06E0E06840F00103E0
:1004E00094E8070098471034AC42F6D3FFF78CFF2E
:1004F000481C0000681C0000202A04DB203A00FA97
:1005000002F1002070479140C2F1200320FA03F36A
:10051000194390407047202A04DB203A21FA02F068
:100520000021704721FA02F3D040C2F1200291402D
:100530000843194670470000F0B598480023021D93
:1005400001780125101D4FF08056062907D1147837
:10055000240704D10478C4F30314032C02D0062921
:1005600004D00FE08F4F8E4C7C670EE01478240788
:1005700008D10478C4F30314032C06D0042C04D04F
:10058000052C02D0062907D00EE0D6F84442864F4B
:10059000C4F342343C6002E01478240704D10478A8
:1005A000C4F30314032C02D0062906D011E07F4CBB
:1005B000276827F0807727600EE01478240708D199
:1005C0000478C4F30314032C06D0042C04D0052CA7
:1005D00002D006290AD011E04FF08044C4F80C3153
:1005E000C4F81031704C241F236002E014782407F3
:1005F00004D10478C4F30314032C02D0062905D0D7
:100600000CE0694F032464373C600AE01478240747
:1006100004D10478C4F30314032C02D006290DD0AE
:1006200014E0634F05243C60614C78342560604CD5
:10063000083423603F243F1D3C6002E01478240707
:1006400004D10478C4F30314052C02D0062957D032
:1006500068E058490968584A11605649091D0968F7
:10066000121D1160534908310968121D116051496A
:100670000C310968121D11604E4910310968121DB4
:1006800011604C4914310968121D11604949183133
:100690000968494A2032116046491C310968121D17
:1006A0001160444920310968121D1160414924310B
:1006B0000968121D11603F4928310968121D116037
:1006C0003C492C310968121D11603A4930310968E2
:1006D000394A40321160374934310968121D1160BE
:1006E000344938310968121D116032493C310968BA
:1006F000121D11602F4940310968121D116002E07E
:10070000117809070ED10078C0F30310032803D035
:10071000042801D0052805D1D6F85802274900F051
:100720004F00086021487438016841F4700101608D
:10073000BFF34F8FBFF36F8F4FF01021D1F800023E
:10074000002803DBD1F80402002822DA1C4A1560D5
:100750001C480468002CFCD01524C1F80042056830
:10076000002DFCD0C1F8044201680029FCD01360C0
:1007700001680029FCD0BFF34F8F0C48F0380168A6
:10078000114A01F4E06111430160BFF34F8F00BFD4
:10079000FDE70F490D480860F0BD0000E00F00F0D4
:1007A0000DF0ADBA00C007403C050040FCED00E094
:1007B000105600400404001020C50040E40E004024
:1007C00004E5014000E401400400FA050090D00374
:1007D000140000200448017F04480029024901D088
:1007E00001F04DB901F0BCB8180000200020004015
:1007F0000FB41CB50246002007AC00290BD0491EDF
:10080000CDE90021054B6A462146069800F018F80C
:10081000009A002111701CBC5DF814FBA30C0000B1
:1008200002E008C8121F08C1002AFAD170477047B9
:10083000002001E001C1121F002AFBD17047000017
:100840002DE9FF4F8DB00F460546002606E025280E
:100850000BD0DDE90F1290476D1C761C287800281C
:10086000F5D111B03046BDE8F08F0024A246A14674
:100870000122EC4900E0044315F8013F203B02FA55
:1008800003F00842F7D128782A2810D06FF02F0201
:100890002878A0F13001092914D80AEB8A0102EB6B
:1008A000410144F0020400EB010A6D1CF0E701CFA6
:1008B0005FEA000A03D544F40054CAF1000A44F088
:1008C00002046D1C28782E2817D115F8010F44F06A
:1008D00004042A280ED06FF02F022878A0F13001EE
:1008E00009290AD809EB890102EB410100EB010952
:1008F0006D1CF2E757F8049B6D1C28786C280FD00C
:1009000006DC4C2817D068280DD06A2814D104E0E2
:10091000742810D07A280FD10DE044F400140AE0B6
:1009200044F4801401E044F440146978814202D117
:1009300004F580146D1C6D1C2A786E2A1FD00CDC07
:10094000632A31D004DC002A8BD0582A11D1A3E0CD
:10095000642A68D0692A0CD165E0732A2ED004DCA1
:100960006F2A73D0702A04D19BE0752A6FD0782A41
:100970006ED01046DDE90F129047761C50E1C4F3AB
:100980000250022806D0032809D0042801CF09D03C
:10099000066045E101CFF117C0E9006140E101CFF8
:1009A00006803DE106703BE117F8040B8DF800006E
:1009B00000208DF80100EB46012003E057F804BB4E
:1009C0004FF0FF3061074FF0000102D40DE008F155
:1009D0000101884649450FDA8045F8DB1BF808100D
:1009E0000029F4D108E008F1010188468142FADBD0
:1009F0001BF808100029F6D1DDE90F23AAEB080047
:100A00008146214600F036F9304400EB080604E048
:100A1000DDE90F121BF8010B9047B8F10108F7D27E
:100A200021464846F7E00A21C4F302534FF0000B79
:100A30000891022B04D001CFC117032B09D00AE083
:100A4000FF1D27F00707F7E8020108E032E01FE08A
:100A500020E000B2C117042B01D140B2C117031E20
:100A600071F1000307DA4FF0000CD0EB0C006CEBD7
:100A700001012D2302E0230504D52B238DF824301A
:100A8000012303E0E30701D02023F7E7984658E06D
:100A90000A2110E010210EE010204FF0000B08900A
:100AA0000CE010214FF0000B44F004044FF0080953
:100AB000089103E008214FF0000B0891C4F30253A2
:100AC000022B04D001CF0021032B06D006E0FF1D2E
:100AD00027F00707F7E8020103E080B2042B00D1FA
:100AE000C0B24FF0000823072BD5702A07D0DDF8DD
:100AF00020C08CF0100C5CEA0B0C05D00EE04023FB
:100B00008DF82430012308E050EA010306D0302399
:100B10008DF824308DF8252002239846DDF820C07A
:100B20008CF0080C5CEA0B0C0BD150EA010301D1EC
:100B3000630706D530238DF824304FF00108A9F162
:100B40000109582A04D038A20B9208AA0A920BE095
:100B50003AA2F9E75B46089AFFF78BFC0B9B9B5C7C
:100B60000A9A521E0A92137050EA0102F2D10A98B0
:100B7000ADEB000000F1200B600702D524F48034B7
:100B800001E04FF00109D94502DDA9EB0B0000E0BF
:100B9000002000EB0B0141440890AAEB010AE0039E
:100BA00006D4DDE90F232146504600F063F80644E1
:100BB0004FF0000908E009A911F80900DDE90F125A
:100BC000904709F10109761CC145F4DBE0030CD51F
:100BD000DDE90F232146504600F04CF8064404E0BE
:100BE000DDE90F1230209047761C0899481E0890C6
:100BF0000029F5DC08E00A980A990078491C0A9156
:100C0000DDE90F129047761CBBF10001ABF1010B3F
:100C1000F1DC21465046DDE90F2300F019F80644C7
:100C20006D1C1BE60928010030313233343536376C
:100C30003839616263646566000000003031323328
:100C400034353637383941424344454600000000C8
:100C50002DE9F041044600251E461746880404D4B9
:100C600005E039462020B0476D1C641EF9D52846A2
:100C7000BDE8F0812DE9F041044600251E4690466E
:100C8000C80301D5302700E02027880404D505E0FB
:100C900041463846B0476D1C641EF9D52846BDE86C
:100CA000F0814A68002A06D00A68531C0B60107055
:100CB0004868401E486070470BA1012000F00AFD03
:100CC00000F062FC00F064FC0028FBD1BFF34F8F02
:100CD0000B4801680B4A01F4E06111430160BFF366
:100CE0004F8F00BFFDE700004150505F4552524F0B
:100CF000523A4552524F523A466174616C0D0A00A5
:100D00000CED00E00400FA050EB500210091CDE9DC
:100D100001106A4644F20100FFF7CEFF0EBD00F05D
:100D200003B800F009B8000072B602480168491C17
:100D3000016070470000002003490868401E0860F9
:100D400000D162B670470000000000202DE9F0419C
:100D5000064608680C46411C4FF0A0474FF00105BD
:100D600006D005FA00F1C7F80815206800F0A0FACF
:100D70006068411C02D0002100F091FA30792049CE
:100D800001EB4010A169007F00283068C0F82415ED
:100D900025D0607D227D31681043C1F86C05D4E90F
:100DA00000123068C0F80C15C0F8142524E0A068C3
:100DB000411C02D0002100F072FAE068411C05D00D
:100DC0008540C7F80855E06800F072FAD4E90212CD
:100DD0003068C0F80825C0F81015BDE8F081607DC6
:100DE000217D32680843C2F86C05D4E900123068EE
:100DF000C0F81425C0F80C15207D0128D7D0ECE7E9
:100E000018000020002901DA002070470268114410
:100E1000016001207047000070B5461C0D4601249A
:100E20000020FFF77CFF114A10682860D2E900100B
:100E30009568081A2B1A701C5B1C98420FD963B175
:100E40000B480C4B294000681B6802EB810163F3DF
:100E50009F20C8601068401C1060002401E08819C1
:100E600010600020FFF75DFF204670BD38010020B4
:100E7000901B000010000020034803C8814201D1EC
:100E800001207047002070473801002070B50E46E1
:100E90000446007918494FF4A27501EB4010017F18
:100EA0002068A1B14FF4887100F096FC4FF4907166
:100EB000206800F091FC4FF49271206800F08CFCE7
:100EC0002946206800F088FC0C49206809E04FF4AE
:100ED0008E7100F070FC2946206800F06CFC084917
:100EE0002068C0F80413206800F0C3F83146BDE85C
:100EF000704000F0A2B800001800002010030200AB
:100F000080000200174808B500270760384600F047
:100F10003BFC08B1FFF7F8FE124D134C2D1D0126C6
:100F2000C4F80060D4F800010028FBD0C4F80071B8
:100F300028688005286801D50C490843C11700EBD3
:100F4000917080100090666009A10320009A00F063
:100F5000E7FB104800F020F800F01AFB0028FBD156
:100F6000DEE7000004C5004000C0004000FCFFFFB9
:100F70004150503A494E464F3A41637475616C2076
:100F800074656D70657261747572653A2025640DC3
:100F90000A00000020A1070000283ED01F49204A77
:100FA000096800BF00BF00BF00BF00BF00BF00BF97
:100FB00000BF91422FD000BF00BF00BF00BF00BFE5
:100FC00000BF00BF00BF00BF00BF00BF00BF00BF29
:100FD00000BF00BF00BF00BF00BF00BF00BF00BF19
:100FE00000BF00BF00BF00BF00BF00BF00BF00BF09
:100FF00000BF00BF00BF00BF00BF00BF00BF00BFF9
:1010000000BF00BF00BF00BF00BF00BF00BF00BFE8
:1010100000BF00BF00BF401EC3D1704714000020B6
:101020000024F40000F01F020121914040098000DB
:1010300000F1E020C0F8801170474907090E002830
:1010400006DA00F00F0202F1E02282F8141D03E03C
:1010500000F1E02282F8001400F01F02012191400B
:101060004009800000F1E020C0F88012C0F80011B3
:101070007047000B40B270470121B1EB507F01D1A6
:1010800001207047002070472DE9F04105460079A6
:10109000164F904607EB40140E46E07E10B1082034
:1010A000BDE8F081707F20772846FFF74FFE5FEAAA
:1010B000080060603169216003D0317F2846FFF766
:1010C000E5FE287907EB4010007F0028286801D052
:1010D000082100E00421C0F800150020E07520760A
:1010E000A0750121E176A076DAE700001800002063
:1010F0002DE9F047054600793F4E904606EB401437
:101100000F46207F18B10846FFF7B6FF30B12846DA
:1011100000F074F820B11120BDE8F0871020FBE743
:1011200084F81680A7600027A78228794FF001086D
:1011300006EB40143E46207F0028286825D04FF457
:101140009079494600F048FB4FF4AC7A5146286844
:1011500000F042FB2868A17DA268C0F84425C0F8D1
:1011600048152868C0F808806068F0B949462868C2
:1011700000F02DFB80465146286800F028FB58EA15
:101180000001F3D058BBA7750FE04FF48E7A51469B
:1011900000F011FB2868C0F808802146286800F09C
:1011A000B9FB61684FF4807089B13046B4E75146AD
:1011B000286800F0FBFA10B9A08A4845F7D1A08A48
:1011C000484505D02146286800F0A4FB00E0814690
:1011D000A08AA17D8842EAD3A08A484501D10F2682
:1011E000D1E75146286800F0E1FA0028F9D02868D4
:1011F000C0F80C80C7E700001800002000790449FF
:1012000001EB4010807D002800D0012070470000D5
:101210001800002070B5044600791149002601EB42
:10122000401520682A7FC0F80065686888B1207979
:1012300001EB4010007F0028206801D0094901E03F
:1012400008498C39C0F808132068FFF712FFFFF730
:10125000E9FE204600F0C6FAEE766E6070BD000032
:10126000180000201003020070B541EA4201DDE9D8
:1012700004564FF0A04441EA830141EA052104EB02
:10128000800041EA0641C0F8001770BD1CB500217E
:1012900000910B4601220191FFF7E6FF1CBD1CB532
:1012A00000220B46009211460192FFF7DDFF1CBDA4
:1012B0001CB5002100910B46012201911146FFF758
:1012C000D3FF1CBD004870473D13000030B5184CDB
:1012D000054689B0207828B16078854202D1002087
:1012E00009B030BD202213496846FFF7A9F8002055
:1012F0008DF814000620009008200190052003902E
:10130000072002904FF0EB7006900948001DFFF790
:1013100081FF0DB1002200E0074A05486946001D23
:10132000FFF7B2FE0028DBD1012020706570D6E700
:1013300004000020701B0000511900002DE9F04F3F
:10134000C1B00D004FF0000140914D984B991C46E3
:10135000174601EB000B01D00A2000E00020804678
:1013600000F0A2FA00287CD16E46BCB9409840AA91
:101370003118284600F0B4FA002872D03846FFF73A
:1013800071F8C22800D9C220054640982A46304448
:101390003946FFF755F84098284440904FF0200A0E
:1013A000409901EB080231320DEB01050DEB02060D
:1013B000002002E005F801AB401C4045FAD30027AD
:1013C0005C4508D305F801AB05F801AB05F801ABA6
:1013D00006F801AB2DE04B98844202D24A98005D9A
:1013E00002E0211A4C98405C2B46814602460121BE
:1013F000880022FA00F000F00F00092801D93730E8
:1014000000E03030C1F1010C491E03F80C00EFD2AE
:101410009D1C05F801ABFFF70FF8016811F80900F2
:1014200010F03E0F01D0484600E02E2006F8010BD8
:10143000641C7F1C102FC3D30D2030700A207070E5
:1014400085F800A04099684641444331409100F03E
:1014500031FA30B100F028FA18B9002040905C450C
:101460009ED341B02046BDE8F08F2DE9F043C7B0D0
:1014700000251C46904689464E9F459500F014FA7B
:1014800000287AD1459805AE311845AA484600F0A3
:1014900027FA002835D0072F27D2DFE807F00412FB
:1014A0001B35424F5D004046FEF7DCFF0546459880
:1014B0002918FF2919D830442A464146FEF7C0FFB3
:1014C00013E045982368C0F5807130444246FFF729
:1014D0008FF909E06068009045982368C0F5807135
:1014E00030444246FFF784F90546294645A8FFF7F0
:1014F00089FC459978B3B1F5807F3ED805A800F006
:10150000D9F947B0BDE8F083D4E90101CDE9000184
:1015100045982368C0F5807130444246FFF768F96A
:10152000E2E7201D07C88DE8070045982368C0F54D
:10153000807130444246FFF75BF9D5E7201D0FC8A4
:101540008DE80F0045982368C0F58071304442460D
:10155000FFF74EF9C8E710E004F1080001AD0FC82D
:1015600085E80F006068009045982368C0F5807199
:1015700030444246FFF73CF9B6E70020C1E70000DF
:10158000004870476B1400000120FFF79FBE000069
:101590002DE9F04F87B0FFF76FFC18B1002007B0BE
:1015A000BDE8F08F454ED6E9014704EA070006EB97
:1015B0008000A146641CC5680CE000BFC5F389101B
:1015C00000EB9550044404EA070006EB8000A146B6
:1015D000C568641CA807F1D005F003004FF0000BAC
:1015E000022805D0AA0A01A8C5F38313002153E0FD
:1015F00004EA070006EB800004F1010A0AEA070486
:10160000C268381B80004FEA9558001DC5F3891346
:10161000804521D929490C3138B106EB840400F00A
:10162000FF0CA8EB00000C3404E00C46002108F08D
:10163000FF0C0846C0B2CDE90210CDE9004CD6F847
:101640001444C5F3C2005946A047404511D108F1E2
:1016500003080AEB98042AE0002106EB84000C3012
:101660000090CDE901810391C5F3C200D6F814447E
:10167000EAE760F38F1509EA070006EB8000C56012
:1016800016E000BF04EA070C06EB8C0C491CDCF8E2
:101690000CC040F804CB641C9942F3D3C5F3C200DC
:1016A0000093D6F8105401AB5946A84700B17460B6
:1016B000FFF7E2FB80F0010071E700003801002035
:1016C000034AFF23936000231360536000F054B873
:1016D000380100202DE9F8430F4F884604460025C5
:1016E00069462846BE68FFF797FB002812D00B48D2
:1016F0000021406861F38200009964F3C50001EAAB
:10170000060265F3891007EB820268F39F20491CEB
:10171000D0600091BDE8F88338010020901B0000E4
:101720002DE9F843124D8846044601279146694643
:101730003846AE68FFF770FB002817D00D4800212F
:10174000806861F38200009964F3C50001EA060233
:1017500067F3891005EB820268F39F20491CD06073
:101760000091314005EB8101C1F80C90BDE8F88390
:1017700038010020901B0000024A02F5826203C279
:10178000704700003801002070B506460020FFF7C2
:101790009DFD040008D1FFF795FD0546FFF7F0FE1B
:1017A00032462946FFF78CFF204670BD405800287E
:1017B00000D00120704708B50022425040580090E8
:1017C00008BDD0F80403084000D0012070474058FD
:1017D000002800D00120704708B500224250405830
:1017E000009008BD70B5034600791B4901EB40101D
:1017F0001968027F4FF0FF30002AD1F80C25D1F88C
:101800001465D1F80855D1F8104504D0C1F80C057D
:10181000C1F8140503E0C1F81405C1F80C051968F6
:10182000C1F80805C1F81005501C02D01046FFF79A
:101830002DFD701C02D03046FFF728FD601C02D041
:101840002046FFF723FD681C04D02846BDE8704001
:10185000FFF71CBD70BD00001800002070B50546E4
:10186000C87D0C4600284FF4847128460AD0FFF743
:10187000A2FFD5F81805627EE1688854607E401C9E
:10188000607670BDFFF797FFD5F8180570BD1FB5DE
:1018900001238DF800308DF808100192D0E9001274
:1018A000684690471FBD00000148FFF7A7BC000035
:1018B0000800002070B50D460A460146012406487E
:1018C000FEF7BEFDEAB204490448FFF711FC00B17F
:1018D0000024204670BD00003800002008000020D1
:1018E00010B5144602004FF001000CD008461368F2
:1018F00006A24FF48071FEF77BFF01462046BDE84B
:101900001040FFF77FBA0021216010BD5B25303801
:10191000645D000070B50C4605464FF48E71FFF70C
:101920004AFFA18AA068415CA08A401CA082C5F839
:101930001C1570BD1FB500228DF800208DF8081011
:10194000816801918275D0E90012684690471FBDF9
:101950000078012801D101498870704704000020F7
:101960002DE9FF470C4605464FF40071FFF729FFAC
:1019700001274FF40178002618B34FF492794946B5
:101980002846FFF713FFE0B149462846FFF713FF4B
:10199000C5F80883A07E00B96F6002208DF80000B2
:1019A000D5F88004C5F880040390E07D8DF8080028
:1019B000E0680190E6752676D4E900126846904703
:1019C00027E004212846FFF7FCFE10B34FF4847192
:1019D0002846FFF7EBFEE0B121462846FFF73EFF21
:1019E000E07D617E884214D1207E38B1617EE2685C
:1019F000E0752069E0602676667607E0A07E00B993
:101A00006F60C5F80883E675617EE2682046FFF7DF
:101A10003EFF4FF48E7841462846FFF7C7FE88B157
:101A2000A08AA17D884204D221462846FFF772FF92
:101A300008E041462846FFF7BEFEA17D11B12046D1
:101A4000FFF778FF4FF4A27841462846FFF7AEFE35
:101A5000002812D041462846FFF7ADFEA07E00B117
:101A60002F60E07D002808D0E675617EE26804B052
:101A70002046BDE8F047FFF70ABFBDE8FF872DE924
:101A8000FF410C464FF4927705463946FFF79FFE1B
:101A90000026C0B139462846FFF79EFE02208DF889
:101AA0000000D5F88004C5F880040390D5F83C0503
:101AB0008DF80800E0680190E6752676D4E90012FA
:101AC0006846904724E04FF4887739462846FFF768
:101AD0007EFEE8B139462846FFF77EFED5F83C0584
:101AE000C1B2E07D884213D1207E60B1E268D5F8B2
:101AF000000220F02000C5F80002207EE075206979
:101B0000E060267601E0E675E2682046FFF7BFFE5A
:101B10004FF4A27739462846FFF759FE68B1394697
:101B20002846FFF759FEE07D38B1E675D5F83C054B
:101B3000E268C1B22046FFF7AAFE4FF49076314624
:101B40002846FFF744FE00280FD031462846FFF70D
:101B500043FEA07D002808D0D5F84C0504B0C1B2E2
:101B60002046BDE8F041FFF7E5BEBDE8FF8100007B
:101B7000FFFFFFFFFFFFFFFFFFFFFFFFFFFFFFFF75
:101B800000000000000000000000D6010701000076
:101B90002900000001000000010000000100000019
:101BA0000100000001000000010000000100000031
:101BB0000200000000404040404040404040414161
:101BC0004141414040404040404040404040404012
:101BD00040404040400502020202020202020202AC
:101BE00002020202022020202020202020202002A9
:101BF0000202020202029090909090901010101039
:101C000010101010101010101010101010101010D4
:101C10000202020202028888888888880808080868
:101C20000808080808080808080808080808080834
:101C30000202020240000000B51B00004F766572F0
:101C4000666C6F770D0A0000681C00000000002021
:101C50001800000020080000801C00001800002070
:101C600038250000300800000000000000000000DF
:101C700000200040000000003C1C00000090D00349
:0400000500000401F2
:00000001FF
