:020000040001F9
:10F000006844002049F4010051F4010015F40100A6
:10F0100055F4010057F4010059F40100000000000C
:10F020000000000000000000000000005BF4010090
:10F030005DF40100000000005FF4010061F40100D4
:10F0400019F8010063F4010079FE010001FB0100E1
:10F050000DFB010063F40100C1F40100A9F90100F6
:10F0600015FE010029FE01003DFE010065F90100C9
:10F0700063F4010015F9010063F4010063F4010079
:10F0800095FE010075F9010059F80100B5F4010081
:10F0900025FB010029FB010039FB010049FB0100B0
:10F0A00059FB010069FB010051FE010065FE0100F2
:10F0B00029F8010099F7010000000000000000009D
:10F0C00063F4010039F8010049F8010019FB01005F
:10F0D00099F901005DF6010063F4010000000000F1
:10F0E0000000000000000000000000000000000020
:10F0F0000000000000000000000000000000000010
:10F1000000000000000000000000000000000000FF
:10F1100000000000000000000000000000000000EF
:10F40000DFF80CD000F044F800480047610A020021
:10F4100068440020094B1EF0040F1CBFEFF3098065
:10F420001847EFF308800649064A884201D89042FF
:10F4300002D88D464FF000001847000035F6010055
:10F44000684400206824002006488047064800479A
:10F45000FEE7FEE7FEE7FEE7FEE7FEE7FEE7FEE784
:10F46000FEE7FEE779FB010001F4010040EA010339
:10F470009B0703D009E008C9121F08C0042AFAD26A
:10F4800003E011F8013B00F8013B521EF9D270472E
:10F49000064C074D06E0E06840F0010394E80700E1
:10F4A00098471034AC42F6D3FFF7AEFFB81D020008
:10F4B000D81D0200014800680047000044210020D8
:10F4C0002DE9F04700268CB0DFF86091B0464FF48C
:10F4D0008075012437460696284602F00BF838B1AD
:10F4E000D9F80403204203D0284601F0F9FF26434F
:10F4F0002D1D64007F1CADB2082FEDD34FF4BE74F8
:10F50000204601F0F7FF48B1204601F0E9FF46F040
:10F51000004606AA0121002001F0CEFF444D16F05E
:10F52000FF0F15D00127002437420DD009EB8401CD
:10F53000D1F81005D1F81015C0F3042055F8242097
:10F54000C1F3014102B190477F00641C082CEBD34A
:10F55000002E67DA4FF0FF30CDE9088000263446F0
:10F56000281910F8507F90F9000027F0C008401CBF
:10F5700044D009A9404601F0B9FA58B34FEA9719A7
:10F58000404601F041F855F820701FB1B9F1030F62
:10F5900003D00FE0B9F1030F30D108A84FEAD80229
:10F5A00008F00703815C4FF0010C0CFA03FC41EA00
:10F5B0000C0181544FF0A04101EB8800D0F8000706
:10F5C00006A9C0F3014A404601F090FA18B1BAF119
:10F5D000020F03D012E0BAF1030F0FD1B9F1030FFC
:10F5E00008D1BAF1020F1BD00221404601F053FFAF
:10F5F000761CF6B217B149464046B847641C042C45
:10F60000AED3002E0ED06A460121002001F054FF37
:10F6100006990098884205D00690089809909DE7C1
:10F620000321E2E70CB0BDE8F08700000060004075
:10F63000A022002000F000F8BFF34F8F05480168BA
:10F64000054A01F4E06111430160BFF34F8F00BF31
:10F65000FDE700000CED00E00400FA052DE9F041A3
:10F66000324F00254FF48A782E464146384601F045
:10F6700049FF2F4CA0B14146384601F048FFE068F1
:10F6800070B1D7F84015814203D1E18800EB8106C3
:10F6900000E00646C7F84065607940F004006071FC
:10F6A0004FF482784146384601F02CFFB8B141460C
:10F6B000384601F02CFFA06888B1D7F83815814290
:10F6C00002D1E18800EB8100C7F83805617941F08B
:10F6D000020161710A0701D5CA0711D00546607998
:10F6E000C10711D0810709D5410707D520F00600D1
:10F6F0006071010710D520F008006071BDE8F0814D
:10F7000021F008006071EAE755EA0600F6D0E288C9
:10F7100031462846236805E0D7F84015D7F8380564
:10F72000E2882368BDE8F04118470000005002401D
:10F73000F822002000F01F020121914040098000C2
:10F7400000F1E020C0F88012704700F01F02012194
:10F7500091404009800000F1E020C0F8001170479E
:10F7600000F01F02012191404009800000F1E020DB
:10F77000C0F8001270474907090E002806DA00F0A9
:10F780000F0000F1E02080F8141D704700F1E02028
:10F7900080F800147047000070B54FF4847630464E
:10F7A00001F0BCFE1A4D1B4C60B1304601F0BEFEAC
:10F7B0002968E0688142218900D120696268BDE83A
:10F7C000704010474FF48076304601F0A7FE78B1C4
:10F7D000304601F0ABFE012060702A680C49E068F9
:10F7E000091D824200D12069228928600A6070BD0B
:10F7F0004FF48275284601F091FE0028F7D0284684
:10F8000001F094FE0249002060390860607070BD0C
:10F8100060D501400823002010B501F017FABDE8BB
:10F82000104001F007BC00000149024800F0DABFB7
:10F830001C23002000C001400149024800F0D2BF53
:10F8400024230020001002400149024800F0CABFF2
:10F850002C230020002002402DE9F8432A48DFF83D
:10F86000A4804FF480720168284E002589B1D8F831
:10F87000041311F0010F0CD00560006800902448BB
:10F8800062F30F040068726860F31744394620463B
:10F8900090471D484FF48271001D0268BAB1D8F834
:10F8A000042312F0020F12D005600068009018487F
:10F8B00061F30F040C30006860F31F4414483C30BF
:10F8C0000068726860F30F073946204690470E487B
:10F8D0004FF48472083041460368002B10D0D1F8F1
:10F8E000041311F0040F0BD005600068009020464F
:10F8F00062F30F00726801B03946BDE8F04310476B
:10F90000BDE8F88300200140002101406021002073
:10F910000C2501401CB510480E4903680022002B3D
:10F9200016D0D1F8081311F0010F11D00260006851
:10F9300001900A4800688DF800006946084801F007
:10F9400030FE074801F017FE002801D001F03EFC10
:10F950001CBD000000D0004000D1004008D5004090
:10F96000901D020003220021014801F039BC000073
:10F9700000B0004007480021C0F84011C0F8441111
:10F98000C0F84811C0F84C11C0F80011C0F80411BB
:10F9900002F066B80010014004220121014801F084
:10F9A0001FBC0000004002402DE9FE434FF4827866
:10F9B000404601F05BFE504F0025504C012600B33D
:10F9C000404601F05BFE94F82B0010B194F82C1027
:10F9D000D1B18DF80050616801912189ADF808100E
:10F9E000E16829B16160A18A2181E56018B103E075
:10F9F00084F8295000E03E6021686846884784F812
:10FA00002C5094F82B0098B34FF48077384601F0CF
:10FA10002DFE68B3384601F031FEE28A72B194F8E7
:10FA20002A108A4210D9A2EB010080B2E08222891A
:10FA3000A2EB0000626802EB40000BE0208994F822
:10FA40002A10A0EB0100F0E707D1E06828B184F8A4
:10FA50002C60E58201F002FE04E08A4202D184F8C3
:10FA60002C60E582404601F009FE2348001D066037
:10FA70004FF48877384601F0F9FD50B1384601F06F
:10FA8000FDFD84F8295002208DF8000021686846A9
:10FA900088474FF48A77384601F0E8FD30B13846A0
:10FAA00001F0ECFD84F82950BDE8FE834FF00048DA
:10FAB0004FF48C7927691CE0B7FA87F028FA00F137
:10FAC00009EB80058F43284601F0D0FD88B1284618
:10FAD00001F0D4FDA5F58C75E8088DF8040045F318
:10FAE0008000401C8DF800608DF805002168684694
:10FAF0008847002FE0D1D7E7007000406423002042
:10FB000001480068004700002C21002001480068DF
:10FB10000047000034210020014800680047000031
:10FB20003C21002001F018BF02480188012001F0AB
:10FB3000A7BB0000A823002002484188022001F052
:10FB40009FBB0000A823002002488188032001F009
:10FB500097BB0000A82300200248C188042001F0C0
:10FB60008FBB0000A823002002480189052001F076
:10FB700087BB0000A8230020F0B598480023021D91
:10FB800001780125101D4FF08056062907D1147801
:10FB9000240704D10478C4F30314032C02D00629EB
:10FBA00004D00FE08F4F8E4C7C670EE01478240752
:10FBB00008D10478C4F30314032C06D0042C04D019
:10FBC000052C02D0062907D00EE0D6F84442864F15
:10FBD000C4F342343C6002E01478240704D1047872
:10FBE000C4F30314032C02D0062906D011E07F4C85
:10FBF000276827F0807727600EE01478240708D163
:10FC00000478C4F30314032C06D0042C04D0052C70
:10FC100002D006290AD011E04FF08044C4F80C311C
:10FC2000C4F81031704C241F236002E014782407BC
:10FC300004D10478C4F30314032C02D0062905D0A0
:10FC40000CE0694F032464373C600AE01478240711
:10FC500004D10478C4F30314032C02D006290DD078
:10FC600014E0634F05243C60614C78342560604C9F
:10FC7000083423603F243F1D3C6002E014782407D1
:10FC800004D10478C4F30314052C02D0062957D0FC
:10FC900068E058490968584A11605649091D0968C1
:10FCA000121D1160534908310968121D1160514934
:10FCB0000C310968121D11604E4910310968121D7E
:10FCC00011604C4914310968121D116049491831FD
:10FCD0000968494A2032116046491C310968121DE1
:10FCE0001160444920310968121D116041492431D5
:10FCF0000968121D11603F4928310968121D116001
:10FD00003C492C310968121D11603A4930310968AB
:10FD1000394A40321160374934310968121D116087
:10FD2000344938310968121D116032493C31096883
:10FD3000121D11602F4940310968121D116002E047
:10FD4000117809070ED10078C0F30310032803D0FF
:10FD5000042801D0052805D1D6F85802274900F01B
:10FD60004F00086021487438016841F47001016057
:10FD7000BFF34F8FBFF36F8F4FF01021D1F8000208
:10FD8000002803DBD1F80402002822DA1C4A15609F
:10FD90001C480468002CFCD01524C1F800420568FA
:10FDA000002DFCD0C1F8044201680029FCD013608A
:10FDB00001680029FCD0BFF34F8F0C48F038016870
:10FDC000114A01F4E06111430160BFF34F8F00BF9E
:10FDD000FDE70F490D480860F0BD0000E00F00F09E
:10FDE0000DF0ADBA00C007403C050040FCED00E05E
:10FDF000105600400404001020C50040E40E0040EE
:10FE000004E5014000E401400400FA050090D0033D
:10FE1000C421002004220249024800F032BD000043
:10FE2000B42300200080004004220249024800F070
:10FE300028BD0000C0230020009000400422024999
:10FE4000024800F01EBD0000CC23002000A00040AE
:10FE500006220249024800F014BD0000D823002009
:10FE600000A0014006220249024800F00ABD00003D
:10FE7000E423002000B001400448017F0448002929
:10FE8000024901D001F0DBBE01F04ABEF0230020A0
:10FE900000200040094882B0D0F804034FF0000170
:10FEA00010F0010F07D00648016000680090054877
:10FEB000406802B0004702B07047000000000140F7
:10FEC000000101407821002002E008C8121F08C18B
:10FED000002AFAD170477047002001E001C1121FCB
:10FEE000002AFBD17047000070B50024064D06E0E3
:10FEF0006868012110F8340000F0FCFE641C2878CA
:10FF00008442F5D3002070BD84210020F8B5154649
:10FF10000C460646052A01D20720F8BD00F0D0FFA6
:10FF200018B900F09FFF0028F7D1104900204E605B
:10FF30000C70C1E902500E4D08610DE006EBC400E3
:10FF40006968009181788DF801100078094A694646
:10FF500000F022FF0028E0D1641EE4B2EED2BDE83A
:10FF6000F840054A0021024800F008BA8421002028
:10FF7000A41D02008D070200ED060200BFF34F8FA3
:10FF800005480168054A01F4E06111430160BFF3CF
:10FF90004F8F00BFFDE700000CED00E00400FA0504
:10FFA0000EB500210091CDE901106A4644F201002E
:10FFB000FFF7E4FF0EBD000030B542680B4C13792B
:10FFC000E15C0120FF290ED0FE290DD012684FF40C
:10FFD000A86505EB81015158054A52F8232091424A
:10FFE00002D1FF20E054002030BD00009921002004
:10FFF0003024002003681B8B9BB253436422B3FB65
:020000040002F8
:10000000F2F292B2AFF3008070B504460068164673
:100010000D4690F8212001EB450100EB8101022AF9
:1000200001D0082070BD4968B14205D1C16909B34A
:100030006068007988471DE02046FFF7BDFF08B1E2
:10004000112070BD61680C4AFE2009795054324677
:100050002946204601F0B6FB2068C06950B16168AE
:10006000064A0220097902EB4101485502216068E5
:1000700001F03AF9002070BD9921002044240020AD
:100080002DE9F84F07688946054601EB490897F8BE
:1000900021001E46924607EB880410B10820BDE8F7
:1000A000F88F4FF0000B3248C4F804B0A672006815
:1000B00000900A22296802EB8800085C40B1002009
:1000C0008DF801006946504600F004FFB0B901E028
:1000D0000120F5E747F828A04FF001084FF0A041B4
:1000E00008FA0AF016B1C1F80C0501E0C1F80805DC
:1000F0000027E019083000F0C7FF08B10420CEE760
:100100007F1CFFB2022FF4D3207A01F00FF8607A3F
:1001100001F00CF8206836B100F0E0FD06462068DA
:1001200000F07CFF05E000F079FF0646206800F053
:10013000D5FD07464946686801F0C7F80146207AB0
:10014000324600F0D1FF0221686801F0BEF8014696
:10015000607A3A4600F0C8FF84F80B806968054A67
:10016000097902EB410202F809B0002097E700008C
:10017000AC1D0200442400202DE9F0470025DFF8E3
:10018000689007680446A846626805EB450007EBDF
:100190008006137909EB430202F80580F17A71B108
:1001A0000A22216802EB8000085CD8B10021306887
:1001B00000F0FEFE306800F0E9FEC6F804806D1C19
:1001C000022DE1D36168094AFF2009795054606823
:1001D00001F066F8606801F0A7F8022087F82100B6
:1001E000BDE8F0870121E2E74424002099210020A6
:1001F0002DE9F74F84B00E00044607D0256895F826
:10020000210028B1082007B0BDE8F08F0B20FAE7E5
:1002100000F0D0FF18B1852801D00420F3E700F0EA
:100220004FFE20B900F01EFE08B10320EBE74E4858
:10023000DFF838A1002100784FF0010BC0F3031064
:10024000032821D08AF800B0FF2285F82020002062
:1002500091464FF0FF3C00BF00EB400705EB8703E2
:10026000401CD97283F8089083F80990C0B245F811
:1002700027C00228F0D305F1200000F005FF30B1BF
:10028000204601F039FAC8E78AF80010DCE70027B9
:1002900056F82720501C12D0F0193946037A204610
:1002A000FFF7EEFE5FEA000804D0204601F024FAD2
:1002B0004046A8E7002239462046FFF7A5FE7F1CEE
:1002C000FFB2022FE4D3002009224FF4805331699A
:1002D00001E04908401C994201D39042F9D39AF8B1
:1002E000001009B100B90120214AD2E90112CDE97B
:1002F00001128DF8040060681E4A01A9007902907D
:10030000606801F035F8070004D0204601F0F4F9E8
:10031000384678E7606831690068D0F810050E014A
:10032000C640AE61606800F0BBFFCDF800B05F462C
:10033000042332460221606801F004F8022160685B
:1003400000F0CBFF0698E86160680B49074A007926
:10035000521C41F820406168097902F8019085F843
:10036000217000204FE70000E80F00F098210020E6
:10037000AC1D02006D17020050240020074B5B6883
:1003800023B12AB120B10068037C1BB1082070475B
:10039000072070474174426100207047B02100205F
:1003A0002DE9F047074698461446894690074FF0D6
:1003B000000526D12CB301F07DFA134E06F1100092
:1003C000C6F80C800570457080F802904460756036
:1003D000357075701420FFF7ADF907211420FFF771
:1003E000CAF91420FFF7B1F9084807600721112066
:1003F000FFF7C1F90548001F0068B0600020BDE8A4
:10040000F0870720FBE70000A0210020081501402D
:100410002DE9F843DFF87090D9F804305BB350B39E
:10042000052902D20720BDE8F88343691BB3437C4A
:10043000012B22D000270446002588461646284670
:1004400000F036F8684601F073FCC0B1012101707C
:100450000E4944600968C0E90218C0E904769DF8B5
:10046000000089F80100002000F024F81420FFF7B4
:1004700077F92846D7E70820D5E70F46DBE70425BC
:10048000002000F017F8F4E7B02100200415014027
:100490000649496839B130B1416921B1002101747F
:1004A000022101F0BDBA082070470000B0210020F1
:1004B00000F002B800F008B872B602480168491CA2
:1004C00001607047C021002003490868401E086091
:1004D00000D162B670470000C021002010B5194B52
:1004E0000D2810D00E2816D00F281FD0102809D1A3
:1004F000012907D113480A220021001DFFF77AFDC8
:100500001128F7D010BD0129FCD10022C9021868BA
:10051000FFF77EFF04E00129F4D11868FFF7B8FF68
:100520000028EFD0BDE81040FFF73ABD0129E9D11E
:10053000044805220021001DFFF75CFD1128F7D0BB
:1005400010BD0000601D020010B514480D210322EB
:100550000170002141708270114B0E2443600472BF
:10056000417282720F24C360047441748274102437
:1005700043610476417682760A220421C361FFF743
:10058000C5FC08B1FFF70CFDFFF7AEFC002803D057
:10059000BDE81040FFF704BD10BD0000E8210020B9
:1005A000DD04020005494FF0FF32082841F8202001
:1005B00002D3084480F8482070470000A0220020A1
:1005C000F0B54FF0FF3512B10023082601E00823F3
:1005D0000C260C4C05E000BF54F823707F1C04D09F
:1005E0005B1CB342F8D32846F0BD26185DB286F8EE
:1005F000305044F82310002AF5D1E11881F8480062
:10060000F1E70000A02200200249084490F93000E0
:1006100070470000A022002070B5084C050009D0EA
:1006200010342168002907D00868206049682846EE
:100630008847F6E70834F4E770BD00008C220020FC
:100640002DE9F05F26484168F1B3DFF898B00E68F5
:100650008146DBF8004087688078E11B21F07F4508
:10066000ED1CB0B9DFF880804FF48030C8F8440347
:10067000C8F804031120FFF75DF81120FFF765F8B3
:100680004FF0010AC8F800A02F2000F047FA89F8BF
:1006900002A0B54200D23546124BE8193C3320F097
:1006A0007F401860DBF800105A46091B21F07F419B
:1006B000001B20F07F40C91C81420FD910681860D0
:1006C0002F2000F02BFA00E004E0BDE8F05F1120DD
:1006D000FFF746B8BDE8F05F01F0ECB8BDE8F09F69
:1006E000A021002004150140001001402DE9F04137
:1006F00000260125144C22E06068226900EBC60741
:10070000387805FA00F1114217D08A43226100F0CF
:100710009FFB02463878E36805FA00F1194002FAB7
:1007200000F3994209D17978012901D0012100E033
:10073000002151407A6802B19047761CF6B22078C9
:100740008642D9D3BDE8F081842100200E4910B53E
:100750000A784C780023A24212D0521CD2B20A70FE
:10076000022A00D10B70084A0B78183252F8232065
:1007700002608868104420F07F408860012010BD2E
:100780000360002010BD0000A02100202DE9F041F1
:10079000124E07460125BD403068FFF779FE00285C
:1007A0000DD10F4C2069284207D1384600F050FB8C
:1007B0000028E06805D0284304E0A8432061BDE894
:1007C000F081A843E060206928432061A168306877
:1007D000BDE8F0410022FFF71BBE0000A41D02008F
:1007E0008421002070B50C460546102100F0BDFEA6
:1007F00068B14FF488763146284600F0ABFE30B140
:100800003146284600F0ABFE2168012088472021B0
:10081000284600F0AAFE68B14FF48A763146284691
:1008200000F098FE30B13146284600F098FE21686D
:10083000022088478021284600F097FE68B14FF4D7
:100840008E763146284600F085FE30B13146284686
:1008500000F085FE2168002088474FF482763146FB
:10086000284600F077FE00280AD03146284600F0DE
:1008700076FE012020712168BDE870400320084702
:1008800070BD2DE9F84300251646884604462F46DC
:1008900014E04FF4A07000EB85004FF48031225833
:1008A000A9404AB1D4F804230A4205D02750215860
:1008B0000091D8E9002190476D1CEDB2B542E8D314
:1008C000BDE8F8830121814003484068014201D01E
:1008D00001207047002070475821002001218140ED
:1008E000080300D0012070470268134602E08A42E4
:1008F00004D01268002AFAD10B6001607047000032
:100900002DE9F043264CA4F110092278D9F804808F
:1009100099F80350404694F801C0D9F8086031E0D6
:1009200002EB42036168521C01EBC301A378D2B20F
:10093000934200D100220B78022B02D0032B21D14D
:100940001DE003464F68194603E0B94203D00B4649
:10095000C969B9B1F9E7A9B18B4205D1C06918B924
:10096000104E0125B56000260F68C969D96149B1EB
:100970000B683B440B6005E00174C06900E0002196
:100980000028F9D19445CBD1C9E9010689F8035073
:10099000404502D00120BDE8F0830020FBE70000C5
:1009A000B0210020001001402DE9F0412A4F0446FB
:1009B000002607F11005D7F804803EE002D020465B
:1009C000E4691DE02878696800EB4002401CC0B271
:1009D00001EBC2012870AA78904200D12E700A78EB
:1009E0004868012A2BD1027C4ABB8A684260CA68E7
:1009F00082600A69C26049698161F97801B1466023
:100A00004368BA68DFF854C0991A21F07F41614504
:100A100002D28268114406E0D11A826821F07F4137
:100A20008A4202D9511A016000E006604660012145
:100A300086600174C66100F0D5FF002CBED1287815
:100A400069788842BED17968414502D00120BDE86D
:100A5000F0810020FBE70000A0210020FFFF7F00C5
:100A60001D4A86B003214FF0A040C2F800170124B0
:100A70006104C0F8081500F097F808B1FFF790FA84
:100A8000002000F0B3F80023144A04210F20FFF7E0
:100A900087FC08B1FFF784FA114A01211148FFF7DA
:100AA0006DFC08B1FFF77CFAFFF74EFD0D491422EB
:100AB0000C316846FEF7DAFC0A488DF808400A4A0D
:100AC0006946001DFFF794FB08B1FFF769FA054876
:100AD000001DFFF751FBFEE74400005008220020F4
:100AE0003B190200601D020061170200C20800F0FD
:100AF00007030120895C98400840704700F180405E
:100B00000068002800D00120704708B500F180403F
:100B1000002101600068009008BD000000283ED060
:100B20001F49204A096800BF00BF00BF00BF00BFC7
:100B300000BF00BF00BF91422FD000BF00BF00BF69
:100B400000BF00BF00BF00BF00BF00BF00BF00BFAD
:100B500000BF00BF00BF00BF00BF00BF00BF00BF9D
:100B600000BF00BF00BF00BF00BF00BF00BF00BF8D
:100B700000BF00BF00BF00BF00BF00BF00BF00BF7D
:100B800000BF00BF00BF00BF00BF00BF00BF00BF6D
:100B900000BF00BF00BF00BF00BF401EC3D17047F1
:100BA000C42100200024F40070B50E4C00252078EC
:100BB00008B1852513E00021A16061602161E16039
:100BC0004FF0E020D0F80001012610F0010F03D112
:100BD0000721002000F066F80348066026702846CA
:100BE00070BD00008C2200201805004070B5154D26
:100BF0000446A87838B114B1616801208847002004
:100C0000FFF756FC15E00020FFF752FC24B10D4819
:100C100021461030FFF768FEE86850B94FF4827043
:100C2000FFF773FF02204107C1F8040306490120C2
:100C30000860E868401CE860BDE870400020FFF7ED
:100C400039BC00008C220020080000402DE9F04152
:100C50004FF480773846FFF751FF0124104EA50767
:100C600048B13846FFF751FF0120C5F808037470FA
:100C70000020FFF7D1FC4FF482773846FFF73EFFA4
:100C800000280BD03846FFF740FF0220C5F80803C4
:100C9000B470BDE8F0410120FFF7BEBCBDE8F081B3
:100CA0008C2200204907090E002806DA00F00F0206
:100CB00002F1E02282F8141D03E000F1E02282F844
:100CC000001400F01F02012191404009800000F152
:100CD000E020C0F88012C0F80011704710B5FFF78F
:100CE00093FC602101EB80000149C0B2084410BDB3
:100CF000006000402DE9F0418846054600F0E4FC24
:100D0000234E002828461AD0FFF77EFC304490F886
:100D100048008009032802D001280ED007E04FF0D8
:100D2000A040D0F81005E84010F0010F05D00321D5
:100D30002846BDE8F04100F0AEBB0221F8E700F024
:100D4000CFFC002822D02846FFF75EFC04464FF473
:100D5000807000EB84000F4F81B207EB8400D0F865
:100D6000102542F00102C0F81025084600F0B8FB3B
:100D7000B8F1000F0AD02846FFF746FC56F82000CD
:100D8000002803D00120A040C7F80403BDE8F0818B
:100D9000A0220020006000402DE9FC41DFF8A48083
:100DA000044608EB0400002790F930001346C017F2
:100DB0000E46401C01D0082741E0F2781946204633
:100DC000FFF7FEFB0546401C38D0B07850B14FF01D
:100DD000A04000EB8400D0F8001721F00201C0F819
:100DE000001707E000217378204600910A46019120
:100DF00000F036FBF078C0B11348317800EB850085
:100E0000D0F81025114B1A40C0F810254FF4F852B5
:100E10004FF4403302EA042203EA01410A43D0F8C6
:100E200010150A43C0F8102509E008EB05003278D8
:100E300010F8481F41EA8211017000E0042738468B
:100E4000BDE8FC81A022002000600040FFE0FCFF24
:100E50004FF0A041D1F81015C14011F0010000D0B1
:100E60000120704770B5144D95F8540008B1082062
:100E700070BD0020411E2A18401CC0B282F83010FC
:100E80002028F8D300242046FFF78CFB641CE4B232
:100E90000C2CF8D307210620FFF704FF4FF4BE7097
:100EA00000F01EFB05494FF00040C1F8040301208B
:100EB00085F85400002070BDA02200200060004092
:100EC000034890F85400002800D00120704700002B
:100ED000A02200202DE9FC41044629480F46204469
:100EE000002590F93010491C01D0082541E0B9785F
:100EF000002651B3012200212046FFF761FB411C6F
:100F000021D083001F483A7818447978D0F81035FA
:100F1000DFF874C003EA0C03C0F81035D0F81035C0
:100F20004FF4F85C0CEA042C43EA0C034FF4403C09
:100F30000CEA02424FF4801C0CEA01510A431343AD
:100F4000C0F8103504E0042513E0FE2180F83010CD
:100F50007A780120A0404FF0A041012A0CD0C1F8BE
:100F60000C0501222046009600231146019600F050
:100F700077FA2846BDE8FC81C1F80805F1E70000D2
:100F8000A022002000600040FFE0ECFF064908447A
:100F900090F93000810005480844D0F8101541F060
:100FA0000301C0F810157047A02200200060004027
:100FB00001B10121064A104490F930008200054831
:100FC0001044D0F8102561F31452C0F81025704772
:100FD000A02200200060004010B5044600F080FB15
:100FE00070B12046FFF710FBC0B2FFF7DBFA2046D6
:100FF000FFF70AFB074A002102EB8000C0F810153A
:101000000549FF20214481F830002046BDE810400A
:1010100000F038BA00600040A022002010B5FFF7B1
:10102000F3FA302101EB80000149C0B2084410BD41
:101030000060004070B54FF08040D0F80443114D7F
:10104000600706D54FF4847000F07AFA08B168683A
:101050008047A00607D54FF48A7000F071FA10B1EE
:10106000A9680020884760060AD54FF48C7000F00C
:1010700067FA002804D0A968BDE87040012008473D
:1010800070BD00004C2100202DE9F0470427144ECC
:10109000814600244FF001080020FFF709FA08FA02
:1010A00004F5354203D02046FFF70CFC58B1002070
:1010B000FFF700FA27B104F10104AE43E4B2EBD12B
:1010C0003846BDE8F087074908FA04F000274A6867
:1010D0001043486089F800403846FFF7EBF9EFE726
:1010E000FFFF0F00582100202DE9F04114460D00AC
:1010F000074612D08CB10026FFF7F0FB78B13846D6
:10110000FFF7E0FB68B1084800EBC700C0F81055D6
:10111000C0F814453046BDE8F0810E20FBE70726F5
:10112000F8E70826F6E7000000F0014070B5044635
:1011300001260025A640FFF7D1FB18B12046FFF796
:10114000C1FB18B102480660284670BD0825FBE7C0
:1011500008F5014070B5044601260025A640FFF7BA
:10116000BDFB18B12046FFF7ADFB18B10248066081
:10117000284670BD0825FBE704F5014070B504461C
:101180000026FFF7ABFB78B108480125A5400560B4
:101190000020FFF78DF906484168A943416000200F
:1011A000FFF788F9304670BD0726FBE708F50140D8
:1011B000582100200448017809B185207047012199
:1011C00001700020704700005821002003490120D1
:1011D000C1F80803091D08607047000000D00040F6
:1011E0002DE9F0479146884604464FF480354FF488
:1011F000A0760027DFF884A016E000BFD4F804032F
:1012000028420DD0A05958B1C4F84853C4F8085327
:101210003146204600F01BFA5AF82810F8B28847E9
:10122000361D6D00B6B27F1C4F45E7D3D4F80403DA
:101230004FF4807110F0010F09D0D4F8000130B1E3
:10124000204600F004FA5AF8281004208847D4F801
:1012500004034FF4827110F0020F0CD0D4F8040193
:10126000002808D0204600F0F2F95AF82810BDE80E
:10127000F04705200847BDE8F087000070210020F6
:10128000064A02EB400232F8023D8B431380034AC8
:10129000143A02EB800252F8042C1047A8230020D5
:1012A00000680121C160704730B54FF48034056893
:1012B0008C4013B1C5F8044301E0C5F80843006849
:1012C00000EB8100C0F8402530BD02684FF4A070EB
:1012D00000EB810080B21044704702684FF4803008
:1012E0008840C2F80803704718B54FF4A07202EBAB
:1012F0008102036892B200249C509A5800920268BE
:101300004FF480308840C2F8040318BD0268012100
:1013100011610079034A00EB400002EB800001728A
:1013200070470000B4230020016801220A600079A0
:10133000034A00EB400002EB80000221017270477B
:10134000B4230020F0B40468049E40F20115D4F8E0
:1013500000728D40AF43C4F800720468D4F80052A4
:101360001D43C4F800523346F0BCFFF79DBF000098
:10137000F8B504460D460079204900EB400001EB2A
:101380008006307A08B10820F8BD3AB1326068684A
:101390007060002003464FF4A07709E00720F8BDF5
:1013A000226807EB800153505158401CC0B2009195
:1013B00061798142F4D82068E978000B40B2FFF7E8
:1013C00071FC20686978D0F8042561F30102C0F847
:1013D00004252068A978D0F8082561F30102C0F837
:1013E000082520682978D0F8102561F30302C0F899
:1013F0001025012030720020F8BD0000B423002029
:1014000030B5034600680121000B40B200F01F0216
:1014100091404009800000F1E020C0F88011196877
:101420004FF0FF30D1F800220024C1F800421968C3
:10143000C1F808031879094D00EB400005EB800066
:10144000007A022802D11846FFF760FF187900EBF6
:10145000400005EB8000047230BD0000B423002082
:1014600070B541EA4201DDE904564FF0A04441EA7B
:10147000830141EA052104EB800041EA0641C0F8FE
:10148000001770BD1CB5002100910B46012201918F
:10149000FFF7E6FF1CBD4FF0A04202EB8000D0F842
:1014A000002722F44032C0F80027D0F8002742EA93
:1014B0000141C0F80017704718B5084B6C4601444D
:1014C0001B68009306E000BF54F82030D3F81035B5
:1014D000401C08C28142F7D818BD0000881D0200D8
:1014E000034908B50844002101600068009008BD68
:1014F0000060004002494058012800D00020704799
:10150000006000404058002800D00120704708B516
:10151000002242504058009008BD00000249405847
:10152000002800D00120704700D00140034908B5D1
:101530000844002202600068009008BD00D001400D
:1015400000F180410868002210B101200A60704754
:10155000104670474058002800D00120704708B559
:10156000002242504058009008BDD0F804030840C3
:1015700000D001207047016880684A68824201D229
:10158000521C00E000220868824201D1012070470D
:10159000002070478068884201D9481C70470020AD
:1015A00070472DE9F04104464FF000080E464046D2
:1015B000FEF77EFF2046FFF7DEFF070009D0207C04
:1015C00038B14FF004080020FEF774FF4046BDE834
:1015D000F0812068416820460D46FFF7DBFF216857
:1015E000486037B1206801682046FFF7D3FF2168C3
:1015F0000860E268012A14D0022A16D0042A19D001
:10160000082A1CD06068314605FB0200FDF72EFF5A
:10161000204600F043F921688A688242D3D288606C
:10162000D1E7616830784855F2E76168308821F881
:101630001500EDE76168306841F82500E8E7D6E974
:101640000001626802EBC502C2E90001E0E708B5EB
:10165000002242504058009008BD0000024A10602D
:10166000101D0160704700002C7600400249405870
:10167000002800D00120704700700040034908B5E1
:101680000844002202600068009008BD007000401D
:101690004058002800D00120704708B50022425071
:1016A0004058009008BDD0F80403084000D0012045
:1016B00070474058002800D00120704708B500222C
:1016C00042504058009008BD0449084490F9300049
:1016D000082801DB0120704700207047A02200206D
:1016E0000449084490F93000082801D201207047CD
:1016F00000207047A02200202DE9F05F0668834695
:1017000096F82000FFF73AFD002505EB4508002478
:101710004FF0FF0A06EB880707EB040999F8080069
:10172000FF2803D0FFF72AFD89F808A0641CE4B263
:10173000022CF1D356F82800411C05D0FFF74CFCD1
:101740004FF0FF3146F8281000206D1CEDB2F87202
:10175000022DDAD3DBF80400BDE8F05FFFF750BEDE
:101760000149012008707047282100202DE9F0412F
:1017700013480D460127002400F10C0800EB450634
:10178000305D28B1305D401E3055305D70B10027AE
:10179000641CE4B2022CF3D3002F0ED058F82500BD
:1017A00002214068BDE8F041FFF797BD58F82500D9
:1017B0000068C16928468847EAE7BDE8F081000073
:1017C000442400202DE9F04788460546076801EBD0
:1017D000480007EB8004164697F82000FFF7A6FCA8
:1017E000DFF8B0904FF0FF0A7EB1B869B04211D86F
:1017F00086B2207AFFF79AFC94F80900FFF7AAFC5A
:1018000069680A7909F802A040E0607AFFF78EFC67
:10181000207AF3E76268824228D03AB3B24225D9EF
:10182000002303216868FFF73FFDA07A00282068A5
:1018300002D0FFF753FA01E0FFF7F0FB82460321E5
:101840006868FFF742FD014617F8200F5246FFF780
:101850004BFC3878FFF77EFC69680A7909F802804A
:1018600068680D49007941F8206003E069680A79E9
:1018700009F802A00023324641466868FFF714FDCC
:10188000207AFFF767FC607AFFF764FC6660BDE8CA
:10189000F08700009921002030240020016806C94B
:1018A0008A4201D3501A70478068401A401C104485
:1018B0007047000070B5012670044FF0E02100254C
:1018C000C1F88001084C4010C4F84803C4F808036C
:1018D00066602F20FFF722F9A660044C2F20A56038
:1018E000FFF71CF9A57070BD00100140A021002079
:1018F00070B50546C87D0C4600284FF48471284613
:101900000AD0FFF7CAFED5F81805627EE168885450
:10191000607E401C607670BDFFF7BFFED5F81805ED
:1019200070BD1FB501238DF800308DF808100192AD
:10193000D0E90012684690471FBD4FF0A040D0F894
:1019400004154FF400328A43C0F8082501F4003131
:10195000C0F80C15704700002DE9F84F204C002509
:101960006846D4E901B6FEF7F1FE8046FEF7C8FFEF
:101970000746A946B8F1000F25D00023009ACC46AF
:10198000606819E007680146974202D9BA1A0260F6
:1019900014E0C1F800C0D1F80C80D21BC8693B44E8
:1019A0008A46B8F1000F07D0F71827F07F47C1E942
:1019B0000178CAF81C500D460028E3D16060284623
:1019C000FEF7F2FF04E02846FEF7EEFF00B917B17C
:1019D0005846FEF735FE84F80390BDE8F88F000006
:1019E000A02100200D4B10B5596831B102680C6878
:1019F000A24204D8A21A0A60C161586010BD0B4609
:101A000003E00B46C969121B21B10C689442F8D35C
:101A1000A41A0C600260C161D86110BDA021002031
:101A2000F8B5064600240D462046FEF741FD6846FF
:101A300000F07EF968B10570084946609DF8000025
:101A400048700020FEF736FD1420FDF789FE204681
:101A5000F8BD04240020FEF72DFDF8E7B02100209A
:101A60002DE9F0411D4D6C68002C35D01C48002735
:101A70000068A968B846401A20F07F462068B04246
:101A800015D82246361A0744E469107C68B182F8FA
:101A90001080EB6833B1D2E90501984728B1FEF711
:101AA0007FFA02E0D2E905108847002CE6D12978B8
:101AB0006878814206D1401CC0B26870022801D10A
:101AC00085F8018005486978183040F82170BDE834
:101AD000F0411420FDF744BEBDE8F081A0210020B4
:101AE0000415014070B50C4605464FF48E71FFF7A2
:101AF000D4FDA18AA068415CA08A401CA082C5F8E0
:101B00001C1570BD1FB500228DF800208DF808103F
:101B1000816801918275D0E90012684690471FBD27
:101B20002DE9FF470C4605464FF40071FFF7BBFD5A
:101B300001274FF40178002618B34FF492794946F3
:101B40002846FFF7A5FDE0B149462846FFF7A5FD69
:101B5000C5F80883A07E00B96F6002208DF80000F0
:101B6000D5F88004C5F880040390E07D8DF8080066
:101B7000E0680190E6752676D4E900126846904741
:101B800027E004212846FFF78EFD10B34FF484713F
:101B90002846FFF77DFDE0B121462846FFF7A8FE65
:101BA000E07D617E884214D1207E38B1617EE2689A
:101BB000E0752069E0602676667607E0A07E00B9D1
:101BC0006F60C5F80883E675617EE2682046FFF71E
:101BD000A8FE4FF48E7841462846FFF759FD88B19C
:101BE000A08AA17D884204D221462846FFF77AFFC9
:101BF00008E041462846FFF750FDA17D11B120467F
:101C0000FFF780FF4FF4A27841462846FFF740FDDA
:101C1000002812D041462846FFF73FFDA07E00B1C4
:101C20002F60E07D002808D0E675617EE26804B090
:101C30002046BDE8F047FFF774BEBDE8FF872DE9F9
:101C4000FF410C464FF4927705463946FFF731FDC8
:101C50000026C0B139462846FFF730FD02208DF836
:101C60000000D5F88004C5F880040390D5F83C0541
:101C70008DF80800E0680190E6752676D4E9001238
:101C80006846904724E04FF4887739462846FFF7A6
:101C900010FDE8B139462846FFF710FDD5F83C05A0
:101CA000C1B2E07D884213D1207E60B1E268D5F8F0
:101CB000000220F02000C5F80002207EE0752069B7
:101CC000E060267601E0E675E2682046FFF729FE2F
:101CD0004FF4A27739462846FFF7EBFC68B1394646
:101CE0002846FFF7EBFCE07D38B1E675D5F83C05FA
:101CF000E268C1B22046FFF714FE4FF490763146F9
:101D00002846FFF7D6FC00280FD031462846FFF7BB
:101D1000D5FCA07D002808D0D5F84C0504B0C1B290
:101D20002046BDE8F041FFF7EDBEBDE8FF810000B1
:101D30000A4A10B553789478591CC9B28C4200D124
:101D4000002114788C4201D1002010BD0170506830
:101D500003EB430100EBC10010BD0000B0210020E7
:101D6000C821002068220020801D0200040000001D
:101D7000FFFFFFFF0000000001000000204E0000F8
:101D80000090004001040000000000500007000027
:101D90005823002034230020200000000100000010
:101DA00000000000102400200300000003000100D8
:101DB0000000000700000000D81D020028210020BC
:101DC000A0000000C8FE0100781E0200C82100200B
:101DD000A0220000D8FE010000000000000000006A
:101DE00000000000000000000000000000000000F3
:101DF00000000000000000000000000000000000E3
:101E000000000000000000000000000000000000D2
:101E100000000000000000000000000000000000C2
:101E200000000000000000000000000000000000B2
:101E300000000000000000000000000000000000A2
:101E40000000000000000000000000000000000092
:101E50000000000000000000000000000000000082
:101E60000000000000000000000000000000000072
:081E7000000000000090D00307
:040000050001F40101
:00000001FF
