:020000022000DC
:10300000000001203D32020095320200973202009A
:10301000993202009B3202009D3202000000000043
:103020000000000000000000000000009F320200CD
:10303000A132020000000000A3320200A53202000B
:1030400049970200AB32020091B60200AF32020093
:10305000B1320200B3320200FDA10200B732020019
:10306000B9320200BB320200BD320200BF320200A0
:10307000C1320200C3320200C5320200C732020070
:10308000C932020089530200CD320200CF32020061
:10309000C9530200D3320200C1750300D7320200C7
:1030A000D9320200DB320200DD320200DF320200E0
:1030B000E1320200E3320200A7320200A73202002E
:1030C000E5320200E7320200E9320200EB32020090
:0C30D000ED320200EF320200F13202008B
:1030DC00364937480A1A02D0072291438D463549A2
:1030EC0035480A1A06D00722914381F30988022237
:1030FC0082F3148831483249324A00F045F832489C
:10310C003249334A00F040F832483349334A00F030
:10311C003BF833483349344A00F036F833483449E5
:10312C00344A00F031F834483449354A00F02CF870
:10313C0034483549354A00F027F8354835490022DE
:10314C0000F02DF834483549002200F028F83448B6
:10315C003449091A082903DB00220260043001609B
:10316C00314A90471F482049884205D002680430F4
:10317C0003B4904703BCF7E700208646EC460020DA
:10318C0000212A4A9047FEE7884207D0521A05D000
:10319C00037801300B700131013AF9D17047884244
:1031AC0002D002700130FAE77047000000000120E5
:1031BC0000F8002000000120000001203C970300D3
:1031CC00002D002018330020F4320200F4320200EB
:1031DC00087D03003C970300002D0020002D0020EB
:1031EC00A87E0300A87E0300A87E0300A87E03002F
:1031FC00A87E0300A87E0300A87E0300A87E03001F
:10320C003C970300549D0300183300201833002012
:10321C0018330020634600206446002064460020DA
:10322C0064460020644800206132020055D502003B
:10323C000F484FF00701884385460E4880470E48DB
:10324C00016841F470010160BFF34F8FBFF36F8FC2
:10325C00FFF73EBF09480A490A4A884207D0521A6A
:10326C0005D0037801300B700131013AF9D1704768
:10327C00000001208D55030088ED00E0F87D03006F
:10328C00502C0020002D0020FEE7FEE7FEE7FEE7B5
:10329C00FEE7FEE7FEE7FEE7FEE7FEE7FEE7FEE7FA
:1032AC00FEE7FEE7FEE7FEE7FEE7FEE7FEE7FEE7EA
:1032BC00FEE7FEE7FEE7FEE7FEE7FEE7FEE7FEE7DA
:1032CC00FEE7FEE7FEE7FEE7FEE7FEE7FEE7FEE7CA
:1032DC00FEE7FEE7FEE7FEE7FEE7FEE7FEE7FEE7BA
:0832EC00FEE7FEE7FEE700BF6C
:1032F40000B5A1B00590049103920293049805F0DF
:1033040016FC039B1593029B16930023179300232B
:103314008DF8603000231993229B1A9300231F9386
:103324000FA91F9B0822049805F0BCFC08231F93D7
:10333400119B1293109B9BB2ADF84C3000238DF877
:1033440050309DF83C3003F00303DBB2012B32D143
:103354000F9BC3F395231D939DF83C30C3F3C20325
:10336400DBB28DF84E309DF83C30C3F38003DBB202
:10337400002B14BF01230023DBB28DF84F30BDF8BE
:103384003C30C3F38313DBB21C931C9B9A0009A942
:103394001F9B049805F086FC1C9B9B001F9A1344FA
:1033A4001F9312AA09A915AB009313461C9A1D98E2
:1033B40000F050FF3BE09DF83C3003F00303DBB228
:1033C400022B34D1BDF83E30C3F389139BB21E9354
:1033D4009DF83C30C3F3C203DBB28DF84E309DF848
:1033E4003C30C3F38003DBB2002B14BF0123002362
:1033F400DBB28DF84F301E9B082B28BF08231B938C
:1034040007A91F9B1B9A049805F04CFC1F9A1B9B51
:1034140013441F931E9A1B9BD31A1E9315AB12AA17
:1034240007A81B9900F0B8FF1E9B002BE3D104985A
:1034340005F08CFB00BF21B05DF804FB82B0019065
:103444000091034B01221A7000BF02B0704700BF05
:103454005833002030B58DB003468DF807301A4B31
:1034640002AC1D460FCD0FC495E80F0084E80F0091
:10347400062302934FF0FF3303934FF0FF3304937B
:103484004FF0FF3305934FF0EB7308939DF807302B
:10349400002B01D00D4A00E0002202AB19460C4873
:1034A40007F00EFD0B900B9B0A930A9B002B04D094
:1034B400084A43210A9801F03DF9074A9DF807306C
:1034C400137000BF0DB030BD107F03004134020003
:1034D400002D0020A87E03005933002000B583B0DE
:1034E40001238DF807309DF807301846FFF7B2FF27
:1034F40000BF03B05DF804FB00B589B003900291EE
:103504000192019B8DF81F30124B00221A709DF816
:103514001F301A460299104807F03AFE0690069B9F
:103524000593059B002B04D00C4A5321059801F008
:1035340001F900BF0A4B1B78002B07D0054B1B7801
:10354400DBB283F00103DBB2002BF3D100BF09B07F
:103554005DF804FB58330020002D0020A87E0300F2
:103564005933002000B585B003900291054B0093B8
:103574004023054A02990398FFF7BAFE00BF05B03D
:103584005DF804FBFD3402001833002082B0019082
:1035940000BF02B07047000000B583B00190054839
:1035A40007F0E0FC0020FFF755FF00BF03B05DF813
:1035B40004FB00BF002D002082B00190019B01227A
:1035C4005A7200BF02B0704700B583B04FF0FF33AA
:1035D4000193FFF783FF0421084800F075FD019073
:1035E400019B002B03DA0649482008F05BFD0348E1
:1035F400FFF7E2FF00BF03B05DF804FB082D0020D5
:103604003C7F030000B583B001900091019B1B68CF
:103614001B6800990198984700BF03B05DF804FB4C
:1036240000B583B00190019B1B685B6801989847C3
:1036340000BF03B05DF804FB82B001900B468DF827
:103644000330019B9DF803201A7200BF02B070473B
:1036540082B00190019B1B7A184602B0704782B079
:103664000190019B01225A7200BF02B0704782B0E0
:103674000190019B5B7A184602B0704710B487B082
:1036840001900091019B009A53E8004F44EA020024
:1036940043E8000191F0000FF6D1059404900391E2
:1036A400049B184607B05DF8044B704710B487B00C
:1036B40001900091019B009A53E8004F04EA020034
:1036C40043E8000191F0000FF6D1059404900391B2
:1036D400059B184607B05DF8044B704700B583B0EE
:1036E400019001210198FFF7C9FF0346184603B072
:1036F4005DF804FB00B583B0019000210198FFF749
:10370400D5FF0346184603B05DF804FB00B587B047
:1037140001901F4BFF229A601D4B00221A601C4B24
:1037240000225A601A4B0022C3F81824184B0022B6
:10373400C3F81424164B002283F81C24154805F002
:103744005BF90490049B002B01D0049B1CE0124AFB
:10375400124BD31ADB080393002305930FE0059A59
:1037640013465B0013449B001A460D4B134402930B
:10377400059B9AB2029B1A80059B01330593059A17
:10378400039B9A42EBD30023184607B05DF804FB71
:103794002C340020A87F0300D07D0300687D030043
:1037A400502C0020024A034BD31ADB0818467047FA
:1037B400D07D0300687D030000B587B001900B46FF
:1037C4008DF803309DF80330002B23D0FFF7EAFF78
:1037D40004900023059317E0059A13465B001344F5
:1037E4009B001A460E4B13440393039B5B881A46B3
:1037F400019B1B689A4204D1019B059A1A6000231D
:1038040009E0059B01330593059A049B9A42E3D38F
:10381400052300E00023184607B05DF804FB00BF51
:10382400502C002000B585B001900B468DF8033074
:103834009DF8032001AB11461846FFF7BDFF034670
:10384400002B07D1019BDB00054A13440393039B20
:103854001B6800E00023184605B05DF804FB00BFB8
:10386400687D030084B001900B468DF80330019B02
:10387400DB00174A134402939DF80330013B032BEA
:103884001CD801A252F823F09D380200A53802008A
:10389400AD380200B738020002238DF80F3011E072
:1038A40004238DF80F300DE0029B1B798DF80F3047
:1038B40008E0029B5B798DF80F3003E000238DF85C
:1038C4000F3000BF9DF80F30184604B0704700BF9A
:1038D400687D030000B589B04148FFF7FFFE414809
:1038E400FFF7FCFE404B5B6807933F4B9B680493D8
:1038F400079A049B134002339B003B4A134404334E
:1039040006931BE0079B01330793069B5B88C3F375
:1039140089139BB21A46069B1B88C3F389139BB277
:1039240013441A46079B13440793079A049B1340B6
:1039340002339B002C4A134404330693069B1B78E2
:1039440003F00303DBB2002BDCD00023059311E06A
:10395400059B9B006A461A44079B591C07910499CE
:103964000B40214902339B000B445B681360059BA9
:1039740001330593059B012BEAD99DF80030C3F36D
:103984000103DBB2012B0CD0022B14D1BDF80230A1
:10399400C3F389139BB203339B08079A1344079319
:1039A4000FE0BDF80030C3F38313DBB21A46079B64
:1039B4001344079305E00D4940F24D1008F072FBE3
:1039C40000BF0848FFF796FE0390039B002B02D02C
:1039D400054A079B536000BF09B05DF804FB00BFB4
:1039E40044380020403800202C340020CC7F0300D1
:1039F40010B586B00390029101920093039B1B0CB7
:103A0400ADF81630BDF81640FFF7CCFE03469C42D5
:103A140004D325494FF4B27008F044FB009B5A1CB0
:103A2400089B1340BDF81620204902339B000B4429
:103A34005A60009A089B134002339B001B4A1344AC
:103A440004330493039B03F01003002B14BF0123DE
:103A54000023D9B2049A137861F382031370039B91
:103A6400DBB203F00703D9B2049A137861F3C503F8
:103A74001370019BDBB203F00F03D9B2049A1388CD
:103A840061F389131380029BC3F31501049A13682D
:103A940061F39F231360049A1378012161F30103F6
:103AA400137000BF06B010BDCC7F03002C3400207F
:103AB40000B58BB001900091019B0233089302235F
:103AC400079301238DF81B3000238DF80F300DF17F
:103AD4000F03184601F0A6FD214B1A68009B1A60DB
:103AE4001F4B9A681E4B59681D4B1B68CB1A134415
:103AF40001330993089A079B134405930BE0FFF7DE
:103B0400E9FE174B9A68164B5968154B1B68CB1A7C
:103B1400134401330993059A099B9A42EFD8104B39
:103B24001A680F4B9B68134002339B000C4A1344E2
:103B340004330493049A137843F003031370084B7B
:103B44001A68089B1344064A13609DF80F30184600
:103B540001F07EFD9DF81B3018460BB05DF804FBA8
:103B64002C34002000B58BB005900491039202938D
:103B74001F4B9B68079306AB19460298FFF798FF03
:103B84000346002B24D0069B023309930023089399
:103B940011E0099B5A1C0992079A1340089A920053
:103BA40003990A441268124902339B000B445A6079
:103BB400089B01330893089A029B9A42E9D3069A18
:103BC400079B00931346029A04990598FFF710FF88
:103BD400074B93F81C34002B05D000BF00F07AF893
:103BE4000346002BFAD100BF0BB05DF804FB00BF05
:103BF4002C34002000B583B00190009100230022F2
:103C040000990198FFF7AEFF00BF03B05DF804FB15
:103C140000B587B0039002910192019B059305AA18
:103C2400012302990398FFF79DFF00BF07B05DF8D9
:103C340004FB00B587B00390029101920093019BAD
:103C44000493009B059304AA022302990398FFF7A7
:103C540089FF00BF07B05DF804FB00B589B003908D
:103C6400029101920093019B0593009B06930A9B8A
:103C7400079305AA032302990398FFF773FF00BF74
:103C840009B05DF804FB00B589B00390029101927C
:103C94000093019B0493009B05930A9B06930B9B43
:103CA400079304AA042302990398FFF75BFF00BF5C
:103CB40009B05DF804FB0000054B5A68044B1B680F
:103CC4009A420CBF01230023DBB21846704700BFA1
:103CD4002C34002000B599B0FFF7EEFF0346002B0B
:103CE40001D00023B5E19D4B0022C3F81824BFF393
:103CF4004F8F9A4B5B681793984B9B681093179A56
:103D0400109B134002339B00944A134404331693CC
:103D1400002315930023149300230F931BE0179B98
:103D240001331793169B5B88C3F389139BB21A461E
:103D3400169B1B88C3F389139BB213441A46179B23
:103D440013441793179A109B134002339B00834A22
:103D5400134404331693169B1B7803F00303DBB25E
:103D6400002BDCD00023139311E0139B9B0002AAC9
:103D74001A44179B591C179110990B407749023329
:103D84009B000B445B681360139B01331393139BD9
:103D9400012BEAD99DF8083003F00303DBB2022BB0
:103DA40040F09C80BDF80A30C3F389139BB20D9395
:103DB400BDF80A30C3F389139BB2502BA8BF50231C
:103DC4000C930C9B9BB2C3F309039AB2BDF80A305F
:103DD40062F38F13ADF80A300C9B08330B939DF8F4
:103DE4000830C3F3C203DBB20F930B995C4804F0B1
:103DF4000EFE1590159B002B00F0E380159804F03F
:103E040096FE02A9149B0822159804F039FF149B0E
:103E140008331493179BDA43109B134001339B0020
:103E24000A930C9A0A9B9A4242D90A9B002B08D007
:103E3400179A109B134002339B00484A13440433DF
:103E440000E0484B09930A9B002B02D00A9BDBB28B
:103E540001E00C9BDBB28DF823300A9B002B01D0D0
:103E6400404B00E0002307930A9B002B06D00C9BD9
:103E7400DAB20A9BDBB2D31ADBB200E000238DF87E
:103E84001B309DF82320149B0999159804F0F8FE23
:103E94009DF82330149A13441493079B002B16D0D7
:103EA4009DF81B20149B0799159804F0E9FE0EE079
:103EB400179A109B134002339B00284A134404337F
:103EC4000593149B0C9A0599159804F0D9FE0D9B43
:103ED40003339B08179A1344179372E09DF8083034
:103EE40003F00303DBB2012B5DD1BDF80830C3F34B
:103EF4008313DBB2062B28BF0623DBB203F00F03C8
:103F0400DAB2BDF8083062F38913ADF80830BDF8B1
:103F14000830C3F38313DBB202330E939DF80830E9
:103F2400C3F3C203DBB20F930E9B9B0019460C48EC
:103F340004F06DFD1590159B002B42D0159804F0EC
:103F4400F6FD02A9149B0822159804F099FE149B0F
:103F540008331493002313931BE000BF2C34002078
:103F6400A87F030038340020179B5A1C1792109A1C
:103F7400134002339B00394A1344191D149B042235
:103F8400159804F07DFE149B04331493139B0133A2
:103F94001393BDF80830C3F38313DBB21A46139BA3
:103FA4009A42E1D80DE09DF8083003F00303DBB238
:103FB400032B06D1294BD3F81834002B01D100234D
:103FC40047E0159B002B3ED0244BD3F810341293BA
:103FD400224BD3F81834002B1AD0159804F0B6FDF0
:103FE40031E000238DF847301298FFF740FB034679
:103FF400002B02D001238DF847309DF84730002B69
:1040040003D015991298FFF7FDFA129B5B6812937F
:10401400129B002BE5D1159804F098FD00238DF830
:1040240007300DF10703184601F0FCFA0B4BD3F8E7
:104034001834002B02D1094A179B53609DF80730AE
:10404400184601F005FBFFF737FE034683F0010332
:10405400DBB2184619B05DF804FB00BF2C34002015
:1040640000B585B00023039322E0164BD3F8103437
:10407400029301238DF807300EE00298FFF7E8FA67
:1040840003461A46039B9A4203D100238DF8073056
:1040940005E0029B5B680293029B002BEDD19DF827
:1040A4000730002B01D0039B07E0039B01330393EC
:1040B400039B092BD9DD4FF0FF33184605B05DF89B
:1040C40004FB00BF2C34002000B585B001900B46E2
:1040D4008DF80330FFF7C4FF0390039BB3F1FF3F58
:1040E40001D1039B1EE0039BDBB219460198FFF745
:1040F400A3FA0E4BD3F81034002B07D10B4A019BC3
:10410400C2F81034019B00225A600AE0074BD3F82E
:1041140010345A68019B5A60044BD3F81034019A46
:104124005A60039B184605B05DF804FB2C3400204C
:1041340000B583B00C4BD3F8103401930A4B012221
:1041440083F81C2408E00198FFF789FA0198FFF727
:1041540067FA019B5B680193019B002BF3D100BFBD
:1041640003B05DF804FB00BF2C34002010B582B00E
:1041740001900091019BDB7983F00103DBB2002BFA
:1041840028D0019B1B7A002B12D0019B9B881A46D6
:10419400019B9B7919461046FFF764FB03461A46B8
:1041A4000E4B53F822301A460D49009803F0D2FB07
:1041B400019B9B791A460B4B53F82240019B9B8829
:1041C40000211846FFF72EFB0346224606490098B5
:1041D40003F0C0FB00BF02B010BD00BF282D0020BB
:1041E40098800300142D00209C80030000B585B046
:1041F4000390029113468DF80730039BDB7983F01B
:104204000103DBB2002B0FD0039B1B7A002B06D0DB
:104214000D4B1B681A460D49029803F09BFB0C4991
:10422400029803F097FB07E09DF80730002B03D0BA
:104234000749029803F08EFB029803F069FB00BF64
:1042440005B05DF804FB00BF282D00209880030012
:10425400A880030030B58BB00790069105920493B3
:104264000E9B1B7B8DF827300E9B00221A730E9930
:104274000498FFF77BFF059B062B7FD801A252F819
:1042840023F000BFA5420200AF420200BF42020079
:10429400D3420200F14202001943020049430200E2
:1042A40007990E9803F056FB69E0069B1B681A46B3
:1042B40007990E9803F04EFB61E0069B1A68069B73
:1042C40004331B6807990E9803F044FB57E0069BE0
:1042D4001A68069B04331968069B08331B6800930D
:1042E4000B4607990E9803F035FB48E0069B1968C6
:1042F400069B04331868069B08331B68069A0C3225
:1043040012680192009303460A4607990E9803F037
:1043140021FB34E0069B1868069B04331C68069B4B
:1043240008331B68069A0C32126806991031096822
:104334000291019200932346024607990E9803F0D6
:1043440009FB1CE0069B1C68069B04331D68069B46
:1043540008331B68069A0C321268069910310968F2
:1043640006981430006803900291019200932B4642
:10437400224607990E9803F0EDFA00E000BF0022F0
:104384000E990498FFF732FF0E9B9DF827201A73AD
:1043940000BF0BB030BD00BF00B587B003900291E1
:1043A40001920093029B082B5CD8009B1B7B8DF829
:1043B4001330009B00221A7300990198FFF7D6FE70
:1043C4000023059314E0059A029B9A4209D2039AAA
:1043D400059B13441B781A462449009803F0BAFA43
:1043E40003E02349009803F0B5FA059B01330593D4
:1043F400059B072BE7D91F49009803F0ABFA00236C
:10440400059322E0059A029B9A4217D2039A059BD0
:1044140013441B788DF812309DF81230184613F0AF
:104424008BFB0346002B02D09DF8123000E02E23B4
:104434001A461149009803F08DFA03E00F490098D9
:1044440003F088FA059B01330593059B072BD9D903
:10445400012200990198FFF7C9FE009B9DF81320E3
:104464001A7300E000BF07B05DF804FBAC800300E2
:10447400B4800300B8800300BC800300C080030044
:1044840000B589B0019000238DF81F3051E02E4B08
:104494001A689DF81F30DB0013440693069B1B78B3
:1044A4001A46012393400593284B1A68059B134031
:1044B400002B39D0059BDA43244B1B681340234A55
:1044C4001360069B1B78184605F07CFE03468DF8A6
:1044D4001330069B1B781A46012393401A461C4B43
:1044E4001B6813409DF81320069909788A4093426B
:1044F4001AD19DF81330069A5278012A0CBF012272
:104504000022D2B293420CBF01230023DBB20393F7
:10451400069B5B68002B07D0069B5B68069A1278A3
:104524000399C9B2104698479DF81F3001338DF89E
:104534001F30084B1B789DF81F209A42A7D300BF59
:1045440009B05DF804FB00BF4C3800207C38002023
:10455400783800205038002000B585B001900B4613
:104564008DF803300122019B02FA03F303931E4BDF
:10457400184600F0C3FF0290029B002B30D11B4B66
:104584001A68039B1340002B22D1019805F01AFEF0
:104594000346002B06D0164B1A68039B1343144A98
:1045A400136006E0039BDA43114B1B681340104A67
:1045B40013600E4B1A68039B13430C4A13600A489A
:1045C4000C4B1B680022194600F066FF029008E0BD
:1045D400039BDA43054B1B681340044A136000E055
:1045E40000BF05B05DF804FB583800207C3800207B
:1045F400783800205438002000B589B003900B4669
:1046040001928DF80B30019B042B01D8072351E054
:1046140005F0E0FC034683F00103DBB2002B07D076
:1046240005F090FC0790079B002B01D0079B41E00D
:10463400224A039B1360224A9DF80B301370214ACF
:10464400019B1360204B00221A60204B00221A6049
:1046540023E09DF80B30DB00039A134406930323F5
:104664008DF8143000238DF8153000238DF81630A2
:1046740000238DF81730069B9B788DF81530069B28
:104684001B78184605AB124A194605F0AFFC079093
:10469400079B002B01D0079B0CE09DF80B305A1EA2
:1046A4008DF80B20002BD4D10A4A00210A4800F0CF
:1046B400C3FE0346184609B05DF804FB4C380020DD
:1046C4005038002054380020783800207C380020EE
:1046D4005D45020085440200C480030000B583B038
:1046E400114B1B68002B03D11049B62007F0DAFCEC
:1046F400002301930CE00C4B1A68019BDB0013446C
:104704001B780121184605F0D5FC019B0133019368
:10471400074B1B781A46019B9A42ECD80023184693
:1047240003B05DF804FB00BF4C380020C8800300D0
:104734005038002000B589B0039002910192029B89
:104744009BB2ADF81430019B0693039B079305AB12
:104754001A46002144F2010000F050F800BF09B0ED
:104764005DF804FB86B003900291019201238DF859
:1047740017309DF81730204A039B13601E4A029B92
:1047840053601D4A019B9360039B44F201029342D0
:1047940012D044F20202934222D1019B164AD36002
:1047A400154BDB681B881A46134B9A61124BDB6866
:1047B4005B68114AD36113E0019B0F4A13610E4BEE
:1047C4001B699B680C4A53610B4B1B691B881A4677
:1047D400094B9A61084B1B695B68074AD36100BFA8
:1047E40072B600BF9DF81730DBB2002BFAD162B667
:1047F40000BF06B0704700BF8038002030B589B0D4
:10480400059004910392FFF793FC00BFFFF762FA4F
:104814000346002BFAD1059B41F20102934219D0C1
:1048240041F20102934202D8012B09D04AE044F23A
:104834000102934228D044F20202934214D041E090
:104844002D4B1B881B0443F001032C491846FFF72A
:10485400D1F942E0284B1B881B0443F0010328498B
:104864001846FFF7C7F938E0039B0793224B1B88D0
:104874001B0443F00100079B5B681A46079B1B88D7
:104884002049FFF7D6F928E0039B06931A4B1B88AF
:104894001B0443F00104069B9D68069B9B68184615
:1048A40004F06EFA03461946069B5B681A46069B9B
:1048B4001B88019300920B462A4613492046FFF7B2
:1048C400E2F90AE00C4B1B881B0443F00103049A31
:1048D4000E491846FFF79CF900BF0D4B1B6803F007
:1048E4000103002B00D0FFDE039A04990598FFF71B
:1048F40039FF00BF09B030BD502C002018810300DF
:10490400388103005C8103007881030090810300F7
:10491400F0ED00E082B003468DF8073007499DF9B9
:1049240007305B099DF8072002F01F02012000FAFE
:1049340002F241F8232000BF02B0704700E100E01A
:1049440082B003468DF8073008499DF907305B09AA
:104954009DF8072002F01F02012000FA02F2203322
:1049640041F8232000BF02B0704700BF00E100E01F
:1049740082B003468DF8073008499DF907305B097A
:104984009DF8072002F01F02012000FA02F24033D2
:1049940041F8232000BF02B0704700BF00E100E0EF
:1049A40082B003468DF8073008499DF907305B094A
:1049B4009DF8072002F01F02012000FA02F2603382
:1049C40041F8232000BF02B0704700BF00E100E0BF
:1049D40082B0034600918DF807309DF90730002B13
:1049E4000CDA0D499DF8073003F00F03043B009ADD
:1049F400D2B25201D2B20B441A7609E007499DF9AA
:104A04000730009AD2B25201D2B20B4483F8002389
:104A140000BF02B0704700BF00ED00E000E100E01D
:104A240084B00190244B0393019B002B40D0234B73
:104A34001A680399019B00BF00BF00BF00BF00BFFD
:104A440000BF00BF00BF8A422FD000BF00BF00BF1D
:104A540000BF00BF00BF00BF00BF00BF00BF00BF5A
:104A640000BF00BF00BF00BF00BF00BF00BF00BF4A
:104A740000BF00BF00BF00BF00BF00BF00BF00BF3A
:104A840000BF00BF00BF00BF00BF00BF00BF00BF2A
:104A940000BF00BF00BF00BF00BF00BF00BF00BF1A
:104AA40000BF00BF00BF00BF00BF013BC3D10193E3
:104AB40000BF04B0704700BF0024F400003300209E
:104AC40000B583B00190064A019BC2F8083507215E
:104AD4001120FFF77DFF00BF03B05DF804FB00BFAA
:104AE4000010014008B50D4B4FF48032C3F8442345
:104AF4000A4B4FF48032C3F804231120FFF750FF10
:104B04001120FFF707FF054B01221A602F20FFF742
:104B140087FF034B01221A7000BF08BD001001403B
:104B2400BE39002008B51120FFF70AFF0E4B4FF4E1
:104B34008032C3F848230C4B4FF48032C3F8082367
:104B4400094B01225A602F20FFF76AFF064B01220E
:104B54009A60064B00221A602F20FFF761FF044B76
:104B640000221A7000BF08BD00100140B0390020B7
:104B7400BE390020024BD3F804351846704700BFF5
:104B84000010014082B001900091019A009BD31A59
:104B940023F07F43184602B07047000082B00190B2
:104BA400034A019BC2F8403500BF02B0704700BF02
:104BB4000010014086B00190284B1B68002B03D1E4
:104BC400264A019B136045E0019B1A68234B1B682E
:104BD4001B689A4210D8214B1B68204A126811683E
:104BE400019A12688A1A1A601C4B1A68019BDA61CE
:104BF4001A4A019B13602DE0019B1B680393174B1A
:104C04001B680593154B1B68049309E0049B1B6800
:104C1400039AD31A0393049B0593049BDB690493BF
:104C2400049B002B04D0049B1A68039B9A42EDD387
:104C3400049B002B05D0049B1A68039BD21A049B87
:104C44001A60019B039A1A60019B049ADA61059B1E
:104C5400019ADA6100BF06B0704700BFAC3900208A
:104C640000B587B001902A4B1B680393284B1B683F
:104C74000593059B049308E0049A019B9A4208D08B
:104C8400049B0593049BDB690493049B002BF3D1E1
:104C940000E000BF049B002B01D1002333E0059A00
:104CA400049B9A4214D11A4B1B68DB69184A13609F
:104CB400174B1B68002B0BD1164B01229A60164B25
:104CC40000221A60154B01221A702F20FFF7A8FE4C
:104CD400049B1B680293049BDA69059BDA61059BBC
:104CE400DB690493049B002B05D0049B1A68029B88
:104CF4001A44049B1A60064B1B68039A9A4214BF19
:104D040001230023DBB2184607B05DF804FB00BFA3
:104D1400AC39002000100140B0390020BF39002018
:104D240008B51120FFF724FE00BF08BD08B5142004
:104D3400FFF71EFE00BF08BD00B583B00190019BC4
:104D44005B69019A92691046984700BF03B05DF809
:104D540004FB000000B585B02B4B1B68002B4ED024
:104D640000230193FFF706FF0246284B1B681946F0
:104D74001046FFF707FF0290234B1B6803931DE0C7
:104D8400039B1A68029B9A421CD8039B1B68029AD5
:104D9400D31A0293039B1B68019A13440193039B48
:104DA4000093039BDB690393009B1B7C002B05D0C2
:104DB400009B00221A740098FFF7BEFF039B002B90
:104DC400DED100E000BF124B1A78124B1B789A42D6
:104DD4000CD1104B1B780133DAB20E4B1A700D4B09
:104DE4001B78022B02D10B4B00221A70094B1B7843
:104DF4001946094A019B42F82130FFF797FF00BF8B
:104E040005B05DF804FB00BFAC390020B0390020C8
:104E1400BC390020BD390020B439002082B0019093
:104E2400184B1A78184B1B789A4223D0154B1B78D1
:104E34000133DAB2134B1A70124B1B78022B02D1D6
:104E4400104B00221A700F4B1B781A460F4B53F865
:104E54002220019B1A60019B1A680D4B1B681344A6
:104E64000B4A13600A4B1B6823F07F43084A136004
:104E7400012303E0019B00221A600023184602B0BC
:104E8400704700BFBC390020BD390020B439002070
:104E9400B039002088B00390029101920023079357
:104EA40038E0204B1B680693069B1A68039B9A42C2
:104EB40006D9069B1A68039BD21A069B1A602DE03A
:104EC400069B1B68039AD31A0393069B1B68079AD5
:104ED40013440793069B00221A60124B1B68059328
:104EE400069BDB690F4A1360069BDB68002B11D01D
:104EF400029A079B134423F07F42069B5A60069B49
:104F0400DA68069B9A60019B1A68069BDA61019B2A
:104F1400059A1A60034B1B68002BC2D100BF08B06E
:104F2400704700BFAC39002000B589B00190002360
:104F34008DF81F30664B1B680593AAE0019B002B7C
:104F440005D0019B0693069BDB69019361E0614BED
:104F54001B781A4613465B001344DB005D4A134476
:104F6400043304935B4B1B780133DAB2594B1A7048
:104F7400584B1A78574B9B789A4202D1554B0022D2
:104F84001A70049B5B680693049B1B78022B04D065
:104F9400032B1BD0012B1FD01DE0049B5B6818461C
:104FA400FFF75EFE0346002B02D001238DF81F306D
:104FB400069B00221A746CE0454B1B680393039B09
:104FC40000221A74039BDB69414A1360404B1B683F
:104FD400002BF1D15DE05CE000BF069B1B7C002B45
:104FE40000D056E0049B9A68069B5A60049BDA68DA
:104FF400069B9A60049B1A69069BDA60049B5A69B3
:10500400069B9A61344B1B78002B02D0069B00222E
:105014005A60069B5A68314B1B68D31A23F07F43AE
:105024002F4A93420ED8069B5A682C4B1B6819468C
:105034001046FFF7A7FD0246069B9B681A44069B91
:105044001A6017E0254B1A68069B5B6819461046E0
:10505400FFF798FD0290069B9A68029B9A4206D934
:10506400069B9A68029BD21A069B1A6002E0069B72
:1050740000221A60069B00225A60069B00229A6056
:10508400069B01221A74069B0022DA610698FFF738
:1050940091FD019B002B7FF451AF0E4B1A780D4B01
:1050A4005B789A427FF44AAF9DF81F30002B04D1FD
:1050B400074B1A68059B9A4201D0012300E00023A4
:1050C40003F00103DBB2184609B05DF804FB00BF2E
:1050D400AC390020A0380020BF390020B0390020AE
:1050E400FEFF7F0010B588B00190274B1B68002B92
:1050F40044D0254B1B681B680793FFF73BFD0690C4
:10510400224B1B68059305990698FFF73BFD034660
:10511400033304931E4B1B7883F00103DBB2002B93
:1051240001D0FFF7DFFC049A079B934238BF134674
:10513400059A13440593059B23F07F430593059833
:10514400FFF72CFDFFF716FD039006990398FFF770
:1051540019FD0346DC1C06990598FFF713FD034669
:105164009C420DD9FFF706FD03461846FFF716FDCE
:105174002F20FFF755FCFFF7D3FD01E0FFF7D2FC2A
:1051840000BF08B010BD00BFAC390020B03900200A
:10519400BE39002000B587B00023019300238DF8A9
:1051A4001730194B1B680493184B1B6803936B4609
:1051B4001846FFF733FE03468DF80B309DF80B308D
:1051C400002B08D0009B01AA04991846FFF762FE41
:1051D40001238DF81730019B1846FFF7A5FE0346FF
:1051E400002B02D001238DF817309DF81730002BC7
:1051F40002D00398FFF776FF054B00221A7000BF18
:1052040007B05DF804FB00BFB0390020AC390020C2
:10521400BF39002082B003468DF80730034A9DF859
:105224000730537000BF02B0704700BFA0380020A1
:1052340084B00190144B5B7801338DF80F30124B1E
:105244009B789DF80F209A4202D100238DF80F30ED
:105254000D4B1B789DF80F209A4201D100230FE0DB
:10526400019B9DF80F201A70074B5B781A46134672
:105274005B001344DB00044A134404330293029B8F
:10528400184604B0704700BFA038002000B589B0AC
:1052940003900291019200930023079300238DF859
:1052A40016300DF11603184600F0BCF90DF1170382
:1052B4001846FFF7BDFF0690069B002B02D104237E
:1052C400079318E0069B01221A70069B039A5A6002
:1052D400FFF750FC0246069B9A60069B029ADA602E
:1052E400069B019A1A61069B009A5A619DF8173031
:1052F4001846FFF78FFF9DF81630184600F0A8F9FE
:10530400079B002B01D1FFF711FD079B184609B03D
:105314005DF804FB00B587B001900B468DF80330AF
:105324000023059300238DF80E300DF10E0318466B
:1053340000F078F90DF10F031846FFF779FF049098
:10534400049B002B02D1042305930BE0049B9DF8DE
:1053540003201A70049B019A5A609DF80F30184676
:10536400FFF758FF9DF80E30184600F071F9059BC1
:10537400002B01D1FFF7DAFC059B184607B05DF856
:1053840004FB000008B50E4B0022C3F840210C4B6F
:105394000022C3F844210A4B0022C3F84821084BD9
:1053A4000022C3F84C21064B0022C3F80021044B11
:1053B4000022C3F80421FFF7CDFC00BF08BD00BFE5
:1053C4000010014008B5FFF7E5FE00BF08BD00006E
:1053D40008B5FFF7A7FB134B00221A70114B0022EC
:1053E4005A70104B0B229A700F4B00221A600F4B0D
:1053F40000221A700E4B00221A701420FFF7D0FA04
:1054040007211420FFF7E4FA1420FFF783FA0020A1
:10541400FFF756FBFFF7AEFB0246064B1A6000236C
:10542400184608BDA0380020AC390020BC39002043
:10543400BD390020B039002086B003900B4601929C
:105444008DF80B30134B9B78002B01D108231EE001
:10545400019B002B01D1072319E0039B002B01D1F1
:10546400072314E0039B1B681B7C002B01D008233B
:105474000DE0039B1B680593059B00221A74059B92
:105484009DF80B205A74059B019A5A610023184613
:1054940006B07047A038002000B587B00390029191
:1054A4000192039B0593144B9B78002B01D1082395
:1054B4001EE0039B002B01D1082319E0029B042B5F
:1054C40001D8072314E0059B5B69002B01D1082355
:1054D4000EE0059B5B7C012B01D1029B00E00023C5
:1054E4000493019B049A02990598FFF7CFFE0346A3
:1054F400184607B05DF804FBA038002000B585B05D
:105504000190019B03930D4B9B78002B01D1082341
:1055140010E0019B002B03D0039B5B69002B01D19E
:10552400082307E0039B00221A7402210398FFF763
:10553400F1FE0346184605B05DF804FBA0380020D0
:1055440082B0EFF310830093009B019372B6019B2A
:10555400184602B0704762B600BF704700B585B008
:105564000190FFF7EDFF0390164B9B68002B1BD1B6
:10557400144B01229A60144BD3F88020134B134030
:10558400104A1360104B114AC3F880200E4BD3F815
:1055940084300C4A53600C4B4FF0FF32C3F8842024
:1055A400019B00221A7002E0019B01221A70039BE6
:1055B400002B01D1FFF7CFFF0023184605B05DF89B
:1055C40004FB00BFC039002000E100E0FC06FFBD81
:1055D40000B585B003468DF80730104B9B68002B4F
:1055E40016D09DF80730002B12D1FFF7A9FF0390C6
:1055F4000B4A0A4B1B681360094A084B5B685360EB
:10560400064B00229A60039B002B01D1FFF7A3FFF6
:105614000023184605B05DF804FB00BFC039002024
:1056240000E100E000B583B0019000F02BF80346E0
:10563400012B03D00549432006F034FD0198FFF700
:105644008DFF00BF03B05DF804FB00BFA881030019
:1056540000B583B003468DF8073000F013F8034615
:10566400012B03D00649512006F01CFD9DF807309C
:105674001846FFF7ADFF00BF03B05DF804FB00BFA1
:10568400A881030084B0EFF305830193019BC3F366
:1056940008030393039B002B0DD1EFF314830093B2
:1056A400009B0293029B03F00103002B0CBF012318
:1056B4000023DBB200E00123184604B0704782B037
:1056C4000190019B03F00303002B0CBF0123002373
:1056D400DBB2184602B0704710B487B00190009155
:1056E400019B009A53E8004F44EA020043E800019A
:1056F40091F0000FF6D1059404900391059B184690
:1057040007B05DF8044B704710B487B00190009166
:10571400019B009A53E8004F04EB020043E80001A8
:1057240091F0000FF6D1059404900391059B18465F
:1057340007B05DF8044B704710B487B00190009136
:10574400019B009A53E8004F04EB020043E8000178
:1057540091F0000FF6D1059404900391049B184630
:1057640007B05DF8044B704710B487B00190009106
:10577400019B009A53E8004FA4EB020043E80001A8
:1057840091F0000FF6D1059404900391049B184600
:1057940007B05DF8044B704700B583B00190012158
:1057A4000198FFF799FF0346184603B05DF804FB20
:1057B40000B585B00190002303930EE00A4A039BD1
:1057C40052F82330002B05D0074A039B52F82330AC
:1057D40001989847039B01330393039B032BEDD953
:1057E40000BF05B05DF804FBDC39002082B00190F5
:1057F4000091019B1B78013B052B61D801A252F853
:1058040023F000BF21580200295802004F5802001B
:1058140081580200A1580200BD580200009B0022DA
:105824001A704EE0009B01221A70019B1A89009B9A
:105834009A81019B9A88009BDA81019BDA68009B1C
:105844009A60009B00221A743BE0009B02221A70AB
:10585400019B1A89009B9A81019B9A88009BDA819B
:10586400019BDA68009B9A60019B9B7D062B0CBF11
:1058740001230023DAB2009B1A7422E0009B032266
:105884001A70019BDA88009B9A81019B1A89009BFC
:10589400DA81019BDA68009B9A6012E0009B042283
:1058A4001A70019BDA88009B9A81009B0022DA819E
:1058B400009B00229A6004E0009B05221A7000E01D
:1058C40000BF00BF02B0704784B001900091019BFB
:1058D4000393039A009B9A4206D2039B1B68B3F17D
:1058E400FF3F01D0012300E0002303F00103DBB2FA
:1058F400184604B0704782B00190019B5B88033363
:105904009B00019A1344184602B0704700B583B057
:10591400019000910198FFF7EEFF0246009B9A4226
:1059240001D902230CE0019B9B884FF6FF7293423E
:1059340003D0019B1B88002B01D1012300E000232D
:10594400184603B05DF804FB00B583B00190019BD9
:10595400002B13D00D4BDB681A46019B9A420DD8DD
:105964000A4B1B691A46019B9A4207D30198FFF719
:10597400A6FE0346002B01D0012300E0002303F020
:105984000103DBB2184603B05DF804FBEC2C0020E5
:1059940082B00190019B002B04D0019B1B680B4A31
:1059A400934201D003230DE0019B04331B68084A92
:1059B400934204D0074A934203D1012302E0002317
:1059C40000E00323184602B0704700BFDEC0ADDE1E
:1059D400FE011EF1FF011EF184B001900023039328
:1059E4000CE0039B9B00019A13441B68B3F1FF3F37
:1059F40001D0002307E0039B01330393039BB3F51A
:105A0400806FEED30123184604B0704782B003467A
:105A14000A46ADF806301346ADF80430BDF806204A
:105A2400134913469B0013449B000B4408331A8804
:105A3400BDF804301344ADF80430BDF806200C4919
:105A440013469B0013449B000B440A331A88BDF889
:105A540004301344ADF80430BDF8043040F2FF3292
:105A6400934294BF01230023DBB2184602B070476F
:105A74008C3A002084B0019000910A230393002300
:105A8400ADF80A3027E0BDF80A20174913469B00F9
:105A940013449B000B4404331A68009B9A4215D2AA
:105AA400BDF80A20104913469B0013449B000B4485
:105AB40004331B6803F58052009B9A4206D90023E5
:105AC4000393019BBDF80A201A8008E0BDF80A3050
:105AD4000133ADF80A30BDF80A30012BD3D9039B4A
:105AE400184604B0704700BF8C3A002000B589B056
:105AF400039002910192039B03F580530693039B49
:105B040008330393029B02221A80039B079332E01B
:105B140006990798FFF7FAFE03468DF817309DF8AB
:105B24001730002B0AD1079B9A68184B1B689A42BE
:105B340013D9079B9B68154A13600EE0019B002B49
:105B440002D0019B01221A709DF81730022B04D158
:105B5400029B4FF480621A8014E0029B1A88079B10
:105B64005B8813449BB203339AB2029B1A80079852
:105B7400FFF7C1FE079006990798FFF7A5FE0346B5
:105B8400002BC5D109B05DF804FB00BFEC3900203F
:105B940082B001900B46ADF80230019B1A89BDF822
:105BA400023013449BB203339AB2019B1A81019BC6
:105BB4005A89BDF80230D31A9BB2033B9AB2019BB7
:105BC4005A8100BF02B0704700B583B0074B1B6811
:105BD4001946002300930823054A064802F0D3FA25
:105BE4000346184603B05DF804FB00BFB43A002036
:105BF40048820300EC2C002000B585B00390039983
:105C0400002300930823044A044802F0BCFA034624
:105C1400184605B05DF804FB50820300EC2C00200C
:105C240000B585B003460091ADF8063000238DF829
:105C34000F30BDF806300333ADF80A30BDF80A3032
:105C440040F2FD32934201D909234AE00023ADF822
:105C54000C303BE0BDF80C20244913469B00134450
:105C64009B000B441B78002B2BD1BDF80A20BDF8F8
:105C74000C3011461846FFF7C9FE0346002B20D00E
:105C840001238DF80F30009BBDF80C201A80BDF85D
:105C94000C20BDF80C1015480B469B000B449B00D0
:105CA40003440A331988BDF80A300B4498B20F49EB
:105CB40013469B0013449B000B440A3302461A808C
:105CC40008E0BDF80C300133ADF80C30BDF80C30F1
:105CD400012BBFD99DF80F30002B01D0002300E029
:105CE4000723184605B05DF804FB00BF8C3A00207A
:105CF40082B003460A46ADF806301346ADF80430C8
:105D0400BDF80420BDF804100C480B469B000B445E
:105D14009B0003440A331988BDF80630CB1A9BB2A2
:105D2400033B98B2054913469B0013449B000B4464
:105D34000A3302461A8000BF02B070478C3A002032
:105D440008B501210248FFF7F7FC0346184608BDD1
:105D5400EC39002000B585B003460091ADF806305B
:105D6400BDF80620234913469B0013449B000B44B3
:105D740004331B6803F580530293009B1B68039351
:105D8400039B002B04D00398FFF7B5FD039024E098
:105D9400BDF80620174913469B0013449B000B448F
:105DA40004331B680833039317E002990398FFF741
:105DB400ADFD0346012B09D0022B0CD0002B00D0E3
:105DC4000BE0009B039A1A6001230EE00398FFF78F
:105DD40092FD039001E0002307E002990398FFF786
:105DE40073FD0346002BE0D10023184605B05DF88F
:105DF40004FB00BF8C3A002000B585B001900091EF
:105E0400019B5B681846FFF79FFD0346002B19D0E2
:105E1400019B1A89244B1B899A4213D1019B1A684E
:105E2400019B5B689B689A420CD1019B5B68194695
:105E34000098FFF71FFE0346002B0CBF012300232D
:105E4400DBB22CE0009B00221A8023E000230293A3
:105E540010E0029B0393039B9A68019B1B689A4280
:105E640008D1029A019B5A600F4B1A89019B1A812F
:105E7400012314E0009B1B8802AA11461846FFF771
:105E840069FF0346002BE4D1009B1B8801339AB2BF
:105E9400009B1A80009B1B88012BD7D9002318462E
:105EA40005B05DF804FB00BFBC3A002000B587B024
:105EB4000390029101920093304B1B78DBB283F084
:105EC4000103DBB2002B01D0022353E0019B002B22
:105ED40002D0009B002B48D105234BE0009B9B88FC
:105EE4001946274A0B469B000B449B0013441B781E
:105EF400002B33D124E0009B1B680593039B002BEC
:105F040006D0059B9A88039B1B889A4200D017E011
:105F1400029B002B06D0059B1A88029B1B889A4281
:105F240000D00DE0059B9A68019B1A60009B1A68DB
:105F3400019B5A60134B1A89019B1A81002319E0B3
:105F4400009B9B88009A11461846FFF703FF0346FF
:105F5400002BD0D1009B00221A6000E000BF009B00
:105F64009B8801339AB2009B9A80009B9B88012BEB
:105F7400B4D90A23184607B05DF804FBCC390020D5
:105F84008C3A0020BC3A002000B585B00190084B43
:105F94000199184601F05BFB03901C220021039831
:105FA40011F04CFE039B184605B05DF804FB00BFDE
:105FB4007C3A002000B583B00190044B0199184647
:105FC40001F05CFB00BF03B05DF804FB7C3A0020E9
:105FD40000B583B00190054B0199184601F062FBAE
:105FE4000346184603B05DF804FB00BF7C3A00206A
:105FF40000B583B00190044B0199184601F069FB88
:1060040000BF03B05DF804FB7C3A002008B50A4BDE
:106014001B68002B04D1094940F2712006F042F8B4
:1060240001210548FFF7A0FB0346002B14BF012301
:106034000023DBB2184608BDD439002000820300D7
:1060440000B587B0002305930023ADF81230032375
:10605400ADF8103000238DF80F300023ADF80C306C
:10606400F0E0BDF80C301B031A467F4BDB68134489
:1060740002930298FFF78CFC03468DF807309DF8D5
:106084000730012B00F09C80032B02D0002B62D040
:10609400D3E00298FFF7A0FC0346002B3BD0734BE0
:1060A4001B68002B29D0BDF81220714913469B00B0
:1060B40013449B000B4402221A70BDF812206C4951
:1060C40013469B0013449B000B440433029A1A604A
:1060D400BDF81220664913469B0013449B000B44F1
:1060E400083302221A80634ABDF812305380BDF887
:1060F40012300133ADF8123008E05C4A029B1360A1
:106104005A4B02229A8001238DF80F30059B43F0ED
:106114000103059391E0BDF81030013BADF8103058
:10612400BDF81220524913469B0013449B000B44B4
:106134000433029A1A60BDF812204D4913469B009D
:1061440013449B000B4403221A70BDF81230013330
:10615400ADF8123071E0BDF81220454913469B009A
:1061640013449B000B4400221A70BDF812204049CE
:1061740013469B0013449B000B440433029A1A6099
:10618400BDF8122013469B0013449B000833384A81
:106194009918BDF8122013469B0013449B0010333A
:1061A400334A13441A460298FFF7A0FC059B43F0B8
:1061B40002030593BDF812300133ADF812303CE010
:1061C4009DF80F30002B25D0BDF812202849134626
:1061D4009B0013449B000B4402221A70BDF812204A
:1061E400224B1968224813469B0013449B00034426
:1061F40004331960BDF812201D4913469B00134453
:106204009B000B44083302221A80BDF8123001337C
:10621400ADF81230154A029B136000221649029809
:10622400FFF764FC114B9B88022B01D1042300E08F
:106234000823059A1343059300BFBDF80C300133BE
:10624400ADF80C30BDF80C30022B7FF60AAFBDF868
:106254001030012B01D800230593059BDBB21846AF
:1062640007B05DF804FB00BFEC2C0020B43A00201A
:106274008C3A0020BC3A0020B83A002000B587B020
:1062840003900291039B02229A750299039B1A1DA3
:10629400002300930423074801F075FF0590059B34
:1062A400002B01D1002300E00E23184607B05DF84F
:1062B40004FB00BFEC2C002000B587B003900291D2
:1062C400039B1B69002B01D0032200E00122039BE6
:1062D4009A75029B08331946039B03F10C020023B1
:1062E40000930423064801F04EFF0590059B002B04
:1062F40001D1002300E00E23184607B05DF804FB2B
:10630400EC2C002000B587B003900291039B1B780E
:10631400032B01D1052200E00622039B9A75029B00
:1063240004331946039B03F108020023009304235A
:10633400064801F028FF0590059B002B01D100239E
:1063440000E00E23184607B05DF804FBEC2C002097
:1063540000B587B003900B46ADF80A3003990023CB
:10636400009304230C4A0D4801F00DFF0590059B92
:10637400002B01D00E230BE0BDF80A200849134678
:106384009B0013449B000B44103301221A7000231A
:10639400184607B05DF804FB58820300EC2C00207B
:1063A4008C3A002000B589B0019002AB00221A603B
:1063B4005A609A60019BDB6802930DF1160202ABEE
:1063C40011461846FFF718FD0346002B12D0039B15
:1063D4000693069B9A88019BDA80069B1A88019B88
:1063E4001A81039BBDF8162011461846FFF7B0FF2B
:1063F400079001E00A230793079B184609B05DF84C
:1064040004FB000000B587B00190019B981D02AA0F
:106414000D4B0021FFF74AFD0590059B002B08D189
:10642400039A094B9B8819461046FFF791FF059084
:1064340004E008220021044811F000FC059B1846E2
:1064440007B05DF804FB00BFCC3A002000B587B06C
:1064540003900291039B01229A75029B0C33184608
:10646400039B1A69039BDB889900002300930B4666
:106474000146074801F087FE0590059B002B01D1DA
:10648400002300E00E23184607B05DF804FB00BFAC
:10649400EC2C002082B0174B1B8901339AB2154BA8
:1064A4001A81144B00225A80124B00221A730023C3
:1064B400ADF8063017E0BDF80610BDF806200E480A
:1064C40013469B0013449B0003441B78002B0CBF12
:1064D40001230023DAB2074B0B449A72BDF806304D
:1064E4000133ADF80630BDF80630012BE3D900BF07
:1064F40002B07047BC3A00208C3A002084B001906E
:1065040000238DF80F300023ADF80C3031E0BDF8D6
:106514000C301C4A13449B7A002B25D0BDF80C3058
:10652400184A134400229A72BDF80C2016491346E7
:106534009B0013449B000B440C331B68002B13D1AA
:10654400BDF80C20104913469B0013449B000B44D8
:1065540010331B78002B07D0019BBDF80C201A8048
:1065640001238DF80F3008E0BDF80C300133ADF88D
:106574000C30BDF80C30012BC9D99DF80F301846EA
:1065840004B07047BC3A00208C3A002008B5084B90
:1065940005221A70074B02229A80064B1B68194683
:1065A40000230122044801F040FE0346184608BDBA
:1065B400BC3A0020B43A0020EC2C002000B583B093
:1065C400164B5B88ADF80230BDF80220144913461F
:1065D4009B0013449B000B440C331B68002B14D109
:1065E4000E4B04221A70BDF802200D4913469B007D
:1065F40013449B000B4404331B68194600230122F7
:10660400084801F012FE019002E0FFF7BFFF01907D
:10661400019B184603B05DF804FB00BFBC3A0020A0
:106624008C3A0020EC2C002000B587B0114B5B683D
:106634000593114B1A68104B9B889B0013440493D9
:10664400059B5B880333ADF80E300A4B03221A70A6
:106654000499084B5A68BDF80E3098000023009343
:106664000346064801F08FFD0346184607B05DF85F
:1066740004FB00BFBC3A0020B43A0020EC2C0020FC
:1066840000B583B00A4B5B880A491846FFF762FBE2
:106694000346002B03D0FFF7C7FF019002E0FFF78A
:1066A4008DFF0190019B184603B05DF804FB00BF09
:1066B400BC3A0020C03A002008B50A4B06221A70E2
:1066C400084B5B881946084A0B469B000B449B0009
:1066D400134404331B681846FFF78EFA0346184622
:1066E40008BD00BFBC3A00208C3A002008B5054B19
:1066F40007221A70034B00225A60FFF765FA03461B
:10670400184608BDBC3A002008B50D48FFF7F6FE50
:10671400034683F00103DBB2002B0BD0094B0022AC
:106724001A70084B00225A80064B00225A6041F628
:106734001D5302E0FFF7A4FF0346184608BD00BF3F
:10674400BE3A0020BC3A002082B0094B5B6801933A
:10675400019B5B880333ADF80230064B9A88BDF881
:10676400023013449AB2034B9A8000BF02B07047C0
:10677400BC3A0020B43A002082B0184B1B68019345
:10678400174B5B881946174A0B469B000B449B002A
:10679400134404331B68114A1360114B5B88194678
:1067A400104A0B469B000B449B0013440433019A8C
:1067B4001A600B4B5B881946084B9888094A0B46AC
:1067C4009B000B449B001344083302461A80034B7E
:1067D40002229A8000BF02B0704700BFB43A002082
:1067E400BC3A00208C3A002008B51A4B1B78072BC2
:1067F4002CD801A252F823F01D680200516802004F
:1068040051680200296802003568020041680200EC
:106814004168020049680200FFF73CFE0D4B01226B
:106824001A7014E0FFF790FF0A4B02221A700EE070
:10683400FFF7A2FF074B06221A7008E0054B072258
:106844001A7004E0034B01221A7000E000BF00BF7D
:1068540008BD00BFBC3A002000B587B0019000918C
:106864000F230593019B002B04D0624B00225A6036
:106874000123BBE0009B1B79032B00F2AB8001A238
:1068840052F823F099680200A768020035690200F3
:1068940055690200009B01221A71FFF795F90590D2
:1068A4009BE000238DF813300023ADF810302BE06B
:1068B400BDF81020504913469B0013449B000B4421
:1068C4001B78022B1BD1BDF810204B4913469B00AB
:1068D40013449B000B4400221A7001238DF81330DB
:1068E400BDF81020444913469B0013449B000B44FD
:1068F40004331B681846FFF77FF9059008E0BDF8DC
:1069040010300133ADF81030BDF81030012BCFD961
:106914009DF8133083F00103DBB2002B5CD0354BC0
:1069240001221A70334B00225A6041F61D535DE078
:10693400009B00221A71314B02229A802F4B1B6854
:106944001946002301222E4801F06FFC059044E013
:10695400009B00221A71294B1B681846FFF74CF95B
:106964000590284B5B88ADF80E30244B1B680293CE
:10697400BDF80E20204913469B0013449B000B4492
:1069840004331B681D4A1360BDF80E201A491346D0
:106994009B0013449B000B440433029A1A60BDF815
:1069A4000E20164B9888144913469B0013449B00F1
:1069B4000B44083302461A80104B02229A80BDF819
:1069C4000E200D4913469B0013449B000B440022E8
:1069D4001A7002E000BF00E000BF059B002B04D04A
:1069E400044B00225A600E2300E00023184607B02F
:1069F4005DF804FBCC3900208C3A0020B43A002026
:106A0400EC2C0020BC3A002000B587B00190009126
:106A1400009B9B8A1A4613469B0013449B003C4AE6
:106A240013440493019B002B07D0009BDB88194679
:106A34000498FFF7ADF8012365E0049B5A68049BB2
:106A44001B899B0013440393009B9B7D062B4DD80D
:106A540001A252F823F000BF9F6A0200C36A020039
:106A6400AB6A0200B76A0200796A0200CF6A0200C8
:106A7400E96A0200274B00225A60009B9B69254A61
:106A8400136025492348FFF7B7F9034683F0010350
:106A9400DBB2002B01D00A2335E003990098FFF7FD
:106AA400EDFB059025E003990098FFF705FC0590A0
:106AB4001FE003990098FFF7C9FC059019E00399BA
:106AC4000098FFF71FFC059013E0009B06229A75BF
:106AD400104B5A68104B1B8819461046FFF738FCB8
:106AE400059006E041F61D53059302E00F2305933C
:106AF40000BF059B002B05D0009BDB88194604983A
:106B0400FFF746F8059B184607B05DF804FB00BF85
:106B14008C3A0020D43A0020E03A002000B585B039
:106B240001900091019B002B01D0012323E0009BE5
:106B34001B79012B0BD0022B14D0002B16D1009BF8
:106B440002221A710098FFF72DFC039012E00098BE
:106B5400FFF758FC0390039B0A2B0AD141F61D53FF
:106B6400039306E041F61D53039303E00F230393BD
:106B740000E000BF039B184605B05DF804FB00006D
:106B840000B585B00190019B002B01D001233BE0AF
:106B94001F4B1B7B002B03D01D4B00221A7301E0FB
:106BA400FFF722FE1A4B1B78013B062B28D801A2C3
:106BB40052F823F0D56B0200DD6B0200E56B020096
:106BC400ED6B0200056C0200F56B0200FD6B020028
:106BD400FFF79AFD039016E0FFF752FD039012E0D1
:106BE400FFF722FD03900EE0FFF7E8FC03900AE0B4
:106BF400FFF762FD039006E0FFF778FD039002E0E3
:106C04000F23039300BF039B184605B05DF804FBF4
:106C1400BC3A002000B589B001903F4B1B68002BA3
:106C240005D13E48FFF7D4F902463B4B1A603A4B74
:106C34001B68002B04D13A4940F2795005F032FA2E
:106C4400354B1B681B78013B052B2CD801A252F84D
:106C540023F000BF716C0200816C0200816C0200A1
:106C6400916C0200916C0200A16C02002A4B1B681B
:106C740019460198FFF7F0FD019017E0264B1B68B9
:106C840019460198FFF7C0FE01900FE0224B1B68E4
:106C940019460198FFF742FF019007E00198FFF7BA
:106CA4006FFF019002E00F23019300BF019B002BB3
:106CB4002BD003AB14220021184610F0BFFF019B18
:106CC40041F61D52934204D10023049300230193FF
:106CD40001E0019B0493104B1B6803AA114618465C
:106CE400FEF784FD03AB1846FEF762FD0A4B002253
:106CF4001A600A48FFF77CF9FFF788F9034683F026
:106D04000103DBB2002B02D187E700BF00E000BF24
:106D140000BF09B05DF804FBE43A0020E83A002023
:106D24000082030008B501210548FEF7EDFC034687
:106D3400002B02D10020FFF76DFF00BF08BD00BF8C
:106D4400D439002000B583B00190019B5B681846DC
:106D5400FFF760FF00BF03B05DF804FB00B58BB024
:106D64000390029101928DF803300023ADF8243092
:106D74000023ADF82630514B1B78DBB283F00103BE
:106D8400DBB2002B01D0022393E0029B002B01D144
:106D940005238EE0029B1B884FF6FF72934203D0BB
:106DA400029B5B88002B01D1042382E0029B5B6879
:106DB4001846FEF784FC034683F00103DBB2002B84
:106DC40001D0032375E0019B002B11D1029B9B682A
:106DD400ADF826300DF11A02BDF8263011461846DA
:106DE400FEF71EFF0890089B002B09D0089B60E06B
:106DF400019B1B88ADF81A30019B5B88ADF82630E7
:106E040005AB1846FFF7C0F80790079B002B09D184
:106E1400BDF81A20BDF8263011461846FEF768FF63
:106E2400082346E0079B9DF803201A70079B002265
:106E34009A75BDF81A20079B9A82029B5A68079B91
:106E44001A61FEF77DFF0246079BDA60029B1A88EF
:106E5400079B1A81029B5A88079B9A80079BBDF85F
:106E64002620DA809DF80330032B06D1079B0422E9
:106E74009A75039B1A68079B9A61079BBDF82420A7
:106E84005A8105AB1846FFF795F8039B002B0DD0EC
:106E9400039B00225A60079BDA68039B1A60039BDA
:106EA40000229A72064B1A89039B1A81FFF73AFF54
:106EB400002318460BB05DF804FB00BFCC3900205A
:106EC400BC3A002000B585B001900C4B1B68042B24
:106ED40002D10C2303930BE0084B1B680849019A69
:106EE40041F8232001210548FEF726FC00230393E3
:106EF400039B184605B05DF804FB00BFD839002099
:106F0400DC39002084B04FF010235B6903934FF009
:106F140080531B6902934FF080535B690193039B79
:106F2400B3F1FF3F04D1019B029A02FB03F300E09B
:106F3400039B184604B0704700B583B04FF4405328
:106F44000193FFF7DFFF0246054B1A61044B1A69F0
:106F5400019BD31A024AD36000BF03B05DF804FB5F
:106F6400EC2C002008B5FFF7E7FF00220349044892
:106F740001F0EEF80346184608BD00BF688303001D
:106F8400EC2C002008B504481C238C22034900F093
:106F940017FB00BF08BD00BF7C3A0020F039002079
:106FA40000B58BB002AB00221A605A609A60DA60B6
:106FB4001A61404B1B78DBB2002B05D002AB18469C
:106FC400FEF7F6FB002371E03B48FEF7E5FB0346C2
:106FD400002B01D0002369E0FFF7C4FF0990099B4F
:106FE400002B01D0099B61E0FFF7CCFFFFF728F8E5
:106FF40003468DF823309DF82330022B0DD0062B49
:107004000DD0002B09D000BF01AB1846FEF7BCFF22
:107014000790079B002B10D10DE00B2346E0254B76
:1070240001221A70234B00225A6002AB1846FEF765
:10703400BFFB00233AE0082338E0079B01221A70C3
:107044009DF82330013B0A2B28D801A252F823F0E3
:1070540081700200A170020081700200A170020020
:1070640099700200A170020099700200A1700200E0
:10707400897002009170020089700200079B00224F
:107084001A710CE0079B03221A7108E0079B022285
:107094001A7104E0079B01221A7100E000BF01ABE2
:1070A4001846FEF787FFFFF73DFE002318460BB096
:1070B4005DF804FBCC390020D039002000B585B040
:1070C40001900091019B002B02D0009B002B01D169
:1070D400052329E00DF10A0319460198FEF78CFEF9
:1070E4000346002B1FD0019B5B680393BDF80A3055
:1070F4001A4613469B0013449B0008330C4A13445E
:10710400043301211846FEF717FB009B039A1A600B
:10711400019B5B6803F10C02009B5A60019B0122F6
:107124009A72002300E00A23184605B05DF804FBB8
:107134008C3A002000B585B00190019B002B01D151
:10714400052339E00DF10A0319460198FEF754FEB0
:107154000346002B2DD0BDF80A301946184A0B46B9
:107164009B000B449B0013440C331B68002B1DD065
:10717400019B9B7A002B19D0BDF80A301A4610499E
:1071840013469B0013449B000B440C331B68591E8D
:107194000B4813469B0013449B0003440C331960B3
:1071A400019B00229A720023039304E006230393B5
:1071B40001E00A230393039B184605B05DF804FB22
:1071C4008C3A002000B585B001900B46ADF8023032
:1071D400134B1B78DBB283F00103DBB2002B01D02D
:1071E400022319E0019B002B01D1052314E00DF1CA
:1071F4000A02BDF8023011461846FEF711FD03904D
:10720400039B002B07D1BDF80A20019B1A80019B28
:10721400BDF802205A80039B184605B05DF804FBB4
:10722400CC39002000B585B001901F4B1B78DBB230
:1072340083F00103DBB2002B01D002232FE0019B7A
:10724400002B01D105232AE0019B1B88022B01D9C5
:10725400042324E0019B1B881A4613469B00134415
:107264009B00124A13440293019B5B880333029AE6
:107274005289934210DC019B5A88019B1B88194652
:107284001046FEF735FD019B00221A80019B002267
:107294005A800023039301E004230393039B1846BD
:1072A40005B05DF804FB00BFCC3900208C3A002007
:1072B40000B583B001900091022300220099019847
:1072C400FFF74CFD0346184603B05DF804FB00B518
:1072D40085B0039002910192019B002B01D10523FB
:1072E40006E00223019A02990398FFF737FD03464B
:1072F400184605B05DF804FB00B583B00190009119
:10730400019B002B01D1052306E0032300220099F1
:107314000198FFF723FD0346184603B05DF804FB0C
:1073240000B585B00346ADF80630184B1B78DBB2C8
:1073340083F00103DBB2002B01D0022322E0BDF86D
:1073440006304FF6FF72934201D104231AE002ABD8
:107354001846FEF719FE0390039B002B01D1082366
:1073640010E0039B05221A70039B01221A71039BF0
:10737400BDF80620DA8002AB1846FEF71BFEFFF7C5
:10738400D1FC0023184605B05DF804FBCC3900207D
:1073940000B583B0144B1B78DBB283F00103DBB27E
:1073A400002B01D002231AE06B461846FEF7ECFDD1
:1073B4000190019B002B01D1082310E0019B0622C0
:1073C4001A706B461846FEF7F5FD084B1B78002B28
:1073D40002D0064B01221A73FFF7A4FC00231846BF
:1073E40003B05DF804FB00BFCC390020BC3A002098
:1073F40000B585B0029201930346ADF80E300B46FA
:10740400ADF80C3003A90DF10E00019B029AFEF7B2
:107414004DFD0346184605B05DF804FB00B585B084
:10742400034602910192ADF80E300DF10E01019B5D
:10743400029A0020FEF73AFD0346184605B05DF8AF
:1074440004FB00B585B0034602910192ADF80E30FD
:107454000DF10E00019B029A0021FEF727FD034661
:10746400184605B05DF804FB82B001900091019BC1
:10747400002B02D0009B002B01D1052304E0019BCB
:107484001A68009B1A600023184602B0704786B041
:1074940001900091019B53E8011F8AB2D8890244EC
:1074A4009889824228BF121A1889824202BFBFF308
:1074B4002F8F002307E0C2EA010243E801200028DD
:1074C400E9D14FF001038DF80F3005900291049239
:1074D400029A009B1A609DF80F30DBB2184606B082
:1074E400704784B00190019951E8013FC3EA034316
:1074F40041E80132002AF7D10392029300BF04B09D
:10750400704786B001900091019B53E8021F1FFA57
:10751400A1F2D888824202BFBFF32F8F00230DE06F
:10752400D88902449889824228BF121AC1EA0242C9
:1075340043E802200028E8D14FF001038DF80F3012
:10754400059002910492029A009B1A609DF80F30F4
:10755400DBB2184606B0704784B00190019951E837
:10756400023FC3EA234341E80232002AF7D10392DF
:10757400029300BF04B0704786B00190019B53E8AA
:10758400021FDA88B1EB314F4FF0000017BF89B208
:1075940042EA024241EA024204E05968B1EB314F47
:1075A40008BF012043E802210029E8D18DF80F002B
:1075B400059104929DF80F30DBB2184606B070476F
:1075C40084B00390029111461A460B46ADF806307A
:1075D4001346ADF80430029B002B01D10E231FE0AB
:1075E400BDF80630BDF80420B3FBF2F102FB01F252
:1075F4009B1A9BB2002B01D0092311E0039B029A32
:107604001A60039B00225A60039B00229A60039B2A
:10761400BDF806209A81039BBDF80420DA8100237B
:10762400184604B0704700B585B001900198FFF783
:10763400A3FF03468DF80F309DF80F30002B01D0C7
:10764400002300E01123184605B05DF804FB00B5E3
:1076540083B001900091009B19460198FFF717FF32
:107664000346002B05D0019B1B68009A1288134423
:1076740000E00023184603B05DF804FB00B583B0B6
:1076840001900091009B1A88009B5B889A4204D168
:107694000198FFF726FF012300E00023184603B0FA
:1076A4005DF804FB00B583B001900091009B19467E
:1076B4000198FFF726FF0346002B05D0019B1B68AA
:1076C400009A5288134400E00023184603B05DF882
:1076D40004FB00B583B001900091009B1A88009BC5
:1076E4005B889A4204D10198FFF736FF012300E03A
:1076F4000023184603B05DF804FB000000B583B016
:1077040001900B468DF80330019B002B03D10849EF
:10771400AF2004F0C7FC019BDA689DF8033001999F
:10772400098A01FB03F31344184603B05DF804FB14
:107734006482030000B583B001900091019B002B8B
:1077440003D10849BC2004F0ADFC009B019AD26827
:107754009B1A019A128AB3FBF2F3DBB2184603B008
:107764005DF804FB6482030000B585B00190019BC1
:10777400002B01D10E2349E0019B1B68002B03D190
:107784002449C62004F08EFC019B5B68002B03D1C6
:107794002049C72004F086FC019B9B68002B03D181
:1077A4001C49C82004F07EFC019BDB68002B03D13C
:1077B4001849C92004F076FC019B1B8A002B03D1D5
:1077C4001449CA2004F06EFC019B9B681A46019B75
:1077D4005B68D31A8DF80F30019B1B68019A5268BD
:1077E4001A6007E0019B1A681368591C11609DF820
:1077F4000F201A709DF80F305A1E8DF80F20002BA1
:10780400F0D1019B1B6800221A710023184605B0B1
:107814005DF804FB6482030000B585B00190019B10
:10782400002B03D11F49EC2004F03CFC00230393FC
:1078340000238DF80A300DF10A031846FDF7F2FE15
:10784400019B1B681A68019B5B689A4220D9019BC3
:107854001B681A68013A1A601B681B78194601985C
:10786400FFF74CFF0390019B9B681A46019B1B6822
:107874001B68D31A8DF80B30019B1B681B799DF88C
:107884000B209A4204D9019B1B689DF80B201A71A6
:107894009DF80A301846FDF7DBFE039B184605B039
:1078A4005DF804FB6482030010B584B0019000917C
:1078B400019B002B04D115494FF4887004F0F2FBAE
:1078C400009B002B04D1114940F2111004F0EAFB93
:1078D400009B039300238DF80B300DF10B03184626
:1078E400FDF7A0FE019B1B681C68621C1A600399CB
:1078F4000198FFF71FFF034623709DF80B301846CD
:10790400FDF7A6FE00BF04B010BD00BF64820300F3
:1079140000B583B00190019B002B03D10C493120A9
:1079240004F0C0FB019B9B68002B0CD0019B5B699E
:10793400019A1069019A1168019A92689847019B0B
:1079440000229A6000E000BF03B05DF804FB00BFB2
:10795400B48203000EB400B584B00190019B002BE7
:1079640003D11849422004F09DFB019B5B69002B65
:1079740003D11449432004F095FB019B1B68002BA1
:1079840003D11049442004F08DFB019B5B68002B5C
:1079940003D10C49452004F085FB059B002B0AD03C
:1079A4000023039306AB039303AB1A46059901988E
:1079B40000F0B0F900E000BF04B05DF804EB03B0E0
:1079C400704700BFB482030000B583B001900B463A
:1079D4008DF80330019B1A68019B9B68581C019920
:1079E400886013449DF803201A70019B9A68019BD8
:1079F4005B689A4202D30198FFF78AFF00BF03B085
:107A04005DF804FB00B587B00390029101920093E6
:107A140000230593009B03F00103002B24D00BE00B
:107A2400029B01330293059B013305939DF81330A8
:107A340019460398FFF7C8FF029B1B788DF8133093
:107A44009DF81330002BEBD106E0019B013B019321
:107A540020210398FFF7B8FF019A059B9A422ED97B
:107A6400019B002BF1D12AE0029B002B0BD0029842
:107A740010F018F9059006E0019B013B01932021C9
:107A84000398FFF7A1FF019A059B9A420FD9019B26
:107A9400002BF1D10BE0029B01330293059B0133D0
:107AA40005939DF8133019460398FFF78DFF029B49
:107AB4001B788DF813309DF81330002BEBD100BFE9
:107AC40007B05DF804FB000000B589B00390029193
:107AD40001920093029B07930123069307E0079A00
:107AE400019BB2FBF3F30793069B01330693079ABA
:107AF400019B9A42F3D2009A069B9A4201D9009BB9
:107B040006930B9B03F00103002B22D10A9B002B4D
:107B14001FD00B9B03F00203002B06D0009B002B0D
:107B240003D130238DF8173002E020238DF817306D
:107B340008E00A9B013B0A939DF817301946039805
:107B4400FFF742FF0A9B002B03D0069A0A9B9A4236
:107B5400EFD301230793009B012B03D9009B013B27
:107B6400009309E0029A079BB2FBF3F30493049A8F
:107B7400019B9A4200D205E0079B019A02FB03F3A2
:107B84000793E8E7029A079BB2FBF3F30493049B81
:107B9400079A02FB03F3029AD31A0293154A049B31
:107BA40013441B7819460398FFF70EFF079A019BAD
:107BB400B2FBF3F30793079B002BE3D10B9B03F07A
:107BC4000103002B11D00A9B002B0ED006E00A9B68
:107BD400013B0A9320210398FFF7F6FE0A9B002B32
:107BE40003D0069A0A9B9A42F1D300BF09B05DF80C
:107BF40004FB00BF4C83030000B589B005900491D9
:107C040003920293049B002BB8BF5B4206930123AB
:107C1400079307E0039B069A92FBF3F30693079BF3
:107C240001330793039B069A9A42F3DA029A079B5D
:107C34009A4201D9029B07930A9B002B0AD0049B0A
:107C4400002B04DB0B9B03F00403002B02D00A9BE4
:107C5400013B0A930B9B03F00203002B02D0029B0F
:107C6400002B16D00B9B03F00103002B11D10A9BB0
:107C7400002B0ED006E00A9B013B0A9320210598B5
:107C8400FFF7A2FE0A9B002B03D0079A0A9B9A4295
:107C9400F1D3049B002B07DA049B5B4204932D2150
:107CA4000598FFF791FE08E00B9B03F00403002BFB
:107CB40003D02B210598FFF787FE0B9B03F00203EB
:107CC400002B19D00B9B03F00103002B14D1029B52
:107CD400002B11D10A9B002B0ED006E00A9B013B1E
:107CE4000A9330210598FFF76FFE0A9B002B03D0FF
:107CF400079A0A9B9A42F1D304990B9B01930A9B1E
:107D04000093029B039A0598FFF7DEFE00BF09B0BB
:107D14005DF804FB00B58FB0059004910392059BB8
:107D2400002B04D1C8494FF49F7004F0BBF9059BA4
:107D34005B69002B04D1C4494FF4A07004F0B2F97C
:107D4400059B1B68002B04D1BF4940F2411004F08D
:107D5400A9F9059B5B68002B04D1BB494FF4A170C2
:107D640004F0A0F9049B002B00F0ED81049B1B7828
:107D74008DF83730049B013304939DF83730002B82
:107D840000F0D8819DF83730252B40F0C7810023BF
:107D94000A9301230C93049B1B788DF837309DF8CC
:107DA40037302D2B04D0302B0AD02B2B10D017E0DA
:107DB4000A9B43F001030A93049B0133049312E0EA
:107DC4000A9B43F002030A93049B013304930AE0E1
:107DD4000A9B43F004030A93049B0133049302E0D7
:107DE40000230C9300BF0C9B002BD4D100230993D8
:107DF4009DF837302A2B0CD1039B1B68191D039A5D
:107E040011601B68099A13440993049B013304937A
:107E14001AE0049B1B788DF837309DF837302F2BF0
:107E240012D99DF83730392B0ED8049B01330493B3
:107E3400099A13469B0013445B001A469DF8373099
:107E44001344303B0993D3E700230B93049B1B7823
:107E54008DF837309DF837302E2B1DD1049B01331C
:107E64000493049B1B788DF837309DF837302F2B03
:107E740012D99DF83730392B0ED8049B0133049363
:107E84000B9A13469B0013445B001A469DF8373047
:107E94001344303B0B93E4E7049B1B788DF8373095
:107EA4009DF837306C2B03D09DF83730682B07D101
:107EB400049B01330493049B1B788DF83730EFE760
:107EC4009DF83730253B532B00F2238101A252F851
:107ED40023F000BF0D810200178102001781020008
:107EE4001781020017810200178102001781020026
:107EF4001781020017810200178102001781020016
:107F04001781020017810200178102001781020005
:107F140017810200178102001781020017810200F5
:107F240017810200178102001781020017810200E5
:107F340017810200178102001781020017810200D5
:107F440017810200178102001781020017810200C5
:107F540017810200178102001781020017810200B5
:107F640017810200178102001781020017810200A5
:107F74001781020017810200178102001781020095
:107F84001781020017810200178102001781020085
:107F94001781020017810200178102001781020075
:107FA40099800200178102001781020017810200E4
:107FB4001781020017810200178102001781020055
:107FC4001781020017810200178102002980020034
:107FD40051800200178102001781020017810200FC
:107FE40017810200518002001781020017810200EC
:107FF4001781020017810200178102001781020015
:10800400D98002001781020017810200BD8002009E
:108014001781020075800200178102001781020097
:1080240099800200039B1B68191D039A11601B6849
:108034000C930C9B8DF823309DF82330194605983A
:10804400FFF7C2FC66E000BFFC820300039B1B68D1
:10805400191D039A11601B680C930A9B0193099BD9
:1080640000930B9B0A220C990598FFF7C5FD51E07C
:10807400039B1B68191D039A11601B680C930C99D0
:108084000A9B0193099B00930B9B0A220598FFF717
:108094001BFD3FE0039B1B68191D039A11601B68BD
:1080A4000C930C990A9B0193099B00930B9B102240
:1080B4000598FFF709FD2DE0039B1B68191D039A22
:1080C40011601B6807930A9B099A07990598FFF7A3
:1080D40099FC1FE0039B1B68191D039A11601B6820
:1080E4000C9330210598FFF76FFC78210598FFF772
:1080F4006BFC0C990023019308230093082310229E
:108104000598FFF7E1FC05E025210598FFF75CFCE5
:1081140000E000BF049B0133049305E09DF8373071
:1081240019460598FFF750FC049B1B78002B7FF43D
:108134001DAE00E000BF059B1B7B002B04D00598FF
:10814400FFF7E6FB00E000BF0FB05DF804FB00BFE3
:1081540000B585B0039002910192039B002B02D0DD
:10816400029B002B01D10E2309E0039B029A1A60A3
:10817400039B1B681B68019903989847034618469C
:1081840005B05DF804FB10B586B005900491039228
:108194000293059B002B02D0039B002B01D10E23DD
:1081A40040E0059B1B68002B01D108233AE0029BA9
:1081B400002B0AD0059B5B685A68029BB3FBF2F163
:1081C40002FB01F29B1A002B01D009232AE0049838
:1081D40000F0C6F8034683F00103DBB2002B14D190
:1081E400039B184600F0BCF8034683F00103DBB29E
:1081F400002B0AD1029A0499059800F097F80346D7
:1082040083F00103DBB2002B01D010230AE0059BAD
:108214001B68DC68089B0093029B039A04990598E9
:10822400A0470346184606B010BD10B584B00390AD
:10823400029101920093039B002B01D10E232EE0A7
:10824400039B1B68002B01D1082328E0019B002B12
:1082540001D1092323E0039B5B681B685A1E029B20
:108264001340002B10D1039B5B681B68019A02FB2F
:1082740003F31A460299039800F058F8034683F072
:108284000103DBB2002B01D0102308E0039B1B6821
:108294001C69009B019A02990398A047034618465B
:1082A40004B010BD00B585B00190019B002B03D034
:1082B400019B1B68002B28D10023039319E0039A28
:1082C40013469B0013449B001A46154B1344019319
:1082D400019B1B68002B09D0019B1B68DB6901987B
:1082E40098470346002B01D0012314E0039B01337C
:1082F40003930C4A0A4BD31A0B4AA2FB03231B0910
:10830400039A9A42DBD3002305E0019B1B68DB69D7
:10831400019898470346184605B05DF804FB00BF72
:10832400EC2C0020002D0020CDCCCCCC84B00390CC
:1083340002910192039BDA68029B9A4209D8029A3D
:10834400019B13445A1E039B1B699A4201D80123C3
:1083540000E0002303F00103DBB2184604B07047C9
:1083640082B00190019B03F00303002B0CBF012397
:108374000023DBB2184602B0704729DF704700BF04
:10838400184628DF704700BF184610B487B0019024
:108394000091019B009A53E8004F104643E8000106
:1083A40091F0000FF7D1059404900391059B1846B2
:1083B40007B05DF8044B704710B487B0019000918A
:1083C400019B009A53E8004F44EA020043E800018D
:1083D40091F0000FF6D1059404900391059B184683
:1083E40007B05DF8044B704700B583B001900121DC
:1083F4000198FFF7E1FF0346184603B05DF804FB5C
:1084040000B589B001900091019B1B689B68002B0B
:1084140031D003AB00221A605A609A60DA601A61A4
:10842400009B0493019B9B680793019B1B79002B82
:1084340002D0012B0AD017E001238DF80C30019BE8
:108444001B690593019B5B6906930DE002238DF87C
:108454000C30019BDB684FF4805202FB03F305935D
:10846400019B5B69069300BF019B1B689B6803AA81
:108474001046984700E000BF09B05DF804FB00B562
:1084840087B00190019B5A69019B9B69D31AB3F58C
:10849400805F28BF4FF4805305930422059BB3FBF0
:1084A400F2F3012B38BF01230593019B1A69019B49
:1084B4009B6913440493019BDB681A46019B9B69E7
:1084C40013440393059A03990498FFF756FF034650
:1084D400184607B05DF804FB00B583B00190019B1A
:1084E400DA68019B1B6913441846FFF74AFF0346E9
:1084F400184603B05DF804FB08B5034B034918465E
:10850400FFF7E7F800BF08BD783B0020A03B002040
:1085140008B5084B08491846FFF7C4F80246074B4C
:108524001A60064B1B68002B14BF01230023DBB227
:10853400184608BD783B0020A03B00209C3B00204F
:1085440000B583B0294B1B7A002B0BD1FFF7E0FF5A
:10855400034683F00103DBB2002B03D0234B00223C
:108564005A6040E0214B02221A72214B1B681B798E
:10857400002B02D0012B07D00DE01D4B1B681846C1
:10858400FFF77DFF019009E0194B1B681846FFF7C0
:10859400A3FF019002E00323019300BF019B002B82
:1085A40002D0112B0CD00FE0104B1B7C83F0010385
:1085B400DBB2002B16D00021022000F065F911E097
:1085C4000A4B01221A720EE0094B1B68032118465C
:1085D400FFF716FF054B00221A72044B00225A6063
:1085E40000BF00E000BF03B05DF804FB883B00203F
:1085F4009C3B002000B583B001210A48FFF7C5FE6B
:1086040003460193019B002B08D1074B5B7C83F04D
:108614000103DBB2002B01D0FFF792FF00BF03B0D0
:108624005DF804FB8C3B0020883B002084B0019063
:108634001B4B0022DA60019B1B79002B02D0012B1B
:1086440019D028E0019B5A69019B9B69D31AB3F5A1
:10865400805F28BF4FF480530393019B9A69039B67
:108664001A44019B9A61019B9A69019B5B699A4236
:108674000ED1012310E0019B1B695A1C019B1A6156
:10868400019B1A69019B5B699A4203D1012303E0B0
:1086940000BF00E000BF0023184604B0704700BFCD
:1086A400883B002082B00190084BDB680133074A05
:1086B400D360064BDB68082B04D9044B0022DA6034
:1086C400012300E00023184602B07047883B0020D5
:1086D40000B583B0019000910C48FFF785FE034676
:1086E400002B0ED1019B0A4A5A600EF03BFF034651
:1086F4001A46064B1A7407481C238C220649FEF7B7
:108704005FFF0023184603B05DF804FB883B00209C
:108714005C830300783B0020EC3A002000B583B072
:10872400019000911422002105480FF087FA054BAF
:108734001846FEF778FF0023184603B05DF804FBE3
:10874400883B0020783B002000B587B0039002915D
:1087540001920093174A04AB19461046FEF777FFBF
:108764000590059B002B01D104231FE01C2200214E
:1087740005980FF063FA059B00221A71059B039A72
:108784001A60059B089A9A60059B029A1A61059BD8
:10879400019ADA60059B009A5A61064A04AB1946AD
:1087A4001046FEF76BFFFFF725FF0023184607B0BE
:1087B4005DF804FB783B002000B585B0039002917E
:1087C40001920093029B009A194601980FF00CFA4B
:1087D4000023184605B05DF804FB000000B587B01F
:1087E4000390029101920093184A04AB1946104673
:1087F400FEF72DFF0590059B002B01D1042320E0FB
:108804001C22002105980FF019FA059B01221A7108
:10881400059B039A1A60059B009A9A604FF4805254
:10882400029BB3FBF2F2059BDA60059B019A5A6145
:10883400064A04AB19461046FEF720FFFFF7DAFE9E
:108844000023184607B05DF804FB00BF783B002006
:1088540082B001900091009B184602B0704782B02C
:10886400019000910023184602B0704782B0019035
:10887400044B1B7A002B14BF01230023DBB21846E0
:1088840002B07047883B002000B585B0019000918C
:10889400244B1B7A012B33D0022B00D03FE0002362
:1088A4008DF80F30019B022B02D0032B09D011E06D
:1088B4001D4B1B681846FFF7B9FE03468DF80F30B1
:1088C40008E0194B1B681846FFF7ECFE03468DF8C9
:1088D4000F3000BF9DF80F30002B13D0114B002236
:1088E4001A72114B1A68019B022B01D1002300E07C
:1088F4000D2319461046FFF783FDFFF7FDFD01E048
:1089040000BF00E000BF074B5B7C83F00103DBB2D8
:10891400002B02D0FFF714FE01E00EF007FE05B0B5
:108924005DF804FB883B00209C3B002082B003469A
:1089340000918DF80730064B01225A74044B1B7AC0
:10894400002B0CBF01230023DBB2184602B0704792
:10895400883B002000B583B0034600918DF80730B2
:108964009DF80730012B03D09DF80730032B0DD160
:10897400084B00225A749DF80730012B0CBF0123C9
:108984000023DAB2034B1A74FFF7DAFD00BF03B019
:108994005DF804FB883B002010B487B0019000917F
:1089A400019B009A53E8004F04EB020043E80001E6
:1089B40091F0000FF6D1059404900391049B18469E
:1089C40007B05DF8044B704710B487B00190009174
:1089D400019B009A53E8004FA4EB020043E8000116
:1089E40091F0000FF6D1059404900391049B18466E
:1089F40007B05DF8044B704700B583B0019001984F
:108A0400FEF7B2FE0346184603B05DF804FB00B55A
:108A14008BB001900091019B1B8A043B0793009A41
:108A2400079B1344DA1C079BB2FBF3F38DF81B304E
:108A34000198FEF7F1FE0590059B002B01D1002360
:108A440038E0059B00221A71059B01225A71079B8D
:108A54009AB2059BDA80059B09939DF81B30013B74
:108A64000493099B019A1A60002308931DE001985E
:108A7400FEF7D2FE0390039B002B0ED0059B5B797F
:108A84000133DAB2059B5A71099B039A1A60039B5E
:108A9400019A1A60039B099304E0059800F00EF80C
:108AA400002307E0089B01330893089A049B9A4229
:108AB400DDD3059B18460BB05DF804FB00B58BB005
:108AC4000190019B0793079B5B798DF81B30019BF9
