:10000000000001205917000081170000831700002D
:100010008517000087170000891700000000000006
:100020000000000000000000000000008B1700002E
:100030008D170000000000008F17000091170000CE
:100040009317000093170000931700009317000008
:1000500093170000931700007D0E00009317000017
:100060009D14000065150000931700009317000011
:1000700093170000931700009317000093170000D8
:1000800093170000931700009317000093170000C8
:1000900093170000931700009317000093170000B8
:1000A00093170000931700009317000093170000A8
:1000B00093170000931700000000000000000000EC
:1000C0009317000093170000931700009317000088
:1000D0009317000093170000931700000000000022
:1000E0000000000000000000000000000000000010
:1000F0000000000000000000000000000000000000
:1001000000000000000000000000000000000000EF
:1001100000000000000000000000000000000000DF
:1001200000000000000000000000000000000000CF
:1001300000000000000000000000000000000000BF
:1001400000000000000000000000000000000000AF
:10015000000000000000000000000000000000009F
:10016000000000000000000000000000000000008F
:10017000000000000000000000000000000000007F
:10018000000000000000000000000000000000006F
:10019000000000000000000000000000000000005F
:1001A000000000000000000000000000000000004F
:1001B000000000000000000000000000000000003F
:1001C000000000000000000000000000000000002F
:1001D000000000000000000000000000000000001F
:1001E000000000000000000000000000000000000F
:1001F00000000000000000000000000000000000FF
:1002000010B5054C237833B9044B13B10448AFF350
:1002100000800123237010BD70000020000000004A
:10022000E81B00000C4B43B10C480D4910B5AFF36F
:1002300000800C48036823B910BD0A48036833B92D
:100240007047094B002BF7D0BDE810401847064B0C
:10025000002BF5D0184700BF00000000E81B00008D
:10026000740000206C00002000000000154B002BE3
:1002700008BF134B9D46A3F5803A00218B460F46DD
:100280001348144A121A01F085FC0F4B002B00D0C2
:1002900098470E4B002B00D0984700200021040007
:1002A0000D000D48002802D00C48AFF3008001F08B
:1002B0004DFC2000290001F0BFF901F033FC00BF24
:1002C0000000080000000120000000000000000005
:1002D000700000206001002000000000000000000D
:1002E00000B585B000230390194601AA44F201002D
:1002F000ADF80430029300F003F805B05DF804FB9C
:10030000084B1B68DB0700D5FFDEBFF34F8F0649A4
:10031000064BCA6802F4E0621343CB60BFF34F8F11
:1003200000BFFDE7F0ED00E000ED00E00400FA059D
:10033000F8B51E4D15F811300C46A3B115F8113063
:10034000013BDBB205F8113015F8113023B14B0039
:10035000EA1852783ABBF8BD154E56F821301B68A2
:100360000846DB6998476300EA185278CAB101274A
:100370001D446B78013BDBB26B706B78002BEAD1CC
:100380000B4E56F824301B682046DB699847002F37
:10039000E1D056F8243002215868BDE8F84001F059
:1003A00075B8034EF5E70027E2E700BF30010020F3
:1003B0008C0000202DE9F04F036893F82140022CB7
:1003C00083B003D0082003B0BDE8F08F4F0016467D
:1003D0007A1803EB82020D46526896420446B146F3
:1003E0005ED04168DFF860810A7918F80230DBB22C
:1003F000FF2B12D0FE2B09D003F5A87309685048D3
:1004000051F8231050F82230994201D01120DAE738
:10041000FF2308F8023063681A79FE2308F80230D7
:10042000D4F800A09AF8200000F01EFF002E3ED065
:10043000DAF818309E424DD205EB450B4FEA8B0B94
:100440000AEB0B025268934202D00AB196424BD398
:1004500063681B79FF2208F8032032467E190AEBF5
:10046000860600232946606800F0C0FF307A00F05D
:10047000E7FE707A00F0E4FE2F440AEB870ACAF820
:1004800004902368DB6983B162682E4B127903EB19
:10049000420302215955606800F0E0FF002092E716
:1004A000DB6913B142681079984700208BE707EBAE
:1004B000050B0AEB8B0BB1469BF8090000F0D4FE4C
:1004C0009BF8080000F0BCFE63681B79FF2208F867
:1004D0000320D1E77E190AEB86061FFA83F9307AEA
:1004E00000F0C2FE707AEDE700230321606800F09F
:1004F0007DFF7B1962689AF82010126800910AEB60
:10050000830302F5A6729B7A01925AF80B00A3B1FD
:1005100000F08EFC02469DE8030000F06DFE9AF8A4
:10052000200000F08DFE6268054B127908F8025039
:100530006268127943F822608FE700F06BFCE9E70C
:10054000A800002030010020A00000202DE9F04F7D
:10055000D0F800E09EF82130022B83B003D00820B1
:1005600003B0BDE8F08FBEF818304E000D460446CB
:100570007118634802FB03F30EEB8102A0FB031327
:100580005B0952689FB2974265D06068DFF87C8152
:10059000017918F80120D2B2FF2A13D0FE2A0AD01E
:1005A00002F5A8720068DFF860E150F822005EF8FA
:1005B0002120904201D01120D2E7FF2208F801202B
:1005C00062681179FE2208F80120D4F800901FFA21
:1005D00083FA99F8200000F047FEBAF1000F42D0EC
:1005E000D9F818B05F454ED205EB450A4FEA8A0AA2
:1005F00009EB0A035A68934502D00AB1974253D3D4
:1006000063681B79FF2208F8032006EB050809EB55
:10061000880800233A462946606800F0E7FE98F80B
:10062000080000F00DFE98F8090000F009FE2E44C5
:1006300009EB8609C9F804702368DB698BB162682D
:10064000304B127903EB420302215955606800F0E8
:1006500005FF002084E7DEF81C3013B162681079D2
:10066000984700207CE7771909EB8707787A00F034
:10067000FBFD387A00F0E4FD63681B79FF225746E2
:1006800008F80320D3E7771909EB8707387A00F0D9
:10069000EBFD787A00F0D4FD63681B79FF221FFA26
:1006A0008BF708F80320C2E700236068032100F0FD
:1006B0009DFE7319626899F820B0126859F80A0013
:1006C00009EB830302F5A6729B7A0192A3B100F0B5
:1006D000AFFB02460199584600F08EFD99F82000C4
:1006E00000F0AEFD6268084B127908F802506268AB
:1006F000127943F8227088E700F08CFBE9E700BF2D
:100700001F85EB5130010020A8000020A000002030
:100710002DE9F04F8BB041B1066896F821304BB10E
:10072000082738460BB0BDE8F08F0B2738460BB0D2
:10073000BDE8F08F0C469246054600F003FD18B167
:10074000852801D00427ECE700F0ACFA002800F07F
:100750006781C94BC94A1B6803F0F0034FF0FF08DB
:100760004FF0FF37303B4FF0000918BF012386F8E8
:10077000208086F8088086F8098086F8158086F83B
:100780000B9086F8179037603775F76006F12000F8
:10079000137000F0E1FC002840F01D81029607462E
:1007A0004FF009094FF4A07BCDF80CA0264656F86F
:1007B0002740611C5FFA87FA00F09880D5F8008026
:1007C00098F82110002900F063814346082793F828
:1007D0002000984600F0F4FC08F1180AFF244FF0BE
:1007E000FF39002698F80800FF2803D000F0E8FC45
:1007F00088F8084098F80900FF2803D000F0E0FCD2
:1008000088F80940D8F80000421C03D000F0CCFA68
:10081000C8F8009088F80B6008F10C08D045E1D1C9
:10082000686800F097FD7CE748F82340079B4FF08D
:10083000A041002B00F07081012303FA04F4C1F8F9
:100840000C4509F1FF304044049200F085FC049A05
:10085000002840F0478108EB0900049200F07CFC7E
:10086000049A002840F03E81D41908EB84040492D5
:10087000207A00F0F9FC607A00F0F6FC079B049AFD
:100880000592069C002B00F04D81206800F0D0FA04
:100890000490206800F0BEFA0499059A044668683E
:1008A0003A44036808EB82080A4698F8080003EB0C
:1008B0000B0100F0A1FC6A6898F809001168224653
:1008C00001F5A47100F098FC4FF0010388F80B309B
:1008D0006A686B4B14794FF0000E03EB44045146E9
:1008E0007246284604F807E0FFF764FD09F10C0999
:1008F000B9F1210F07F101070BF1040B7FF457AF9A
:100900003446DDF80CA02369029EB3F5805FC0F089
:10091000F380B3F5005FC0F0ED80B3F5804FC0F019
:10092000E780B3F5004FC0F0ED80B3F5803FC0F035
:10093000ED80B3F5003FC0F0E780B3F5802FC0F045
:10094000E980B3F5002FC0F0E380B3F5801FC0F05D
:10095000CC80B3F5001F4FF00903C0F0C7804FF003
:100960000008072268688DF823208DF820308DF864
:1009700021808DF822800379424A099308A900F06A
:1009800087FC0746002852D16B6824691B68D3F89E
:1009900010352401DBB2DC40B46168684FF0010817
:1009A00000F020FD6868CDF8008022460423022173
:1009B00000F030FD0221686800F068FDC6F81CA058
:1009C0006B6831481B79314A86F82180FF2140F855
:1009D0002350D154A5E62C6894F8200000F0F0FBD9
:1009E00004F11806207AFF2803D000F0E9FB84F810
:1009F0000880607AFF2803D000F0E2FB84F80980C9
:100A00002068431C02D000F0CFF9276084F80B90D7
:100A10000C34B442E6D1686800F09CFC042780E600
:100A200000F008F900283FF494AE032779E62C681B
:100A300094F8200000F0C4FB04F11809FF264FF0E1
:100A4000FF3A207AFF2802D000F0BAFB2672607AC3
:100A5000FF2802D000F0B4FB66722068431C03D06C
:100A600000F0A2F9C4F800A084F80B800C34A14572
:100A70003FF4D6AEE5E700BFE80F00F0BC00002071
:100A800030010020310300008C000020A000002075
:100A90007A00D3194FEA830EF019049308EB0E0382
:100AA0000592027A9A7259602968069301EB0E004A
:100AB0004FF003038DF8203090F80AE00792BEFA59
:100AC0008EFE4FF001034FEA5E1E08A920468DF806
:100AD00022308DF821E000F0EFF8049B059A002801
:100AE0003FF4A2AE2B68042771E60823DBB236E799
:100AF0000223FBE70123F9E7104B1B78002BF5D00D
:100B000001232CE70323F1E70523EFE70423EDE7B7
:100B10000723EBE70623E9E7012303FA04F4C1F80E
:100B200008458EE6206800F075F90490206800F012
:100B30007FF9059A04990446B1E600BFBC00002085
:100B4000F8B5436805681A791B4EEB7A002704460E
:100B500006F81270B3B96268EB7D127906EB4206B3
:100B600000277770DBB96368144A1B79FF21D154E1
:100B7000606800F037FC606800F026FC022385F80E
:100B80002130F8BD03682868997AB1FA81F14909E2
:100B900000F05CF9286800F02BF96F60DBE7236850
:100BA000E868997DB1FA81F1490900F04FF9E868E8
:100BB00000F01EF92F61D6E730010020A0000020D0
:100BC00072B6024A1368013313607047C0000020F8
:100BD000034A1368013B136003B962B6704700BF54
:100BE000C0000020002810B418DB00F1604303F5BA
:100BF00061434901C9B283F80013C3B240098000C0
:100C000000F1604000F5614003F01F0201239340B2
:100C1000C0F8803103605DF8044B7047C3B2044AEA
:100C200003F00F0449012244C9B21176E6E700BF80
:100C3000FCEC00E030B5184C94F8455083B015B189
:100C4000082003B030BD4FF0FF3307210620636258
:100C5000A362E36223636363A363E36323642360A8
:100C60006360A360E36023616361A361E361236266
:100C700084F84430FFF7B6FF084B094A1D601B6833
:100C8000019301984FF000430121284684F8451054
:100C9000C2F8043303B030BDC40000207C610040C2
:100CA00000600040034B93F84500003018BF01205E
:100CB000704700BFC400002070B43A4B1A1892F974
:100CC0002440013402D0082070BC70478C78DCB11D
:100CD0001A6801325AD05A68013259D09A680132E2
:100CE00058D0DA68013257D01A69013256D05A69A1
:100CF000013255D09A6901321BD0DA69013208BF3E
:100D0000072517D00420DFE7FE2382F824304B7834
:100D1000012B35D001234FF0A0428340C2F80C359F
:100D200000F5E0704FF0A043032243F8202000209C
:100D3000CAE70625AA0002F1804202F5C0421E1849
:100D4000002443F8254086F82450D2F810450B784B
:100D50004D7824F4981424F4F8541B042D05C2F89B
:100D6000104505F4801503F4403304022B4304F4CA
:100D7000F854D2F8105523432B43C2F81035C6E778
:100D80004FF0A0428340C2F80835C9E70025D1E7FB
:100D90000125CFE70225CDE70325CBE70425C9E7E9
:100DA0000525C7E7C400002070B40F4B1A1892F94C
:100DB0002420D1B2072909D802F5A2720B4C4FF0BA
:100DC000FF36002543F8216044F8225003444FF0D9
:100DD000A04200F5E070FF24022183F8244042F88D
:100DE000201070BC704700BFC400002000600040AD
:100DF000074B184490F924309B0003F1804303F51E
:100E0000C043D3F8102542F00302C3F81025704701
:100E1000C4000020054B184490F924000C308000D9
:100E2000C0B200F1804000F5C0407047C40000200F
:100E3000054B184490F9240018308000C0B200F12E
:100E4000804000F5C0407047C40000200A4B1844A1
:100E50000A1C90F924304FEA830303F1804303F521
:100E6000C04318BF0122D3F8101521F4801141EAC4
:100E70000251C3F810157047C4000020F0B587B0C8
:100E80000023A54A01931168012900F0F5801E4650
:100E9000A24B1A68012A00F0E180A14B1A68012ACE
:100EA00000F0CE809F4B1A68012A00F0BB809E4B59
:100EB0001A68012A00F0A8809C4B1A68012A00F0E9
:100EC00095809B4B1A68012A00F08280994B1A6822
:100ED000012A70D0984B1A68012A5FD016F0FF0FD4
:100EE0001AD0964F01250024A30003F180432E421F
:100EF00003F5C0434FEA45050BD0D3F8100557F86A
:100F00002420D3F81015C0F30420C1F3014102B12D
:100F100090470134082CE7D1002E01DB07B0F0BD6B
:100F2000864C94F944204FF0FF3300219A420291FD
:100F30000393F3D0D2B222F0C00006ABC10803EB9A
:100F4000010E012602F007031EF80C5C06FA03F3FB
:100F50001D42E3D002AD2618920996F9246054F898
:100F60002670002F00F09D80032A00F09D808100F4
:100F700001F1A0411EF814ECD1F800671EEA030F3E
:100F8000C6F3014640F08480032EC7D1032A00F047
:100F90008F80002FC2D01146B847BFE700221A60E9
:100FA0001B6805934FF0A043059AD3F810350193C1
:100FB00046F0004692E7624AD2F80423120689D529
:100FC00000221A601B680493049B46F0800681E7A8
:100FD0005B4AD2F8042351067FF578AF00221A60ED
:100FE0001B680493049B46F040066FE7544AD2F80E
:100FF000042390067FF565AF00221A601B680493F6
:10100000049B46F020065CE74D4AD2F80423D40640
:101010007FF552AF00221A601B680493049B46F0D0
:10102000100649E7464AD2F8042315077FF53FAF7B
:1010300000221A601B680493049B46F0080636E7FA
:101040003F4AD2F8042357077FF52CAF00221A60DD
:101050001B680493049B46F0040623E7384AD2F841
:10106000042392077FF519AF00221A601B680493CE
:10107000049B46F0020610E73149D1F8046316F0EC
:1010800001063FF405AF136013680493049BFFE669
:10109000022E7FF443AF032A7FF47BAF4FF440323C
:1010A00008E0032A7FF43AAF6E5C1E436E545EE79D
:1010B0004FF40032D1F8003723F44033C1F8003741
:1010C000D1F800371343C1F800370FB10321B847F7
:1010D0004FF0A043019AD3F8103593423FF41EAF6E
:1010E00094F9442002990193531C03913FF416AFE5
:1010F000D2B222F0C00006ABC10803EB010E0127FB
:1011000002F007031EF80C6C07FA03F31E427FF48B
:1011100022AF07B0F0BD00BF006100400461004095
:10112000086100400C610040106100401461004003
:10113000186100401C6100407C610040C400002038
:1011400000600040034B187808B1852070470122E9
:101150001A707047100100202DE9F84F164DDFF886
:101160005C90824600264FF0010803E0FFF730FD57
:10117000A5431BD0F7B2002008FA07F4FFF720FDC3
:101180002C424FF0000006F10106EFD0D9F80030F4
:1011900014EA030BEAD11C4358468AF80070C9F8D8
:1011A0000040FFF715FD5846BDE8F88F4FF0040BDF
:1011B0005846BDE8F88F00BFFFFF0F000C0100206C
:1011C00010B501248440C4F313030BB9072010BDEC
:1011D000074B0020C3F80845FFF7F2FC054A1368E7
:1011E000002023EA04041460FFF7F2FC002010BD85
:1011F00000F001400C01002051B14AB101238340AD
:1012000010B4C3F313042CB907205DF8044B7047E6
:101210000E207047094C2468234203D108205DF852
:10122000044B7047C00000F1804303F5F833002001
:10123000C3F81015C3F81425E7E700BF0C01002020
:1012400001238340C3F313022AB1054A12681342F3
:1012500001D108207047034A0020C2F804357047C6
:101260000C01002000F0014001238340C3F313026E
:101270002AB1054A1268134201D108207047034A77
:101280000020C2F8083570470C01002000F0014032
:101290002DE9F04104792E4D66003719BF0005EBAA
:1012A000070E82B09EF808301BB1082002B0BDE8DE
:1012B000F081002A49D0EA514A68CEF804204279E8
:1012C0009E466AB19A0002F5A072076847F802E0EC
:1012D000BF58427901970133DBB29A42019FF1D89E
:1012E000804600680F4640F30730C978FFF77AFC64
:1012F000D8F800107B78D1F8042503F0030322F01E
:1013000003021343C1F80435D8F80010BB78D1F8B4
:10131000082503F0030322F003021343C1F8083544
:10132000D8F800103B78D1F81025344405EB84053B
:1013300022F00F02012003F00F0313432872002054
:10134000C1F8103502B0BDE8F0810720AEE700BF5C
:101350001401002003681A491B0B5AB2520930B419
:1013600020320125174C03F01F0305FA03F344F85C
:10137000223003680022D3F80042C3F80022036839
:101380004FF0FF32C3F80823027902FA05F39C18E4
:1013900001EB8404247A022C0AD103681D610379CD
:1013A00003EB430301EB83031D72027902FA05F399
:1013B000134401EB830100230B7230BC704700BF64
:1013C0001401002000E100E00368054A01211960D2
:1013D000037903EB430302EB830302221A72704783
:1013E0001401002003680122DA60704710B44FF442
:1013F00080348C4053B90368C3F80843036801F58F
:10140000A87143F821205DF8044B70470368C3F8C6
:101410000443F3E7F0B407689DF81060D7F8004282
:1014200040F201158D4024EA0504C7F80042056822
:10143000D5F800422343C5F800324FF480348C4085
:10144000036846B9C3F80843036801F5A87143F877
:101450002120F0BC7047C3F80443F5E710B401F154
:1014600050039B0004689BB20022E25083B0E45812
:1014700001944FF4803202FA01F10368019AC3F833
:10148000041303B05DF8044B704700BF02684FF4CB
:10149000803303FA01F1C2F80813704700B52B4BF3
:1014A0001A6883B022B12A4AD2F80423D20328D47E
:1014B000284B1A6822B1264AD2F8042390032CD470
:1014C000254B1A6822B1224AD2F80423510330D4A2
:1014D000224B1A6822B11E4AD2F80423120302D406
:1014E00003B05DF804FB00221A601D4A1B680193DB
:1014F00051681368019A4FF4A670984703B05DF8DD
:1015000004FB00221A60164A1B6801935168136895
:10151000019A4FF4A0709847CAE700221A60104A57
:101520001B68019351681368019A4FF4A2709847A1
:10153000C6E700221A600A4A1B68019351681368C3
:10154000019A4FF4A4709847C2E700BF4081004061
:101550000080004044810040488100404C810040B0
:101560001401002000B52B4B1A6883B022B12A4A1F
:10157000D2F80423D20328D4284B1A6822B1264A71
:10158000D2F8042390032CD4254B1A6822B1224AA6
:10159000D2F80423510330D4224B1A6822B11E4AD8
:1015A000D2F80423120302D403B05DF804FB002236
:1015B0001A601D4A1B6801931169D368019A4FF4A0
:1015C000A670984703B05DF804FB00221A60164A23
:1015D0001B6801931169D368019A4FF4A070984772
:1015E000CAE700221A60104A1B6801931169D36888
:1015F000019A4FF4A2709847C6E700221A600A4A7F
:101600001B6801931169D368019A4FF4A47098473D
:10161000C2E700BF4091004000900040449100406C
:10162000489100404C91004014010020014B0122E0
:101630001A7070472C0100202DE9F04F404D0FCD5E
:1016400087B001AC0FC42B6823603E4A3E4801239B
:1016500001A98DF80D30FFF75BF808B1FEF740FEE9
:1016600039483A4EDFF8E8A00546FFF769FA4FF02F
:101670000009DFF8E0B04FF0C8080027132F94BF2F
:1016800007EB8704444686F80090A4B22246002166
:101690002846FEF75BFF1128F8D03378002BFCD0EA
:1016A000224601212846FEF751FF002845D146F287
:1016B000A813DAF8002000BF00BF00BF00BF00BFC2
:1016C00000BF00BF00BF5A452FD000BF00BF00BF02
:1016D00000BF00BF00BF00BF00BF00BF00BF00BF12
:1016E00000BF00BF00BF00BF00BF00BF00BF00BF02
:1016F00000BF00BF00BF00BF00BF00BF00BF00BFF2
:1017000000BF00BF00BF00BF00BF00BF00BF00BFE1
:1017100000BF00BF00BF00BF00BF00BF00BF00BFD1
:1017200000BF00BF00BF00BF00BF013BC3D10137F6
:10173000282FA8F10508A1D19BE7FEF7D1FDB6E758
:10174000C01B00002D160000D41B00002C0100203F
:10175000000000200024F4000649074A074B9B1AAA
:1017600003DD043BC858D050FBDC00F013F8FEF753
:101770007DFD0000F41B0000000000207000002030
:10178000FEE7FEE7FEE7FEE7FEE7FEE7FEE7FEE731
:10179000FEE7FEE7F0B4B24B1A78062A1BD0B14A36
:1017A000D2F8883043F47003C2F88830BFF34F8F0B
:1017B000BFF36F8F4FF01023D3F80022002AC0F23E
:1017C0007981D3F80432002BC0F27481A64BA74A6A
:1017D0001A60F0BC704704331B681807DFD1A44BB4
:1017E0001B6803F0F002302A00F0298103F0E003C7
:1017F000402B00F024819E4B1B6803F0F003302B3C
:1018000000F00F819A4B1B6803F0F002302A00F0C1
:10181000F88003F0E003402B00F0F380944B1B684A
:1018200003F0F003302B00F0DC80914B1B6803F0D9
:10183000F002302A00F0C18003F0E003402B00F0FA
:10184000BC808B4B1B6803F0F003302B00F0A780AB
:10185000874B1B6803F0F003302B00F08980844B2A
:101860001B6803F0F003502B30D0814B1B6803F052
:10187000F002302A19D003F0E003402B15D07C4B46
:101880001B6803F0F002302A03D003F0E003402B82
:1018900085D14FF08043D3F80024D2077FF57FAF86
:1018A0006FF00102C3F8002479E7724B724A1B689B
:1018B00003F04F0313606A4B1B78062B7FF46FAF66
:1018C0006E4B1B6818077FF46AAFD8E74FF0805261
:1018D0006B4BD2F80414C3F82015D2F80814C3F8DF
:1018E0002415D2F80C14C3F82815D2F81014C3F834
:1018F0002C15D2F81414C3F83015D2F81814C3F804
:101900003415D2F81C14C3F84015D2F82014C3F8CB
:101910004415D2F82414C3F84815D2F82814C3F893
:101920004C15D2F82C14C3F85015D2F83014C3F863
:101930005415D2F83414C3F86015D2F83814C3F82B
:101940006415D2F83C14C3F86815D2F84014444822
:10195000C3F86C15D2F844140278C3F87015062A3F
:101960007FF41DAF454B1B681C077FF418AF7CE765
:10197000444E454C4549464B0527012500203F2252
:101980003760256008601A60354B1B78062B7FF4A2
:1019900006AF3A4B1B681D077FF401AF5FE7304B82
:1019A0003C4A1B780321062B11607FF4F8AE334BC1
:1019B0001B681E077FF4F3AE4AE74FF08043002216
:1019C000C3F80C21C3F81021C3F83825244B1B7829
:1019D000062B7FF470AF294B1B681F077FF4DFAE27
:1019E0002FE72D491E4ACB68127823F08073062A10
:1019F000CB607FF4D4AE214B1B681B077FF4CFAEC6
:101A000013E7264B164A1B6812782549C3F3423365
:101A1000062A0B60B8D1194B1B681A077FF4BFAEBA
:101A2000FCE60F4B1F4A1B781F491160062B7FF401
:101A3000B6AE124B1B6819077FF4B1AEE2E61B4B42
:101A4000074A1B6812781A49C3F30423062A0B605D
:101A5000BCD10A4B1B6819073FF4CDAE9FE600BF0F
:101A6000E00F00F000ED00E0000000200090D00347
:101A7000E80F00F058020010E40E0040E40F00F000
:101A800000C00040105600408856004018560040E4
:101A900014560040A0050040F0ED00E044020010A4
:101AA0003C05004074C007400DF0ADBA240300109F
:101AB00040350140184B0122C3F80425D3F8002417
:101AC000002AFBD04FF0102315221349C3F800223F
:101AD000D1F80034002BFBD04FF0102215210E4B13
:101AE000C2F80412D3F80024002AFBD000220A49CD
:101AF000C3F80425D1F80034002BFBD0BFF34F8F7F
:101B00000649074BCA6802F4E0621343CB60BFF397
:101B10004F8F00BFFDE700BF00E0014000ED00E097
:101B20000400FA0508B5074B044613B10021AFF3D2
:101B30000080054B1868836A03B19847204600F07F
:101B400031F800BF00000000E41B000070B50D4E2E
:101B50000D4CA41BA4100025A54209D10B4E0C4C22
:101B600000F022F8A41BA4100025A54205D170BDE9
:101B700056F8253098470135EEE756F82530984756
:101B80000135F2E7640000206400002064000020BA
:101B90006800002002440346934200D1704703F8D6
:101BA000011BF9E7FEE700BFF8B500BFF8BC08BCB1
:101BB0009E467047F8B500BFF8BC08BC9E4670470B
:101BC00011000000120000000000000002000000F0
:101BD000881300003C010020DC1B00000090004046
:0C1BE000010400000400002000000000D0
:081BEC0080E6FF7F010000000C
:101BF4000090D0030000000000000000000000007E
:101C040000000000000000000000000000000000D0
:101C140000000000000000000000000000000000C0
:101C240000000000000000000000000000000000B0
:101C340000000000000000000000000000000000A0
:101C44000000000000000000000000000000000090
:101C54000000000025020000010200000000000056
:040000030000175989
:00000001FF
