:1000000000000120E1020000090300000B030000D2
:100010000D0300000F0300001103000000000000AA
:1000200000000000000000000000000013030000BA
:100030001503000000000000170300001903000072
:100040001B0300001B0300001B0300001B03000038
:100050001B0300001B0300001B0300001B03000028
:100060001B0300004D0800001B0300001B030000E1
:100070001B0300001B0300001B0300001B03000008
:100080001B0300001B0300001B0300001B030000F8
:100090001B0300001B0300001B0300001B030000E8
:1000A0001B0300001B0300001B0300001B030000D8
:1000B0001B0300001B030000000000000000000004
:1000C0001B0300001B0300001B0300001B030000B8
:1000D0001B0300001B0300001B03000000000000C6
:1000E0000000000000000000000000000000000010
:1000F0000000000000000000000000000000000000
:1001000000000000000000000000000000000000EF
:1001100000000000000000000000000000000000DF
:1001200000000000000000000000000000000000CF
:1001300000000000000000000000000000000000BF
:1001400000000000000000000000000000000000AF
:10015000000000000000000000000000000000009F
:10016000000000000000000000000000000000008F
:10017000000000000000000000000000000000007F
:10018000000000000000000000000000000000006F
:10019000000000000000000000000000000000005F
:1001A000000000000000000000000000000000004F
:1001B000000000000000000000000000000000003F
:1001C000000000000000000000000000000000002F
:1001D000000000000000000000000000000000001F
:1001E000000000000000000000000000000000000F
:1001F00000000000000000000000000000000000FF
:1002000010B5054C237833B9044B13B10448AFF350
:1002100000800123237010BD780000200000000042
:10022000680900000C4B43B10C480D4910B5AFF301
:1002300000800C48036823B910BD0A48036833B92D
:100240007047094B002BF7D0BDE810401847064B0C
:10025000002BF5D0184700BF00000000680900001F
:100260007C0000207400002000000000154B002BD3
:1002700008BF134B9D46A3F5803A00218B460F46DD
:100280001348144A121A00F057FB0F4B002B00D0F2
:1002900098470E4B002B00D0984700200021040007
:1002A0000D000D48002802D00C48AFF3008000F08C
:1002B0001FFB2000290000F0F9F900F005FB00BF4A
:1002C0000000080000000120000000000000000005
:1002D000780000209C0000200000000000000000CA
:1002E0000649074A074B9B1A03DD043BC858D05008
:1002F000FBDC00F013F8FFF7B9FF00007409000001
:100300000000002078000020FEE7FEE7FEE7FEE7A1
:10031000FEE7FEE7FEE7FEE7FEE7FEE7F0B4B24BDE
:100320001A78062A1BD0B14AD2F8883043F47003F9
:10033000C2F88830BFF34F8FBFF36F8F4FF0102399
:10034000D3F80022002AC0F27981D3F80432002BBE
:10035000C0F27481A64BA74A1A60F0BC7047043300
:100360001B681807DFD1A44B1B6803F0F002302A8A
:1003700000F0298103F0E003402B00F024819E4B24
:100380001B6803F0F003302B00F00F819A4B1B68C1
:1003900003F0F002302A00F0F88003F0E003402B75
:1003A00000F0F380944B1B6803F0F003302B00F057
:1003B000DC80914B1B6803F0F002302A00F0C18012
:1003C00003F0E003402B00F0BC808B4B1B6803F074
:1003D000F003302B00F0A780874B1B6803F0F0037D
:1003E000302B00F08980844B1B6803F0F003502B06
:1003F00030D0814B1B6803F0F002302A19D003F093
:10040000E003402B15D07C4B1B6803F0F002302A30
:1004100003D003F0E003402B85D14FF08043D3F8A5
:100420000024D2077FF57FAF6FF00102C3F80024EC
:1004300079E7724B724A1B6803F04F0313606A4BF3
:100440001B78062B7FF46FAF6E4B1B6818077FF489
:100450006AAFD8E74FF080526B4BD2F80414C3F860
:100460002015D2F80814C3F82415D2F80C14C3F8D8
:100470002815D2F81014C3F82C15D2F81414C3F8A8
:100480003015D2F81814C3F83415D2F81C14C3F878
:100490004015D2F82014C3F84415D2F82414C3F838
:1004A0004815D2F82814C3F84C15D2F82C14C3F808
:1004B0005015D2F83014C3F85415D2F83414C3F8D8
:1004C0006015D2F83814C3F86415D2F83C14C3F898
:1004D0006815D2F840144448C3F86C15D2F8441497
:1004E0000278C3F87015062A7FF41DAF454B1B68D0
:1004F0001C077FF418AF7CE7444E454C4549464BFA
:100500000527012500203F223760256008601A601A
:10051000354B1B78062B7FF406AF3A4B1B681D0743
:100520007FF401AF5FE7304B3C4A1B780321062B79
:1005300011607FF4F8AE334B1B681E077FF4F3AEF7
:100540004AE74FF080430022C3F80C21C3F8102182
:10055000C3F83825244B1B78062B7FF470AF294B4A
:100560001B681F077FF4DFAE2FE72D491E4ACB68BB
:10057000127823F08073062ACB607FF4D4AE214B2F
:100580001B681B077FF4CFAE13E7264B164A1B6888
:1005900012782549C3F34233062A0B60B8D1194BB0
:1005A0001B681A077FF4BFAEFCE60F4B1F4A1B788F
:1005B0001F491160062B7FF4B6AE124B1B6819075A
:1005C0007FF4B1AEE2E61B4B074A1B6812781A496A
:1005D000C3F30423062A0B60BCD10A4B1B6819071E
:1005E0003FF4CDAE9FE600BFE00F00F000ED00E06D
:1005F000000000200090D003E80F00F05802001027
:10060000E40E0040E40F00F000C00040105600402F
:10061000885600401856004014560040A00500407F
:10062000F0ED00E0440200103C05004074C00740BB
:100630000DF0ADBA2403001040350140184B0122E3
:10064000C3F80425D3F80024002AFBD04FF0102370
:1006500015221349C3F80022D1F80034002BFBD037
:100660004FF0102215210E4BC2F80412D3F80024CB
:10067000002AFBD000220A49C3F80425D1F800342F
:10068000002BFBD0BFF34F8F0649074BCA6802F41B
:10069000E0621343CB60BFF34F8F00BFFDE700BFA5
:1006A00000E0014000ED00E00400FA0580B4604B7A
:1006B00001245C60D3F800222243C3F80022D3F85F
:1006C00004230020022142F48032C3F80423C3F83B
:1006D0000405C3F80805C3F81015C3F84015BFF3A7
:1006E0005F8F544E5449554A5548564D4FF4007744
:1006F00037601C60D1F80037534C43F00103C1F858
:100700000037D2F8443743F00103C2F84437D2F837
:10071000483743F00103C2F84837D2F84C3743F06A
:100720000103C2F84C3700684FF0A0414FF400328B
:10073000C1F80825234600BF00BF00BF00BF00BFAF
:1007400000BF00BF00BFA8422FD000BF00BF00BF46
:1007500000BF00BF00BF00BF00BF00BF00BF00BFA1
:1007600000BF00BF00BF00BF00BF00BF00BF00BF91
:1007700000BF00BF00BF00BF00BF00BF00BF00BF81
:1007800000BF00BF00BF00BF00BF00BF00BF00BF71
:1007900000BF00BF00BF00BF00BF00BF00BF00BF61
:1007A00000BF00BF00BF00BF00BF013BC3D1C1F805
:1007B0000C25234600BF00BF00BF00BF00BF00BF25
:1007C00000BF00BFA8422FD000BF00BF00BF00BFC6
:1007D00000BF00BF00BF00BF00BF00BF00BF00BF21
:1007E00000BF00BF00BF00BF00BF00BF00BF00BF11
:1007F00000BF00BF00BF00BF00BF00BF00BF00BF01
:1008000000BF00BF00BF00BF00BF00BF00BF00BFF0
:1008100000BF00BF00BF00BF00BF00BF00BF00BFE0
:1008200000BF00BF00BF00BF013BC3D180E700BFD6
:100830000090004000E100E044000050040000503F
:10084000000000200024F40040420F00194BD3F8B0
:10085000402132B30021184AC3F840111368042B19
:1008600020DD013B154913600A689A4205DD4FF00F
:10087000A0424FF48021C2F80815114A12689A422A
:1008800005DD4FF0A0424FF40021C2F808150D4AD3
:1008900012689A4205DD4FF0A0434FF48012C3F86E
:1008A000082570474FF0A0434FF4E011C3F80C1532
:1008B0006323D7E700900040980000200800002044
:1008C000040000209400002008B5074B044613B133
:1008D0000021AFF30080054B1868836A03B1984785
:1008E000204600F031F800BF00000000640900005D
:1008F00070B50D4E0D4CA41BA4100025A54209D1C6
:100900000B4E0C4C00F022F8A41BA4100025A542AD
:1009100005D170BD56F8253098470135EEE756F8F9
:10092000253098470135F2E76C0000206C0000206C
:100930006C0000207000002002440346934200D166
:10094000704703F8011BF9E7FEE700BFF8B500BFE9
:10095000F8BC08BC9E467047F8B500BFF8BC08BCA0
:0C0960009E4670470C00002000000000C4
:08096C0000F9FF7F010000000B
:100974000090D003500000001E00000000000000A2
:100984000000000000000000000000000000000063
:100994000000000000000000000000000000000053
:1009A4000000000000000000000000000000000043
:1009B4000000000000000000000000000000000033
:1009C4000000000000000000000000000000000023
:1009D40000000000000000000000000025020000EC
:0809E400010200000000000008
:04000003000002E116
:00000001FF
