:10000000000001203D020000950200009702000060
:10001000990200009B0200009D0200000000000009
:100020000000000000000000000000009F0200002F
:10003000A102000000000000A3020000A5020000D1
:10004000A9020000AB020000AD020000AF020000F8
:10005000B1020000B3020000B5020000B7020000C8
:10006000B9020000BB020000BD020000BF02000098
:10007000C1020000C3020000C5020000C702000068
:10008000C9020000CB020000CD020000CF02000038
:10009000D1020000D3020000D5020000D702000008
:1000A000D9020000DB020000DD020000DF020000D8
:1000B000E1020000E3020000A7020000A702000026
:1000C000E5020000E7020000E9020000EB02000088
:0C00D000ED020000EF020000F102000051
:1000DC00364937480A1A02D0072291438D463549D2
:1000EC0035480A1A06D00722914381F30988022267
:1000FC0082F3148831483249324A00F045F83248CC
:10010C003249334A00F040F832483349334A00F060
:10011C003BF833483349344A00F036F83348344915
:10012C00344A00F031F834483449354A00F02CF8A0
:10013C0034483549354A00F027F83548354900220E
:10014C0000F02DF834483549002200F028F83448E6
:10015C003449091A082903DB0022026004300160CB
:10016C00314A90471F482049884205D00268043024
:10017C0003B4904703BCF7E700208646EC4600200A
:10018C0000212A4A9047FEE7884207D0521A05D030
:10019C00037801300B700131013AF9D17047884274
:1001AC0002D002700130FAE7704700000000012015
:1001BC0000F800200000012000000120200A0000AF
:1001CC000000002004000020F4020000F4020000F3
:1001DC001E0A0000200A0000000000200000002081
:1001EC00200A0000200A0000200A0000200A00005B
:1001FC00200A0000200A0000200A0000200A00004B
:10020C00200A0000240A0000040000200400002042
:10021C000400002004000020040000200400002042
:10022C000400002004020020610200007709000095
:10023C000F484FF00701884385460E4880470E480B
:10024C00016841F470010160BFF34F8FBFF36F8FF2
:10025C00FFF73EBF09480A490A4A884207D0521A9A
:10026C0005D0037801300B700131013AF9D1704798
:10027C00000001202D03000088ED00E0200A0000A2
:10028C000000002000000020FEE7FEE7FEE7FEE78E
:10029C00FEE7FEE7FEE7FEE7FEE7FEE7FEE7FEE72A
:1002AC00FEE7FEE7FEE7FEE7FEE7FEE7FEE7FEE71A
:1002BC00FEE7FEE7FEE7FEE7FEE7FEE7FEE7FEE70A
:1002CC00FEE7FEE7FEE7FEE7FEE7FEE7FEE7FEE7FA
:1002DC00FEE7FEE7FEE7FEE7FEE7FEE7FEE7FEE7EA
:0802EC00FEE7FEE7FEE700BF9C
:1002F400BFF34F8F0549054BDB6803F4E062044B01
:100304001343CB60BFF34F8F00BFFDE700ED00E068
:100314000400FA05024B034A1A6000BF704700BF8D
:10032400000000200090D00308B500F05BF90346FC
:10033400002B06D09A4A9B4B1B681B0A03F01F0331
:10034400136000F07BF90346002B02D0964B974ACA
:100354001A6000F08FF90346002B06D0944A954B9F
:100364001B685B0B03F00703136000F0AFF903464F
:10037400002B05D0904A904BDB6823F08073D36048
:1003840000F0C0F90346002B0ED04FF0804300224A
:10039400C3F80C214FF080430022C3F810214FF022
:1003A40080430022C3F8382500F0D8F90346002B17
:1003B40002D0824B03221A6000F0ECF90346002BB2
:1003C4000BD07F4B05221A607E4B01221A607E4BB4
:1003D40000221A607D4B3F221A6000F0F7F90346B1
:1003E400002B76D07A4A4FF08053D3F80434C2F805
:1003F4002035774A4FF08053D3F80834C2F82435B7
:10040400734A4FF08053D3F80C34C2F82835704A3D
:100414004FF08053D3F81034C2F82C356C4A4FF0A7
:100424008053D3F81434C2F83035694A4FF08053FE
:10043400D3F81834C2F83435654A4FF08053D3F8F2
:100444001C34C2F84035624A4FF08053D3F820344C
:10045400C2F844355E4A4FF08053D3F82434C2F8CE
:1004640048355B4A4FF08053D3F82834C2F84C35F2
:10047400574A4FF08053D3F82C34C2F85035544ABD
:100484004FF08053D3F83034C2F85435504A4FF00B
:100494008053D3F83434C2F860354D4A4FF080535A
:1004A400D3F83834C2F86435494A4FF08053D3F84E
:1004B4003C34C2F86835464A4FF08053D3F8403490
:1004C400C2F86C35424A4FF08053D3F84434C2F832
:1004D400703500F097F90346002B05D03D4A3E4B9A
:1004E4001B6803F04F03136000F0B8F90346002BB8
:1004F4000DD04FF08043D3F8003403F00103002BF8
:1005040005D04FF080436FF00102C3F80024334A52
:10051400324BD3F8883043F47003C2F88830BFF309
:100524004F8FBFF36F8F4FF01023D3F80032002B9F
:1005340005DB4FF01023D3F80432002B2BDA284BC1
:100544000122C3F8042500BF254BD3F80034002B47
:10055400FAD04FF010231522C3F8002200BF204B1D
:10056400D3F80034002BFAD04FF010231522C3F82F
:10057400042200BF1A4BD3F80034002BFAD0184BD6
:100584000022C3F8042500BF154BD3F80034002B18
:10059400FAD0FFF7ADFEFFF7BDFE00BF08BD00BFF8
:1005A400403501402403001074C007400DF0ADBA7B
:1005B4003C05004044020010F0ED00E0A0050040BE
:1005C400105600408856004018560040145600400B
:1005D40000C00040E40E00405802001000ED00E0AE
:1005E40000E00140124B1B68DBB2062B1DD1114BFE
:1005F4001B6803F00F03002B17D10F4B1B6803F08C
:10060400F003302B01D1012310E00B4B1B6803F0E6
:10061400F003402B01D1012308E0074B1B6803F0D2
:10062400F003502B01D1012300E00023184670474A
:10063400E00F00F0E40F00F0E80F00F00A4B1B6835
:10064400DBB2062B0DD1094B1B6803F00F03002B03
:1006540007D1074B1B6803F0F003302B01D10123B2
:1006640000E0002318467047E00F00F0E40F00F0AC
:10067400E80F00F0124B1B68DBB2062B1DD1114BA7
:100684001B6803F00F03002B17D10F4B1B6803F0FB
:10069400F003302B01D1012310E00B4B1B6803F056
:1006A400F003402B01D1012308E0074B1B6803F042
:1006B400F003502B01D1012300E0002318467047BA
:1006C400E00F00F0E40F00F0E80F00F00A4B1B68A5
:1006D400DBB2062B0DD1094B1B6803F00F03002B73
:1006E40007D1074B1B6803F0F003302B01D1012322
:1006F40000E0002318467047E00F00F0E40F00F01C
:10070400E80F00F0124B1B68DBB2062B1DD1114B16
:100714001B6803F00F03002B17D10F4B1B6803F06A
:10072400F003302B01D1012310E00B4B1B6803F0C5
:10073400F003402B01D1012308E0074B1B6803F0B1
:10074400F003502B01D1012300E000231846704729
:10075400E00F00F0E40F00F0E80F00F00A4B1B6814
:10076400DBB2062B0DD1094B1B6803F00F03002BE2
:1007740007D1074B1B6803F0F003302B01D1012391
:1007840000E0002318467047E00F00F0E40F00F08B
:10079400E80F00F00A4B1B68DBB2062B0DD1094BA6
:1007A4001B6803F00F03002B07D1074B1B6803F0F2
:1007B400F003302B01D1012300E0002318467047D9
:1007C400E00F00F0E40F00F0E80F00F00A4B1B68A4
:1007D400DBB2062B0DD1094B1B6803F00F03002B72
:1007E40007D1074B1B6803F0F003502B01D1012301
:1007F40000E0002318467047E00F00F0E40F00F01B
:10080400E80F00F0124B1B68DBB2062B1DD1114B15
:100814001B6803F00F03002B17D10F4B1B6803F069
:10082400F003302B01D1012310E00B4B1B6803F0C4
:10083400F003402B01D1012308E0074B1B6803F0B0
:10084400F003502B01D1012300E000231846704728
:10085400E00F00F0E40F00F0E80F00F0124B1B680B
:10086400DBB2062B1DD1114B1B6803F00F03002BC9
:1008740017D10F4B1B6803F0F003302B01D1012378
:1008840010E00B4B1B6803F0F003402B01D1012354
:1008940008E0074B1B6803F0F003502B01D1012340
:1008A40000E0002318467047E00F00F0E40F00F06A
:1008B400E80F00F084B00190244B0393019B002BBC
:1008C40040D0234B1A680399019B00BF00BF00BFAF
:1008D40000BF00BF00BF00BF00BF8A422FD000BFCF
:1008E40000BF00BF00BF00BF00BF00BF00BF00BF0C
:1008F40000BF00BF00BF00BF00BF00BF00BF00BFFC
:1009040000BF00BF00BF00BF00BF00BF00BF00BFEB
:1009140000BF00BF00BF00BF00BF00BF00BF00BFDB
:1009240000BF00BF00BF00BF00BF00BF00BF00BFCB
:1009340000BF00BF00BF00BF00BF00BF00BF013B3E
:10094400C3D1019300BF04B0704700BF0024F4007A
:100954000000002000B583B00190019B4FF47A722F
:1009640002FB03F31846FFF7A5FF00BF03B05DF8D1
:1009740004FB00B583B000F036F81123019314E0B2
:100984004FF0A0414FF0A043D3F804350120019A61
:1009940000FA02F2D2431340C1F804354FF4FA705E
:1009A400FFF7D8FF019B01330193019B142BE7DD73
:1009B4001123009313E04FF0A0414FF0A043D3F86C
:1009C40004350120009A00FA02F21343C1F80435F9
:1009D4004FF4FA70FFF7BEFF009B01330093009BB6
:1009E400142BE8DDC9E782B011238DF807300DE040
:1009F4004FF0A0429DF8073003F5E073012142F85F
:100A040023109DF8073001338DF807309DF8073027
:0A0A1400142BEDD900BF02B07047AB
:040A20000090D0036F
:040000030000023DBA
:00000001FF
