:1000000000000120E90F0000111000001310000093
:10001000151000001710000019100000000000006B
:100020000000000000000000000000001B100000A5
:100030001D100000000000001F1000002110000033
:1000400023100000231000005D0C000023100000AE
:1000500023100000231000002310000023100000D4
:1000600023100000231000002310000023100000C4
:1000700023100000231000002310000023100000B4
:1000800023100000231000002310000023100000A4
:100090002310000023100000231000002310000094
:1000A0002310000023100000231000002310000084
:1000B00023100000231000000000000000000000DA
:1000C0002310000023100000231000002310000064
:1000D0002310000023100000231000000000000087
:1000E0000000000000000000000000000000000010
:1000F0000000000000000000000000000000000000
:1001000000000000000000000000000000000000EF
:1001100000000000000000000000000000000000DF
:1001200000000000000000000000000000000000CF
:1001300000000000000000000000000000000000BF
:1001400000000000000000000000000000000000AF
:10015000000000000000000000000000000000009F
:10016000000000000000000000000000000000008F
:10017000000000000000000000000000000000007F
:10018000000000000000000000000000000000006F
:10019000000000000000000000000000000000005F
:1001A000000000000000000000000000000000004F
:1001B000000000000000000000000000000000003F
:1001C000000000000000000000000000000000002F
:1001D000000000000000000000000000000000001F
:1001E000000000000000000000000000000000000F
:1001F00000000000000000000000000000000000FF
:1002000010B5054C237833B9044B13B10448AFF350
:1002100000800123237010BD7C000020000000003E
:10022000282400000C4B43B10C480D4910B5AFF326
:1002300000800C48036823B910BD0A48036833B92D
:100240007047094B002BF7D0BDE810401847064B0C
:10025000002BF5D0184700BF000000002824000044
:10026000800000207800002000000000154B002BCB
:1002700008BF134B9D46A3F5803A00218B460F46DD
:100280001348144A121A01F0CDF80F4B002B00D07E
:1002900098470E4B002B00D0984700200021040007
:1002A0000D000D48002802D00C48AFF3008001F08B
:1002B00095F82000290000F055FE01F07BF800BF02
:1002C0000000080000000120000000000000000005
:1002D0007C000020F8020020000000000000000068
:1002E00030B44FF0A04303224FF400354FF4802484
:1002F0004FF400204FF48011C3F84427C3F8482777
:10030000C3F84C27C3F85027C3F80855C3F808456D
:10031000C3F80805C3F8081530BC704700B585B0B0
:1003200000230390194601AA44F20100ADF80430FD
:10033000029300F003F805B05DF804FB084B1B685E
:10034000DB0700D5FFDEBFF34F8F0649064BCA68B7
:1003500002F4E0621343CB60BFF34F8F00BFFDE7B1
:10036000F0ED00E000ED00E00400FA0559B10AB933
:1003700009207047531E1A40FAD1826001608380C1
:10038000C260104670470E20704700BF10B48468EA
:10039000C26803468088121B904203D204205DF895
:1003A000044B7047DA681C6802400020A154DA68E8
:1003B0000132DA605DF8044B704700BF0346806885
:1003C000DA6890420DD010B498689A881C68024090
:1003D0000020A25C0A709A6801329A605DF8044BB2
:1003E00070470520704700BF30B50478012C83B0FA
:1003F0001FD010D3022C0CD1C36826492648019384
:1004000001228DF8004000F0E9FA244B68461B6891
:10041000984703B030BD22492248FFF7CFFF28B3E9
:1004200002A8032300F8083D1C4B1B68984703B043
:1004300030BD43681C4D19782846FFF7A7FFD8B98F
:10044000AA68EB689A4206D002AB144A03F8080D7A
:10045000126818469047A968EB68AA885B1A9A4206
:1004600012D2124B01221A7003B030BD01220C4986
:10047000094800F0FDF9CCE7084B01908DF80040E9
:100480001B6868469847E6E701220249024800F0E7
:10049000A5FABEE7C0000020000000209800002060
:1004A000C4000020B00000209C000020AC00002010
:1004B0002DE9F0432F4C89B02260002952D00C4620
:1004C00080468A882C4809689946FFF74FFF10B18B
:1004D00009B0BDE8F083A289A1682848FFF746FF6C
:1004E0000028F5D1264D98F810E0D8F80C70D8F80F
:1004F00008600FCD6C460FC495E80F0098F81150B6
:1005000002971EF1000E18BF4FF0010E002D84E877
:100510000F00D8F80050D8F804401A4A1A488DF84D
:100520001C9014BF0E2300238DF815306946D8F8AF
:1005300014308DF814E0069303968DE8300000F037
:10054000ABF80028C4D1D8F80030104A013310703D
:10055000BED09DF81D304BB101220D490A4800F074
:100560003DFAB5E7072009B0BDE8F083064800F082
:100570004FFBF1E7980000209C000020B000002015
:1005800040230000E903000000000020AC00002030
:10059000C000002070B50B4C01460B482678FFF7D1
:1005A0000DFF05460EB9284670BD002301220749FC
:1005B0000748237000F012FA0028F4D0FFF7AEFECF
:1005C000284670BDAC0000209C000020C000002028
:1005D0000000002010B501460C48FFF7D7FE044686
:1005E00008B1204610BD0A4800F0ECF90028F8D107
:1005F00008490648FFF7E2FE0028F2D1012205492A
:100600000348BDE8104000F033B900BFB00000203F
:1006100000000020C400002070B5161E07DD0C4647
:100620008D1914F8010BFFF7D5FFA542F9D130461B
:1006300070BD00BF10B50C462046FFF7ABFF052884
:10064000FAD0012010BD00BF002810B418DB00F163
:10065000604303F561434901C9B283F80013C3B293
:100660004009800000F1604000F5614003F01F0286
:1006700001239340C0F8803103605DF8044B70475C
:10068000C3B2044A03F00F0449012244C9B21176EF
:10069000E6E700BFFCEC00E0F0B50479714E6401C0
:1006A000331987B0DD7E15B1082007B0F0BD4D7F4E
:1006B0001D770D686B1C0BD04FF0A0470123AB409A
:1006C000C7F808350B6803F5E073032547F8235096
:1006D0004B685F1C06D003F5E0734FF0A045002780
:1006E00045F82370037906EB43131B7F002B4CD096
:1006F00003688D69C3F824550F7D4B7D05683B4326
:10070000C5F86C3503680F684D68C3F80C75C3F8FD
:1007100014550B7D012B00F09A80331905465A6061
:100720000B693351EAB10379097F026806EB431381
:100730001B7F002B65D1C2F81C31D2F81C712A68CE
:100740000097009FC2F84431D2F844212B684648F4
:100750000192019AC3F80403286840F30730FFF7B9
:1007600073FF2B792A6806EB43131B7F002B44D0C1
:100770000823C2F80035344400200123E376E075F5
:100780002076A075A07607B0F0BD05688F69C5F822
:10079000247591F814E04D7D076845EA0E05C7F809
:1007A0006C550568D1F800E04F68C5F81475C5F8B8
:1007B0000CE50D7D012DB0D18D686F1C05D005F5C0
:1007C000E0754FF0A04747F82530CB685D1C0DD091
:1007D00001254FF0A04705FA03F3C7F80835CB68A9
:1007E00003F5E073032547F82350CB6805688F684D
:1007F000C5F80835C5F810758FE70423C2F8003531
:10080000B9E70023C2F81031D2F810712A680297B4
:10081000029FC2F82031D2F820712A680397039F03
:10082000C2F82431D2F824712A680497049FC2F8D0
:100830004431D2F844212B6805920C48059AC3F83C
:100840000403286840F30730FFF7FEFE89E78B6852
:100850005D1CBAD003F5E0734FF0A045002745F8C2
:100860002370B2E7C80000208000020010030200DD
:10087000F0B50379524C5B01E51887B02D7F3DB18F
:1008800001F06045B5F1005F02D0102007B0F0BD67
:1008900023449E7D16B1112007B0F0BD9A75996072
:1008A0009E8205796D016219137F13BB0168C1F83F
:1008B0001C31D1F81C61016804960126049F8E60EA
:1008C0000168D2F808E0C1F81C31D1F81C31059359
:1008D000059B968A938A5768B6B201331EF8066064
:1008E0009BB29382C1F81C65002F2FD0002007B067
:1008F000F0BD03689168C3F82061D3F820710368E4
:100900000197019FC3F85861D3F8586103680296B4
:10091000967D029FC3F84415C3F84865036801211A
:1009200099605368002BE1D1036801E0002945D1AB
:10093000D3F82021D3F85811002AF7D0002914BF8A
:100940000F2000202C440023A3759FE7967D938AF7
:100950009BB29E4202F1140122D9016804E0938AFD
:100960009BB2B3F5807F03D0D1F81C31002BF6D0B9
:10097000938A9BB2B3F5807FE9D0C1F81C71D1F89E
:100980001C310393039BB2F814C0938A1FFA8CFCAA
:1009900001331EF80CC09BB29382C1F81CC5D6E788
:1009A0000B889BB2B3F5807F08D00268D2F81C3167
:1009B000002BFBD00123D3600020C3E70F20C1E749
:1009C000C80000200279044B03EB4213987D0030ED
:1009D00018BF0120704700BFC8000020F0B40379A1
:1009E0008A4E5B01F41888B0257F45B101F060455F
:1009F000B5F1005F54D0102008B0F0BC70476568B6
:100A0000002D3FD13344DC7D54BBDA75D9605C7670
:100A10001C7605796D0173191F7F002F4DD19B7EC8
:100A20008BB984B90368C3F82441D3F8242103683F
:100A30000392039AC3F80841D3F80821036804928B
:100A4000012204991A6072195368002B6BD0036855
:100A50004FF401720020C3F8042308B0F0BC7047C3
:100A60001C7ECCB1002D00F0AA80037906EB431662
:100A7000337F002B50D003684FF40472C3F8042373
:100A80001120B9E704684FF401773344C4F80873C0
:100A9000DC7D002CB9D0E3E719611A760124B8E7B0
:100AA0006568002DAED004684FF404773344C4F871
:100AB0000873DC7D002CA8D0D2E703680025C3F8BA
:100AC0001051D3F8107103680197019FC3F8445186
:100AD000D3F8445103680295029DC3F83415C3F856
:100AE00038258CB9036801221A6002795201B318C3
:100AF0005B68002B65D003684FF404720020C3F8D4
:100B0000042308B0F0BC70470268D2F8003243F00A
:100B10002003C2F80032E8E703684FF40172C3F81B
:100B20000423112068E70168C1F84431D1F8443149
:100B30000593059B0368D3F82471D3F80841D3F8D3
:100B4000441144B9002933D1002FF4D03544002397
:100B5000EB75032050E7002FF8D159BBD47DECB1E1
:100B6000C3F80811D3F8081106910699D468517E8C
:100B7000D3F818356354537ED17D0133DBB25376FD
:100B8000537E9942D6D835440022AB7EEA75002BBD
:100B900037D003680121104619602DE7C3F80841DA
:100BA000D3F8081107910799D3F81835537EEAE76F
:100BB000002FCBD135440023EB750F201CE711200B
:100BC0001AE7036801E0A4B9B8B9D3F81011D3F853
:100BD0004441D3F824010029F5D000284FF0000348
:100BE000324414BF032018469C42D37518BF0F200F
:100BF00002E732440F20D175FEE632440320D4755B
:100C0000FAE60268012118465160F5E6C8000020A6
:100C1000114A037902EB4313197FD9B99B7ECBB9F3
:100C200010B4016883B0C1F82431D1F824410168BF
:100C30000094009CC1F80831D1F808310168019393
:100C40000123019C0B60017902EB4112937603B002
:100C50005DF8044B704700BFC800002070B5A54C7C
:100C6000237F8EB0002B73D1A34AD2F804138905D9
:100C700046D4A14BD3F80423520704D5D3F8082156
:100C8000002A40F0C9809C4BD3F81C21BAB1A28A3B
:100C9000A17D92B28A424FF00002C3F81C2180F07D
:100CA000A880D3F81C210692069AA18AA28AA0687D
:100CB00089B20132415C92B2A282C3F81C158E4BFC
:100CC000D3F84421D2B10022C3F84421D3F844110F
:100CD000A27E04910499002A40F08880E37D6BB1E4
:100CE0000023617EE268E37501238DF830108DF8F2
:100CF00028300B9294E80A000AA898470EB070BDFD
:100D0000D2F824110029B4D0C2F82431D2F8241129
:100D1000A37E07914FF401710798C2F808130BB92D
:100D200001235360744A02238DF82830D2F88034AE
:100D3000C2F88034E07DE2680D9300238DF8300026
:100D4000E375237621680B9263680AA898479AE7AF
:100D5000694BD3F82421002A40F09280D3F8101177
:100D600061B1C3F81021D3F8101103910399D3F89E
:100D70003C15E07DC9B2884200F0A4805E4BD3F8F8
:100D80004421B2B10022C3F84421D3F84401E17DEB
:100D90000190019869B1D3F83C35E1688DF83030A5
:100DA00001230B918DF82830E27594E80A000AA817
:100DB0009847514BD3F82021002A9FD00022C3F836
:100DC0002021D3F82001A17D00900098002995D022
:100DD000D3F84C15A3688DF830100B938DF82820AC
:100DE000A27594E80A000AA8984787E701221A60CA
:100DF00074E7D3F81C310593059B00293FF45FAFDE
:100E0000A3688DF830100B938DF82820A27594E814
:100E10000A000AA8984752E7E27D002A6ED0002215
:100E2000C3F80821D3F808210892089AE168627E85
:100E3000D3F818358B54637EE27D0133DBB26376E1
:100E4000637E93427FF41FAF237E002B6CD1A37E81
:100E500013B9294B01225A60274AE06863684FF4AE
:100E60000171C2F80813627E8DF83020002501223E
:100E70000B902168E5758DF828200AA8984702E7AD
:100E80000022C3F82421D3F82411029102218DF805
:100E900028100299D3F88014C3F880140D91D3F868
:100EA0003C15E368E27522768DF830100B932168CB
:100EB00063680AA89847104BD3F84421002A3FF4EE
:100EC00078AF5FE7217E11B3D3F80062E568E17582
:100ED00026F02006C3F8006226698DF83000012351
:100EE0008DF82830227621680B95E66063680AA8A1
:100EF000984743E7C800002000200040C3F80821BD
:100F0000D3F8081109910999D3F8183598E7E268E0
:100F1000E17501238DF830008DF828300B9294E8AC
:100F20000A000AA8984729E7607EE5682169E37509
:100F3000012200238DF83000E160237663760B9563
:100F40008DF8282094E80A000AA898479BE600BF7D
:100F50000378022B02D0012B00D070474068FFF7C6
:100F6000DDB900BF30B51A4D8BB0FFF7B9F9194B99
:100F700000930FCD04AC0FC495E80300164A174D3B
:100F8000029584E8030007234FF48074694604A89F
:100F900001940394FFF78CFAB8B9114800F04AFAAB
:100FA0006846FFF7F7FA0028FAD19DF80000FFF72E
:100FB00011FB0028F9D19DF8003003F0DF03512B1D
:100FC000EED1084800F036FAFEE7FFF7A7F9E4E7AC
:100FD00060230000E8000020510F0000E80100201D
:100FE00078230000842300000649074A074B9B1A18
:100FF00003DD043BC858D050FBDC00F013F8FFF7CA
:1010000035F9000034240000000000207C0000209E
:10101000FEE7FEE7FEE7FEE7FEE7FEE7FEE7FEE7A8
:10102000FEE7FEE7F0B4B24B1A78062A1BD0B14AAD
:10103000D2F8883043F47003C2F88830BFF34F8F82
:10104000BFF36F8F4FF01023D3F80022002AC0F2B5
:101050007981D3F80432002BC0F27481A64BA74AE1
:101060001A60F0BC704704331B681807DFD1A44B2B
:101070001B6803F0F002302A00F0298103F0E0033E
:10108000402B00F024819E4B1B6803F0F003302BB3
:1010900000F00F819A4B1B6803F0F002302A00F039
:1010A000F88003F0E003402B00F0F380944B1B68C2
:1010B00003F0F003302B00F0DC80914B1B6803F051
:1010C000F002302A00F0C18003F0E003402B00F072
:1010D000BC808B4B1B6803F0F003302B00F0A78023
:1010E000874B1B6803F0F003302B00F08980844BA2
:1010F0001B6803F0F003502B30D0814B1B6803F0CA
:10110000F002302A19D003F0E003402B15D07C4BBD
:101110001B6803F0F002302A03D003F0E003402BF9
:1011200085D14FF08043D3F80024D2077FF57FAFFD
:101130006FF00102C3F8002479E7724B724A1B6812
:1011400003F04F0313606A4B1B78062B7FF46FAFDD
:101150006E4B1B6818077FF46AAFD8E74FF08052D8
:101160006B4BD2F80414C3F82015D2F80814C3F856
:101170002415D2F80C14C3F82815D2F81014C3F8AB
:101180002C15D2F81414C3F83015D2F81814C3F87B
:101190003415D2F81C14C3F84015D2F82014C3F843
:1011A0004415D2F82414C3F84815D2F82814C3F80B
:1011B0004C15D2F82C14C3F85015D2F83014C3F8DB
:1011C0005415D2F83414C3F86015D2F83814C3F8A3
:1011D0006415D2F83C14C3F86815D2F8401444489A
:1011E000C3F86C15D2F844140278C3F87015062AB7
:1011F0007FF41DAF454B1B681C077FF418AF7CE7DD
:10120000444E454C4549464B0527012500203F22C9
:101210003760256008601A60354B1B78062B7FF419
:1012200006AF3A4B1B681D077FF401AF5FE7304BF9
:101230003C4A1B780321062B11607FF4F8AE334B38
:101240001B681E077FF4F3AE4AE74FF0804300228D
:10125000C3F80C21C3F81021C3F83825244B1B78A0
:10126000062B7FF470AF294B1B681F077FF4DFAE9E
:101270002FE72D491E4ACB68127823F08073062A87
:10128000CB607FF4D4AE214B1B681B077FF4CFAE3D
:1012900013E7264B164A1B6812782549C3F34233DD
:1012A000062A0B60B8D1194B1B681A077FF4BFAE32
:1012B000FCE60F4B1F4A1B781F491160062B7FF479
:1012C000B6AE124B1B6819077FF4B1AEE2E61B4BBA
:1012D000074A1B6812781A49C3F30423062A0B60D5
:1012E000BCD10A4B1B6819073FF4CDAE9FE600BF87
:1012F000E00F00F000ED00E0080000200090D003B7
:10130000E80F00F058020010E40E0040E40F00F077
:1013100000C000401056004088560040185600405B
:1013200014560040A0050040F0ED00E0440200101B
:101330003C05004074C007400DF0ADBA2403001016
:1013400040350140184B0122C3F80425D3F800248E
:10135000002AFBD04FF0102315221349C3F80022B6
:10136000D1F80034002BFBD04FF0102215210E4B8A
:10137000C2F80412D3F80024002AFBD000220A4944
:10138000C3F80425D1F80034002BFBD0BFF34F8FF6
:101390000649074BCA6802F4E0621343CB60BFF30F
:1013A0004F8F00BFFDE700BF00E0014000ED00E00F
:1013B0000400FA0508B5074B044613B10021AFF34A
:1013C0000080054B1868836A03B19847204600F0F7
:1013D000A9FF00BF000000009023000070B50D4E73
:1013E0000D4CA41BA4100025A54209D10B4E0C4C9A
:1013F00000F09AFFA41BA4100025A54205D170BDE2
:1014000056F8253098470135EEE756F825309847CD
:101410000135F2E77000002070000020700000200D
:101420007400002002440346934200D1704703F841
:10143000011BF9E70FB40A4B13B51C6824B1A3696B
:1014400013B9204600F04EF805AB049AA168019349
:10145000204600F059F902B0BDE8104004B07047D2
:101460000C000020014900F0A9B800BFDD1F0000FA
:10147000002310B5044603604360836081814366A6
:10148000C281036143618361194608225C30FFF722
:10149000C9FF054B6362054BA362054BE362054B35
:1014A0002462236310BD00BF811C0000A31C000048
:1014B000DB1C0000FF1C000070B54A1E6825554368
:1014C0000E4605F1740100F097F8044640B1002182
:1014D00080E842000C30A06005F16802FFF7A2FF2F
:1014E000204670BD836910B5044633BB8364C36472
:1014F0000365124B124A1B688262984204BF0123A3
:10150000836100F01FF86060204600F01BF8A060C7
:10151000204600F017F80022E06004216068FFF721
:10152000A7FF01220921A068FFF7A2FF02221221D2
:10153000E068FFF79DFF0123A36110BD9023000029
:1015400065140000F8B51C4B1E68B369074613B953
:101550003046FFF7C7FF4836B4687368013B03D5D0
:10156000336833B13668F7E7B4F90C506DB16834BD
:10157000F4E704213846FFF79FFF30600028F1D1DF
:101580000C233B6004462046F8BD4FF6FF73E38111
:101590000123A38165662560A5606560256165619D
:1015A000A5610822294604F15C00FFF73BFF656353
:1015B000A563A564E564E6E7902300002DE9F84300
:1015C0008046894600F14804002614B93046BDE83B
:1015D000F883A5686768013F01D52468F5E7AB8902
:1015E000012B07D9B5F90E30013303D02946404607
:1015F000C84706436835EEE770B5CD1C25F00305F6
:1016000008350C2D38BF0C25002D064601DBA942FC
:1016100003D90C233360002070BD00F0D1FD234AB4
:101620001468214691B9224C23681BB9304600F05A
:1016300017FB20602946304600F012FB431C26D1E0
:101640000C233360304600F0BCFDE4E70B685B1B05
:101650001AD40B2B0FD90B60CD50CC18304600F0AC
:10166000B0FD04F10B00231D20F00700C31A1BD0AE
:101670005A42E25070BD8C420DBF63684B68636094
:10168000136018BF0C46E9E70C464968CAE7C41C5A
:1016900024F00304A04205D0211A304600F0E0FAFD
:1016A0000130CDD02560D9E770BD00BFE802002031
:1016B000EC0200209368013B002B10B4936009DA20
:1016C0009469A34202DBCBB20A2B03D15DF8044B31
:1016D00000F01ABB1368581C10601970C8B25DF88E
:1016E000044B7047F8B506460F461446D518AC4271
:1016F00001D1002007E03A4614F8011B3046FFF7FD
:10170000D9FF431CF3D1F8BD2DE9F04F9DB00C4635
:1017100017460393064618B183690BB9FFF7E2FE3B
:101720007C4B9C4257D17468A38918075DD5236907
:10173000002B5AD00023099320238DF82930302321
:101740008DF82A304FF0010BB846454615F8013B9D
:10175000002B55D1B8EB070A0BD053463A46214629
:101760003046FFF7BFFF013000F0C480099B5344AF
:10177000099398F80030002B00F0BC8000234FF054
:10178000FF3204930793059206938DF853301A9312
:1017900005222978604800F0C3FC05F10108049B8C
:1017A000002831D1D90644BF20228DF853201A07D2
:1017B00044BF2B228DF853202A782A2A2CD0079A4E
:1017C00000210A20A846013598F80030303B092B4B
:1017D0006DD971B326E0514B9C4201D1B468A3E7A7
:1017E0004F4B9C4208BFF4689EE72146304600F00C
:1017F000EFFA00289ED04FF0FF301DB0BDE8F08F0B
:10180000252BA7D0A846A0E7434A801A0BFA00F080
:10181000184304904546BBE7039A111D12680391D3
:10182000002A01DB079204E0524243F002030792D0
:10183000049398F800302E2B10D198F801302A2B01
:1018400008F1010137D1039B1A1D1B680392002B7D
:10185000B8BF4FF0FF3308F102080593314D98F8F7
:1018600000100322284600F05BFC40B14023401BDF
:1018700003FA00F0049B0343049308F1010898F86D
:10188000001029488DF82810062208F1010700F001
:1018900047FC002834D0254B03BB039B073323F0C0
:1018A000070308330393099B4B4409934CE700FB60
:1018B0000232012186E70023059318460A2588464F
:1018C000013198F80020303A092A03D9002BC5D0FD
:1018D0000590C3E705FB00200123F0E703AB00936D
:1018E0002246134B04A93046AFF30080B0F1FF3F0E
:1018F0008146D8D1A3895B063FF57DAF09987CE787
:1019000003AB009322460A4B04A9304600F088F846
:10191000ECE700BFB4230000F4230000D423000050
:1019200094230000FA230000FE23000000000000C2
:10193000E51600002DE9F04791461F468A680B69BD
:10194000DDF820809342B8BF1346C9F8003091F803
:10195000432006460C4612B10133C9F80030236813
:10196000990642BFD9F800300233C9F80030256823
:1019700015F0060507D104F1190AE368D9F800202B
:101980009B1A9D4229DB94F843302268003318BF2C
:10199000012392062ED404F1430239463046C04753
:1019A000013021D02368E568D9F8002003F0060350
:1019B000042B08BFAD1AA36822690CBF25EAE575A0
:1019C00000259342C4BF9B1AED184FF000091A344A
:1019D0004D451BD10020BDE8F08701235246394612
:1019E0003046C047013003D14FF0FF30BDE8F087EB
:1019F0000135C2E7E1185A1C302081F84300224427
:101A000094F8451082F843100233C4E701232246BC
:101A100039463046C0470130E6D009F10109D7E721
:101A20002DE9F04317460A7E85B06E2A9846064691
:101A30000C460C9B01F1430E00F0BC801AD8632ABF
:101A40002ED00AD8002A00F0C880582A00F08A80D8
:101A500004F1420584F842202AE0642A01D0692A70
:101A6000F6D121681A6811F0800F23D0111D19607A
:101A7000136827E0732A00F0B48008D86F2A2AD0B0
:101A8000702AE5D10A6842F020020A6003E0752A54
:101A900021D0782ADCD1782284F845206E4964E090
:101AA0001A6801F14205111D1960136884F842306B
:101AB0000123A3E011F0400F02F104011960D7D017
:101AC000B2F90030002B03DA2D225B4284F8432068
:101AD00062490A2217E02068196810F0800F03D0CD
:101AE000081D18600B6806E010F0400F01F10400BB
:101AF0001860F7D00B8859496F2A14BF0A220822B0
:101B0000002084F843006568A560002DC0F29C8029
:101B1000206820F004002060002B3FD1002D40F011
:101B200095807546082A0BD12368DA0708D5236902
:101B300062689A42DEBF302305F8013C05F1FF35AB
:101B4000AEEB05032361CDF800803B4603AA214696
:101B50003046FFF7EFFE013055D14FF0FF3005B0B2
:101B6000BDE8F08381F845203C492268186812F0EE
:101B7000800F00F104051D6001D0036802E05506E6
:101B8000FBD50388D00744BF42F0200222601BB976
:101B9000226822F0200222601022B1E77546B3FBD2
:101BA000F2F002FB1033CB5C05F8013D0346002840
:101BB000F5D1B7E708681A68496910F0800F04D0BA
:101BC000101D18601368196007E010F0400F02F153
:101BD000040018601368F6D019800023236175464D
:101BE000B1E71A68111D196015686268002128465E
:101BF00000F096FA08B1401B60606368236100231F
:101C000084F843309FE723692A4639463046C04767
:101C10000130A2D023689B0707D5002504F11909DC
:101C2000E368039A9B1A9D4205DBE068039B984298
:101C3000B8BF184693E701234A4639463046C047A5
:101C400001308AD00135EBE7002BA7D10B7884F85F
:101C5000423004F1420565E7162400000524000027
:101C600038B5064C002305460846236000F04CFBBF
:101C7000431C02D1236803B12B6038BDF40200205D
:101C800010B50C46B1F90E1000F0EAFA0028ABBF0F
:101C9000636DA3891B1823F48053ACBF6365A381D4
:101CA00010BD2DE9F0411F468B89DB0505460C462A
:101CB000164605D502230022B1F90E1000F0B8F93E
:101CC000A389B4F90E1023F48053A38132463B4616
:101CD0002846BDE8F04100F069B810B50C46B1F9EE
:101CE0000E1000F0A5F9431CA38915BF606523F40D
:101CF000805343F48053A38118BFA38110BDB1F971
:101D00000E1000F0D3B80000F8B50E461446054694
:101D100018B183690BB9FFF7E5FB214B9C422AD12F
:101D20006C68A369A360A3891A072ED5236963B3DE
:101D300023692068C01A6369F6B29842374604DB0B
:101D40002146284600F04AF928BBA368013BA3605E
:101D500023685A1C22601E7063690130984204D0C7
:101D6000A389DB0719D50A2E17D12146284600F092
:101D700035F990B10FE00B4B9C4201D1AC68D0E734
:101D8000094B9C4208BFEC68CBE72146284600F08F
:101D90001FF80028CCD04FF0FF373846F8BD00BF01
:101DA000B4230000D42300009423000038B5074C6E
:101DB000054608461146002222601A46FEF72CFC12
:101DC000431C02D1236803B12B6038BDF40200200C
:101DD000324B70B51D6806460C4625B1AB6913B988
:101DE0002846FFF77FFB2E4B9C420FD16C68B4F95D
:101DF0000C309AB215072CD4D00611D409223260C7
:101E000043F04003A3814FF0FF3070BD254B9C424F
:101E100001D1AC68EBE7244B9C4208BFEC68E6E7D5
:101E2000510712D5616B41B104F14403994202D0CC
:101E3000304600F0C7F900236363A38923F024032D
:101E4000A3810023636023692360A38943F008030F
:101E5000A38123694BB9A38903F42073B3F5007FF1
:101E600003D02146304600F019F9A28912F001038F
:101E70000CD00023A36063695B42A361236953B95B
:101E8000B4F90C3013F08000BAD170BD920758BF7E
:101E90006369A360F2E70020F7E700BF0C000020B1
:101EA000B4230000D42300009423000038B5064C6E
:101EB000002305460846236000F006FA431C02D1C1
:101EC000236803B12B6038BDF40200208A892DE914
:101ED000F041054610070C465AD44B68002B05DC30
:101EE0000B6C002B02DC0020BDE8F081E66A002EBE
:101EF000F9D0002312F480522F682B6033D0606D2C
:101F0000A3895A0705D56368C01A636B0BB1236CAC
:101F1000C01A00230246E66A216A2846B047431CDD
:101F2000A38906D129681D294BD82B4ACA40D60758
:101F300047D500226260D9042269226004D5421C80
:101F400001D12B6803B96065616B2F600029CAD08D
:101F500004F14403994202D0284600F033F90020EE
:101F60006063BDE8F081216A01232846B047411C27
:101F7000C6D12B68002BC3D01D2B01D0162B01D14D
:101F80002F60B0E7A38943F04003A381BDE8F0814F
:101F90000F69002FA7D093070E6808BF4B690F6029
:101FA00018BF0023A6EB07088B60B8F1000F9ADD7D
:101FB00043463A46216AA66A2846B047002807DC0D
:101FC000A38943F04003A3814FF0FF30BDE8F081C7
:101FD0000744A8EB0008E8E70100402038B50B698A
:101FE00005460C46DBB118B183690BB9FFF77AFAE5
:101FF0000C4B9C4209D16C68B4F90C307BB1214682
:102000002846BDE83840FFF761BF074B9C4201D12D
:10201000AC68F1E7054B9C4208BFEC68ECE7002098
:1020200038BD00BFB4230000D42300009423000077
:1020300038B5074C054608461146002222601A466C
:1020400000F05AF9431C02D1236803B12B6038BD5C
:10205000F402002070B50E46B1F90E10002990B0C0
:1020600014461D4607DA00232B60B3891A0610D4E4
:102070004FF480630EE001AA00F004F90028F2DBBF
:10208000029A02F47042A2F500535A425A412A6061
:10209000EEE740230020236010B070BD8B8973B53C
:1020A0009D0706460C4607D504F1470323602361CC
:1020B0000123636102B070BD01AB6A46FFF7CAFF3E
:1020C000009905463046FFF797FA48B9B4F90C3045
:1020D0009A05EFD423F0030343F00203A381E3E75F
:1020E0000D4BB362A389206043F08003A381009B62
:1020F0006361019B20615BB1B4F90E10304600F0C2
:10210000D3F828B1A38923F0030343F00103A3818B
:10211000A3891D43A581CDE76514000000000000E0
:1021200001F0FF01102A2BDB10F0070F08D010F888
:10213000013B013A8B422DD010F0070F42B3F6D18C
:10214000F0B441EA012141EA014122F007047FF0A5
:1021500000070023F0E80256083C85EA010586EAFC
:10216000010685FA47F5A3FA87F586FA47F6A5FA38
:1021700087F68EB9EED1F0BC01F0FF0102F0070244
:1021800032B110F8013B013A83EA010313B1F8D1EF
:102190000020704701387047002D06BF35460338D0
:1021A000073815F0010F07D1013015F4807F02BF09
:1021B000013015F4C03F0130F0BC0138704700BF5A
:1021C0007047704738B50546002945D051F8043CA2
:1021D0000C1F002BB8BFE418FFF7F2FF1F4A13686B
:1021E000104633B9636014602846BDE83840FFF7F5
:1021F000E8BFA3420CD921686218934204BF1A6851
:102200005B68636004BF521822600460ECE7134609
:102210005A680AB1A242FAD919685818A0420BD1DB
:1022200020680144581882421960DDD11068526854
:102230005A6001441960D7E702D90C232B60D3E719
:10224000206821188A4204BF11685268626004BF86
:10225000091821605C60C7E738BD00BFE8020020B4
:1022600038B5074C054608461146002222601A463A
:10227000FEF7E0F9431C02D1236803B12B6038BD9F
:10228000F402002038B5074C0023054608461146E5
:10229000236000F021F8431C02D1236803B12B60B6
:1022A00038BD00BFF402002038B5064C00230546B7
:1022B0000846236000F018F8431C02D1236803B1DC
:1022C0002B6038BDF4020020024B58221A604FF0F8
:1022D000FF307047F4020020024B58221A604FF082
:1022E000FF307047F4020020024B58221A60002091
:1022F000704700BFF4020020024B58221A604FF0D2
:10230000FF307047F4020020044A05491368002B8F
:1023100008BF0B461844106018467047F0020020B2
:10232000F8020020FEE700BFF8B500BFF8BC08BC0B
:102330009E467047F8B500BFF8BC08BC9E46704783
:10234000FFFFFFFFFFFFFFFFFFFFFFFFFFFFFFFF9D
:1023500000000000000000000000D601070100009E
:102360000800000006000000050000000700000053
:10237000000000000000D6010D0A53746172743A27
:10238000200D0A00200D0A45786974210D0A00000D
:10239000100000200000000000000000000000000D
:1023A000000000000000000000000000000000002D
:1023B000000000000000000000000000000000001D
:1023C000000000000000000000000000000000000D
:1023D00000000000000000000000000000000000FD
:1023E00000000000000000000000000000000000ED
:1023F00000000000232D302B2000686C4C00656627
:102400006745464700303132333435363738394145
:10241000424344454600303132333435363738395B
:0C2420006162636465660000000000005B
:08242C0040DEFF7F010000000B
:1024340000200040000000000090D00310000020A5
:1024440000000000B4230000D42300009423000003
:102454000000000000000000000000000000000078
:102464000000000000000000000000000000000068
:102474000000000000000000000000000000000058
:102484000000000000000000000000000000000048
:102494000000000000000000000000000000000038
:0C24A40025020000010200000000000002
:0400000300000FE901
:00000001FF
