:020000022000DC
:1030000000000120697C0200917C0200937C020098
:10301000957C0200977C0200997C02000000000071
:103020000000000000000000000000009B7C020087
:103030009D7C0200000000009F7C0200A17C020039
:10304000AD570200A37C020021650200A37C0200B0
:10305000A37C0200A37C0200C55B0200A37C0200EB
:10306000A37C0200A37C0200A37C0200A37C0200DC
:10307000A37C0200A37C0200A37C0200A37C0200CC
:10308000A37C0200BD410200A37C0200A37C0200DD
:103090005D420200A37C020091830200A37C020037
:1030A000A37C0200A37C0200A37C0200A37C02009C
:1030B000A37C0200A37C02000000000000000000CE
:1030C000A37C0200A37C0200A37C0200A37C02007C
:1030D000A37C0200A37C0200A37C0200000000008D
:1030E00000000000000000000000000000000000E0
:1030F00000000000000000000000000000000000D0
:1031000000000000000000000000000000000000BF
:1031100000000000000000000000000000000000AF
:10312000000000000000000000000000000000009F
:10313000000000000000000000000000000000008F
:10314000000000000000000000000000000000007F
:10315000000000000000000000000000000000006F
:10316000000000000000000000000000000000005F
:10317000000000000000000000000000000000004F
:10318000000000000000000000000000000000003F
:10319000000000000000000000000000000000002F
:1031A000000000000000000000000000000000001F
:1031B000000000000000000000000000000000000F
:1031C00000000000000000000000000000000000FF
:1031D00000000000000000000000000000000000EF
:1031E00000000000000000000000000000000000DF
:1031F00000000000000000000000000000000000CF
:1032000010B5054C237833B9044B13B10448AFF320
:1032100000800123237010BDF8230020000000006F
:10322000149202000C4B43B10C480D4910B5AFF39A
:1032300000800C48036823B910BD0A48036833B9FD
:103240007047094B002BF7D0BDE810401847064BDC
:10325000002BF5D0184700BF0000000014920200B8
:10326000FC2300207C23002000000000154B002BD5
:1032700008BF134B9D46A3F5803A00218B460F46AD
:103280001348144A121A05F03EFA0F4B002B00D0D7
:1032900098470E4B002B00D09847002000210400D7
:1032A0000D000D48002802D00C48AFF3008005F057
:1032B000DBF92000290003F0E3FB05F0C1F900BFB2
:1032C00000000800000001200000000000000000D5
:1032D000F82300207C2C00200000000000000000EB
:1032E000F0B595B0002415460F4608461E4602F07C
:1032F0005BF8384623460822089505A91A9D0996C9
:103300000D950A948DF82C400C9402F0B3F89DF8BA
:103310001430079806998DF8104003F00302012A33
:103320000290ADF80C102CD0022A04D0384602F0DE
:103330004BF815B0F0BDBDF81650C3F3C202C3F38D
:103340008003C5F389158DF80E208DF80F300826FF
:10335000082D2C4628BF0824334622460EA938469D
:1033600002F088F82D1B214608AB02AA0EA82644BD
:1033700000F032FD002DEBD1384602F025F815B0F3
:10338000F0BDBDF814500598C5F38315C3F3C20E04
:10339000AA000EA9C3F38004C0F39526082338467B
:1033A0008DF80EE08DF80F4002F064F808AB009342
:1033B0002A4630460EA902AB00F076FCB6E700BF05
:1033C000014B01221A70704758240020704700BF3B
:1033D00070B50E4D0E4888B002F074FF0FCD6C46EC
:1033E0000FC495E80F0008AD062645F8206D84E867
:1033F0000F0029460022064802F078FE08B100F0CE
:1034000099FE044B00221A7008B070BD5C87020060
:10341000802100201424002000B583B0044B0093C9
:10342000044A4023FFF75CFF03B05DF804FB00BFD4
:10343000393402001824002010B5094C0948002333
:10344000D2B2237002F0C2FF30B9074B1B7813B120
:103450002378002BFCD010BD00F06CFEF5E700BF18
:1034600058240020802100201424002070B50D4D28
:103470000FCD88B06C460FC495E80F0008AD062646
:1034800045F8206D84E80F002946074A074802F0F6
:103490002DFE08B100F04EFE054B01221A7008B057
:1034A00070BD00BF5C870200C13302008021002094
:1034B0001424002010B5054CFFF7D8FF2046042146
:1034C00000F0B2FB0123637210BD00BF8821002011
:1034D0000F4B104810B50022FF21C3F81824996043
:1034E0001A605A60C3F8142483F81C2401F012FFF8
:1034F00068B90949094BC91AC90808D0084C0246DD
:103500000346A3520133994202F10C02F9D110BDD6
:103510005C240020888702009892020048920200F2
:103520008023002021B9124A02EBC00000687047D6
:1035300030B410490E4D491BC9080ED00E4B5A88A5
:10354000824218BF002205D10FE0DC89844203F1DA
:103550000C0305D001329142F7D1002030BC7047F6
:1035600005EBC200006830BC70472846FAE700BF90
:10357000489202009892020080230020064B032903
:1035800003EBC00005D0042901D140797047002029
:1035900070470079704700BF489202002DE9F0475C
:1035A0007E4C94E80C009A4284B03AD00023C4F8D0
:1035B0001834BFF34F8F6068A56800EA0506F31C56
:1035C00004EB830114F823309F07024610D10B88C7
:1035D0004988C3F3891303EB911301331A4405EAB5
:1035E0000206F31C04EB830114F823309B07EED092
:1035F00004EB8606531CF16801912B4004EB830316
:1036000001F00301DB680293022902F102080CD0E9
:1036100001296ED02368181A18BF012004B0BDE834
:10362000F087002004B0BDE8F087BDF806305C48A4
:10363000C3F389194F46502FA8BF502767F38F1344
:1036400007F10801ADF8063001F066FE06460028D5
:103650004DD025EA080A0AF1010A01F0A5FE4FEA59
:103660008A0A0023082201A9304601F0D5FE5745F9
:1036700040F28780BAF1000F7CD005EA08010331DF
:10368000A7EB0A0504EB8101082352463046EDB250
:1036900001F0C2FE2A460AF108034249304601F011
:1036A000BBFE09F1030708EB9707D4F81834002B89
:1036B0005BD1D4F810544DB16B7A3146284613B122
:1036C0002B681B6898476D68002DF5D1304601F0D6
:1036D0007BFE04A8002300F80D3D01F04FFAD4F85A
:1036E000183403B967609DF8030001F06DFA606853
:1036F00090E7BDF804302A48C3F38312062A28BF96
:103700000622911C62F389138900ADF8043001F0A0
:1037100003FE06460028EAD001F046FE00230822F8
:1037200001A9304601F078FEBDF8043013F4707F33
:1037300032D04FF0000A4FF0080908EA05010331C2
:103740004B4604EB81010422304601F065FEBDF8D2
:1037500004300AF1010AC3F3831308F1010753454A
:1037600009F10409B846E8D89FE7304601F02CFE7D
:1037700060684FE73A4608230A49304601F04CFE9C
:103780008FE705EA0801033104EB81013A4608237B
:10379000304601F041FE84E7474686E75C2400207E
:1037A00088870200682400202DE9F04F87B006AB1F
:1037B0000025574C03F80D5D80461846A36800931A
:1037C000019101F0DBF9A0686768D4F80090C31993
:1037D0000133A3EB0903032B5BD800F1010AAE46CA
:1037E000AAEB090A04F5836C04F2144601255CE88F
:1037F000003F43EA05024CE8002191F0000FF6D1AA
:1038000056E8003F43EA050246E8002191F0000F28
:10381000F6D100EA070B0BF1030304EB830114F864
:1038200023309B073A4611D10B884988C3F389138B
:1038300003EB911301331A4400EA020B0BF103036B
:1038400004EB830114F823309B07EDD004EB8B0BC2
:103850000232DBF80C30039303F00303012B50D04A
:10386000022B06D1BDF80E30C3F38913033302EBEC
:10387000930256E8003F03EA0E0146E8001B9BF066
:10388000000FF6D10BB1626017460AEB0703032B5A
:10389000ADD909F102039DF80B00236001F094F902
:1038A000009800EA09030333012114F8232061F38F
:1038B0000102C8F3001161F3820268F3C50204F843
:1038C000232034F8232001996FF3891224F8232050
:1038D00054F8232061F39F2244F8232009F10109C1
:1038E00009EA000304EB830394F81C244FEA18410F
:1038F000D9601AB1FFF752FE0028FBD107B0BDE82E
:10390000F08FBDF80C30C3F383131A44B1E700BF46
:103910005C2400202DE9F04F89B008AB002503F8A6
:103920000D5D5B4C0291074618460392D4F808904F
:1039300001F024F994E80041A06800EB0E03013384
:10394000A3EB0803042B5ED800F1010AAC46AAEBF6
:10395000080A04F21446012501974E4F57E8003F2C
:1039600043EA050247E8002191F0000FF6D156E83E
:10397000003F43EA050246E8002191F0000FF6D12E
:1039800000EA0E0B0BF1030304EB830114F8233060
:103990009F07724613D1019F0B884988C3F389138F
:1039A00003EB911301331A4400EA020B0BF10303FA
:1039B00004EB830114F823309B07EDD0019704EB4F
:1039C0008B0B0232DBF80C30059303F00303012B61
:1039D00058D0022B06D1BDF81630C3F38913033338
:1039E00002EB930256E8003F03EA0C0146E8001B95
:1039F0009BF0000FF6D10BB1626096460AEB0E0306
:103A0000042BAAD9019F9DF8130008F1030323603A
:103A100001F0DAF809EA08030333012114F823203E
:103A2000C7F3001061F3010260F3820267F3C5027D
:103A300004F8232034F8232061F3891224F823208A
:103A4000029954F8232061F39F2244F8232008F1BF
:103A5000010303EA090308F1020804EB830308EAFF
:103A6000090904EB89093F0C94F81C24DF60039BCF
:103A7000C9F80C301AB1FFF791FD0028FBD109B04D
:103A8000BDE8F08FBDF81430C3F383131A44A9E7DF
:103A90005C240020742800202DE9F04F89B008AE86
:103AA000002506F80D5D5F4C0090304603930191B0
:103AB0000292D4F8089001F061F8A0686768D4F821
:103AC0000080C3190133A3EB0803052B5BD800F179
:103AD000010AAE46AAEB080A04F5836C04F2144608
:103AE00001255CE8003F43EA05024CE8002191F023
:103AF000000FF6D156E8003F43EA050246E80021F0
:103B000091F0000FF6D107EA000B0BF1030304EB71
:103B1000830114F823309B073A4611D10B8849885A
:103B2000C3F3891303EB911301331A4400EA020B28
:103B30000BF1030304EB830114F823309B07EDD052
:103B400004EB8B0B0232DBF80C30059303F003031C
:103B5000012B60D0022B06D1BDF81630C3F38913B8
:103B6000033302EB930256E8003F03EA0E0146E8F6
:103B7000001B9BF0000FF6D10BB1626017460AEBF9
:103B80000703052BADD908F104039DF8130023604A
:103B900001F01AF809EA08030333009D14F8232002
:103BA000012161F30102C5F3001161F3820265F3A3
:103BB000C50204F8232034F82320022161F389127E
:103BC00024F82320019954F8232061F39F2244F81C
:103BD000232008F1010208F1020302EA090204EBC2
:103BE000820203EA090308F1030804EB830308EAED
:103BF0000909280CD06094F81C14029ADA6004EBCE
:103C00008904039BE36019B1FFF7C8FC0028FBD1CE
:103C100009B0BDE8F08FBDF81430C3F383131A4424
:103C2000A1E700BF5C24002030B4144DD5F8104447
:103C3000002154B1237A8B4213D0234602E01A7A32
:103C40008A420ED05B68002BF9D10172D5F810348E
:103C50007BB15B684360D5F810345860084630BCCF
:103C6000704701310A29E4D14FF0FF31084630BCDA
:103C70007047C5F810044360F0E700BF5C240020E3
:103C800038B5084BD3F81044012583F81C543CB1D7
:103C90002368657220465B6898476468002CF7D1FA
:103CA00038BD00BF5C2400202DE9F04784B01D46DC
:103CB0000C9C002394F80C802373EB7981460E460C
:103CC00017460BB3062F0FD8DFE807F0363B414805
:103CD00004515E00F168B06896E80C000191009014
:103CE0004946204600F0F4FFEB792BB92B7AEBB96B
:103CF0003349204600F0ECFF204600F0DDFF84F859
:103D00000C8004B0BDE8F0872B7A002B4BD1AA7948
:103D10002C4BA88853F822A00021FFF703FC524641
:103D200003462949204600F0D3FFCBE7274A28491C
:103D3000204600F0CDFFDBE74946204600F0C8FFF3
:103D4000D2E732684946204600F0C2FFCCE7494638
:103D500096E80C00204600F0BBFFC5E7B16896E886
:103D60000C0020460091494600F0B2FFBCE7B06865
:103D7000F768316996E80C0002918DE881004946A8
:103D8000204600F0A5FFAFE77069316996E80C00A6
:103D90000390B068F76802918DE88100494620469B
:103DA00000F096FFA0E7A979A888FFF7E7FB094B89
:103DB000074953F82020204600F08AFFA7E700BFFC
:103DC000F0870200F4870200DC870200E887020027
:103DD000D8870200A087020008295DD82DE9F04F9E
:103DE0001D46914600232A7B2B7383B099F8073038
:103DF000019207460E46002B4FD0DFF80CB1DFF8DA
:103E00000C810024A642414628463DD93A5D013442
:103E100000F05EFF082CF5D13449DFF8F480DFF8BC
:103E2000F4B0284600F054FF002411E017F804A075
:103E300004F03EFC50445946437813F0970F14BFEA
:103E400052462E222846013400F042FF082C08D0AA
:103E5000A64241462846E9D8013400F039FF082C33
:103E6000F6D199F8073013B999F808304BBB2049BF
:103E7000284600F02DFF284600F01EFF9DF8043074
:103E80002B7303B0BDE8F08F01345946284600F08B
:103E90001FFF082CB6D1BFE7704799F80830B3B9B7
:103EA00099F80620134BB9F8040053F8224000217A
:103EB000FFF738FB224603460F49284600F008FF6B
:103EC0009BE70E4A0E49284600F002FFCFE799F81B
:103ED0000610B9F80400FFF751FB0A4B084953F8E4
:103EE0002020284600F0F4FEDAE700BFD087020069
:103EF000F0870200F4870200DC870200E8870200F6
:103F0000D8870200A0870200CC870200C487020085
:103F1000E4870200D48702002DE9F84F254B93F87F
:103F200000E0BEF1000F31D0DFF88CB0DFF88CA0DC
:103F3000DFF88C900024012703E00134E4B27445DB
:103F400024D226B2DBF80050DAF8003015F836003B
:103F500007FA00F1194205EBC608EED023EA010387
:103F6000CAF8003001F024FE15F83660D9F80030A8
:103F700007FA06F52B4000FA06F18B4208D00D4BEC
:103F8000013493F800E0E4B27445DAD3BDE8F88F69
:103F9000D8F80430002BF2D098F80110A1F10101FB
:103FA000B1FA81F14909091AB1FA81F1490930469A
:103FB0009847E4E74C2900207C290020782900203C
:103FC0007429002070B50646114800F09BFD40B9E9
:103FD000104D01242B68B4401C4203D023EA040492
:103FE0002C6070BD304601F0E3FD0B4E326860B1CD
:103FF00022432B68094932601C432C60044809683D
:104000000022BDE8704000F027BD22EA0402F0E77C
:1040100054290020782900207429002050290020EC
:10402000042A01D8072070472DE9F04182B0884664
:104030000546174601F060FC002836D01D4C1E488E
:104040001E491F4A1F4B2560002608F1FF3480F8E7
:1040500000800F6016601E60E4B2B8F1000F1ED041
:10406000DFF86C80032701E0FF2C18D023B205EBAA
:10407000C30215F8330093788DF80470424601A905
:104080008DF806608DF807608DF8053001F03EFC74
:10409000013CE4B20028E7D002B0BDE8F0810A4A52
:1040A0000A48002100F0C6FCF6E701F0E3FB002817
:1040B000C4D0F1E77C2900204C29002050290020A1
:1040C0007429002078290020193F02006888020026
:1040D000C53F020070B5084D2B785BB1074E002438
:1040E0003368012113F8340001F0D0FC2B7801343F
:1040F000A342F5D8002070BD4C2900207C29002067
:1041000070B5094D2B7853B1084E0024336813F86D
:10411000340001F01DFD2B780134A342F6D8044889
:10412000BDE8704000F0EEBC4C2900207C29002046
:104130005429002000B585B000230390194601AA38
:1041400044F20100ADF80430029300F003F805B02A
:104150005DF804FB10B5FFF793FDFFF71FFA002889
:10416000FBD1104C10492088000440F00100FFF7FB
:104170001BFB0E4B1B68DB0700D5FFDE20880C49BC
:10418000000440F00200FFF70FFBBFF34F8F094917
:10419000094BCA6802F4E0621343CB60BFF34F8F50
:1041A00000BFFDE7802300206C880200F0ED00E0F6
:1041B0007888020000ED00E00400FA05F8B5204A16
:1041C000204B0025C2F84051C2F84451C2F8485172
:1041D000C2F84C51C2F80051C2F804511B6813B325
:1041E0001949D2F804450A68A41A1A6824F07F44D1
:1041F000A2422F4609D8197CDE69A41A154499B940
:104200001EB133461A68A242F5D91049104A0B78FC
:1042100012789A420DD00F490F4A41F823504FF4BB
:104220008013C2F80031F8BD1F745A69986990472D
:10423000E6E7531CDBB2022B08BF00230B70EAE752
:1042400000100140A02A00209C2A0020992A00206A
:10425000982A0020902A002000E100E02DE9F04F8C
:104260007D4A7E491378097899428BB03BD001335F
:10427000DBB27B490491022B0D687A49069108BF95
:1042800000231370784A084652F82310D0F80090A3
:10429000049A6B18002423F07F434E46AC4613600B
:1042A000204627462546AEB133688B4200F2ED81A9
:1042B000F4683760C91A1844F3693CB10CEB000E7E
:1042C0002EF07F42F561B460726035461E460124CF
:1042D000002EE9D12A46B146002C40F0DB820123B2
:1042E0000793069B07E05F4B5D4A0492D3F800906A
:1042F000069300220792D3F800A05C4BDFF874C14C
:104300001B780593049B186800234946CE46089302
:10431000D146099303934FF0010B17469A46804606
:1043200037B37C68BD683B46FF695148A4EB08027F
:1043300022F07F42824258D815441D60002283F843
:1043400010B05A609A60DA6100296ED00868854220
:1043500063D90C4603E01068A8424FD21446E269C4
:104360002D1A002AF7D11D60DA61E361002FD8D140
:104370000297CDF804E09CF801709CF8002000251D
:10438000974200F08680104600EB40000CEBC00026
:10439000541C9CF80230E2B204798CF8002093425D
:1043A00004BF8CF800500022022C83684ED0032CEE
:1043B00040D0012CE4D11E7C002EE1D1C4685C60A9
:1043C00005699D604269DA6082699A61059A029F77
:1043D000DDF804E0002AA8D03446A4EB0802244803
:1043E0005E6022F07F428242A6D9A8EB040424F04A
:1043F0007F44AC4208D22D1B1D609FE7401B10601C
:104400001D60DA61E361B1E7002583F810B01D603B
:104410005D609D60DD6141B10868451B0D60994696
:10442000D9614FF0010A19467AE7994619464FF0CB
:10443000010A75E70029A3D00022CB690A74194646
:10444000002BFAD199464FF0010A94E7D9B199426D
:10445000084615D110E100BF982A0020992A0020B3
:104460009C2A0020A02A0020902A00208C2A0020CC
:10447000FEFF7F0080290020A34200F0E880204654
:10448000C469002CF8D10E4697421D7431467FF462
:104490007AAF4046D046CA46DDF80490B8F1000F26
:1044A00040F0F481099B002B40F0ED81089B1BB18B
:1044B0007B4B9DF814201A70039B13B9494500F0FB
:1044C0004C81002900F04E81764C049BD4F8040501
:1044D0001B68754D0F682978C21A22F07F4203329B
:1044E000002951D17149DFF8C8C1DFF8C8E14FF4A4
:1044F0008036C4F84463C4F804634FF40036C1F84E
:1045000080610E60012626602F21DCF8004000BF8C
:1045100000BF00BF00BF00BF00BF00BF00BF7445A9
:104520002FD000BF00BF00BF00BF00BF00BF00BF53
:1045300000BF00BF00BF00BF00BF00BF00BF00BF83
:1045400000BF00BF00BF00BF00BF00BF00BF00BF73
:1045500000BF00BF00BF00BF00BF00BF00BF00BF63
:1045600000BF00BF00BF00BF00BF00BF00BF00BF53
:1045700000BF00BF00BF00BF00BF00BF00BF00BF43
:1045800000BF0139C3D12E7097422CBFDB199B1895
:10459000444923F07F43C1F84035D1F80425121A6D
:1045A0001B1A22F07F4223F07F4303329A4248D9FC
:1045B000D1F804353E4AC1F8403512683D492F23F1
:1045C00000BF00BF00BF00BF00BF00BF00BF00BFF3
:1045D0008A422FD000BF00BF00BF00BF00BF00BF96
:1045E00000BF00BF00BF00BF00BF00BF00BF00BFD3
:1045F00000BF00BF00BF00BF00BF00BF00BF00BFC3
:1046000000BF00BF00BF00BF00BF00BF00BF00BFB2
:1046100000BF00BF00BF00BF00BF00BF00BF00BFA2
:1046200000BF00BF00BF00BF00BF00BF00BF00BF92
:1046300000BF00BF013BC3D11C4B4FF40032C3F895
:104640000021174A002313700BB0BDE8F08F83429E
:1046500012D00E46DC69D3F800E0C46134B12268A0
:10466000724422609CF800209CF801700398B142CB
:1046700018BF0120039007E7D1F81C90B9F1000F93
:104680001AD04E464FF0010AE4E72A46B146002C04
:1046900060D15B1AC9F8003001230793069B2AE614
:1046A0008C2A0020001001408D2A002000E100E04B
:1046B000A02100200024F400784E794CC6F808B000
:1046C000784E4FF02F0E366800BF00BF00BF00BF0E
:1046D00000BF00BF00BF00BFA6422FD000BF00BF79
:1046E00000BF00BF00BF00BF00BF00BF00BF00BFD2
:1046F00000BF00BF00BF00BF00BF00BF00BF00BFC2
:1047000000BF00BF00BF00BF00BF00BF00BF00BFB1
:1047100000BF00BF00BF00BF00BF00BF00BF00BFA1
:1047200000BF00BF00BF00BF00BF00BF00BF00BF91
:1047300000BF00BF00BF00BF00BF00BFBEF1010E41
:10474000C2D1012634460896C8464E4605940994BF
:10475000A2467FE7069806609BE7079B002B3FF485
:1047600070AFAEE64D4A504B4E4E4D4C4FF480303C
:104770004FF400370125C3F88070C2F848032F2397
:10478000C2F80803556030681E4600BF00BF00BF76
:1047900000BF00BF00BF00BF00BFA0422FD000BFBE
:1047A00000BF00BF00BF00BF00BF00BF00BF00BF11
:1047B00000BF00BF00BF00BF00BF00BF00BF00BF01
:1047C00000BF00BF00BF00BF00BF00BF00BF00BFF1
:1047D00000BF00BF00BF00BF00BF00BF00BF00BFE1
:1047E00000BF00BF00BF00BF00BF00BF00BF00BFD1
:1047F00000BF00BF00BF00BF00BF00BF00BF013E41
:10480000C3D19560049A116000BF00BF00BF00BF14
:1048100000BF00BF00BF00BFA0422FD000BF00BF3D
:1048200000BF00BF00BF00BF00BF00BF00BF00BF90
:1048300000BF00BF00BF00BF00BF00BF00BF00BF80
:1048400000BF00BF00BF00BF00BF00BF00BF00BF70
:1048500000BF00BF00BF00BF00BF00BF00BF00BF60
:1048600000BF00BF00BF00BF00BF00BF00BF00BF50
:1048700000BF00BF00BF00BF00BF00BF013BC3D1EE
:104880000A4B1970DDE6049B18600FE6069BC3F81F
:1048900000A007E6069B1E6021E500BF0010014056
:1048A0000024F400A021002000E100E08D2A002077
:1048B000F0B4564B564A574E574C4FF480304FF495
:1048C00000310125C2F88010C3F848032F21C3F836
:1048D00008035D6030680E4600BF00BF00BF00BF28
:1048E00000BF00BF00BF00BFA0422FD000BF00BF6D
:1048F00000BF00BF00BF00BF00BF00BF00BF00BFC0
:1049000000BF00BF00BF00BF00BF00BF00BF00BFAF
:1049100000BF00BF00BF00BF00BF00BF00BF00BF9F
:1049200000BF00BF00BF00BF00BF00BF00BF00BF8F
:1049300000BF00BF00BF00BF00BF00BF00BF00BF7F
:1049400000BF00BF00BF00BF00BF00BF013EC3D11A
:104950009D6000BF00BF00BF00BF00BF00BF00BF21
:1049600000BFA0422FD000BF00BF00BF00BF00BFEC
:1049700000BF00BF00BF00BF00BF00BF00BF00BF3F
:1049800000BF00BF00BF00BF00BF00BF00BF00BF2F
:1049900000BF00BF00BF00BF00BF00BF00BF00BF1F
:1049A00000BF00BF00BF00BF00BF00BF00BF00BF0F
:1049B00000BF00BF00BF00BF00BF00BF00BF00BFFF
:1049C00000BF00BF00BF0139C3D1144E144D154CB8
:1049D0001549164F00203070286020704FF4801564
:1049E000E0240B26087048708E7038701049C2F8A9
:1049F000805182F814431560C3F8080582F811430A
:104A0000D3F804350B60F0BC704700BF00100140C4
:104A100000E100E0A02100200024F4008D2A002005
:104A2000A02A0020982A002080290020992A00200E
:104A30009C2A0020074B9B780BB9082070473AB19D
:104A400030B10368187C0028F7D159745A61704757
:104A500007207047802900202DE9F043264CA378D9
:104A600083B01BB9082003B0BDE8F0830028F9D05B
:104A7000042903D8072003B0BDE8F0834369002B65
:104A8000F0D0064602A8737C0025012B00F8015DDA
:104A90000CBF8946A94690460F4600F06FF8637830
:104AA000A07821785A1CD2B2904208BF2A4691427F
:104AB0001BD003EB430304EBC30301200F49187120
:104AC0009E60D1F804159DF80700D9601F61C3F8F6
:104AD0001490C3F81880627000F076F8084B4FF419
:104AE00080122846C3F80021BDE79DF8070000F0BA
:104AF0006BF80420B7E700BF8029002000100140B8
:104B000000E100E070B51B4CA37882B013B9082017
:104B100002B070BD0028FAD04369002BF7D00646DA
:104B200002A8002500F8015D357400F027F86278CE
:104B3000A0782178531CDBB2984208BF2B469942DB
:104B400012D002EB420204EBC20202219DF80700E0
:104B500096601171637000F037F8074B4FF48012C4
:104B60002846C3F80021D3E79DF8070000F02CF891
:104B70000420CDE78029002000E100E070B4EFF3CD
:104B8000108472B60D4B9A68AAB90D490D4E0125D5
:104B90009D60D1F8805035401D60C1F88060D1F82B
:104BA00084505D604FF0FF33C1F88430027004B967
:104BB00062B670BC704701230370F8E7702C0020C8
:104BC00000E100E0FC06FFBD094B9A6872B168B9CC
:104BD00010B4EFF3108272B606491C680C605C6872
:104BE0004C60986002B962B65DF8044B704700BF34
:104BF000702C002000E100E0B8B130B44168826858
:104C00000468521AD2B2531E2160DBB242B101686D
:104C10000A685C1E551C0D601370E3B2FF2BF6D1C1
:104C200003680020187130BC70470E20704700BF29
:104C3000F0B583B002AB002503F8015D04461846C9
:104C4000FFF79CFF236861681A688A4210D9511ED9
:104C500019602168A3680E6812F8015C0A79278A36
:104C6000E0689B1BDBB29A4207FB050538BF0B715E
:104C70009DF80700FFF7A8FF284603B0F0BD00BF6E
:104C800030B583B002AB002203F8012D054618466B
:104C90000C46FFF773FF2A681368591C1160E96816
:104CA0002A8A641AB4FBF2F41C709DF80700FFF71F
:104CB0008BFF03B030BD00BF826802B9704710B5EA
:104CC000044643690168006998470023A36010BD4A
:104CD0000EB400B582B0039929B102AA04AB42F820
:104CE000043D00F095F802B05DF804EB03B07047A6
:104CF0002DE9F84F1746B942884606461D46DDF8AD
:104D000028B00B9A7DD30B464FF00109B3FBF7F3A4
:104D10009F4209F10109F9D9A94538BFA94612F006
:104D2000010A02D1BBF1000F49D1B268012402E0AF
:104D3000013D07FB04F4012DFAD8B8FBF4F18F42D2
:104D4000F7D9324D05E0B4FBF7F4A4B1B8FBF4F1A8
:104D5000B268685C531CB36033689854B268736877
:104D60009A4204FB1188EED33046FFF7A5FFB4FB4F
:104D7000F7F4002CEAD1BAF1000F16D0BBF1000F06
:104D800033D0CB4588BF20243ED9B3683268591C44
:104D9000B160D454B26873689A420BF1FF3B06D2FB
:104DA000BBF1000F09D0D945EFD1BDE8F88F3046EF
:104DB000FFF782FFBBF1000FF5D1BDE8F88F930735
:104DC0001AD42024CB45B0D9B2683368511CB160E5
:104DD0009C54B26873689A420BF1FF3B07D2BBF157
:104DE000000FA3D0CB45F0D1A0E7BDE8F88F304647
:104DF000FFF762FFB268F2E7002D0CBF30242024D9
:104E0000E0E74FF0010987E7BDE8F88F90880200DE
:104E1000002900F06F822DE9F04F064685B09346D9
:104E20000C460B780DE0B2683168501CB0608B54B2
:104E3000B26873689A4280F0D3802378002B00F028
:104E4000BA800134002B00F0B680252BEBD14FF057
:104E50000008234614F8012B2D2A00F0BB80302ACD
:104E600000F0BB802B2A00F0AD802A2A00F0BC8025
:104E7000A2F13005E9B2092998BF013302D9A9E1AD
:104E8000A1F130051C4613F8012BA2F1300005EB0F
:104E90008501092802EB4101F2D92E2A00F0B080E9
:104EA000002701E014F8012F02F0FB03682BF9D072
:104EB000253A532A7AD8DFE812F07A01790079008E
:104EC000790079007900790079007900790079001A
:104ED000790079007900790079007900790079000A
:104EE00079007900790079007900790079007900FA
:104EF00079007900790079007900790079007900EA
:104F000079007900790079007900790079007900D9
:104F100079007900790079007900790079007900C9
:104F20006A017900790079007900790079007900C7
:104F30007900790079005501FC0079007900790049
:104F40007900FC0079007900790079007900790016
:104F5000540079007900CA007900BA00790079001C
:104F60006A01DBF80020131DCBF80030B368156828
:104F700031685A1CB2604FF03002CA54B36872688C
:104F8000934280F0A0813268581C7821B060D154DF
:104F9000B26873689A4280F09281002208230192DD
:104FA0002946009310223046FFF7A2FE01342378F1
:104FB000002B7FF446AF337B002B40F0058105B01A
:104FC000BDE8F08F234614F8012B2D2A48F0040881
:104FD0007FF445AF48F001083BE748F0020838E7A6
:104FE0003046FFF769FE28E7DBF80020111DCBF8FB
:104FF000001015685A782E2A03F101047FF450AF8F
:105000006278A2F13003092B04F101044FF000078C
:105010003FF64AAF07EB870702EB470714F8012F6B
:10502000A2F13003092BA7F13007F3D93CE7DBF8F5
:1050300000301A1DCBF800201968CDF804803B46DB
:1050400000950A223046FFF753FE0134AFE7DBF844
:1050500000301A1DCBF8002018F0010FD3F8009093
:1050600040F0BB80B9F1000F00F04781484603F0E3
:1050700052FB0746BD4240F2F180002D00F0EE8069
:105080004FF0200805E0BD4200F0E880002D00F060
:10509000E580B3683268591CB16002F80380B268D9
:1050A00073689A4205F1FF35EDD33046FFF704FEF1
:1050B000E9E7DBF800301A1DCBF80020D3F80090A8
:1050C00089EAE973A3EBE973092B4FF0010A09DDC3
:1050D0008F4A82FB0312DB17C3EBA203092B0AF1F1
:1050E000010AF5DCBA4538BFBA462DB3B9F1000F55
:1050F00002DB18F0040F00D0013D18F0020F40F061
:10510000F58018F0010F17D1002D00F0FE80AA45A0
:1051100038BF202110D2B2683368501CB060995457
:10512000B26873689A4205F1FF3580F0E880002D7F
:1051300000F0EB80AA45EED1B9F1000FC0F2C880B3
:1051400018F0040F7BD108F00303022B00F09A80C3
:105150008DE820013B4649460A223046FFF7C8FD4C
:10516000013424E7DBF80020131DCBF80030B368CE
:1051700031681278581CB060CA54B26873689A4299
:10518000FFF414AF3046FFF797FD01340FE7DBF86B
:1051900000301A1DCBF800201968CDF804803B467A
:1051A000009510223046FFF7A3FD0134FFE6B368F7
:1051B0003268591CB1604FF02501D154B268736850
:1051C0009A42DFD20134F2E6304605B0BDE8F04F36
:1051D000FFF772BD1C4600255FE64F46A7EB0908A6
:1051E00017F8013B8BB1B2683168501CB0608B542A
:1051F000B26873689A42F1D33046FFF75DFDA7EBC2
:10520000090817F8013B002BEDD145457FF6CEAEDE
:10521000202705E045453FF4C9AE002D3FF4C6AE5A
:10522000B3683268591CB160D754B26873689A4247
:1052300005F1FF35EED33046FFF73EFDEAE7B268F1
:105240003368501C2B21B0609954B26873689A423D
:10525000FFF479AF3046FFF72FFD74E709F1FF390E
:1052600019F8013F002B3FF4A1AEB2683168501C21
:10527000B0608B54B26873689A42F1D33046FFF73E
:105280001BFDEDE7002F7FF463AF002D33D0AA455F
:10529000BFF45EAFB2683368511CB1604FF03001AB
:1052A0009954B26873689A4205F1FF3503D215B379
:1052B000AA45EFD14CE73046FFF7FEFCF7E7304652
:1052C000FFF7FAFC69E63046FFF7F6FCB3685AE6EA
:1052D000B2683368501C2D21B0609954B26873686D
:1052E0009A42C9F10009FFF42EAFB3E7002F3FF453
:1052F00023AF06E7704700252AE74F46BAE6304657
:105300000391FFF7D9FC039911E7002514E700BFCB
:1053100067666666FFF770BC2DE9F041B0F8108053
:10532000CF1CA8F1040847440646B7FBF8F7FFF77F
:105330007FFC80B3FFB200250123013F0446A0F8A3
:10534000068006600571437128D0804609E06379C4
:10535000AF4203F101036371C8F8000006608046A4
:105360001CD03046FFF764FC01350028EFD1667988
:10537000721E16D02346013082421B68FBD81F687C
:105380004EB1214600250C6801353846FFF778FC00
:10539000AE422146F7D10020BDE8F0812046BDE8AD
:1053A000F0812768EDE700BF10B40430012350E816
:1053B000002F02EB030140E8001494F0000FF6D137
:1053C0005DF8044B704700BFF8B5021D012152E89B
:1053D000004FA4EB010342E8003595F0000FF6D131
:1053E00013F0FF0300D0F8BD4579691E12D00246C4
:1053F000013399421268FBD81768002DF3D001469B
:1054000000240E6801343846FFF73AFCA5423146C5
:10541000F7D1F8BD0768F2E72DE9F843C6880433F1
:105420000F46B3FBF6F5904606FB1533044615B15F
:10543000013D2468FCD1F51A454528BF4546B8F121
:10544000000F15D04FF000090433E018A8EB050851
:105450002A4607EB090103F04BF94645A9442468A5
:1054600035464FF0000328BF4546B8F1000FEBD199
:10547000BDE8F8832DE9F843C68804330F46B3FB33
:10548000F6F5904606FB1531044615B1013D24683A
:10549000FCD1751A454528BF4546B8F1000F15D017
:1054A0004FF0000904312144A8EB05082A4607EB18
:1054B000090003F01DF94645A944246835464FF01C
:1054C000000128BF4546B8F1000FEBD1BDE8F883D5
:1054D00001600B6843604A68934204BF0023436045
:1054E000704700BF436843B1026891680B44436052
:1054F0005268934204BF00234360704730B4184D94
:10550000A5F1F002AB1ADB1003EBD3735B1002EBD7
:10551000C30152F83330984228BF0C4605D311E03E
:1055200052F8333098420CD221468B1ADB1003EB31
:10553000D3735B10914202EBC304F1D8094830BC2D
:1055400070470D46984204D904F10802AA42D9D303
:10555000F4E76068034B002808BF1846EFE700BF78
:10556000B0890200AC88020010B40023012401E0DD
:10557000202B0AD004FA03F2024299B203F101038C
:10558000F6D008465DF8044B70474FF6FF710846A9
:105590005DF8044B704700BF98B191B130B4023848
:1055A000002402E00134202C0AD030F8025F95423A
:1055B000F8D1012233B10B6802FA04F423430B60E3
:1055C00030BC70470B6802FA04F423EA04030B6052
:1055D000F6E700BF70B49DF80C60C0B1B9B1B2B1CC
:1055E0000238002402E00134202C10D030F8025F91
:1055F0009D42F8D1012303FA04F401EB820246B97B
:10560000E4430B68234041F8043B9142F9D170BC5C
:1056100070470B68234341F8043B9142F7D00B6875
:10562000234341F8043B9142F3D1F0E7F0B491B148
:1056300000252B46012606FA03F4144205D000EBA0
:10564000450431F81370A78001350133202BF2D1C6
:105650000560F0BC70470D460560F0BC704700BFA8
:10566000044B195C4FF0A04201238B40C2F80C356B
:10567000704700BFB88C0200044B195C4FF0A04289
:1056800001238B40C2F80835704700BFB88C020078
:1056900030B44FF0A04303224FF400354FF4802480
:1056A0004FF400204FF48011C3F84427C3F8482773
:1056B000C3F84C27C3F85027C3F80855C3F808456A
:1056C000C3F80805C3F8081530BC704758B910B5C1
:1056D000054CA36833B10CCB0020A2609847A368A7
:1056E000002BF8D110BD7047A42A002010B5012866
:1056F00082B029D022D303281ED10721002000F038
:1057000091F802A80023264C00F8013DFFF736FA75
:10571000E368013BE360E36853B9224B01221A605E
:105720004FF08042D2F8183413F48033FAD1A370CA
:105730009DF80700FFF748FA02B010BD1A4B01228E
:10574000C3F8802002B010BD02A80023144C00F85A
:10575000013DFFF713FA237853B1E3689DF8070082
:1057600001330122E360A270FFF72EFA02B010BDF0
:105770000D4A6360A3602361E360106810F00100CC
:105780000AD002F0FFFD20B94FF080430122C3F898
:10579000182501232370E0E7072100F043F8F0E724
:1057A000A42A00200C00004000E100E010B51A4BD4
:1057B0001A6882B0A2B100221A601B6800934FF0F1
:1057C00080430122154C0099C3F80823A368627036
:1057D00033B10CCB0020A2609847A368002BF8D10E
:1057E0000F4B1A68AAB100221A601B6801934FF090
:1057F00080430222094C0199C3F80823236901223E
:10580000A27033B10CCB0120226198472369002B91
:10581000F8D102B010BD00BF00010040A42A002052
:1058200004010040002810B418DB00F1604303F5C8
:1058300061434901C9B283F80013C3B24009800033
:1058400000F1604000F5614003F01F020123934026
:10585000C0F8803103605DF8044B7047C3B2044A5E
:1058600003F00F0449012244C9B21176E6E700BFF4
:10587000FCEC00E030B51D4C94F8545083B015B1E9
:10588000082003B030BD4FF0FF33FF220721062070
:1058900023636363A363E36323646364A364E364D4
:1058A00023606360A360E36023616361A361E361DC
:1058B000236284F850306362A36284F85230E3625A
:1058C00084F8533084F85120FFF7ACFF084B094AA5
:1058D0001D601B68019301984FF000430121284689
:1058E00084F85410C2F8043303B030BDB82A002045
:1058F0007C61004000600040034B93F8540000308E
:1059000018BF0120704700BFB82A0020F0B55E4CD8
:10591000251895F93030002B01DB0820F0BD91F8F7
:1059200003E0BEF1000F50D02368013300F0A680E1
:105930000826012554F8253001334CD06B1C54F84F
:105940002370013748D0AB1CB3423CD254F82370CB
:10595000013741D0EB1CB34235D254F823700137E4
:105960003AD02B1DB3422ED254F82370013733D0D6
:105970006B1DB34227D254F8237001372CD0AB1DD6
:10598000B34220D254F82370013725D0EB1DB34227
:1059900019D254F8237001371ED005F10803B34221
:1059A00011D254F82370013716D005F10903B34220
:1059B00009D254F8237001370ED00A35B54202D20D
:1059C000E36A013358D00420F0BD236A01332DD09F
:1059D0000C260925AEE72B4626185DB244F8232095
:1059E00086F83050BEF1000F26D08B78A3B94A78E4
:1059F0004FF0A04600F5E073920046F82320CB78E4
:105A0000F3B9083D2C44097894F8502042EA8112F9
:105A100084F850201846F0BD830003F1A043D3F86A
:105A2000002722F00202C3F80027E8E7082685F8DD
:105A30003060334622623546234483F84800D4E779
:105A4000AB0003F1804303F5C0430978D3F8104558
:105A500024F4473424F44074C3F8104502020904C6
:105A6000D3F8100501F4403102F4F8520A4302431E
:105A7000C3F810250020F0BD0B23ADE7002385F807
:105A8000303022601D46B0E7B82A0020F0B42E4D19
:105A90002E1882B096F93030072B1CDD2B4493F87A
:105AA00048309B09032B41D0012B14BF4FF44031E8
:105AB0004FF40031800000F1A040D0F8002722F41C
:105AC0004032C0F80027D0F800370B43C0F8003749
:105AD00002B0F0BC7047DAB2072AF9D8980000F19A
:105AE000804000F5C04003F140029200D0F810451C
:105AF00092B202F18042002744F0010402F5C04254
:105B0000C0F810450197019817600029E0D096F978
:105B1000302055F82220002ADAD001220B4902FA5F
:105B200003F3C1F8043302B0F0BC70474FF0A04358
:105B3000D3F81035C34013F0010F0CBF4FF4003100
:105B40004FF44031B6E700BFB82A002000600040A3
:105B5000154B034493F93030072B17DCDAB2072AD0
:105B600013D810B49A0002F1804202F5C0420F4CE3
:105B7000D2F81005012120F0010001FA03F3C2F868
:105B80001005C4F808335DF8044B7047800000F13D
:105B9000A040D0F8003723F44033C0F80037D0F8E5
:105BA0000037C0F800377047B82A00200060004076
:105BB0004FF0A043D3F8103523FA00F000F00100B5
:105BC000704700BF2DE9F04F87B00023CC4A019306
:105BD0001168012900F00A821E46CA4B1A68012A80
:105BE00000F0F681C84B1A68012A00F0E381C74B28
:105BF0001A68012A00F0D081C54B1A68012A00F00A
:105C0000BD81C44B1A68012A00F0AA81C24B1A68F0
:105C1000012A00F09781C14B1A68012A00F08481A3
:105C2000BF4B1A68012A00F05E8116F0FF0F1AD0F0
:105C3000BC4F01250024A30003F180432E4203F54D
:105C4000C0434FEA45050BD0D3F8100557F8242080
:105C5000D3F81015C0F30420C1F3014102B19047FD
:105C60000134082CE7D1002E02DB07B0BDE8F08F2D
:105C700000224FF0FF33AB4C02920393012502AE9A
:105C800094F950104F1C2DD0C9B221F0C00006ABC2
:105C90004FEAD00E03EB0E0701F0070317F80C2CA8
:105CA00005FA03F31A421DD02218890992F930200F
:105CB00054F82220002A00F0F080032900F0F08040
:105CC0004FEA800E0EF1A04E17F814CCDEF80077E4
:105CD0001CEA0303C7F3014940F0B880B9F1030F90
:105CE00000F0D7814FF0030A4FF002094FF001088E
:105CF000002794F95110481C2DD0C9B221F0C000E2
:105D000006AB4FEAD00C03EB0C0E01F007031EF8B4
:105D10000C2C05FA03F31A421DD02218890992F9B6
:105D2000302054F82220002A00F0CA80032900F015
:105D3000CA804FEA800C0CF1A04C1EF814BCDCF8B1
:105D400000E71BEA030FCEF3014E40F09080BEF156
:105D5000030F00F08A8194F952104A1C2CD0C9B26A
:105D600021F0C00006AB4FEAD00C03EB0C0E01F0A3
:105D700007031EF80C2C05FA03F31A421CD0221854
:105D8000890992F9302054F82220002A00F08F80EF
:105D9000032900F08E804FEA800C0CF1A04C1EF815
:105DA00014ACDCF800E71AEA030FCEF3014E6AD117
:105DB000BEF1030F00F0468194F953104B1C2CD018
:105DC000C9B221F0C00006AB4FEAD00E03EB0E02C1
:105DD00001F0070312F80CCC05FA03F31CEA030FD9
:105DE0001BD004EB000C89099CF930C054F82C90AE
:105DF000B9F1000F6ED003296ED04FEA800E0EF17C
:105E0000A04E12F814CCDEF800271CEA030FC2F3F0
:105E1000014211D1032A00F0F580002F3FF425AF95
:105E20004FF0A043019AD3F810359A423FF41DAFCA
:105E3000029A0193039223E7022AEED1032900F08C
:105E40004681B9F1000FE8D0C847E6E7B9F1020F83
:105E50007FF448AF032900F043814FF0030A4FF06D
:105E600001080027002A3FF444AF904741E7BEF104
:105E7000020F7FF470AF032900F02C81002A3FF459
:105E80006AAF904767E7BEF1020F95D1032900F092
:105E90002481002A90D090478EE703297FF422AF17
:105EA00016F80EC04CEA030C06F80EC008E70329EA
:105EB00082D116F80CA04AEA030A06F80CA06AE799
:105EC00003297FF448AF16F80CB04BEA030B06F831
:105ED0000CB02EE70329A0D116F80EC04CEA030C33
:105EE00006F80EC089E700221A601B6805934FF080
:105EF000A043059AD3F81035019346F0004694E686
:105F00000061004004610040086100400C610040F5
:105F10001061004014610040186100401C610040A5
:105F20007C610040B82A00206F4AD2F80423120690
:105F30007FF576AE00221A601B680493049B46F03E
:105F400080066DE6684AD2F8042351067FF563AEF9
:105F500000221A601B680493049B46F040065AE630
:105F6000614AD2F8042390067FF550AE00221A60F1
:105F70001B680493049B46F0200647E65A4AD2F871
:105F80000423D4067FF53DAE00221A601B680493FB
:105F9000049B46F0100634E6534AD2F80423150752
:105FA0007FF52AAE00221A601B680493049B46F01A
:105FB000080621E64C4AD2F8042357077FF517AEAE
:105FC00000221A601B680493049B46F004060EE648
:105FD000454AD2F8042392077FF504AE00221A60E6
:105FE0001B680493049B46F00206FBE53E49D1F88A
:105FF000046316F001063FF4F0AD136013680493D8
:10600000049BEAE503297FF41CAF4FF40032DEF86D
:10601000003723F44033CEF80037DEF8003713435F
:10602000CEF80037B9F1000F01D047460CE74FF02A
:10603000A043019AD3F8103593427FF4F9AE07B02C
:10604000BDE8F08F03297FF424AF4FF40037DCF86C
:10605000003723F44033CCF80037DCF800373B43FB
:10606000CCF800374746C84613E703297FF406AF4C
:106070004FF40037DCF8003723F44033CCF8003716
:10608000DCF800373B43CCF800374746C846D146DA
:10609000F4E6032906D0CA461F464FF002094FF026
:1060A0000108DFE64FF40037DEF8003723F4403311
:1060B000CEF80037DEF800373B43CEF800374FF01C
:1060C000040A4FF003094FF002080127CAE64FF413
:1060D00040329CE74FF44037CCE74FF44037B6E707
:1060E0004FF44037E0E700BF00600040F0B50479AE
:1060F000714E6401331987B0DD7E15B1082007B0F9
:10610000F0BD4D7F1D770D686B1C0BD04FF0A04785
:106110000123AB40C7F808350B6803F5E07303258E
:1061200047F823504B685F1C06D003F5E0734FF02F
:10613000A045002745F82370037906EB43131B7F26
:10614000002B4CD003688D69C3F824550F7D4B7D1F
:1061500005683B43C5F86C3503680F684D68C3F8A4
:106160000C75C3F814550B7D012B00F09A80331980
:1061700005465A600B693351EAB10379097F026819
:1061800006EB43131B7F002B65D1C2F81C31D2F8FC
:106190001C712A680097009FC2F84431D2F844214C
:1061A0002B6846480192019AC3F80403286840F31B
:1061B0000730FFF737FB2B792A6806EB43131B7F69
:1061C000002B44D00823C2F80035344400200123BA
:1061D000E376E0752076A075A07607B0F0BD05687F
:1061E0008F69C5F8247591F814E04D7D076845EA7C
:1061F0000E05C7F86C550568D1F800E04F68C5F882
:106200001475C5F80CE50D7D012DB0D18D686F1C9E
:1062100005D005F5E0754FF0A04747F82530CB686D
:106220005D1C0DD001254FF0A04705FA03F3C7F818
:106230000835CB6803F5E073032547F82350CB6896
:1062400005688F68C5F80835C5F810758FE7042311
:10625000C2F80035B9E70023C2F81031D2F8107146
:106260002A680297029FC2F82031D2F820712A686A
:106270000397039FC2F82431D2F824712A68049747
:10628000049FC2F84431D2F844212B6805920C488F
:10629000059AC3F80403286840F30730FFF7C2FAF1
:1062A00089E78B685D1CBAD003F5E0734FF0A04519
:1062B000002745F82370B2E7102B00208000020071
:1062C00010030200F0B502793C4B046852019918A2
:1062D000097F00296CD00021C4F80015991849687D
:1062E000B1B1017903EB4111097F002963D1016844
:1062F000334CC1F808430168324E090B4CB26409B3
:10630000203401F01F01012505FA01F146F824109F
:106310000179076803EB4111D7F80C65097FD7F8BD
:1063200014554FF0FF3EA9B3D7F80815D7F810451C
:10633000C7F80CE5C7F814E50068C0F808E5C0F830
:1063400010E5771C06D006F5E0764FF0A040022756
:1063500040F826706E1C06D005F5E0754FF0A040A1
:10636000022640F82560651C06D004F5E0744FF065
:10637000A040022540F82450481C06D001F5E071E9
:106380004FF0A040022440F8214013440022DA7666
:106390005A60F0BDD7F80815D7F81045C7F814E5CE
:1063A000C7F80CE50068C0F808E5C0F810E5C8E7D4
:1063B000C4F8001592E70168034C9AE7102B0020FF
:1063C0008402020000E100E010030200F0B503794E
:1063D000524C5B01E51887B02D7F3DB101F060455F
:1063E000B5F1005F02D0102007B0F0BD23449E7DC0
:1063F00016B1112007B0F0BD9A7599609E8205799B
:106400006D016219137F13BB0168C1F81C31D1F80B
:106410001C61016804960126049F8E600168D2F811
:1064200008E0C1F81C31D1F81C310593059B968A10
:10643000938A5768B6B201331EF806609BB2938206
:10644000C1F81C65002F2FD0002007B0F0BD0368F5
:106450009168C3F82061D3F8207103680197019F08
:10646000C3F85861D3F8586103680296967D029F7D
:10647000C3F84415C3F8486503680121996053685F
:10648000002BE1D1036801E0002945D1D3F8202198
:10649000D3F85811002AF7D0002914BF0F2000208C
:1064A0002C440023A3759FE7967D938A9BB29E425E
:1064B00002F1140122D9016804E0938A9BB2B3F57A
:1064C000807F03D0D1F81C31002BF6D0938A9BB289
:1064D000B3F5807FE9D0C1F81C71D1F81C3103936A
:1064E000039BB2F814C0938A1FFA8CFC01331EF888
:1064F0000CC09BB29382C1F81CC5D6E70B889BB237
:10650000B3F5807F08D00268D2F81C31002BFBD095
:106510000123D3600020C3E70F20C1E7102B002028
:1065200070B5A54C237F8EB0002B73D1A34AD2F84F
:106530000413890546D4A14BD3F80423520704D58C
:10654000D3F80821002A40F0C9809C4BD3F81C21C5
:10655000BAB1A28AA17D92B28A424FF00002C3F87A
:106560001C2180F0A880D3F81C210692069AA18AEB
:10657000A28AA06889B20132415C92B2A282C3F8B9
:106580001C158E4BD3F84421D2B10022C3F844210C
:10659000D3F84411A27E04910499002A40F0888027
:1065A000E37D6BB10023617EE268E37501238DF822
:1065B00030108DF828300B9294E80A000AA898470A
:1065C0000EB070BDD2F824110029B4D0C2F8243125
:1065D000D2F82411A37E07914FF401710798C2F8F5
:1065E00008130BB901235360744A02238DF8283035
:1065F000D2F88034C2F88034E07DE2680D93002345
:106600008DF83000E375237621680B9263680AA841
:1066100098479AE7694BD3F82421002A40F09280EA
:10662000D3F8101161B1C3F81021D3F81011039100
:106630000399D3F83C15E07DC9B2884200F0A480EC
:106640005E4BD3F84421B2B10022C3F84421D3F801
:106650004401E17D0190019869B1D3F83C35E168CE
:106660008DF8303001230B918DF82830E27594E8D5
:106670000A000AA89847514BD3F82021002A9FD03E
:106680000022C3F82021D3F82001A17D00900098BA
:10669000002995D0D3F84C15A3688DF830100B93D2
:1066A0008DF82820A27594E80A000AA8984787E781
:1066B00001221A6074E7D3F81C310593059B002969
:1066C0003FF45FAFA3688DF830100B938DF828204E
:1066D000A27594E80A000AA8984752E7E27D002ACA
:1066E0006ED00022C3F80821D3F808210892089A36
:1066F000E168627ED3F818358B54637EE27D013306
:10670000DBB26376637E93427FF41FAF237E002B60
:106710006CD1A37E13B9294B01225A60274AE06845
:1067200063684FF40171C2F80813627E8DF830205F
:10673000002501220B902168E5758DF828200AA814
:10674000984702E70022C3F82421D3F824110291CC
:1067500002218DF828100299D3F88014C3F8801410
:106760000D91D3F83C15E368E27522768DF8301070
:106770000B93216863680AA89847104BD3F844210B
:10678000002A3FF478AF5FE7217E11B3D3F80062AF
:10679000E568E17526F02006C3F8006226698DF8E9
:1067A000300001238DF82830227621680B95E660B1
:1067B00063680AA8984743E7102B00200020004098
:1067C000C3F80821D3F8081109910999D3F81835AD
:1067D00098E7E268E17501238DF830008DF82830E4
:1067E0000B9294E80A000AA8984729E7607EE568BA
:1067F0002169E375012200238DF83000E1602376E2
:1068000063760B958DF8282094E80A000AA898472B
:106810009BE600BF73DF704776DF70477ADF704713
:106820007CDF70477FDF70478FDF7047A8DF7047DE
:10683000A9DF704766DF70473EDF7047FDF77ABC1F
:1068400008B5037803B108BD054B3B211888FFF755
:10685000E3FF0028F7D0BDE80840FDF76BBC00BFA0
:106860009C2100200D281ED110B5104B1888000463
:106870000C4640F003000E49FCF796FF0D4B0E4905
:106880001888224601F0DAFC30F008020DD043F2FD
:106890000202904209D043F20142904205D0BDE885
:1068A0001040FDF747BCFDF745BC10BD802300201C
:1068B000F08C02009C210020442B002008B502200F
:1068C0005AB9FEF7D9FE074B07491888000440F073
:1068D0000300BDE80840FCF767BFFEF7C1FE014BAF
:1068E0000249F2E780230020208D02000C8D020077
:1068F00010B50388013B84B00446552B58D8DFE817
:1069000003F0905757575757575757575757575799
:1069100057972B57AD57575757575757575757579D
:1069200057576357575757575757575757575757EB
:1069300057575757575757575757575759575757E5
:1069400057575757575757575757575757575757D7
:1069500057576F8657575759454B46491888000473
:1069600040F00300FCF720FF0120FEF785FE424BBC
:106970004FF6FF721A80FDF7C3FB08B1FDF7DAFB93
:1069800010220021684601F0BEFE00234022684626
:1069900001218DF8003001938DF80830CDF80A20E0
:1069A000FFF738FF08B1FDF7C5FB0020FEF758FEE2
:1069B00004B010BD80881321FFF72EFF0028F7D008
:1069C000FDF7B8FB04B010BD002380888DF80030BF
:1069D00069468DF80130FFF727FF0028E8D0EFE780
:1069E0008379002BE4D0827B043A022AE0D8022B80
:1069F00018BF01238DF8003080884FF4C1736946B9
:106A0000ADF80430FFF712FF0028D1D0D8E71A4ABA
:106A10000023108819461A46FFF70AFF0028C7D03E
:106A2000CEE780880021FFF705FF0028C0D0C7E728
:106A30000F4B12491888000440F00300FCF7B4FE25
:106A40000120FEF70DFE0020FEF716FE0A4BA2887D
:106A50001A80FDF73FFB0028AAD0B1E7064A0023C1
:106A6000108885211A46FFF7DDFE0028A0D0A7E791
:106A700080230020E08C02009C210020D48C0200A6
:106A800080B5A0B0FEF704FEFDF712FF08B1FDF7D8
:106A900051FB0020FCF71CFD08B1FDF74BFBFCF798
:106AA00009FD40F2666201215F48FDF7B9FA08B1BD
:106AB000FDF740FB01F0E4FB08B1FDF73BFB20AC28
:106AC000002344F83C3D0120214601F0A3FC08B11D
:106AD000FDF730FB204601F051FD08B1FDF72AFB20
:106AE0009DF808305148012262F3030320AD62F3A0
:106AF000071305F8783D01F00EFE4C4982B2284696
:106B0000FFF78EFE08B1FDF715FB08220021204695
:106B100001F0F9FD464B119320464FF0C8731293D4
:106B2000FFF77CFE08B1FDF705FB0021414800F0AE
:106B30007BFF08B1FDF7FEFA3F4B40481193214619
:106B400001F096FA08B1FDF7F5FA3C4A927C8DF80F
:106B5000062041F223533C2200212846ADF80430A0
:106B6000012601F0D0FD0227062300213C22204609
:106B70008DF80B308DF808708DF80A6001F0C3FDB8
:106B800001AB28462146ADF85460169300F0D8FAC0
:106B900008B1FDF7CFFA1C220021204601F0B3FD19
:106BA0004FF4202700234FF4203603252449254A9B
:106BB00011932046ADF852308DF854301297139649
:106BC0008DF850501691179200F052FE08B1FDF763
:106BD000B1FA1D4B1D491888000440F00300FCF772
:106BE000E3FD10220021204601F08DFD002340220C
:106BF000204601218DF8443012938DF84C30CDF8A9
:106C00004E20FFF707FE08B1FDF794FA0020FEF7CB
:106C100027FDFCF7C3FC0028FBD1FFF70DFE002881
:106C2000F7D0FDF787FAF4E794210020348D0200B5
:106C30005000A000302B0020BD680200442B002033
:106C4000416802003D68020080230020448D02005C
:106C50006DDF704772DF704779DF70477DDF704707
:106C600064DF70472DE9F04F85B00488DDF8388087
:106C7000BDF83CA0B8F800500195002C57D09946BB
:106C8000002317468B4605461C4603E02A8801343C
:106C9000A24228DD6A6852F82400039000220DF118
:106CA0000B0103A8FFF7DCFF064630BB9DF80B2065
:106CB000BA42EBD12BB3B8F80020D31953451BDCF3
:106CC0004A440DF10B0103A80123FFF7C9FF98BB4C
:106CD000B8F800109DF80B200A44A8F800202A8874
:106CE0000134A242D6DC13B3B8F80030019A013B5C
:106CF0009B1A9BB2FF2B17D90C26304605B0BDE876
:106D0000F08FB8F800305A1C3B440233534592B21E
:106D1000F2DCA8F8002009F802B0B8F8002001322F
:106D200092B2A8F80020CBE709F80230E5E7002688
:106D3000304605B0BDE8F08F0646304605B0BDE8E8
:106D4000F08F00BF2DE9F04700231788138090F8DB
:106D50002D3084B0144605460E46002B49D1AA7842
:106D6000002A70D1EA78002A2ED16A68A2B1D91C13
:106D7000B94225D8022192F90020F1542388013329
:106D80009BB20A212380F154238801339BB22380D4
:106D9000F2542388013323802B89002B40F02A8171
:106DA0002B8A002B40F03F812B8B002B40F054812D
:106DB0002A6A002A00F0A78021888B1DBB4262D975
:106DC0000C2004B0BDE8F087D91CB942F8D80221E4
:106DD000F154238801339BB201212380F15423888D
:106DE0000B449BB22380F25423880B449BB2238034
:106DF000BBE7082FE4D902A8FFF72AFF0028E0D15B
:106E000013880822CA54238801339BB21B22238093
:106E1000CA542088013080B22080062208440DF137
:106E2000090101F065FC23889DF8082006339BB218
:106E300012F0FE0218BF01222380F254238801338E
:106E40009BB223808BE70433BB42B9D802A8FFF77B
:106E500003FF0028B5D12388BDF808200321F15491
:106E6000238801339BB219212380F15423880133F5
:106E70009BB2F1182380F254120A4A70238802331D
:106E80009BB223806EE71388052B40F2AF806FF42E
:106E9000486803EB080080B24FF27D3E704540F237
:106EA000A5805088052840F2A1806FF4486C844486
:106EB0001FFA8CFCF44540F299804FF6FF7E734533
:106EC00004D0704502D0834200F2908005237354B1
:106ED000238801339BB212212380F154238801338C
:106EE0009BB223801188F1543344090A59702388D6
:106EF00002339BB223805288F2543344120A5A70F0
:106F0000238802332380D5F82480B8F1000F30D0D5
:106F1000B8F8041020888A1C831C1344BB423FF637
:106F20004FAFFE2A3FF64CAF033131542388013373
:106F30009BB2FF222380F254238801339BB223802B
:106F4000B8F80020F2543344120A5A7020880230F4
:106F500080B22080B8F804205AB1D8F8081000296F
:106F600044D0304401F0C4FBB8F804202388134413
:106F7000238095F82C30002B40F08780287800285B
:106F80003FF41FAF2B88012B30D023889A1CBA42C4
:106F90003FF616AF012805D16978023119448F42B6
:106FA000FFF40EAF023FFB1A04A99BB221F8083D83
:106FB000B018FFF753FE00287FF403AF2A78022AA7
:106FC00000F0AF80012A00F0B4800821FE2B3FF6CC
:106FD000F7AE22885D1CB5542288013292B222801D
:106FE000B1542288013213442380EAE6072004B01A
:106FF000BDE8F08705F1080802228DE890004046C0
:1070000011463346FFF72EFE00287FF4DAAE8DE8F6
:1070100090004046334610220621FFF723FE002849
:107020003FF4BEAECDE605F110088DE89000404675
:10703000334602220321FFF715FE00287FF4C1AE7C
:107040008DE890004046334610220721FFF70AFEE4
:1070500000283FF4A9AEB4E605F118088DE89000C9
:107060004046334602221421FFF7FCFD00287FF43E
:10707000A8AE8DE890004046334610221521FFF758
:10708000F1FD00283FF494AE9BE6D5F82880B8F1D6
:10709000000FABD0B8F804200232FE2A3FF690AEC3
:1070A00023884FF000094FF0160A0132F25423886A
:1070B00001339BB2238006F803A0238801339BB2DF
:1070C0002380B8F80020F2543344120A5A702388FF
:1070D00002339BB22380B8F80410F0180A4661B15D
:1070E000D8F808301946002B80D001F001FBB8F821
:1070F0000420238813449BB2238009F1010995F8E9
:107100002C205FFA89F94A4509EB49087FF636AF2A
:10711000AA6A02EB8808B8F804200232FE2AC4D911
:107120004EE6BDF808209342FFF44FAF1346092105
:107130004CE76A789342FFF448AF1346082145E7CD
:107140002DE9F04395B01F230D46ADF80E300446EF
:10715000002800F08480C27853077CD590F82D3049
:107160000021ADF80C10002B40F0DB8183780CAFD0
:10717000002B40F017821946032014AE31445F1CE7
:10718000023316FA87F74FF0020E16FA83F601F86B
:1071900040EC83B2012107F8401CADF80C3006F832
:1071A000402C6668002E00F08C80D81C1F2874D9F3
:1071B0000C2015B0BDE8F083A76A002F4BD0BA8829
:1071C0000232FE2AF4D8BDF80C304FF0000804AEAD
:1071D0004FF016091AE001F08BFABDF80C30BA88AE
:1071E00094F82C1013449BB2ADF80C3008F1010850
:1071F0005FFA88F8884508EB480280F0F080A76ABB
:1072000007EB8207BA880232FE2AD1D80DF1500E60
:107210009E44581C01320DF1500C0EF8402C1CFA03
:1072200080F09A1C92B200F8409CADF80C2038888F
:10723000B0543244000A50700433B7F804E09BB2F3
:107240007246F018ADF80C30BEF1000FCED0BB681E
:107250001946002BBFD1072015B0BDE8F083ADF86B
:107260000C00ADB1EB78002BF5D128460CA90DF13F
:107270000E02FFF767FD0028EED19DF80E300CAA34
:1072800020469DF80C10FFF7E5FC15B0BDE8F08333
:107290002B46ADF80E502A46F2E714AF591C9A1C43
:1072A00017FA81F13B4417FA82F296F90060ADF8C3
:1072B0000C0002270A2003F8407C01F8400C02F879
:1072C000406C2389002B40F08F80238A002B40F0F4
:1072D000AB80238B002B40F0C780226A002A42D06B
:1072E000BDF80C30991D1F293FF662AF10880528A4
:1072F000B1D96FF4486C00EB0C06B6B24FF27D3793
:10730000BE42A8D95688052EA5D96FF4486EB6445A
:107310001FFA8EFEBE459ED94FF6FF77B84203D0C6
:10732000BE4201D0B04296D814A8C7185E1C10FA0D
:1073300086F64FF0050E981C07F840EC80B2122735
:1073400006F8407CADF80C001788ADF80C1004AEC0
:107350003118375404333F0A4F709BB25288F254AD
:107360001E44120A7270676AA7B3B888BDF80C3061
:10737000811C9A1C56181F2E3FF61AAFFE293FF6A5
:1073800017AF14AE1E44591C0DF1500E1EFA81F1B8
:10739000033006F8400C92B2FF2001F8400CADF823
:1073A0000C20398804AEB018B154090A4170043376
:1073B000BA8898B2ADF80C0062B1B96800293FF400
:1073C0004AAF304401F094F9BDF80C30BA88134448
:1073D000ADF80C3094F82C1000297FF4EDAE237832
:1073E000002B61D104AC3CE703A904F1080704AE0B
:1073F0004FF01F080222009138463346CDF8048032
:107400001146FFF72FFC00287FF426AF03AB009353
:10741000CDF804803346384610220621FFF722FCBF
:1074200000283FF452AF17E703AA04F1100704AE97
:107430004FF01F08009238463346CDF804800222F0
:107440000321FFF70FFC00287FF406AF03AB009386
:10745000CDF804803346384610220721FFF702FC9E
:1074600000283FF436AFF7E603AA04F1180704AE8C
:107470004FF01F08009238463346CDF804800222B0
:107480001421FFF7EFFB00287FF4E6AE03AB009377
:10749000CDF804803346384610221521FFF7E2FB71
:1074A00000283FF41AAFD7E62288012A3FF4D3AE72
:1074B000BDF80C20901C1F283FF67AAE012B04D19A
:1074C000637803441F2B3FF673AEC2F11D0314A96A
:1074D0009BB204AE21F8203D3044FFF7BFFB0028EB
:1074E0007FF4BAAE2278022A00F08680012A00F0EA
:1074F0008B80ADF830300820FE2B3FF659AEBDF83A
:107500000C2014AC511CA71814FA81F102321A4451
:10751000013307F8403C3446ADF80C2001F8400C2C
:107520009FE60CAF3846FFF793FB00287FF494AE3C
:10753000BDF80C3014A903F1010E9A1C11FA8EFE4D
:107540000B4492B204AEB01808211B2603F8401C6D
:10755000ADF80C200DF1310106220EF8406C01F05F
:10756000C7F8BDF80C209DF83010931D11F0FE01F6
:107570009BB23BD114A8034403F8401CD31DA2784E
:107580009BB2ADF80C304AB9E278002A3FF409AE5C
:10759000D81C1F2819463FF60BAEEEE504331F2B0F
:1075A0003FF606AE3846FFF757FB00287FF454AE8F
:1075B000BDF80C30BDF83010E278581C14AE16FA45
:1075C00080F01E449F1C4FF0030E06F840ECBFB243
:1075D00004AE4FF0190E00F840EC0433F019F155E9
:1075E0009BB2090AADF80C304170CEE714A90B44E8
:1075F000012103F8401CC1E7BDF830209342FFF49D
:1076000078AF1346092077E762789342FFF471AFB1
:10761000ADF83020134608206EE700BF75DF7047D5
:1076200076DF70477ADF70477BDF704730B51D4BE0
:107630001A8885B2AA4283B001D003B030BD1A4C7B
:10764000187A217B88420FD3227C00211972BAB9A3
:107650006369002BF1D00022ADF806508DF80420AC
:1076600001A8984703B030BD104603F10A01FFF7A7
:10767000D5FF88B11128E0D0A369002BF1D1DCE758
:107680003B212846FFF7CCFF30F00803E0D0A36988
:10769000002BDDD09847DBE71A7A01321A7203B06B
:1076A00030BD00BF782B00205C2B0020F0B5028895
:1076B000112A83B003463ED02BD9122A08D0502A73
:1076C00004D1684DC188EA89914246D003B0F0BD2B
:1076D000654C828821889142F8D1E189B1F5FA7F21
:1076E00061D2002658896589854248D8A589854296
:1076F00045D39B899E4242D801F2F31199423ED371
:10770000584B5B690121002061722072002B78D1F7
:10771000DCE7102ADAD1C27B012AD7D1524C21886A
:107720004FF6FF72914242D04E4B9B69002BCDD059
:1077300004209847CAE74C4C828823889A42C5D1D6
:107740006068FDF7DFF918B1464B9B6903B19847B4
:107750004FF6FF73238003B0F0BD028A022AB5D131
:10776000414C86882788BE42B0D1123000F052F9D1
:1077700000285AD16068FDF7C5F970B9A6E7394D00
:10778000267A6B68A9686068002E08BF1946002336
:107790006372FDF761F9002898D0AB69002B95D092
:1077A000984703B0F0BD6FF4F9700E189AE72F4DAB
:1077B0008288228003CDC4F80E10E589C4F80A003F
:1077C0000021B5F5FA7F217202D36FF4F976A91979
:1077D000588A668986421AD8A689864217D39B8A18
:1077E0008B4214D305F2F3159D4210D31D4BD8895B
:1077F0000121617200287FF469AF5B69002B3FF4BF
:1078000065AF8DF80410ADF8062001A8C8E7154D46
:10781000EB8900216172002B7FF458AF60686968C2
:10782000FDF71AF90028B8D150E7637A63B96B689D
:10783000A968277A60683246002F08BF1946FDF70D
:107840000BF90028A9D141E76B6900222272002BB5
:107850003FF43CAF0122ADF806708DF8042001A87A
:10786000984733E75C2B0020782B00208C2B0020DE
:1078700050B3F8B5054606460FCD174F3C460FC42A
:10788000864695E80700154B3B6084E80700BEF18B
:10789000000F1BD07046FFF7C5FEA0B93268106814
:1078A000516803C30E4B0F490F4A18464FF6FF7439
:1078B00040F8041F1C800021FDF7BCF8002814BF0D
:1078C00003200020F8BDF8BD0E2070471846FFF7D2
:1078D000ABFE0028E6D0F8BD5C2B00208C2B0020EE
:1078E000782B0020942B00202D7602000388112B8A
:1078F00074D02DE9F0471A2B94B0814653D0102B49
:1079000002D014B0BDE8F087DFF804A1DAF848200F
:10791000DAF844300AF1040123EA020203A8FDF771
:1079200085FE039E8EB10024A0460DF10E050AF1DE
:10793000440735F8023F3048CDF8008001341D225D
:107940003946FDF747FEB442F3D1DAF84400B9F8FE
:107950000440C043FDF708FE4FF6FF73984244D041
:1079600026490AEB400A2246A1F144000123AAF865
:107970000440FDF711FE22492246A1F140000123F7
:10798000FDF70AFE99F80F301E49B9F80420A3F15B
:107990000203B3FA83F35B09A1F1480014B0BDE818
:1079A000F047FDF7F9BD037A174982881F2B94BF72
:1079B00000230123A1F14C00FDF7EEFD99F80830FA
:1079C0001249B9F804202F2B94BF00230123A1F101
:1079D000500014B0BDE8F047FDF7DEBD07498288CE
:1079E0000023A1F14400FDF7D7BD042014B0BDE889
:1079F000F047FCF79FBB00BFB82B0020FC2B0020FA
:107A0000F82B0020002C0020042C0020082C002043
:107A1000B42B0020007800F00100704790DF704721
:107A20009EDF7047ADDF704788B110B41B224FF066
:107A30001714002301610460C0F80640027102734C
:107A400042738372C3725DF8044B184670470E2070
:107A5000704700BF83888BBB70B50288232A82B031
:107A60000C4600F0A5801AD93A2A00F08F80552ADA
:107A700052D0242A77D0A37AF3B1E1880020FFF70F
:107A8000CFFF00286BD0112816D0724B72491B888B
:107A90001B04024643F00100FBF73CFF0CE0102AF8
:107AA0000DD0112AE7D11B224FF01711A372E372F8
:107AB000C4F806102273627302B070BD70470B7970
:107AC0000B73C27B012A00F09280022A00F08C80A6
:107AD000C98822898A42C0F08D80627B9A42CAD2CC
:107AE00000259BB22A4628466946ADF80030ADF81D
:107AF0000230ADF80450ADF80650FFF78FFF0028B4
:107B0000B9D0544B55491E88360403462A4646F0E0
:107B10000100FBF7C1FFAEE7C288C988A372172A2C
:107B200038BF17228A4228BF0A4618462281FFF72B
:107B300079FF002866D1E37A002B9CD12269002AC4
:107B400099D02189ADF8023040F67720ADF80000D9
:107B5000ADF80410204669469047A37A8CE70123CC
:107B6000A072E372A8E70A69007A4873002A82D0FB
:107B70004DF67A250093ADF8043069468DF804007F
:107B8000ADF8005020469047A37A75E74289C9882E
:107B900025698A4228BF0A46172A38BF1722228140
:107BA00015B1E17A002937D10023E372A37283E78C
:107BB000057A0A7B0193954228BF154669461A4605
:107BC0001846ADF80050ADF80250FFF727FF002827
:107BD0003FF451AF1F4B22491B881B04024643F060
:107BE0000100FBF797FE46E74988E18071E70988C5
:107BF000E1806EE70020FFF713FFC8B90123E372AD
:107C0000237B6AE7134B17491B881B04024643F08A
:107C10000100FBF77FFE8EE740F67721ADF80010FC
:107C2000ADF80230ADF8042069462046A847BBE70E
:107C3000112803D10123A372237B4EE7054B06498C
:107C40001B881B04024643F00100FBF763FE237B05
:107C500043E700BFC82300205C8D0200A08D020016
:107C6000448E0200008E02000649074A074B9B1A09
:107C700003DD043BC858D050FBDC00F013F8FBF7E1
:107C8000F5FA0000B892020080210020F8230020BD
:107C9000FEE7FEE7FEE7FEE7FEE7FEE7FEE7FEE7BC
:107CA000FEE7FEE7F0B4B24B1A78062A1BD0B14AC1
:107CB000D2F8883043F47003C2F88830BFF34F8F96
:107CC000BFF36F8F4FF01023D3F80022002AC0F2C9
:107CD0007981D3F80432002BC0F27481A64BA74AF5
:107CE0001A60F0BC704704331B681807DFD1A44B3F
:107CF0001B6803F0F002302A00F0298103F0E00352
:107D0000402B00F024819E4B1B6803F0F003302BC6
:107D100000F00F819A4B1B6803F0F002302A00F04C
:107D2000F88003F0E003402B00F0F380944B1B68D5
:107D300003F0F003302B00F0DC80914B1B6803F064
:107D4000F002302A00F0C18003F0E003402B00F085
:107D5000BC808B4B1B6803F0F003302B00F0A78036
:107D6000874B1B6803F0F003302B00F08980844BB5
:107D70001B6803F0F003502B30D0814B1B6803F0DD
:107D8000F002302A19D003F0E003402B15D07C4BD1
:107D90001B6803F0F002302A03D003F0E003402B0D
:107DA00085D14FF08043D3F80024D2077FF57FAF11
:107DB0006FF00102C3F8002479E7724B724A1B6826
:107DC00003F04F0313606A4B1B78062B7FF46FAFF1
:107DD0006E4B1B6818077FF46AAFD8E74FF08052EC
:107DE0006B4BD2F80414C3F82015D2F80814C3F86A
:107DF0002415D2F80C14C3F82815D2F81014C3F8BF
:107E00002C15D2F81414C3F83015D2F81814C3F88E
:107E10003415D2F81C14C3F84015D2F82014C3F856
:107E20004415D2F82414C3F84815D2F82814C3F81E
:107E30004C15D2F82C14C3F85015D2F83014C3F8EE
:107E40005415D2F83414C3F86015D2F83814C3F8B6
:107E50006415D2F83C14C3F86815D2F840144448AD
:107E6000C3F86C15D2F844140278C3F87015062ACA
:107E70007FF41DAF454B1B681C077FF418AF7CE7F0
:107E8000444E454C4549464B0527012500203F22DD
:107E90003760256008601A60354B1B78062B7FF42D
:107EA00006AF3A4B1B681D077FF401AF5FE7304B0D
:107EB0003C4A1B780321062B11607FF4F8AE334B4C
:107EC0001B681E077FF4F3AE4AE74FF080430022A1
:107ED000C3F80C21C3F81021C3F83825244B1B78B4
:107EE000062B7FF470AF294B1B681F077FF4DFAEB2
:107EF0002FE72D491E4ACB68127823F08073062A9B
:107F0000CB607FF4D4AE214B1B681B077FF4CFAE50
:107F100013E7264B164A1B6812782549C3F34233F0
:107F2000062A0B60B8D1194B1B681A077FF4BFAE45
:107F3000FCE60F4B1F4A1B781F491160062B7FF48C
:107F4000B6AE124B1B6819077FF4B1AEE2E61B4BCD
:107F5000074A1B6812781A49C3F30423062A0B60E8
:107F6000BCD10A4B1B6819073FF4CDAE9FE600BF9A
:107F7000E00F00F000ED00E0A02100200090D00311
:107F8000E80F00F058020010E40E0040E40F00F08B
:107F900000C000401056004088560040185600406F
:107FA00014560040A0050040F0ED00E0440200102F
:107FB0003C05004074C007400DF0ADBA240300102A
:107FC00040350140184B0122C3F80425D3F80024A2
:107FD000002AFBD04FF0102315221349C3F80022CA
:107FE000D1F80034002BFBD04FF0102215210E4B9E
:107FF000C2F80412D3F80024002AFBD000220A4958
:10800000C3F80425D1F80034002BFBD0BFF34F8F09
:108010000649074BCA6802F4E0621343CB60BFF322
:108020004F8F00BFFDE700BF00E0014000ED00E022
:108030000400FA05A0DF7047A2DF7047A6DF704793
:1080400062DF70470388502B06D110B44B88C48878
:108050009C4202D05DF8044B7047038A012BF9D192
:108060004B69002BF6D0827C5DF8044B8088184762
:10807000F0B5714B0E6805460FCB95B004AC84E8A3
:108080000F006E61204605F11201FFF7D9FF04468B
:1080900010B1204615B0F0BD14A941F2235321F8C8
:1080A000483D2A46AB7C8DF80A300120FFF7C2FF1D
:1080B00004460028EDD121460322684600F023FB48
:1080C0009DF800709DF801309DF802E0012666F3EE
:1080D000030766F3030366F3071366F3420E2146B4
:1080E00066F307171C220DA88DF800708DF801307B
:1080F0008DF802E000F007FB9DF8343095F812E0AF
:108100000E9443F01203214641F22457032201A8A2
:108110001094119413948DF834308DF80EE0ADF86E
:108120000C70CDF848D000F0EEFA9DF806309DF8BE
:1081300004E09DF8057066F3420364F3C30364F33F
:10814000041364F3030766F3030E64F3000366F39A
:10815000071E64F307172146142208A88DF806307D
:108160008DF804E08DF8057000F0CDFA01AFADF8A0
:108170002A400C9408AA03AC0DA905F10A0328882B
:1081800008940997ADF82860ADF82C60FFF754FF0C
:10819000044600287FF47DAF01461C220DA800F0A4
:1081A000B2FA9DF83430A87C8DF80E0043F00A0333
:1081B000214641F22557032201A80E9410941194F0
:1081C000129413948DF83430ADF80C7000F09BFAD3
:1081D0009DF806309DF804009DF8057066F3420393
:1081E00064F3C30366F3030064F3041366F3071038
:1081F00066F3030764F30003214614228DF804009C
:1082000066F3071708A88DF806308DF8057000F0A2
:108210007AFAAB1C2888ADF82A4003AD089508AA65
:108220000DA901AD0C940995ADF82860ADF82C604E
:10823000FFF702FF04462CE7988E020070B588B065
:108240000E4605468DF80720012404A810220021BF
:10825000ADF80E4000F057FA7389ADF810300DF10B
:1082600007020DF10E0304A928468DF8124007926B
:108270000693FFF7E3FE08B070BD00BF10DF704744
:1082800070B5374D2B7884B01BB10824204604B05C
:1082900070BD344E3449012302A83370FDF718F93C
:1082A000039B2BB90CE002A8FDF71CF9039B3BB123
:1082B0001A685968002090470028F4D10446E5E781
:1082C0002A4902A8FDF704F9039B4BB11A685968C3
:1082D0000020904702A8FDF705F9039B002BF5D17C
:1082E000234B24491B6804A840F80C3DFFF7C6FF48
:1082F00004460028CAD1204A20483470E0230121D6
:108300000470297082F8163382F8153392F8163308
:108310005B098B4219D9042B17D0194B9968C9B93D
:108320004FF480031360114902A8FDF7D1F8039BB5
:10833000002BABD01A6859680120904702A8FDF7BE
:10834000D1F8039B002BF5D1A0E742F20200FBF726
:10835000F1FEE8E71A6842F480021A60E3E700BF22
:108360006D2C00206C2C0020AC8E0200C48E02000C
:10837000A88E02005541020000E100E06E2C0020B2
:10838000702C0020014B1878704700BF6D2C002026
:1083900000B583B068460849FDF79AF8019B43B1E0
:1083A00058681A6890476846FDF79CF8019B002BB7
:1083B000F6D103B05DF804FBB88E020060DF7047B1
:1083C00069DF704761DF704730B5114D93B03824D5
:1083D0000DF1060104A8ADF80640FFF7F3FF88B9D8
:1083E000294602A8FDF774F8039B002BF0D01A6809
:1083F000596804A8904702A8FDF774F8039B002B66
:10840000F5D1E5E7052801D0FBF794FE13B030BDA8
:10841000D490020000297AD070B5514B0B6084B023
:108420000C4605460C22002101A800F06CF901263B
:10843000032301A922688DF8045020208DF80660DE
:10844000ADF80830FFF7BCFF002862D10C220021F4
:1084500001A800F058F9012100238DF804102268CA
:108460008DF8053001A940208DF80630FFF7A8FFF0
:10847000002830D10C22002101A800F044F90A2381
:1084800022688DF8043001A90120FFF799FF002828
:1084900058D10C22002101A800F035F94FF4B06347
:1084A0002268019301A9A120FFF78AFF00283CD18F
:1084B0000C22002101A800F026F99DF80430226862
:1084C0006FF3000301A9A0208DF80430FFF778FFB7
:1084D00070B904B070BD234B1D88FDF70FF82D0453
:1084E00045F00105024620492846FBF713FAC1E78B
:1084F0001C4B1C88FDF702F8240444F001040246DA
:108500001A492046FBF706FA002004B070BD0E2081
:108510007047144B1D88FCF7F1FF2D0435430246CC
:1085200013492846FBF7F6F990E70E4B1D88FCF738
:10853000E5FF2D0445F0010502460E492846FBF7EC
:10854000E9F9B5E7074B1D88FCF7D8FF2D0445F086
:108550000105024608492846FBF7DCF999E700BF08
:1085600080210020E0230020208F02000C900200D8
:10857000D88E0200B88F02006C8F020070B50446DE
:108580000268FFF71BFF23689A42054617D0144E76
:1085900014493088000440F00200FBF77DFA4FF0E8
:1085A00080533088D3F80C3122680F499B020004B5
:1085B00003F1005340F002009A1AFBF7ABF965B1E2
:1085C000074B28461C88FCF799FF240444F001045B
:1085D000024606492046FBF79DF9284670BD00BFBC
:1085E000E02300206090020090900200B49002000E
:1085F00048DF704710B5114C84B001A8FFF7F8FFB1
:10860000A8B9214602A8FCF763FF039B002BF4D016
:108610001A6859680198904702A8FCF763FF039B0A
:10862000002BF5D101A8FFF7E3FF0028E9D00528CA
:1086300001D0FBF77FFD04B010BD00BFEC9002003D
:1086400008B5074B044613B10021AFF30080054B7A
:108650001868836A03B19847204600F071F800BF9C
:10866000000000000491020070B50D4E0D4CA41BDB
:10867000A4100025A54209D10B4E0C4C00F062F865
:10868000A41BA4100025A54205D170BD56F82530C5
:1086900098470135EEE756F8253098470135F2E75F
:1086A00074230020742300207423002078230020EA
:1086B000044B054A1B681B6A002B08BF1346D3F8FE
:1086C000EC007047A42100200822002082B001B9EC
:1086D00001A942B14BB113780B601278101C18BF7E
:1086E000012002B070471046FBE76FF00100F8E789
:1086F00010B5431E0A44914200D110BD11F8014B40
:1087000003F8014FF7E702440346934200D1704754
:1087100003F8011BF9E7034613F8012B002AFBD1EC
:10872000181A0138704749B1FF2A85BF8A230360B0
:108730000A704FF0FF3098BF01207047084670471D
:10874000FEE700BFF8B500BFF8BC08BC9E46704706
:10875000F8B500BFF8BC08BC9E467047FFFFFFFF9E
:10876000FFFFFFFFFFFFFFFFFFFFFFFF0000000015
:10877000000000000000D6010701000019340200CB
:10878000D1330200CD3302007C2800204429002090
:108790004C2900208428002018000000617070001F
:1087A000E88702000888020010880200188802008A
:1087B00020880200288802003088020038880200E1
:1087C0004088020020253032780000002020200060
:1087D0007C00000025630000257300003C25733EEB
:1087E0002025733A200000001B5B306D0000000064
:1087F0000D0A0000000000004888020050880200B6
:1088000058880200608802001B5B313B33306D00EA
:108810001B5B313B33316D001B5B313B33326D00F1
:108820001B5B313B33336D001B5B313B33346D00DD
:108830001B5B313B33356D001B5B313B33366D00C9
:108840001B5B313B33376D006572726F7200000045
:108850007761726E696E6700696E666F0000000076
:1088600064656275670000005429002046617461E8
:108870006C206572726F720053797374656D20722B
:10888000657365740000000062616C6C6F630000CA
:108890003031323334353637383941424344454636
:1088A0007077725F6D676D7400000000556E6B6EBF
:1088B0006F776E206572726F7220636F646500005F
:1088C00000000000B089020001000000BC89020025
:1088D00002000000DC89020003000000008A0200A0
:1088E00004000000148A020005000000288A02002B
:1088F000060000003C8A020007000000548A0200C3
:10890000080000006C8A020009000000848A02004E
:108910000A000000A08A02000B000000B88A0200D2
:108920000C000000D08A02000D000000E48A020062
:108930000E000000F88A02000F000000088B020001
:10894000100000001C8B020011000000348B02009C
:1089500080000000448B020081000000648B020054
:1089600082000000808B0200830000009C8B0200CC
:1089700084000000BC8B020085000000E08B020038
:1089800086000000088C020090000000208C02008D
:1089900091000000408C020000820000608C020008
:1089A00001820000808C0200028200009C8C020088
:1089B0004E52465F53554343455353004E52465F14
:1089C0004552524F525F5356435F48414E444C45C7
:1089D000525F4D495353494E470000004E52465F87
:1089E0004552524F525F534F4654444556494345B2
:1089F0005F4E4F545F454E41424C454400000000DD
:108A00004E52465F4552524F525F494E5445524E68
:108A1000414C00004E52465F4552524F525F4E4FFE
:108A20005F4D454D000000004E52465F4552524F8B
:108A3000525F4E4F545F464F554E44004E52465F74
:108A40004552524F525F4E4F545F535550504F5204
:108A5000544544004E52465F4552524F525F494E74
:108A600056414C49445F504152414D004E52465F81
:108A70004552524F525F494E56414C49445F535400
:108A8000415445004E52465F4552524F525F494E47
:108A900056414C49445F4C454E4754480000000045
:108AA0004E52465F4552524F525F494E56414C49D5
:108AB000445F464C414753004E52465F4552524F29
:108AC000525F494E56414C49445F44415441000075
:108AD0004E52465F4552524F525F444154415F539C
