:020000022000DC
:1030000000000120459602006D9602006F960200B6
:10301000719602007396020075960200000000008F
:103020000000000000000000000000007796020091
:1030300079960200000000007B9602007D96020057
:10304000A15E02007F960200456D02007F9602009D
:103050007F9602007F960200596202007F9602006E
:103060007F9602007F9602007F9602007F96020004
:103070007F9602007F9602007F9602007F960200F4
:103080007F960200B94102007F9602007F960200FF
:10309000594202007F960200F19E02007F960200D4
:1030A0007F9602007F9602007F9602007F960200C4
:1030B0007F9602007F9602000000000000000000E2
:1030C0007F9602007F9602007F9602007F960200A4
:1030D0007F9602007F9602007F96020000000000AB
:1030E00000000000000000000000000000000000E0
:1030F00000000000000000000000000000000000D0
:1031000000000000000000000000000000000000BF
:1031100000000000000000000000000000000000AF
:10312000000000000000000000000000000000009F
:10313000000000000000000000000000000000008F
:10314000000000000000000000000000000000007F
:10315000000000000000000000000000000000006F
:10316000000000000000000000000000000000005F
:10317000000000000000000000000000000000004F
:10318000000000000000000000000000000000003F
:10319000000000000000000000000000000000002F
:1031A000000000000000000000000000000000001F
:1031B000000000000000000000000000000000000F
:1031C00000000000000000000000000000000000FF
:1031D00000000000000000000000000000000000EF
:1031E00000000000000000000000000000000000DF
:1031F00000000000000000000000000000000000CF
:1032000010B5054C237833B9044B13B10448AFF320
:1032100000800123237010BDDC2C00200000000082
:1032200008C102000C4B43B10C480D4910B5AFF377
:1032300000800C48036823B910BD0A48036833B9FD
:103240007047094B002BF7D0BDE810401847064BDC
:10325000002BF5D0184700BF0000000008C1020095
:10326000E02C0020602C002000000000154B002BFB
:1032700008BF134B9D46A3F5803A00218B460F46AD
:103280001348144A121A07F010F80F4B002B00D005
:1032900098470E4B002B00D09847002000210400D7
:1032A0000D000D48002802D00C48AFF3008006F056
:1032B000ADFF2000290004F057FD06F093FF00BF8A
:1032C00000000800000001200000000000000000D5
:1032D000DC2C0020AC3C00200000000000000000BE
:1032E000704700BF00B583B0044B0093044A4023ED
:1032F00000F020F803B05DF804FB00BF05330200C6
:10330000F82C00208AB1F8B50F4614460A2600258D
:1033100022467919002004F025FE0544241A08B934
:10332000013E01D0002CF3D1F8BD7047704700BFBB
:1033300004F0DCBEF0B595B0002415460F460846F3
:103340001E4602F021FB384623460822089505A9AF
:103350001A9D09960D950A948DF82C400C9402F054
:1033600079FB9DF81430079806998DF8104003F00A
:103370000302012A0290ADF80C102CD0022A04D0CE
:10338000384602F011FB15B0F0BDBDF81650C3F37E
:10339000C202C3F38003C5F389158DF80E208DF8A2
:1033A0000F300826082D2C4628BF08243346224615
:1033B0000EA9384602F04EFB2D1B214608AB02AA8F
:1033C0000EA8264400F0E2FC002DEBD1384602F0B6
:1033D000EBFA15B0F0BDBDF814500598C5F3831590
:1033E000C3F3C20EAA000EA9C3F38004C0F395264E
:1033F000082338468DF80EE08DF80F4002F02AFBC6
:1034000008AB00932A4630460EA902AB00F026FC1A
:10341000B6E700BF10B5054CFFF78AFF2046042130
:1034200000F0DCFB0123637210BD00BF682A00209E
:103430000F4B104810B50022FF21C3F818249960E3
:103440001A605A60C3F8142483F81C2402F052FA5C
:1034500068B90949094BC91AC90808D0084C02467D
:103460000346A3520133994202F10C02F9D110BD77
:10347000382D00201CB50200ACC102005CC1020066
:10348000642C002021B9124A02EBC000006870478A
:1034900030B410490E4D491BC9080ED00E4B5A8846
:1034A000824218BF002205D10FE0DC89844203F17B
:1034B0000C0305D001329142F7D1002030BC704797
:1034C00005EBC200006830BC70472846FAE700BF31
:1034D0005CC10200ACC10200642C0020094B013920
:1034E00003EBC00003290BD8DFE801F00208060453
:1034F0000220704740797047007970470420704778
:10350000002070475CC102002DE9F047814C94E82F
:103510000C009A4284B040D00023C4F81834BFF3A2
:103520004F8F6068A56800EA0506F31C04EB830171
:1035300014F823309F07024610D10B884988C3F343
:10354000891303EB911301331A4405EA0206F31CB5
:1035500004EB830114F823309B07EED004EB8606BE
:10356000511CF3680193294004EB810103F003032C
:10357000C9680291022B02F1020812D0012B74D00B
:10358000032B06D02368181A18BF012004B0BDE829
:10359000F087D4F81834002BF4D1002004B0BDE833
:1035A000F087BDF806305C48C3F389194F46502FA9
:1035B000A8BF502767F38F1307F10801ADF8063055
:1035C00002F09AF9064600284DD025EA080A0AF1C9
:1035D000010A02F0D9F94FEA8A0A0023082201A958
:1035E000304602F009FA574540F28780BAF1000FE1
:1035F0007CD005EA08010331A7EB0A0504EB810141
:10360000082352463046EDB202F0F6F92A460AF196
:1036100008034249304602F0EFF909F1030708EBCD
:103620009707D4F81834002B5BD1D4F810544DB15F
:103630006B7A3146284613B12B681B6898476D6832
:10364000002DF5D1304602F0AFF904A8002300F8B0
:103650000D3D01F0A9FBD4F8183403B967609DF85B
:10366000030001F0C7FB60688CE7BDF804302A480E
:10367000C3F38312062A28BF0622911C62F3891322
:103680008900ADF8043002F037F906460028EAD088
:1036900002F07AF90023082201A9304602F0ACF9C1
:1036A000BDF8043013F4707F32D04FF0000A4FF0B1
:1036B000080908EA050103314B4604EB81010422A5
:1036C000304602F099F9BDF804300AF1010AC3F35B
:1036D000831308F10107534509F10409B846E8D8F6
:1036E0009FE7304602F060F960684BE73A460823EE
:1036F0000A49304602F080F98FE705EA08010331F4
:1037000004EB81013A460823304602F075F984E75C
:10371000474686E7382D00201CB50200442D0020C6
:103720002DE9F04F87B006AB00255C4C03F80D5D2A
:1037300080461846A3680093019101F035FBA0680C
:103740006768D4F80090C3190133A3EB0903032B76
:103750005BD800F1010AAE46AAEB090A04F5836CB6
:1037600004F2144601255CE8003F43EA05024CE8F8
:10377000002191F0000FF6D156E8003F43EA050220
:1037800046E8002191F0000FF6D100EA070B0BF19B
:10379000030304EB830114F823309B073A4611D14D
:1037A0000B884988C3F3891303EB911301331A443F
:1037B00000EA020B0BF1030304EB830114F823303E
:1037C0009B07EDD004EB8B0B0232DBF80C3003933C
:1037D00003F00303012B5BD0022B06D1BDF80E30A2
:1037E000C3F38913033302EB930256E8003F03EA65
:1037F0000E0146E8001B9BF0000FF6D10BB1626092
:1038000017460AEB0703032BADD909EA000303337C
:1038100009F1020114F823209DF80B0042F0030285
:1038200004F82320216001F0E5FA009B09F1010270
:103830001A4004EB820203EA090303334FEA1841FA
:10384000D16014F82320C8F3001161F3820268F3F9
:10385000C50204F8232034F8232001996FF389125C
:1038600024F8232054F8232061F39F2211460120DD
:1038700060F3010144F8232004F8231094F81C3469
:103880001BB1FFF741FE0028FBD107B0BDE8F08F68
:10389000BDF80C30C3F383131A44A6E7382D00207B
:1038A0002DE9F04F89B008AB4FF0000903F80D9DEA
:1038B0005E4C0291074618460392A56801F074FA1F
:1038C00094E80011A06800EB0C030133A3EB08039C
:1038D000042B5DD800F1010AAAEB080A04F2144E89
:1038E00001260195524D55E8003F43EA060245E89E
:1038F000002191F0000FF6D15EE8003F43EA060296
:103900004EE8002191F0000FF6D100EA0C0B0BF10C
:10391000030304EB830114F823309D07624613D19F
:10392000019D0B884988C3F3891303EB911301337D
:103930001A4400EA020B0BF1030304EB830114F8B1
:1039400023309B07EDD0019504EB8B0B0232DBF8A3
:103950000C30059303F00303012B61D0022B06D139
:10396000BDF81630C3F38913033302EB93025EE80C
:10397000003F03EA09014EE8001B9BF0000FF6D15F
:103980000BB1626094460AEB0C03042BAAD9019D8B
:1039900008EA0000C31C08F1030114F823209DF875
:1039A000130042F0030204F82320216001F022FA00
:1039B00008F1020208F101032A402B4004EB8202C5
:1039C00004EB830305EA08050335390C0398D0603E
:1039D000D96014F82530C7F3001262F3820367F34D
:1039E000C50304F8253034F82530029A012161F32B
:1039F000891324F8253054F8253062F39F231A46A2
:103A000061F3010244F8253004F8252094F81C34B1
:103A10001BB1FFF779FD0028FBD109B0BDE8F08F9D
:103A2000BDF81430C3F383131A44A0E7382D0020E7
:103A3000503100202DE9F04F89B008AE002506F87E
:103A40000D5D654C00903046039301910292D4F8CD
:103A5000088001F0A9F9A0686768D4F80090C3193C
:103A60000133A3EB0903052B5BD800F1010AAE4635
:103A7000AAEB090A04F5836C04F2144601255CE8FC
:103A8000003F43EA05024CE8002191F0000FF6D117
:103A900056E8003F43EA050246E8002191F0000F96
:103AA000F6D107EA000B0BF1030304EB830114F8D2
:103AB00023309B073A4611D10B884988C3F38913F9
:103AC00003EB911301331A4400EA020B0BF10303D9
:103AD00004EB830114F823309B07EDD004EB8B0B30
:103AE0000232DBF80C30059303F00303012B6CD09A
:103AF000022B06D1BDF81630C3F38913033302EB52
:103B0000930256E8003F03EA0E0146E8001B9BF0D3
:103B1000000FF6D10BB1626017460AEB0703052BC5
:103B2000ADD909EA0003033309F1040114F8232095
:103B30009DF8130042F0030204F82320216001F0F5
:103B400059F909F1020009F1030109F1010200EA42
:103B50000800009E029F04EB800001EA080102EACF
:103B6000080204EB810104EB820208EA0903C76042
:103B700003330398C860350CD56014F82320C6F3CE
:103B8000001161F3820266F3C50204F8232034F8C1
:103B90002320022161F3891224F82320019954F88B
:103BA000232061F39F221146012060F3010144F8B4
:103BB000232004F8231094F81C341BB1FFF7A4FC55
:103BC0000028FBD109B0BDE8F08FBDF81430C3F375
:103BD00083131A4495E700BF382D002030B4144DEC
:103BE000D5F81044002154B1237A8B4213D02346D8
:103BF00002E01A7A8A420ED05B68002BF9D101727A
:103C0000D5F810347BB15B684360D5F81034586048
:103C1000084630BC704701310A29E4D14FF0FF312A
:103C2000084630BC7047C5F810044360F0E700BF99
:103C3000382D002038B5084BD3F81044012583F8FF
:103C40001C543CB12368657220465B6898476468E1
:103C5000002CF7D138BD00BF382D00202DE9F047EA
:103C600084B01D460C9C002394F80C802373EB79E0
:103C700081460E4617460BB3062F0FD8DFE807F034
:103C8000363B414804515E00F168B06896E80C008C
:103C9000019100904946204601F070F9EB792BB96B
:103CA0002B7AEBB93349204601F068F9204601F040
:103CB00059F984F80C8004B0BDE8F0872B7A002B0A
:103CC0004BD1AA792C4BA88853F822A00021FFF7EA
:103CD000D9FB524603462949204601F04FF9CBE76C
:103CE000274A2849204601F049F9DBE749462046A2
:103CF00001F044F9D2E732684946204601F03EF926
:103D0000CCE7494696E80C00204601F037F9C5E7B4
:103D1000B16896E80C0020460091494601F02EF962
:103D2000BCE7B068F768316996E80C0002918DE84D
:103D300081004946204601F021F9AFE770693169F9
:103D400096E80C000390B068F76802918DE8810056
:103D50004946204601F012F9A0E7A979A888FFF7A3
:103D6000BDFB094B074953F82020204601F006F916
:103D7000A7E700BF84B5020088B5020070B5020055
:103D80007CB502006CB5020034B5020008295DD88C
:103D90002DE9F04F1D46914600232A7B2B7383B0FB
:103DA00099F80730019207460E46002B4FD0DFF8F6
:103DB0000CB1DFF80C810024A642414628463DD9CB
:103DC0003A5D013401F0DAF8082CF5D13449DFF816
:103DD000F480DFF8F4B0284601F0D0F8002411E0B8
:103DE00017F804A006F036FA50445946437813F009
:103DF000970F14BF52462E222846013401F0BEF818
:103E0000082C08D0A64241462846E9D8013401F0E2
:103E1000B5F8082CF6D199F8073013B999F808309D
:103E20004BBB2049284601F0A9F8284601F09AF832
:103E30009DF804302B7303B0BDE8F08F0134594670
:103E4000284601F09BF8082CB6D1BFE7704799F8D7
:103E50000830B3B999F80620134BB9F8040053F8A9
:103E600022400021FFF70EFB224603460F49284659
:103E700001F084F89BE70E4A0E49284601F07EF8CF
:103E8000CFE799F80610B9F80400FFF727FB0A4BB3
:103E9000084953F82020284601F070F8DAE700BFFF
:103EA00064B5020084B5020088B5020070B5020056
:103EB0007CB502006CB5020034B5020060B50200AA
:103EC00058B5020078B5020068B502002DE9F84F38
:103ED000254B93F800E0BEF1000F31D0DFF88CB035
:103EE000DFF88CA0DFF88C900024012703E0013478
:103EF000E4B2744524D226B2DBF80050DAF8003080
:103F000015F8360007FA00F1194205EBC608EED0A5
:103F100023EA0103CAF8003002F094F915F836607C
:103F2000D9F8003007FA06F52B4000FA06F18B426B
:103F300008D00D4B013493F800E0E4B27445DAD3B5
:103F4000BDE8F88FD8F80430002BF2D098F80110B3
:103F5000A1F10101B1FA81F14909091AB1FA81F11E
:103F6000490930469847E4E72832002058320020BB
:103F7000543200205032002070B50646114800F03F
:103F8000BFFD40B9104D01242B68B4401C4203D042
:103F900023EA04042C6070BD304602F053F90B4E46
:103FA000326860B122432B68094932601C432C609F
:103FB000044809680022BDE8704000F04BBD22EAC9
:103FC0000402F0E73032002054320020503200204A
:103FD0002C320020042A01D8072070472DE9F04137
:103FE00082B088460546174602F000F8002836D011
:103FF0001D4C1E481E491F4A1F4B2560002608F114
:10400000FF3480F800800F6016601E60E4B2B8F1E3
:10401000000F1ED0DFF86C80032701E0FF2C18D0C2
:1040200023B205EBC30215F8330093788DF80470C2
:10403000424601A98DF806608DF807608DF80530BD
:1040400001F0DEFF013CE4B20028E7D002B0BDE899
:10405000F0810A4A0A48002100F0EAFCF6E701F084
:1040600083FF0028C4D0F1E7583200202832002016
:104070002C3200205032002054320020CD3E02006D
:10408000FCB50200793F020070B5084D2B785BB19A
:10409000074E00243368012113F8340002F070F851
:1040A0002B780134A342F5D8002070BD28320020BF
:1040B0005832002000B585B000230390194601AAAC
:1040C00044F20100ADF80430029300F003F805B0AB
:1040D0005DF804FB10B5FFF7ADFDFFF715FA0028FA
:1040E000FBD1104C10492088000440F00100FFF77C
:1040F00017FB0E4B1B68DB0700D5FFDE20880C4941
:10410000000440F00200FFF70BFBBFF34F8F09499B
:10411000094BCA6802F4E0621343CB60BFF34F8FD0
:1041200000BFFDE7642C002000B60200F0ED00E0C7
:104130000CB6020000ED00E00400FA0559B10AB91E
:1041400009207047531E1A40FAD1826001608380B3
:10415000C260104670470E20704700BF10B48468DC
:10416000C26803468088121B904203D204205DF887
:10417000044B7047DA681C6802400020A154DA68DA
:104180000132DA605DF8044B704700BF0346806877
:10419000DA6890420DD010B498689A881C68024082
:1041A0000020A25C0A709A6801329A605DF8044BA4
:1041B00070470520704700BFF8B5204A204B002506
:1041C000C2F84051C2F84451C2F84851C2F84C51AB
:1041D000C2F80051C2F804511B6813B31949D2F850
:1041E00004450A68A41A1A6824F07F44A2422F46A4
:1041F00009D8197CDE69A41A154499B91EB1334651
:104200001A68A242F5D91049104A0B7812789A42DE
:104210000DD00F490F4A41F823504FF48013C2F8D4
:104220000031F8BD1F745A6998699047E6E7531C3E
:10423000DBB2022B08BF00230B70EAE7001001403D
:104240007C33002078330020753300207433002045
:104250006C33002000E100E02DE9F04F7D4A7E49FB
:104260001378097899428BB03BD00133DBB27B499C
:104270000491022B0D687A49069108BF0023137040
:10428000784A084652F82310D0F80090049A6B1828
:10429000002423F07F434E46AC4613602046274659
:1042A0002546AEB133688B4200F2ED81F468376089
:1042B000C91A1844F3693CB10CEB000E2EF07F4292
:1042C000F561B460726035461E460124002EE9D1C6
:1042D0002A46B146002C40F0DB8201230793069B5F
:1042E00007E05F4B5D4A0492D3F8009006930022EA
:1042F0000792D3F800A05C4BDFF874C11B780593DC
:10430000049B186800234946CE460893D14609937A
:1043100003934FF0010B17469A46804637B37C68EB
:10432000BD683B46FF695148A4EB080222F07F427A
:10433000824258D815441D60002283F810B05A609C
:104340009A60DA6100296ED00868854263D90C460C
:1043500003E01068A8424FD21446E2692D1A002AE1
:10436000F7D11D60DA61E361002FD8D10297CDF853
:1043700004E09CF801709CF800200025974200F0B2
:104380008680104600EB40000CEBC000541C9CF8EB
:104390000230E2B204798CF80020934204BF8CF81A
:1043A00000500022022C83684ED0032C40D0012CF8
:1043B000E4D11E7C002EE1D1C4685C6005699D607B
:1043C0004269DA6082699A61059A029FDDF804E029
:1043D000002AA8D03446A4EB080224485E6022F0EC
:1043E0007F428242A6D9A8EB040424F07F44AC4269
:1043F00008D22D1B1D609FE7401B10601D60DA6115
:10440000E361B1E7002583F810B01D605D609D6039
:10441000DD6141B10868451B0D609946D9614FF0D7
:10442000010A19467AE7994619464FF0010A75E7DD
:104430000029A3D00022CB690A741946002BFAD1B7
:1044400099464FF0010A94E7D9B19942084615D12F
:1044500010E100BF74330020753300207833002052
:104460007C3300206C33002068330020FEFF7F0087
:104470005C320020A34200F0E8802046C469002C92
:10448000F8D10E4697421D7431467FF47AAF40460C
:10449000D046CA46DDF80490B8F1000F40F0F48130
:1044A000099B002B40F0ED81089B1BB17B4B9DF8D5
:1044B00014201A70039B13B9494500F04C81002960
:1044C00000F04E81764C049BD4F804051B68754DB2
:1044D0000F682978C21A22F07F420332002951D195
:1044E0007149DFF8C8C1DFF8C8E14FF48036C4F87D
:1044F0004463C4F804634FF40036C1F880610E6071
:10450000012626602F21DCF8004000BF00BF00BF5D
:1045100000BF00BF00BF00BF00BF74452FD000BF69
:1045200000BF00BF00BF00BF00BF00BF00BF00BF93
:1045300000BF00BF00BF00BF00BF00BF00BF00BF83
:1045400000BF00BF00BF00BF00BF00BF00BF00BF73
:1045500000BF00BF00BF00BF00BF00BF00BF00BF63
:1045600000BF00BF00BF00BF00BF00BF00BF00BF53
:1045700000BF00BF00BF00BF00BF00BF00BF0139C8
:10458000C3D12E7097422CBFDB199B18444923F0EE
:104590007F43C1F84035D1F80425121A1B1A22F0C6
:1045A0007F4223F07F4303329A4248D9D1F8043541
:1045B0003E4AC1F8403512683D492F2300BF00BF75
:1045C00000BF00BF00BF00BF00BF00BF8A422FD0A6
:1045D00000BF00BF00BF00BF00BF00BF00BF00BFE3
:1045E00000BF00BF00BF00BF00BF00BF00BF00BFD3
:1045F00000BF00BF00BF00BF00BF00BF00BF00BFC3
:1046000000BF00BF00BF00BF00BF00BF00BF00BFB2
:1046100000BF00BF00BF00BF00BF00BF00BF00BFA2
:1046200000BF00BF00BF00BF00BF00BF00BF00BF92
:10463000013BC3D11C4B4FF40032C3F80021174A91
:10464000002313700BB0BDE8F08F834212D00E46EA
:10465000DC69D3F800E0C46134B12268724422609E
:104660009CF800209CF801700398B14218BF01200B
:10467000039007E7D1F81C90B9F1000F1AD04E460D
:104680004FF0010AE4E72A46B146002C60D15B1ADC
:10469000C9F8003001230793069B2AE668330020FF
:1046A000001001406933002000E100E0842A00206E
:1046B0000024F400784E794CC6F808B0784E4FF0DC
:1046C0002F0E366800BF00BF00BF00BF00BF00BF95
:1046D00000BF00BFA6422FD000BF00BF00BF00BF79
:1046E00000BF00BF00BF00BF00BF00BF00BF00BFD2
:1046F00000BF00BF00BF00BF00BF00BF00BF00BFC2
:1047000000BF00BF00BF00BF00BF00BF00BF00BFB1
:1047100000BF00BF00BF00BF00BF00BF00BF00BFA1
:1047200000BF00BF00BF00BF00BF00BF00BF00BF91
:1047300000BF00BF00BF00BFBEF1010EC2D1012605
:1047400034460896C8464E4605940994A2467FE72B
:10475000069806609BE7079B002B3FF470AFAEE620
:104760004D4A504B4E4E4D4C4FF480304FF4003775
:104770000125C3F88070C2F848032F23C2F808034C
:10478000556030681E4600BF00BF00BF00BF00BFBD
:1047900000BF00BF00BFA0422FD000BF00BF00BFBE
:1047A00000BF00BF00BF00BF00BF00BF00BF00BF11
:1047B00000BF00BF00BF00BF00BF00BF00BF00BF01
:1047C00000BF00BF00BF00BF00BF00BF00BF00BFF1
:1047D00000BF00BF00BF00BF00BF00BF00BF00BFE1
:1047E00000BF00BF00BF00BF00BF00BF00BF00BFD1
:1047F00000BF00BF00BF00BF00BF013EC3D1956036
:10480000049A116000BF00BF00BF00BF00BF00BF1F
:1048100000BF00BFA0422FD000BF00BF00BF00BF3D
:1048200000BF00BF00BF00BF00BF00BF00BF00BF90
:1048300000BF00BF00BF00BF00BF00BF00BF00BF80
:1048400000BF00BF00BF00BF00BF00BF00BF00BF70
:1048500000BF00BF00BF00BF00BF00BF00BF00BF60
:1048600000BF00BF00BF00BF00BF00BF00BF00BF50
:1048700000BF00BF00BF00BF013BC3D10A4B19708E
:10488000DDE6049B18600FE6069BC3F800A007E670
:10489000069B1E6021E500BF001001400024F400CB
:1048A000842A002000E100E069330020F0B4564B78
:1048B000564A574E574C4FF480304FF40031012583
:1048C000C2F88010C3F848032F21C3F808035D60C5
:1048D00030680E4600BF00BF00BF00BF00BF00BF72
:1048E00000BF00BFA0422FD000BF00BF00BF00BF6D
:1048F00000BF00BF00BF00BF00BF00BF00BF00BFC0
:1049000000BF00BF00BF00BF00BF00BF00BF00BFAF
:1049100000BF00BF00BF00BF00BF00BF00BF00BF9F
:1049200000BF00BF00BF00BF00BF00BF00BF00BF8F
:1049300000BF00BF00BF00BF00BF00BF00BF00BF7F
:1049400000BF00BF00BF00BF013EC3D19D6000BFDC
:1049500000BF00BF00BF00BF00BF00BF00BFA0423C
:104960002FD000BF00BF00BF00BF00BF00BF00BF0F
:1049700000BF00BF00BF00BF00BF00BF00BF00BF3F
:1049800000BF00BF00BF00BF00BF00BF00BF00BF2F
:1049900000BF00BF00BF00BF00BF00BF00BF00BF1F
:1049A00000BF00BF00BF00BF00BF00BF00BF00BF0F
:1049B00000BF00BF00BF00BF00BF00BF00BF00BFFF
:1049C00000BF0139C3D1144E144D154C1549164F73
:1049D00000203070286020704FF48015E0240B26F2
:1049E000087048708E7038701049C2F8805182F893
:1049F00014431560C3F8080582F81143D3F8043551
:104A00000B60F0BC704700BF0010014000E100E007
:104A1000842A00200024F400693300207C33002025
:104A2000743300205C32002075330020783300207E
:104A3000074B9B780BB9082070473AB130B1036837
:104A4000187C0028F7D159745A61704707207047C5
:104A50005C3200202DE9F043264CA37883B01BB9CB
:104A6000082003B0BDE8F0830028F9D0042903D85A
:104A7000072003B0BDE8F0834369002BF0D0064661
:104A800002A8737C0025012B00F8015D0CBF89464C
:104A9000A94690460F4600F087F96378A078217800
:104AA0005A1CD2B2904208BF2A4691421BD003EB57
:104AB000430304EBC30301200F4918719E60D1F832
:104AC00004159DF80700D9601F61C3F81490C3F85E
:104AD0001880627000F08EF9084B4FF4801228465F
:104AE000C3F80021BDE79DF8070000F083F904201A
:104AF000B7E700BF5C3200200010014000E100E099
:104B000070B51B4CA37882B013B9082002B070BDF9
:104B10000028FAD04369002BF7D0064602A80025EA
:104B200000F8015D357400F03FF96278A0782178D3
:104B3000531CDBB2984208BF2B46994212D002EBBD
:104B4000420204EBC20202219DF807009660117137
:104B5000637000F04FF9074B4FF480122846C3F8FA
:104B60000021D3E79DF8070000F044F90420CDE7C9
:104B70005C32002000E100E030B50478012C83B005
:104B80001FD010D3022C0CD1C368264926480193AC
:104B900001228DF8004001F095FF244B68461B6808
:104BA000984703B030BD22492248FFF7EFFA28B3F7
:104BB00002A8032300F8083D1C4B1B68984703B06C
:104BC00030BD43681C4D19782846FFF7C7FAD8B99D
:104BD000AA68EB689A4206D002AB144A03F8080DA3
:104BE000126818469047A968EB68AA885B1A9A422F
:104BF00012D2124B01221A7003B030BD01220C49AF
:104C0000094801F0A9FECCE7084B01908DF800405F
:104C10001B6868469847E6E701220249024801F00E
:104C200051FFBEE7A8330020742A00208033002003
:104C3000AC330020983300208433002094330020CC
:104C40002DE9F0432F4C89B02260002952D00C4648
:104C500080468A882C4809689946FFF76FFA10B198
:104C600009B0BDE8F083A289A1682848FFF766FA79
:104C70000028F5D1264D98F810E0D8F80C70D8F837
:104C800008600FCD6C460FC495E80F0098F81150DE
:104C900002971EF1000E18BF4FF0010E002D84E8A0
:104CA0000F00D8F80050D8F804401A4A1A488DF876
:104CB0001C9014BF0E2300238DF815306946D8F8D8
:104CC00014308DF814E0069303968DE8300001F05F
:104CD00057FD0028C4D1D8F80030104A01331070B5
:104CE000BED09DF81D304BB101220D490A4801F09C
:104CF000E9FEB5E7072009B0BDE8F083064801F0FA
:104D0000FBFFF1E78033002084330020983300203C
:104D10001CB60200794B0200742A00209433002054
:104D2000A833002070B50B4C01460B482678FFF7DE
:104D30002DFA05460EB9284670BD00230122074909
:104D40000748237001F0BEFE0028F4D0FFF7B2F947
:104D5000284670BD9433002084330020A8330020FF
:104D6000742A002010B501460C48FFF7F7F90446F5
:104D700008B1204610BD0A4801F098FE0028F8D17D
:104D800008490648FFF702FA0028F2D10122054936
:104D90000348BDE8104001F0DFBD00BF983300209C
:104DA000742A0020AC33002070B4EFF3108472B684
:104DB0000D4B9A68AAB90D490D4E01259D60D1F899
:104DC000805035401D60C1F88060D1F884505D602E
:104DD0004FF0FF33C1F88430027004B962B670BC82
:104DE000704701230370F8E7243C002000E100E055
:104DF000FC06FFBD094B9A6872B168B910B4EFF3B5
:104E0000108272B606491C680C605C684C60986041
:104E100002B962B65DF8044B704700BF243C002025
:104E200000E100E030B482B050E8023F1FFAA3F581
:104E3000C488A54202BFBFF32F8F00220DE0C489B2
:104E400025448489A54228BF2D1BC3EA054540E8B7
:104E50000254002CE8D14FF001028DF80320019399
:104E6000019B9DF803200B602AB14B880068184411
:104E700002B030BC704702F0FF03184602B030BCED
:104E8000704700BF0A884B889A4201D000207047C3
:104E900050E8022FC2EA224240E80223002BF7D159
:104EA00001207047B8B130B4416882680468521A72
:104EB000D2B2531E2160DBB242B101680A685C1EA7
:104EC000551C0D601370E3B2FF2BF6D10368002070
:104ED000187130BC70470E20704700BFF0B583B02A
:104EE00002AB002503F8015D04461846FFF75CFF9E
:104EF000236861681A688A4210D9511E19602168B6
:104F0000A3680E6812F8015C0A79278AE0689B1B87
:104F1000DBB29A4207FB050538BF0B719DF807000D
:104F2000FFF768FF284603B0F0BD00BF30B583B07F
:104F300002AB002203F8012D054618460C46FFF788
:104F400033FF2A681368591C1160E9682A8A641AB9
:104F5000B4FBF2F41C709DF80700FFF74BFF03B0A1
:104F600030BD00BF826802B9704710B5044643697E
:104F70000168006998470023A36010BD0EB400B516
:104F800082B0039929B102AA04AB42F8043D00F0B3
:104F900095F802B05DF804EB03B070472DE9F84FC7
:104FA0001746B942884606461D46DDF828B00B9ADA
:104FB0007DD30B464FF00109B3FBF7F39F4209F194
:104FC0000109F9D9A94538BFA94612F0010A02D151
:104FD000BBF1000F49D1B268012402E0013D07FB9B
:104FE00004F4012DFAD8B8FBF4F18F42F7D9324D11
:104FF00005E0B4FBF7F4A4B1B8FBF4F1B268685C67
:10500000531CB36033689854B26873689A4204FBC7
:105010001188EED33046FFF7A5FFB4FBF7F4002C60
:10502000EAD1BAF1000F16D0BBF1000F33D0CB4557
:1050300088BF20243ED9B3683268591CB160D4546B
:10504000B26873689A420BF1FF3B06D2BBF1000FC6
:1050500009D0D945EFD1BDE8F88F3046FFF782FF80
:10506000BBF1000FF5D1BDE8F88F93071AD42024C7
:10507000CB45B0D9B2683368511CB1609C54B2685A
:1050800073689A420BF1FF3B07D2BBF1000FA3D02C
:10509000CB45F0D1A0E7BDE8F88F3046FFF762FFBF
:1050A000B268F2E7002D0CBF30242024E0E74FF077
:1050B000010987E7BDE8F88F44B60200002900F037
:1050C0006F822DE9F04F064685B093460C460B786B
:1050D0000DE0B2683168501CB0608B54B2687368E0
:1050E0009A4280F0D3802378002B00F0BA800134FC
:1050F000002B00F0B680252BEBD14FF000082346A3
:1051000014F8012B2D2A00F0BB80302A00F0BB8060
:105110002B2A00F0AD802A2A00F0BC80A2F13005D5
:10512000E9B2092998BF013302D9A9E1A1F13005FB
:105130001C4613F8012BA2F1300005EB850109286C
:1051400002EB4101F2D92E2A00F0B080002701E0E5
:1051500014F8012F02F0FB03682BF9D0253A532AEB
:105160007AD8DFE812F07A017900790079007900C5
:105170007900790079007900790079007900790067
:105180007900790079007900790079007900790057
:105190007900790079007900790079007900790047
:1051A0007900790079007900790079007900790037
:1051B0007900790079007900790079007900790027
:1051C0007900790079007900790079006A01790025
:1051D0007900790079007900790079007900790007
:1051E00079005501FC007900790079007900FC0014
:1051F000790079007900790079007900540079000C
:105200007900CA007900BA00790079006A01DBF8F8
:105210000020131DCBF80030B368156831685A1CA4
:10522000B2604FF03002CA54B3687268934280F0A3
:10523000A0813268581C7821B060D154B26873687C
:105240009A4280F09281002208230192294600931D
:1052500010223046FFF7A2FE01342378002B7FF4A2
:1052600046AF337B002B40F0058105B0BDE8F08FE1
:10527000234614F8012B2D2A48F004087FF445AF8B
:1052800048F001083BE748F0020838E73046FFF7EE
:1052900069FE28E7DBF80020111DCBF80010156827
:1052A0005A782E2A03F101047FF450AF6278A2F1FC
:1052B0003003092B04F101044FF000073FF64AAF19
:1052C00007EB870702EB470714F8012FA2F1300321
:1052D000092BA7F13007F3D93CE7DBF800301A1DA2
:1052E000CBF800201968CDF804803B4600950A22CF
:1052F0003046FFF753FE0134AFE7DBF800301A1DEC
:10530000CBF8002018F0010FD3F8009040F0BB80DC
:10531000B9F1000F00F04781484604F0EFFF07465F
:10532000BD4240F2F180002D00F0EE804FF02008E9
:1053300005E0BD4200F0E880002D00F0E580B36894
:105340003268591CB16002F80380B26873689A42EF
:1053500005F1FF35EDD33046FFF704FEE9E7DBF852
:1053600000301A1DCBF80020D3F8009089EAE973C9
:10537000A3EBE973092B4FF0010A09DD8F4A82FB89
:105380000312DB17C3EBA203092B0AF1010AF5DCB8
:10539000BA4538BFBA462DB3B9F1000F02DB18F099
:1053A000040F00D0013D18F0020F40F0F58018F016
:1053B000010F17D1002D00F0FE80AA4538BF202133
:1053C00010D2B2683368501CB0609954B2687368E8
:1053D0009A4205F1FF3580F0E880002D00F0EB8067
:1053E000AA45EED1B9F1000FC0F2C88018F0040F41
:1053F0007BD108F00303022B00F09A808DE8200196
:105400003B4649460A223046FFF7C8FD013424E7EF
:10541000DBF80020131DCBF80030B3683168127838
:10542000581CB060CA54B26873689A42FFF414AF53
:105430003046FFF797FD01340FE7DBF800301A1D07
:10544000CBF800201968CDF804803B460095102267
:105450003046FFF7A3FD0134FFE6B3683268591CFC
:10546000B1604FF02501D154B26873689A42DFD21F
:105470000134F2E6304605B0BDE8F04FFFF772BDEB
:105480001C4600255FE64F46A7EB090817F8013BCD
:105490008BB1B2683168501CB0608B54B2687368CD
:1054A0009A42F1D33046FFF75DFDA7EB090817F8E4
:1054B000013B002BEDD145457FF6CEAE202705E020
:1054C00045453FF4C9AE002D3FF4C6AEB36832681F
:1054D000591CB160D754B26873689A4205F1FF3520
:1054E000EED33046FFF73EFDEAE7B2683368501C62
:1054F0002B21B0609954B26873689A42FFF479AF77
:105500003046FFF72FFD74E709F1FF3919F8013F25
:10551000002B3FF4A1AEB2683168501CB0608B54D0
:10552000B26873689A42F1D33046FFF71BFDEDE78E
:10553000002F7FF463AF002D33D0AA45BFF45EAFD8
:10554000B2683368511CB1604FF030019954B268B1
:1055500073689A4205F1FF3503D215B3AA45EFD11E
:105560004CE73046FFF7FEFCF7E73046FFF7FAFC62
:1055700069E63046FFF7F6FCB3685AE6B26833686E
:10558000501C2D21B0609954B26873689A42C9F1D9
:105590000009FFF42EAFB3E7002F3FF423AF06E777
:1055A000704700252AE74F46BAE630460391FFF7D9
:1055B000D9FC039911E7002514E700BF676666660A
:1055C00018B103680BB1DB69184770B50B4C0C4D73
:1055D0000C4B2D1BA3FB05352D090CD005EB8505C8
:1055E00004EB850523682046143413B1DB69984722
:1055F00018B9AC42F6D1002070BD70BDDC2C002083
:10560000DC2C0020CDCCCCCC29DF704728DF7047C4
:10561000034B187A0122B0FA80F05A74400970479F
:10562000C033002030B5354C237A87B0002B51D0E1
:10563000334B1B68022222721A79002A2ED0012ACB
:1056400020D019688A68C2B10022059203920192A3
:1056500004929A680592032202921A79002A44D091
:10566000012A07D1DA685B690493130302220393CA
:105670008DF804208B6801A898470023237263608B
:1056800007B030BDD8681A691044FFF7BFFFC8B132
:105690001128D6D10123237207B030BD9D695A6904
:1056A000D9681869521BB2F5805F28BF4FF4805249
:1056B0009208012A38BF012229442844FFF7A4FF99
:1056C0000028E5D1237C002BE6D10146022000F022
:1056D0001DF8E1E70B490C48FFF7A4FB084B1860E5
:1056E00003460028A6D16060D6E71A695B69039279
:1056F00001208DF804000493BCE700BFC0330020F4
:10570000D8330020D4330020B033002010B5354CFE
:10571000237A012B86B00AD0022B0CD1022810D09C
:10572000032804D1E3680133082B1CD8E360637CB1
:105730001BB104F06FFB06B010BDFFF773FF06B09E
:1057400010BD294B00221B68E2601A79002A3BD069
:10575000012AECD11A69596901328A421A61E6D1EB
:105760000020207205E0204B00221B68E2602272BC
:105770000D2019688A6872B1002205920392019285
:1057800004929A68029005921A79AAB1012A0AD065
:105790008B6801A8984715491548FFF773FB637C90
:1057A000002BC6D1C9E7DA685B69049313030222B0
:1057B00003938DF80420EBE71A695B6903920120DB
:1057C0008DF804000493E3E79A695969881AB0F5E3
:1057D000805F94BF121802F5805291429A61A6D15F
:1057E000BEE700BFC0330020D8330020D4330020F0
:1057F000B033002000F0FD03012B00D0704730B51E
:10580000384CA0F10100B0FA80F0237A4009002260
:1058100087B020746274002B48D0334B1B6802227F
:1058200022721A79002A2ED0012A18D019688A68A3
:1058300082B1002205920392019204929A68059225
:10584000032202921A79002A44D0012A39D08B68A7
:1058500001A8984700232372636007B030BDD86861
:105860001A691044FFF7D2FE28B11128DED10123B6
:10587000237207B030BD237C002BFAD101460220F1
:10588000FFF744FFF5E79D695A69D9681869521B0B
:10589000B2F5805F28BF4FF480529208012A38BFCA
:1058A000012229442844FFF7AFFEDDE70F491048E5
:1058B000FFF7B8FA0C4B186003460028AFD16060C0
:1058C000D7E7DA685B6904931303022203938DF828
:1058D0000420BCE71A695B69039201208DF804007B
:1058E0000493B4E7C0330020D8330020D433002021
:1058F000B0330020FFF7D6BA2DE9F041B0F81080A0
:10590000CF1CA8F1040847440646B7FBF8F7FFF799
:10591000E5FA80B3FFB200250123013F0446A0F859
:10592000068006600571437128D0804609E06379DE
:10593000AF4203F101036371C8F8000006608046BE
:105940001CD03046FFF7CAFA01350028EFD166793E
:10595000721E16D02346013082421B68FBD81F6896
:105960004EB1214600250C6801353846FFF7DEFAB6
:10597000AE422146F7D10020BDE8F0812046BDE8C7
:10598000F0812768EDE700BF10B40430012350E830
:10599000002F02EB030140E8001494F0000FF6D151
:1059A0005DF8044B704700BFF8B5021D012152E8B5
:1059B000004FA4EB010342E8003595F0000FF6D14B
:1059C00013F0FF0300D0F8BD4579691E12D00246DE
:1059D000013399421268FBD81768002DF3D00146B5
:1059E00000240E6801343846FFF7A0FAA54231467C
:1059F000F7D1F8BD0768F2E72DE9F843C68804330C
:105A00000F46B3FBF6F5904606FB1533044615B179
:105A1000013D2468FCD1F51A454528BF4546B8F13B
:105A2000000F15D04FF000090433E018A8EB05086B
:105A30002A4607EB090104F02DFC4645A9442468D9
:105A400035464FF0000328BF4546B8F1000FEBD1B3
:105A5000BDE8F8832DE9F843C68804330F46B3FB4D
:105A6000F6F5904606FB1531044615B1013D246854
:105A7000FCD1751A454528BF4546B8F1000F15D031
:105A80004FF0000904312144A8EB05082A4607EB32
:105A9000090004F0FFFB4645A944246835464FF051
:105AA000000128BF4546B8F1000FEBD1BDE8F883EF
:105AB00001600B6843604A68934204BF002343605F
:105AC000704700BF436843B1026891680B4443606C
:105AD0005268934204BF00234360704730B4184DAE
:105AE000A5F1F002AB1ADB1003EBD3735B1002EBF2
:105AF000C30152F83330984228BF0C4605D311E059
:105B000052F8333098420CD221468B1ADB1003EB4B
:105B1000D3735B10914202EBC304F1D8094830BC47
:105B200070470D46984204D904F10802AA42D9D31D
:105B3000F4E76068034B002808BF1846EFE700BF92
:105B400064B7020060B6020070B5161E07DD0C4691
:105B50008D1914F8010BFFF705F9A542F9D130466C
:105B600070BD00BF10B50C462046FFF7DBF80528D6
:105B7000FAD0012010BD00BF10B40023012401E0C1
:105B8000202B0AD004FA03F2024299B203F1010376
:105B9000F6D008465DF8044B70474FF6FF71084693
:105BA0005DF8044B704700BF98B191B130B4023832
:105BB000002402E00134202C0AD030F8025F954224
:105BC000F8D1012233B10B6802FA04F423430B60CD
:105BD00030BC70470B6802FA04F423EA04030B603C
:105BE000F6E700BF70B49DF80C60C0B1B9B1B2B1B6
:105BF0000238002402E00134202C10D030F8025F7B
:105C00009D42F8D1012303FA04F401EB820246B964
:105C1000E4430B68234041F8043B9142F9D170BC46
:105C200070470B68234341F8043B9142F7D00B685F
:105C3000234341F8043B9142F3D1F0E7F0B491B132
:105C400000252B46012606FA03F4144205D000EB8A
:105C5000450431F81370A78001350133202BF2D1B0
:105C60000560F0BC70470D460560F0BC704700BF92
:105C7000054A4FF0A043105CD3F8043523FA00F036
:105C8000C04300F00100704770BA0200044B195C79
:105C90004FF0A04201238B40C2F80C35704700BF83
:105CA00070BA0200044B195C4FF0A04201238B40F4
:105CB000C2F80835704700BF70BA02004FF0A04329
:105CC00010B44FF480204FF400344FF400214FF40F
:105CD0008012C3F80845C3F80805C3F80815C3F8CF
:105CE00008255DF8044B70474FF0A04310B44FF403
:105CF00080204FF400344FF400214FF48012C3F899
:105D00000C45C3F80C05C3F80C15C3F80C255DF859
:105D1000044B7047074B4FF0A041185CD1F8043595
:105D20000122824022EA03001340C1F80805C1F8AD
:105D30000C35704770BA020030B44FF0A043032214
:105D40004FF400354FF480244FF400204FF48011BD
:105D5000C3F84427C3F84827C3F84C27C3F8502793
:105D6000C3F80855C3F80845C3F80805C3F8081573
:105D700030BC7047054A4FF0A043105CD3F8103593
:105D800023FA00F0C04300F0010070476CBA020033
:105D90000D2809D00E2809D00F2809D010280CBFD3
:105DA00003204FF0FF3070470020704701207047FC
:105DB00002207047014B185C704700BF6CBA0200AC
:105DC00058B910B5054CA36833B10CCB0020A260C4
:105DD0009847A368002BF8D110BD7047DC33002032
:105DE00010B5012882B029D022D303281ED1072163
:105DF000002000F091F802A80023264C00F8013D95
:105E0000FEF7D2FFE368013BE360E36853B9224B3E
:105E100001221A604FF08042D2F8183413F4803314
:105E2000FAD1A3709DF80700FEF7E4FF02B010BDA1
:105E30001A4B0122C3F8802002B010BD02A8002333
:105E4000144C00F8013DFEF7AFFF237853B1E3682F
:105E50009DF8070001330122E360A270FEF7CAFF3C
:105E600002B010BD0D4A6360A3602361E360106857
:105E700010F001000AD004F035F820B94FF080434B
:105E80000122C3F8182501232370E0E7072100F061
:105E900043F8F0E7DC3300200C00004000E100E0B4
:105EA00010B51A4B1A6882B0A2B100221A601B68A2
:105EB00000934FF080430122154C0099C3F808234A
:105EC000A368627033B10CCB0020A2609847A3682E
:105ED000002BF8D10F4B1A68AAB100221A601B6878
:105EE00001934FF080430222094C0199C3F8082323
:105EF00023690122A27033B10CCB012022619847A3
:105F00002369002BF8D102B010BD00BF0001004092
:105F1000DC33002004010040002810B418DB00F13D
:105F2000604303F561434901C9B283F80013C3B26A
:105F30004009800000F1604000F5614003F01F025D
:105F400001239340C0F8803103605DF8044B704733
:105F5000C3B2044A03F00F0449012244C9B21176C6
:105F6000E6E700BFFCEC00E030B51D4C94F854505F
:105F700083B015B1082003B030BD4FF0FF33FF22CE
:105F80000721062023636363A363E36323646364DD
:105F9000A364E36423606360A360E36023616361DF
:105FA000A361E361236284F850306362A36284F8E2
:105FB0005230E36284F8533084F85120FFF7ACFF8D
:105FC000084B094A1D601B68019301984FF000437C
:105FD0000121284684F85410C2F8043303B030BDC0
:105FE000F03300207C61004000600040034B93F8D8
:105FF0005400003018BF0120704700BFF03300206C
:10600000F0B55E4C251895F93030002B01DB0820E7
:10601000F0BD91F803E0BEF1000F50D023680133CA
:1060200000F0A6800826012554F8253001334CD015
:106030006B1C54F82370013748D0AB1CB3423CD2E0
:1060400054F82370013741D0EB1CB34235D254F8D9
:10605000237001373AD02B1DB3422ED254F823704F
:10606000013733D06B1DB34227D254F82370013768
:106070002CD0AB1DB34220D254F82370013725D069
:10608000EB1DB34219D254F8237001371ED005F12D
:106090000803B34211D254F82370013716D005F12A
:1060A0000903B34209D254F8237001370ED00A35E0
:1060B000B54202D2E36A013358D00420F0BD236A0E
:1060C00001332DD00C260925AEE72B4626185DB2EC
:1060D00044F8232086F83050BEF1000F26D08B788C
:1060E000A3B94A784FF0A04600F5E073920046F855
:1060F0002320CB78F3B9083D2C44097894F850203C
:1061000042EA811284F850201846F0BD830003F162
:10611000A043D3F8002722F00202C3F80027E8E7E3
:10612000082685F83060334622623546234483F8DA
:106130004800D4E7AB0003F1804303F5C04309787E
:10614000D3F8104524F4473424F44074C3F81045C0
:1061500002020904D3F8100501F4403102F4F852A8
:106160000A430243C3F810250020F0BD0B23ADE71E
:10617000002385F8303022601D46B0E7F033002060
:10618000F0B42E4D2E1882B096F93030072B1CDD5E
:106190002B4493F848309B09032B41D0012B14BFAB
:1061A0004FF440314FF40031800000F1A040D0F8AE
:1061B000002722F44032C0F80027D0F800370B4304
:1061C000C0F8003702B0F0BC7047DAB2072AF9D83D
:1061D000980000F1804000F5C04003F140029200B9
:1061E000D0F8104592B202F18042002744F0010439
:1061F00002F5C042C0F810450197019817600029C8
:10620000E0D096F9302055F82220002ADAD0012279
:106210000B4902FA03F3C1F8043302B0F0BC704733
:106220004FF0A043D3F81035C34013F0010F0CBF5B
:106230004FF400314FF44031B6E700BFF033002097
:10624000006000404FF0A043D3F8103523FA00F06F
:1062500000F00100704700BF2DE9F04F87B0002328
:10626000CC4A01931168012900F00A821E46CA4BEC
:106270001A68012A00F0F681C84B1A68012A00F05A
:10628000E381C74B1A68012A00F0D081C54B1A6818
:10629000012A00F0BD81C44B1A68012A00F0AA81CE
:1062A000C24B1A68012A00F09781C14B1A68012A73
:1062B00000F08481BF4B1A68012A00F05E8116F05D
:1062C000FF0F1AD0BC4F01250024A30003F1804327
:1062D0002E4203F5C0434FEA45050BD0D3F8100515
:1062E00057F82420D3F81015C0F30420C1F301415E
:1062F00002B190470134082CE7D1002E02DB07B031
:10630000BDE8F08F00224FF0FF33AB4C02920393B5
:10631000012502AE94F950104F1C2DD0C9B221F0C6
:10632000C00006AB4FEAD00E03EB0E0701F00703E7
:1063300017F80C2C05FA03F31A421DD0221889090C
:1063400092F9302054F82220002A00F0F08003292E
:1063500000F0F0804FEA800E0EF1A04E17F814CC3A
:10636000DEF800771CEA0303C7F3014940F0B88068
:10637000B9F1030F00F0D7814FF0030A4FF0020983
:106380004FF00108002794F95110481C2DD0C9B2D4
:1063900021F0C00006AB4FEAD00C03EB0C0E01F06D
:1063A00007031EF80C2C05FA03F31A421DD022181D
:1063B000890992F9302054F82220002A00F0CA807E
:1063C000032900F0CA804FEA800C0CF1A04C1EF8A3
:1063D00014BCDCF800E71BEA030FCEF3014E40F0DB
:1063E0009080BEF1030F00F08A8194F952104A1C8C
:1063F0002CD0C9B221F0C00006AB4FEAD00C03EBA1
:106400000C0E01F007031EF80C2C05FA03F31A42D8
:106410001CD02218890992F9302054F82220002A31
:1064200000F08F80032900F08E804FEA800C0CF181
:10643000A04C1EF814ACDCF800E71AEA030FCEF308
:10644000014E6AD1BEF1030F00F0468194F953105A
:106450004B1C2CD0C9B221F0C00006AB4FEAD00EC5
:1064600003EB0E0201F0070312F80CCC05FA03F35C
:106470001CEA030F1BD004EB000C89099CF930C007
:1064800054F82C90B9F1000F6ED003296ED04FEA6A
:10649000800E0EF1A04E12F814CCDEF800271CEA94
:1064A000030FC2F3014211D1032A00F0F580002F3F
:1064B0003FF425AF4FF0A043019AD3F810359A422C
:1064C0003FF41DAF029A0193039223E7022AEED113
:1064D000032900F04681B9F1000FE8D0C847E6E78C
:1064E000B9F1020F7FF448AF032900F043814FF068
:1064F000030A4FF001080027002A3FF444AF9047F9
:1065000041E7BEF1020F7FF470AF032900F02C8148
:10651000002A3FF46AAF904767E7BEF1020F95D1BA
:10652000032900F02481002A90D090478EE70329A8
:106530007FF422AF16F80EC04CEA030C06F80EC02A
:1065400008E7032982D116F80CA04AEA030A06F8E4
:106550000CA06AE703297FF448AF16F80CB04BEAA9
:10656000030B06F80CB02EE70329A0D116F80EC0D5
:106570004CEA030C06F80EC089E700221A601B687B
:1065800005934FF0A043059AD3F81035019346F0D8
:10659000004694E60061004004610040086100404C
:1065A0000C6100401061004014610040186100401F
:1065B0001C6100407C610040F03300206F4AD2F83B
:1065C000042312067FF576AE00221A601B6804933E
:1065D000049B46F080066DE6684AD2F80423510613
:1065E0007FF563AE00221A601B680493049B46F09B
:1065F00040065AE6614AD2F8042390067FF550AE71
:1066000000221A601B680493049B46F0200647E6AC
:106610005A4AD2F80423D4067FF53DAE00221A6010
:106620001B680493049B46F0100634E6534AD2F8E4
:10663000042315077FF52AAE00221A601B68049315
:10664000049B46F0080621E64C4AD2F8042357077B
:106650007FF517AE00221A601B680493049B46F076
:1066600004060EE6454AD2F8042392077FF504AEED
:1066700000221A601B680493049B46F00206FBE5A7
:106680003E49D1F8046316F001063FF4F0AD136003
:1066900013680493049BEAE503297FF41CAF4FF4CD
:1066A0000032DEF8003723F44033CEF80037DEF84E
:1066B00000371343CEF80037B9F1000F01D0474639
:1066C0000CE74FF0A043019AD3F8103593427FF4C2
:1066D000F9AE07B0BDE8F08F03297FF424AF4FF483
:1066E0000037DCF8003723F44033CCF80037DCF80F
:1066F00000373B43CCF800374746C84613E7032929
:106700007FF406AF4FF40037DCF8003723F4403352
:10671000CCF80037DCF800373B43CCF8003747466D
:10672000C846D146F4E6032906D0CA461F464FF0B4
:1067300002094FF00108DFE64FF40037DEF80037BA
:1067400023F44033CEF80037DEF800373B43CEF871
:1067500000374FF0040A4FF003094FF002080127F9
:10676000CAE64FF440329CE74FF44037CCE74FF491
:106770004037B6E74FF44037E0E700BF0060004025
:10678000F0B50479714E6401331987B0DD7E15B11F
:10679000082007B0F0BD4D7F1D770D686B1C0BD036
:1067A0004FF0A0470123AB40C7F808350B6803F54D
:1067B000E073032547F823504B685F1C06D003F5B0
:1067C000E0734FF0A045002745F82370037906EBEE
:1067D00043131B7F002B4CD003688D69C3F82455ED
:1067E0000F7D4B7D05683B43C5F86C3503680F682A
:1067F0004D68C3F80C75C3F814550B7D012B00F0E0
:106800009A80331905465A600B693351EAB103790E
:10681000097F026806EB43131B7F002B65D1C2F88A
:106820001C31D2F81C712A680097009FC2F84431CD
:10683000D2F844212B6846480192019AC3F8040318
:10684000286840F30730FFF767FB2B792A6806EBCF
:1068500043131B7F002B44D00823C2F80035344477
:1068600000200123E376E0752076A075A07607B0BE
:10687000F0BD05688F69C5F8247591F814E04D7D69
:10688000076845EA0E05C7F86C550568D1F800E0C1
:106890004F68C5F81475C5F80CE50D7D012DB0D114
:1068A0008D686F1C05D005F5E0754FF0A04747F8DF
:1068B0002530CB685D1C0DD001254FF0A04705FAAF
:1068C00003F3C7F80835CB6803F5E073032547F8F1
:1068D0002350CB6805688F68C5F80835C5F8107572
:1068E0008FE70423C2F80035B9E70023C2F810315E
:1068F000D2F810712A680297029FC2F82031D2F8AC
:1069000020712A680397039FC2F82431D2F82471BA
:106910002A680497049FC2F84431D2F844212B68B6
:1069200005920C48059AC3F80403286840F3073021
:10693000FFF7F2FA89E78B685D1CBAD003F5E073C4
:106940004FF0A045002745F82370B2E748340020F7
:106950008000020010030200F0B50379524C5B0185
:10696000E51887B02D7F3DB101F06045B5F1005FBE
:1069700002D0102007B0F0BD23449E7D16B1112037
:1069800007B0F0BD9A7599609E8205796D01621914
:10699000137F13BB0168C1F81C31D1F81C61016879
:1069A00004960126049F8E600168D2F808E0C1F8C1
:1069B0001C31D1F81C310593059B968A938A576840
:1069C000B6B201331EF806609BB29382C1F81C6513
:1069D000002F2FD0002007B0F0BD03689168C3F8E6
:1069E0002061D3F8207103680197019FC3F85861B3
:1069F000D3F8586103680296967D029FC3F8441548
:106A0000C3F848650368012199605368002BE1D100
:106A1000036801E0002945D1D3F82021D3F85811AB
:106A2000002AF7D0002914BF0F2000202C44002397
:106A3000A3759FE7967D938A9BB29E4202F1140153
:106A400022D9016804E0938A9BB2B3F5807F03D01A
:106A5000D1F81C31002BF6D0938A9BB2B3F5807F1E
:106A6000E9D0C1F81C71D1F81C310393039BB2F833
:106A700014C0938A1FFA8CFC01331EF80CC09BB221
:106A80009382C1F81CC5D6E70B889BB2B3F5807F13
:106A900008D00268D2F81C31002BFBD00123D36050
:106AA0000020C3E70F20C1E7483400200279044BDF
:106AB00003EB4213987D003018BF0120704700BFE0
:106AC00048340020F0B403798A4E5B01F41888B092
:106AD000257F45B101F06045B5F1005F54D010202D
:106AE00008B0F0BC70476568002D3FD13344DC7DB1
:106AF00054BBDA75D9605C761C7605796D01731923
:106B00001F7F002F4DD19B7E8BB984B90368C3F8DA
:106B10002441D3F8242103680392039AC3F808415F
:106B2000D3F8082103680492012204991A607219AB
:106B30005368002B6BD003684FF401720020C3F838
:106B4000042308B0F0BC70471C7ECCB1002D00F0CF
:106B5000AA80037906EB4316337F002B50D00368DD
:106B60004FF40472C3F804231120B9E704684FF40A
:106B700001773344C4F80873DC7D002CB9D0E3E717
:106B800019611A760124B8E76568002DAED0046853
:106B90004FF404773344C4F80873DC7D002CA8D08C
:106BA000D2E703680025C3F81051D3F810710368C9
:106BB0000197019FC3F84451D3F8445103680295EB
:106BC000029DC3F83415C3F838258CB90368012237
:106BD0001A6002795201B3185B68002B65D0036814
:106BE0004FF404720020C3F8042308B0F0BC7047CF
:106BF0000268D2F8003243F02003C2F80032E8E71E
:106C000003684FF40172C3F80423112068E7016898
:106C1000C1F84431D1F844310593059B0368D3F89A
:106C20002471D3F80841D3F8441144B9002933D171
:106C3000002FF4D035440023EB75032050E7002FDC
:106C4000F8D159BBD47DECB1C3F80811D3F80811C1
:106C500006910699D468517ED3F818356354537E53
:106C6000D17D0133DBB25376537E9942D6D8354479
:106C70000022AB7EEA75002B37D003680121104655
:106C800019602DE7C3F80841D3F808110791079957
:106C9000D3F81835537EEAE7002FCBD135440023D3
:106CA000EB750F201CE711201AE7036801E0A4B977
:106CB000B8B9D3F81011D3F84441D3F8240100290E
:106CC000F5D000284FF00003324414BF03201846CB
:106CD0009C42D37518BF0F2002E732440F20D175B4
:106CE000FEE632440320D475FAE602680121184614
:106CF0005160F5E648340020114A037902EB431352
:106D0000197FD9B99B7ECBB910B4016883B0C1F8A3
:106D10002431D1F8244101680094009CC1F8083165
:106D2000D1F80831016801930123019C0B600179BE
:106D300002EB4112937603B05DF8044B704700BF3D
:106D40004834002070B5A54C237F8EB0002B73D142
:106D5000A34AD2F80413890546D4A14BD3F80423DF
:106D6000520704D5D3F80821002A40F0C9809C4B73
:106D7000D3F81C21BAB1A28AA17D92B28A424FF007
:106D80000002C3F81C2180F0A880D3F81C210692D1
:106D9000069AA18AA28AA06889B20132415C92B2A5
:106DA000A282C3F81C158E4BD3F84421D2B1002225
:106DB000C3F84421D3F84411A27E04910499002A17
:106DC00040F08880E37D6BB10023617EE268E3756B
:106DD00001238DF830108DF828300B9294E80A00CA
:106DE0000AA898470EB070BDD2F824110029B4D07B
:106DF000C2F82431D2F82411A37E07914FF4017117
:106E00000798C2F808130BB901235360744A022390
:106E10008DF82830D2F88034C2F88034E07DE26802
:106E20000D9300238DF83000E375237621680B92D3
:106E300063680AA898479AE7694BD3F82421002A87
:106E400040F09280D3F8101161B1C3F81021D3F84B
:106E5000101103910399D3F83C15E07DC9B2884223
:106E600000F0A4805E4BD3F84421B2B10022C3F8F5
:106E70004421D3F84401E17D0190019869B1D3F830
:106E80003C35E1688DF8303001230B918DF82830C6
:106E9000E27594E80A000AA89847514BD3F82021DC
:106EA000002A9FD00022C3F82021D3F82001A17D21
:106EB00000900098002995D0D3F84C15A3688DF860
:106EC00030100B938DF82820A27594E80A000AA8C8
:106ED000984787E701221A6074E7D3F81C310593BD
:106EE000059B00293FF45FAFA3688DF830100B932A
:106EF0008DF82820A27594E80A000AA8984752E75E
:106F0000E27D002A6ED00022C3F80821D3F80821C0
:106F10000892089AE168627ED3F818358B54637E34
:106F2000E27D0133DBB26376637E93427FF41FAF71
:106F3000237E002B6CD1A37E13B9294B01225A600A
:106F4000274AE06863684FF40171C2F80813627E53
:106F50008DF83020002501220B902168E5758DF811
:106F600028200AA8984702E70022C3F82421D3F872
:106F70002411029102218DF828100299D3F880146F
:106F8000C3F880140D91D3F83C15E368E2752276BE
:106F90008DF830100B93216863680AA89847104B4E
:106FA000D3F84421002A3FF478AF5FE7217E11B384
:106FB000D3F80062E568E17526F02006C3F80062A8
:106FC00026698DF8300001238DF82830227621685B
:106FD0000B95E66063680AA8984743E748340020A9
:106FE00000200040C3F80821D3F80811099109993D
:106FF000D3F8183598E7E268E17501238DF8300081
:107000008DF828300B9294E80A000AA8984729E7DF
:10701000607EE5682169E375012200238DF8300068
:10702000E160237663760B958DF8282094E80A00BA
:107030000AA898479BE600BF0220FEF76BBE00BF80
:107040002DE9F0470D460646FEF7A2FE03281ED89E
:10705000012D04461FD00ED3022D1AD11C4B00EB7C
:1070600040041C44657895B11A4B1B687BB12846D7
:10707000BDE8F04718471848FDF742FD144B174A82
:1070800004EB44010B44125D9D78AA42EBD0BDE8AD
:10709000F087BDE8F0870E4F4FEA400808EB000389
:1070A000FA18FD5C53782BB9A04447440B4BBA78CF
:1070B0001A55D8E7DFF8289007484A464FF40041B0
:1070C000FDF7C8FC0028EFD189F80060ECE700BFAD
:1070D000AC340020E03400208C340020E834002060
:1070E0006834002010B50078FEF752FE03280BD854
:1070F000064B00EB40001844407828B1044B1B6855
:1071000013B1BDE81040184710BD00BFAC340020DB
:10711000E0340020B34B1B68DB0700D4704770B528
:10712000B14EB24D33782C78FBB9172C1CD8DFE860
:1071300014F0F1001401140163007600830096003E
:107140005D0039002C0039002C00A300A800A80025
:10715000A800A800A800CE00DE000101460018002B
:107160001800FEF7C1FD2C7070BDA14B1B780020EC
:107170003070002B00F00581FEF794FD0120FEF732
:1071800091FD0320FEF78EFDCFE7012318463370F3
:10719000FEF7C0FD00224FF480419648BDE87040E4
:1071A000FDF758BC012318463370FEF7B3FD0022EB
:1071B00040F6CD418F48BDE87040FDF74BBC8C4B8D
:1071C0001B78002B00F0FE800020FEF76BFD0120F5
:1071D000FEF768FD0320FEF765FD0020FEF756FD73
:1071E0000120FEF753FD15232B7070BD0020FEF724
:1071F0004DFD07232B7070BD0020FEF739FD0028E0
:1072000000F0D3800020FEF74DFD46F266610323B7
:107210002B7000227748BDE87040FDF71BBC0020B2
:10722000FEF726FD002800F0C5800020FEF73AFD9D
:107230004FF400310423EBE70020FEF719FD00288E
:1072400000F0BD800020FEF72DFD05232B700022ED
:1072500041F69A116748BDE87040FDF7FBBB00207E
:10726000FEF758FD06232B70002240F6CD41614801
:10727000BDE87040FDF7EEBBFEF736FD0C232B702A
:1072800070BD5D48FDF73CFCD4F1110405467BD090
:10729000002879D1012C13D0C82303FB04F44FF448
:1072A000FA704FF400430021C3FB04014FF47A72DB
:1072B000002303F099FF2A4601464F48FDF7CAFB19
:1072C0000220FEF7E3FC4A4B01221A7070BD484BC6
:1072D0001B78002B79D00020FEF7E4FC0120FEF79C
:1072E000E1FC0320FEF7DEFC12232B7070BD404B47
:1072F0001B78002B6FD00020FEF7D4FC0120FEF796
:10730000D1FC0320FEF7CEFC0020FEF7BFFC1323C8
:107310002B7070BD364B1B78002B59D00020FEF728
:10732000C1FC0120FEF7BEFC0320FEF7BBFC0023DE
:107330002B7070BD2E4B1B78002B4FD00020FEF71A
:10734000B1FC0120FEF7AEFC0320FEF7ABFC0120F0
:10735000FEF79CFC14232B7070BD0020FEF788FC08
:10736000C8B10020FEF79EFC022C4EF2666118BFE9
:107370004FF400312C7000221E48BDE87040FDF72C
:1073800069BBFEF79BFCD0E60220FEF78BFC184B96
:1073900000221A7070BDFEF779FC43F2333141F6DA
:1073A0009A13022C08BF1946E4E7FEF76FFC41F67A
:1073B0009A112CE7FEF76AFC43F233313AE7FEF705
:1073C00065FC42E7FEF77AFC07E7FEF777FC8BE700
:1073D000FEF774FCABE7FEF771FC95E7FEF76EFC79
:1073E000B5E700BFB8340020BC340020E4340020EE
:1073F00069340020C03400206C340020FEF7BABC91
:1074000038B5C44B1C6814F0010401D1204638BDC6
:10741000C14C23780546E3B9172D00F27881DFE8E7
:1074200015F00B013101310169007D009100A500CB
:107430005B003500280035002800B300BA00BA0010
:10744000BA00BA00BA00E300F6001C014200630073
:107450006300B24B1B7800202070002B00F02781C6
:10746000FEF720FC0120FEF71DFC0320FEF71AFCAE
:10747000D2E7012318462370FEF74CFC00224FF49C
:107480008041A748BDE83840FDF7E4BA012318461B
:107490002370FEF73FFC002240F6CD41A048BDE836
:1074A0003840FDF7D7BA9D4B1B78002B00F02081A8
:1074B0000020FEF7F7FB0120FEF7F4FB0320FEF7A8
:1074C000F1FB0020FEF7E2FB0120FEF7DFFB954B0E
:1074D00015221A70002499E70020FEF7D7FB914B84
:1074E00007221A70002491E7FEF7FEFB8D4B002463
:1074F0001D708BE70020FEF7BBFB002800F0E18049
:107500000020FEF7CFFB46F26661864B84480324D9
:107510001C700022BDE83840FDF79CBA0020FEF741
:10752000A7FB002800F0DC800020FEF7BBFB4FF437
:1075300000317C4B7A4804241C700022BDE838409E
:10754000FDF788BA0020FEF793FB002800F0CD80FD
:107550000020FEF7A7FB734B714805241C70002226
:1075600041F69A11BDE83840FDF774BA0020FEF7E5
:10757000D1FB6C4B6A4806241C70002240F6CD41BA
:10758000BDE83840FDF766BAFEF7AEFB654B0C224E
:107590001A7000243AE76448FDF7B2FA0446D5F1C0
:1075A000110000F08780002C40F08480012814D066
:1075B000C82505FB00F54FF400434FF4FA70002195
:1075C000C3FB05014FF47A72002303F00DFE22463F
:1075D00001465548FDF73EFA04460220FEF756FBE9
:1075E0004E4B01221A7011E74C4B1B78002B00F018
:1075F00082800020FEF756FB0120FEF753FB03209C
:10760000FEF750FB474B12221A700024FEE6434B54
:107610001B78002B75D00020FEF744FB0120FEF7FD
:1076200041FB0320FEF73EFB0020FEF72FFB3D4B06
:1076300013221A700024E9E6384B1B78002B5DD02A
:107640000020FEF72FFB0120FEF72CFB0320FEF7A6
:1076500029FB344B00241C70D8E6304B1B78002BE0
:1076600052D00020FEF71EFB0120FEF71BFB03207B
:10767000FEF718FB0120FEF709FB2A4B14221A70B3
:107680000024C3E60020FEF7F3FAF8B10020FEF76D
:1076900009FB022D4EF2666118BF4FF40031214BF9
:1076A0001F481D700022BDE83840FDF7D3B9FEF732
:1076B00005FBB1E60220FEF7F5FA184B00221A701E
:1076C000A4E6FEF7E3FA41F69A111EE7FEF7DEFAAA
:1076D00043F2333141F69A13022D08BF1946DEE713
:1076E000FEF7D4FA43F2333123E7FEF7CFFA32E75D
:1076F000FEF7E4FAE5E6FEF7E1FA83E7FEF7DEFAE5
:10770000A7E7FEF7DBFA8FE7FEF7D8FAB2E7002427
:107710007CE600BFB8340020BC340020693400206F
:10772000C0340020E43400206C340020F0B5204A3E
:10773000204B1060044610F0020083B0196013D093
:107740001D4B1E480E210F2710261125197040F2DF
:1077500066620421DF709E715D72FCF73BFCA0B194
:10776000E3071DD403B0F0BDE20719D4144A15484D
:107770000021FDF75DF90028F4D1134A13480121D7
:1077800003B0BDE8F040FDF753B9FCF77DFC0028DD
:10779000E6D101460E4A0F48FDF74AF9E10703D545
:1077A0000190FEF7C9FA01980028DFD003B0F0BDC0
:1077B000B8340020E0340020AC3400208CBA020041
:1077C00015710200B4BA020039700200ACBA0200AE
:1077D000E5700200B0BA0200032801D90720704703
:1077E000012A12D0012917D008D30229F6D10D4B56
:1077F00000EB4000034400205A707047094B00EB37
:107800004000034400209A707047012901D00022F3
:10781000E8E700F10E02D2B200EB4003014900207C
:10782000CA547047AC34002008B5FEF7C3FA800094
:1078300000F1A0430020D3F8002722F44032C3F81F
:107840000027D3F8002742F44032C3F8002708BDD0
:1078500010B50388102B08D0112B05D1264B1868C2
:107860000138186038B110BD10BD234C216881B1BA
:107870000131216010BD01220221FFF7ADFF48B3A5
:10788000072827D01D4B1B68002BECD0BDE810400B
:10789000184701220846FFF79FFF48B1072807D085
:1078A000164B1B6803B1984721680131216010BD58
:1078B000072202210120FFF78FFF08B10728EFD12F
:1078C000042202210020FFF787FF0028ECD00728C0
:1078D000E6D1E9E7072202210120FFF77DFF08B189
:1078E0000728CFD1002108460A22FFF775FF00289C
:1078F000B9D00728C6D110BDF0340020EC340020E8
:1079000008B50020FFF790FF10B1062800D008BD91
:107910000120FFF789FF0028F9D0062808BF0020C2
:1079200008BD00BF194B10B5186031B101200C46DD
:10793000FFF764FD30B102232370154B186848B17E
:10794000002010BDFFF75AFDE8B9114B20701868F0
:107950000028F5D101220221FFF73EFF08B10728D8
:10796000EFD1072202210120FFF736FF08B10728D7
:10797000E7D1002108460A22FFF72EFF0028DFD0BA
:107980000728DED1DCE70B232370D6E7EC34002098
:10799000F034002076DF70477ADF70477CDF704775
:1079A0007FDF70478FDF704790DF7047A8DF704739
:1079B000A9DF704766DF704732DF70473EDF7047F0
:1079C000FCF778BB10B50388013B84B00446552B07
:1079D0003DD8DFE803F0693C3C3C3C3C3C3C3C3C53
:1079E0003C3C3C3C3C2B703C7D3C3C3C3C3C3C3C73
:1079F0003C3C3C3C3C3C873C933C3C3C3C3C3C3C25
:107A00003C3C3C3C3C3C3C3C3C3C3C3C3C3C3C3CB6
:107A10003E3C3C3C3C3C3C3C3C3C3C3C3C3C3C3CA4
:107A20003C3C3C3C3C3C485F3C3C3C3E3A4B3B494C
:107A30001888000440F00300FBF772FE0720FFF7F0
:107A4000DFFC08B1FCF736FB354BA2881A8004B086
:107A500010BD80881321FFF79DFF0028F7D0FCF7A9
:107A600029FB04B010BD8379002BF0D0827B043A4F
:107A7000022AECD8022B18BF01238DF80030808831
:107A80004FF4C1736946ADF80430FFF78FFF00284B
:107A9000DDD0E4E7224A0023108819461A46FFF792
:107AA00087FF0028D3D0DAE780880021FFF782FF24
:107AB0000028CCD0D3E7184B1A491888000440F0AE
:107AC0000300FBF72DFE164B4FF6FF721A80BEE740
:107AD000134A0023108885211A46FFF761FF00280A
:107AE000B5D0BCE7002380888DF8003069468DF85A
:107AF0000130FFF757FF0028A9D0B0E70822002186
:107B0000684602F0D2FB6946A0880022FFF74CFFCE
:107B100000289CD0A3E700BF642C0020D0BA02004C
:107B2000822A0020DCBA02000D4B4A881B889A4248
:107B300000D070470A8840F677239A42F9D130B4D2
:107B4000084B8C881888084D0849033CA4B20004EF
:107B5000234622462C8040F0030030BCFBF76ABF6E
:107B6000822A0020642C0020802A0020ECBA020027
:107B700008B5037803B108BD054B3B211888FFF712
:107B800009FF0028F7D0BDE80840FCF793BA00BF12
:107B9000822A0020072808B51CD00A280ED0042805
:107BA00000D008BD154B13211888FFF7F3FE30F005
:107BB0000803F6D0BDE80840FCF77CBA0020FFF7C8
:107BC0001FFCB8B9FFF79CFE88B9FFF7F5FE002847
:107BD000F0D108BD094B1A884FF6FF739A42E0D1E5
:107BE000074801F0CDF930F00803DAD0E2E7FCF7FE
:107BF00061FAEAE7FCF75EFAE4E700BF822A0020B8
:107C0000EC35002070B50378012B82B002D006D38A
:107C1000022B02D14068FCF74DFA02B070BD154C42
:107C2000154D20782844FDF77DF823780133DBB229
:107C30001D44237015F8012C0A2A03D00F4A12881C
:107C40009A42EAD80C4E0E4DADF806300DF1060200
:107C50003146284602F02EF8082802D0112804D018
:107C600028B90023237002B070BD2378ECE7FCF73D
:107C700021FAF6E7E8350020F4340020802A0020BD
:107C8000D83600202DE9F0410578A5B9838906464C
:107C90006BB3DFF86480174FB368585DFDF762F887
:107CA0000446A8B9B3890135AB42F5D8013BB268A7
:107CB000D35C0D2B01D0BDE8F0810A20FDF752F80E
:107CC0001128F8D10A20FDF74DF81128F5D0F2E778
:107CD000112802463946DFD0B8F80000000440F011
:107CE0000100FBF7DDFD2046FCF7E4F9DAE74FF091
:107CF000FF33DCE730BB0200642C002008B530B154
:107D0000032803D10220FFF77BFB50B908BDFFF722
:107D100077FB50B9FFF7F4FD50B9FFF74DFE00288F
:107D2000F4D0BDE80840FCF7C5B9FCF7C3F9F1E7AA
:107D3000FCF7C0F9F1E700BF08B50949094801F0AF
:107D400051FB48B94021074801F064FB00B908BD68
:107D5000BDE80840FCF7AEB9FCF7ACF9F2E700BFAC
:107D6000297B0200C436002070B5ACB0FCF79EFD44
:107D700008B1FCF79FF96A4D6A4B00930FCD04AC34
:107D80000FC495E80300684A684D029584E8030033
:107D900007234FF48074694604A801940394FCF708
:107DA0004FFF08B1FCF786F90020FBF741FB08B153
:107DB000FCF780F9FBF72EFB5D490320FFF7B6FCCB
:107DC00008B1FCF777F904A90020FFF7ABFD08B173
:107DD000FCF770F901F09CFF08B1FCF76BF9002388
:107DE00004A90120049302F0C7F808B1FCF762F976
:107DF00004A802F095F908B1FCF75CF99DF8003091
:107E00004C48012262F3030362F307138DF800303C
:107E100002F074FA474982B26846FFF7BFFD08B125
:107E2000FCF748F90822002104A802F03EFA424B70
:107E3000049304A84FF0C8730593FFF7ADFD08B194
:107E4000FCF738F9FFF778FF0021042204A802F0BC
:107E50002CFA3A4B3A48049304A901F031FE08B1D8
:107E6000FCF728F9A022002104A802F01EFA02253E
:107E7000002405210123334E334A8DF810508DF82C
:107E800012404025B4248DF813103048ADF85C3012
:107E900004A98DF88C301896269527942A9200F024
:107EA00039FF08B1FCF706F90121284800F02EFF40
:107EB0001C22002104A802F0F8F94FF42036002318
:107EC0004FF4702503242249224A049304A8ADF8F4
:107ED0001E308DF82030059606958DF81C400991CE
:107EE0000A9201F0A3F908B1FCF7E4F81A4802F08D
:107EF000E5F91A4B1A491888000440F00300FBF713
:107F00000FFC0321114800F0B5FF28B9FBF7FCFA7C
:107F1000FFF754FD0028F9D0FCF7CCF8F6E700BFD6
:107F2000B8BA0200F4360020057C0200F4370020C5
:107F3000957B020008BB020010003C00857C02001B
:107F4000D83600207C2A0020FD7C0200EC35002081
:107F5000717B0200C179020014BB0200642C002076
:107F600024BB02002DE9F84F4400DFF87CA126185D
:107F70000AEBC6068146D6F82C80B8F1010F8B4675
:107F8000174661D038D3B8F1020F30D100F10109A2
:107F900009EB4909756A4FEAC9094FF000081CE06E
:107FA000326A641BBC420AEB09012346A2EB0504BA
:107FB00028BF3B469C42486828BF1C462844594677
:107FC000224602F067F9336A25449D4208BF002526
:107FD0003F1BA044A34475620BD0B36AAB4203F1CC
:107FE000FF34DDD8326A1344013B5C1BDAE74FF003
:107FF00000084046BDE8F88FB36A756AAB429CBF83
:10800000326A9B18013B5B1B9F42F2D804440AEB87
:10801000C40400F10109266A761B09EB4909B7423D
:108020000AEBC90A56D3DAF8040032462844BD1BCD
:1080300002F030F9DAF804000BEB06012A4602F0F0
:1080400029F9B8466562D4E7B36A756AAB4226D9A6
:1080500003F1FF38366AA8EB0508B84528BFB846D3
:10806000761BB04523D309F1010707EB47070AEB5D
:10807000C707A14478683246594628440AEBC90A22
:10808000A8EB060502F006F978680BEB06012A4614
:1080900002F000F9CAF824504046BDE8F88F366A6D
:1080A00003EB060808F1FF38A8EB0508D5E709F14E
:1080B000010303EB43030AEBC303A14458680AEB33
:1080C000C90A284459464246454402F0E3F8CAF832
:1080D00024508EE7DAF804003A4628443D4402F082
:1080E000D9F8B846656284E7303C0020F8B5114CF9
:1080F000114B124AE3614FF400750023104FA36245
:1081000010266362E362A3656365E3650D4925623A
:10811000A2610225A264E01DE76426652561656110
:1081200002F0E4F82046084902F0E0F82023A371A9
:10813000F8BD00BF303C0020043900205CBB0200C9
:10814000F438002068BB02006CBB02006DDF704792
:1081500072DF704779DF70477DDF704764DF7047FB
:108160002DE9F04F85B00488DDF83880BDF83CA0DB
:10817000B8F800500195002C57D0994600231746B7
:108180008B4605461C4603E02A880134A24228DDBE
:108190006A6852F82400039000220DF10B0103A835
:1081A000FFF7DCFF064630BB9DF80B20BA42EBD14F
:1081B0002BB3B8F80020D31953451BDC4A440DF10A
:1081C0000B0103A80123FFF7C9FF98BBB8F8001003
:1081D0009DF80B200A44A8F800202A880134A24206
:1081E000D6DC13B3B8F80030019A013B9B1A9BB25E
:1081F000FF2B17D90C26304605B0BDE8F08FB8F834
:1082000000305A1C3B440233534592B2F2DCA8F8CA
:10821000002009F802B0B8F80020013292B2A8F8A4
:108220000020CBE709F80230E5E70026304605B02C
:10823000BDE8F08F0646304605B0BDE8F08F00BFC0
:108240002DE9F04700231788138090F82D3084B073
:10825000144605460E46002B49D1AA78002A70D153
:10826000EA78002A2ED16A68A2B1D91CB94225D871
:10827000022192F90020F154238801339BB20A2194
:108280002380F154238801339BB22380F254238846
:10829000013323802B89002B40F02A812B8A002B6D
:1082A00040F03F812B8B002B40F054812A6A002A3A
:1082B00000F0A78021888B1DBB4262D90C2004B03E
:1082C000BDE8F087D91CB942F8D80221F1542388BF
:1082D00001339BB201212380F15423880B449BB2CC
:1082E0002380F25423880B449BB22380BBE7082FE2
:1082F000E4D902A8FFF72AFF0028E0D1138808225A
:10830000CA54238801339BB21B222380CA5420887D
:10831000013080B22080062208440DF1090101F0ED
:10832000B9FF23889DF8082006339BB212F0FE02A5
:1083300018BF01222380F254238801339BB223808B
:108340008BE70433BB42B9D802A8FFF703FF00282C
:10835000B5D12388BDF808200321F15423880133C7
:108360009BB219212380F154238801339BB2F11869
:108370002380F254120A4A70238802339BB223806E
:108380006EE71388052B40F2AF806FF4486803EB6B
:10839000080080B24FF27D3E704540F2A5805088C3
:1083A000052840F2A1806FF4486C84441FFA8CFCCD
:1083B000F44540F299804FF6FF7E734504D0704536
:1083C00002D0834200F29080052373542388013346
:1083D0009BB212212380F154238801339BB2238066
:1083E0001188F1543344090A5970238802339BB22F
:1083F00023805288F2543344120A5A70238802337D
:108400002380D5F82480B8F1000F30D0B8F80410DC
:1084100020888A1C831C1344BB423FF64FAFFE2AC0
:108420003FF64CAF03313154238801339BB2FF2216
:108430002380F254238801339BB22380B8F80020B4
:10844000F2543344120A5A702088023080B22080DD
:10845000B8F804205AB1D8F80810002944D03044A4
:1084600001F018FFB8F8042023881344238095F8FE
:108470002C30002B40F08780287800283FF41FAF75
:108480002B88012B30D023889A1CBA423FF616AFB6
:10849000012805D16978023119448F42FFF40EAFEB
:1084A000023FFB1A04A99BB221F8083DB018FFF760
:1084B00053FE00287FF403AF2A78022A00F0AF8031
:1084C000012A00F0B4800821FE2B3FF6F7AE228887
:1084D0005D1CB5542288013292B22280B1542288A8
:1084E000013213442380EAE6072004B0BDE8F08798
:1084F00005F1080802228DE89000404611463346F7
:10850000FFF72EFE00287FF4DAAE8DE8900040469B
:10851000334610220621FFF723FE00283FF4BEAEAB
:10852000CDE605F110088DE8900040463346022262
:108530000321FFF715FE00287FF4C1AE8DE89000FF
:108540004046334610220721FFF70AFE00283FF479
:10855000A9AEB4E605F118088DE890004046334610
:1085600002221421FFF7FCFD00287FF4A8AE8DE85D
:1085700090004046334610221521FFF7F1FD0028F8
:108580003FF494AE9BE6D5F82880B8F1000FABD04D
:10859000B8F804200232FE2A3FF690AE23884FF04E
:1085A00000094FF0160A0132F254238801339BB2BE
:1085B000238006F803A0238801339BB22380B8F8F8
:1085C0000020F2543344120A5A70238802339BB2BB
:1085D0002380B8F80410F0180A4661B1D8F80830C2
:1085E0001946002B80D001F055FEB8F804202388EE
:1085F00013449BB2238009F1010995F82C205FFAFE
:1086000089F94A4509EB49087FF636AFAA6A02EBB9
:108610008808B8F804200232FE2AC4D94EE6BDF814
:1086200008209342FFF44FAF134609214CE76A78C4
:108630009342FFF448AF1346082145E72DE9F04384
:1086400095B01F230D46ADF80E300446002800F00B
:108650008480C27853077CD590F82D300021ADF886
:108660000C10002B40F0DB8183780CAF002B40F026
:1086700017821946032014AE31445F1C023316FAE8
:1086800087F74FF0020E16FA83F601F840EC83B23A
:10869000012107F8401CADF80C3006F8402C666844
:1086A000002E00F08C80D81C1F2874D90C2015B027
:1086B000BDE8F083A76A002F4BD0BA880232FE2AA9
:1086C000F4D8BDF80C304FF0000804AE4FF0160996
:1086D0001AE001F0DFFDBDF80C30BA8894F82C10D8
:1086E00013449BB2ADF80C3008F101085FFA88F82A
:1086F000884508EB480280F0F080A76A07EB820704
:10870000BA880232FE2AD1D80DF1500E9E44581C70
:1087100001320DF1500C0EF8402C1CFA80F09A1C1E
:1087200092B200F8409CADF80C203888B054324426
:10873000000A50700433B7F804E09BB27246F01898
:10874000ADF80C30BEF1000FCED0BB681946002B3F
:10875000BFD1072015B0BDE8F083ADF80C00ADB176
:10876000EB78002BF5D128460CA90DF10E02FFF78E
:1087700067FD0028EED19DF80E300CAA20469DF82A
:108780000C10FFF7E5FC15B0BDE8F0832B46ADF803
:108790000E502A46F2E714AF591C9A1C17FA81F1C1
:1087A0003B4417FA82F296F90060ADF80C000227FC
:1087B0000A2003F8407C01F8400C02F8406C238941
:1087C000002B40F08F80238A002B40F0AB80238B5E
:1087D000002B40F0C780226A002A42D0BDF80C303E
:1087E000991D1F293FF662AF10880528B1D96FF493
:1087F000486C00EB0C06B6B24FF27D37BE42A8D9EA
:108800005688052EA5D96FF4486EB6441FFA8EFE21
:10881000BE459ED94FF6FF77B84203D0BE4201D085
:10882000B04296D814A8C7185E1C10FA86F64FF00E
:10883000050E981C07F840EC80B2122706F8407C21
:10884000ADF80C001788ADF80C1004AE3118375491
:1088500004333F0A4F709BB25288F2541E44120AEE
:108860007270676AA7B3B888BDF80C30811C9A1C77
:1088700056181F2E3FF61AAFFE293FF617AF14AE5B
:108880001E44591C0DF1500E1EFA81F1033006F8FA
:10889000400C92B2FF2001F8400CADF80C20398852
:1088A00004AEB018B154090A41700433BA8898B2C2
:1088B000ADF80C0062B1B96800293FF44AAF30440A
:1088C00001F0E8FCBDF80C30BA881344ADF80C3068
:1088D00094F82C1000297FF4EDAE2378002B61D1A1
:1088E00004AC3CE703A904F1080704AE4FF01F08ED
:1088F0000222009138463346CDF804801146FFF736
:108900002FFC00287FF426AF03AB0093CDF8048042
:108910003346384610220621FFF722FC00283FF498
:1089200052AF17E703AA04F1100704AE4FF01F0877
:10893000009238463346CDF8048002220321FFF727
:108940000FFC00287FF406AF03AB0093CDF8048042
:108950003346384610220721FFF702FC00283FF477
:1089600036AFF7E603AA04F1180704AE4FF01F086C
:10897000009238463346CDF8048002221421FFF7D6
:10898000EFFB00287FF4E6AE03AB0093CDF8048044
:108990003346384610221521FFF7E2FB00283FF44A
:1089A0001AAFD7E62288012A3FF4D3AEBDF80C20D7
:1089B000901C1F283FF67AAE012B04D16378034444
:1089C0001F2B3FF673AEC2F11D0314A99BB204AE78
:1089D00021F8203D3044FFF7BFFB00287FF4BAAEFA
:1089E0002278022A00F08680012A00F08B80ADF800
:1089F00030300820FE2B3FF659AEBDF80C2014ACE9
:108A0000511CA71814FA81F102321A44013307F8F5
:108A1000403C3446ADF80C2001F8400C9FE60CAF0A
:108A20003846FFF793FB00287FF494AEBDF80C3076
:108A300014A903F1010E9A1C11FA8EFE0B4492B296
:108A400004AEB01808211B2603F8401CADF80C201A
:108A50000DF1310106220EF8406C01F01BFCBDF84F
:108A60000C209DF83010931D11F0FE019BB23BD1FC
:108A700014A8034403F8401CD31DA2789BB2ADF8A0
:108A80000C304AB9E278002A3FF409AED81C1F28FE
:108A900019463FF60BAEEEE504331F2B3FF606AE4C
:108AA0003846FFF757FB00287FF454AEBDF80C3072
:108AB000BDF83010E278581C14AE16FA80F01E444F
:108AC0009F1C4FF0030E06F840ECBFB204AE4FF00F
:108AD000190E00F840EC0433F019F1559BB2090A65
