:020000022000DC
:1030000000000120E1320200093302000B3302000C
:103010000D3302000F3302001133020000000000E4
:103020000000000000000000000000001333020058
:1030300015330200000000001733020019330200AC
:103040001B3302001B3302001B3302001B33020040
:103050001B3302001B3302001B3302001B33020030
:103060001B3302001B3302001B3302001B33020020
:103070001B3302001B3302001B3302001B33020010
:103080001B3302001B3302001B3302001B33020000
:103090001B3302001B330200B93B02001B3302004A
:1030A0001B3302001B3302001B3302001B330200E0
:1030B0001B3302001B330200000000000000000070
:1030C0001B3302001B3302001B3302001B330200C0
:1030D0001B3302001B3302001B3302000000000000
:1030E00000000000000000000000000000000000E0
:1030F00000000000000000000000000000000000D0
:1031000000000000000000000000000000000000BF
:1031100000000000000000000000000000000000AF
:10312000000000000000000000000000000000009F
:10313000000000000000000000000000000000008F
:10314000000000000000000000000000000000007F
:10315000000000000000000000000000000000006F
:10316000000000000000000000000000000000005F
:10317000000000000000000000000000000000004F
:10318000000000000000000000000000000000003F
:10319000000000000000000000000000000000002F
:1031A000000000000000000000000000000000001F
:1031B000000000000000000000000000000000000F
:1031C00000000000000000000000000000000000FF
:1031D00000000000000000000000000000000000EF
:1031E00000000000000000000000000000000000DF
:1031F00000000000000000000000000000000000CF
:1032000010B5054C237833B9044B13B10448AFF320
:1032100000800123237010BDD8560020000000005C
:10322000EC3C02000C4B43B10C480D4910B5AFF318
:1032300000800C48036823B910BD0A48036833B9FD
:103240007047094B002BF7D0BDE810401847064BDC
:10325000002BF5D0184700BF00000000EC3C020036
:10326000DC560020D456002000000000154B002B37
:1032700008BF134B9D46A3F5803A00218B460F46AD
:103280001348144A121A00F00DFD0F4B002B00D00A
:1032900098470E4B002B00D09847002000210400D7
:1032A0000D000D48002802D00C48AFF3008000F05C
:1032B000D5FC2000290000F0F9F900F0BBFC00BFAC
:1032C00000000800000001200000000000000000D5
:1032D000D8560020F4560020000000000000000036
:1032E0000649074A074B9B1A03DD043BC858D050D8
:1032F000FBDC00F013F8FFF7B9FF0000003D02000F
:1033000068560020D8560020FEE7FEE7FEE7FEE7FD
:10331000FEE7FEE7FEE7FEE7FEE7FEE7F0B4B24BAE
:103320001A78062A1BD0B14AD2F8883043F47003C9
:10333000C2F88830BFF34F8FBFF36F8F4FF0102369
:10334000D3F80022002AC0F27981D3F80432002B8E
:10335000C0F27481A64BA74A1A60F0BC70470433D0
:103360001B681807DFD1A44B1B6803F0F002302A5A
:1033700000F0298103F0E003402B00F024819E4BF4
:103380001B6803F0F003302B00F00F819A4B1B6891
:1033900003F0F002302A00F0F88003F0E003402B45
:1033A00000F0F380944B1B6803F0F003302B00F027
:1033B000DC80914B1B6803F0F002302A00F0C180E2
:1033C00003F0E003402B00F0BC808B4B1B6803F044
:1033D000F003302B00F0A780874B1B6803F0F0034D
:1033E000302B00F08980844B1B6803F0F003502BD6
:1033F00030D0814B1B6803F0F002302A19D003F063
:10340000E003402B15D07C4B1B6803F0F002302A00
:1034100003D003F0E003402B85D14FF08043D3F875
:103420000024D2077FF57FAF6FF00102C3F80024BC
:1034300079E7724B724A1B6803F04F0313606A4BC3
:103440001B78062B7FF46FAF6E4B1B6818077FF459
:103450006AAFD8E74FF080526B4BD2F80414C3F830
:103460002015D2F80814C3F82415D2F80C14C3F8A8
:103470002815D2F81014C3F82C15D2F81414C3F878
:103480003015D2F81814C3F83415D2F81C14C3F848
:103490004015D2F82014C3F84415D2F82414C3F808
:1034A0004815D2F82814C3F84C15D2F82C14C3F8D8
:1034B0005015D2F83014C3F85415D2F83414C3F8A8
:1034C0006015D2F83814C3F86415D2F83C14C3F868
:1034D0006815D2F840144448C3F86C15D2F8441467
:1034E0000278C3F87015062A7FF41DAF454B1B68A0
:1034F0001C077FF418AF7CE7444E454C4549464BCA
:103500000527012500203F223760256008601A60EA
:10351000354B1B78062B7FF406AF3A4B1B681D0713
:103520007FF401AF5FE7304B3C4A1B780321062B49
:1035300011607FF4F8AE334B1B681E077FF4F3AEC7
:103540004AE74FF080430022C3F80C21C3F8102152
:10355000C3F83825244B1B78062B7FF470AF294B1A
:103560001B681F077FF4DFAE2FE72D491E4ACB688B
:10357000127823F08073062ACB607FF4D4AE214BFF
:103580001B681B077FF4CFAE13E7264B164A1B6858
:1035900012782549C3F34233062A0B60B8D1194B80
:1035A0001B681A077FF4BFAEFCE60F4B1F4A1B785F
:1035B0001F491160062B7FF4B6AE124B1B6819072A
:1035C0007FF4B1AEE2E61B4B074A1B6812781A493A
:1035D000C3F30423062A0B60BCD10A4B1B681907EE
:1035E0003FF4CDAE9FE600BFE00F00F000ED00E03D
:1035F000685600200090D003E80F00F05802001039
:10360000E40E0040E40F00F000C0004010560040FF
:10361000885600401856004014560040A00500404F
:10362000F0ED00E0440200103C05004074C007408B
:103630000DF0ADBA2403001040350140184B0122B3
:10364000C3F80425D3F80024002AFBD04FF0102340
:1036500015221349C3F80022D1F80034002BFBD007
:103660004FF0102215210E4BC2F80412D3F800249B
:10367000002AFBD000220A49C3F80425D1F80034FF
:10368000002BFBD0BFF34F8F0649074BCA6802F4EB
:10369000E0621343CB60BFF34F8F00BFFDE700BF75
:1036A00000E0014000ED00E00400FA05114A124874
:1036B00012494FF0A043F0B40124C3F8444708274F
:1036C000C3F84847C3F84C47C3F85047C2F8004511
:1036D0000624C2F814750A4EC2F80C45094D052798
:1036E0000724C2F80875C2F81045C2F824652A6894
:1036F0000AE000BF002000400024F400400D030059
:1037000000E0D70168560020D3F8044524F40034C3
:10371000C3F804450C4600BF00BF00BF00BF00BF98
:1037200000BF00BF00BF82422FD000BF00BF00BF5C
:1037300000BF00BF00BF00BF00BF00BF00BF00BF91
:1037400000BF00BF00BF00BF00BF00BF00BF00BF81
:1037500000BF00BF00BF00BF00BF00BF00BF00BF71
:1037600000BF00BF00BF00BF00BF00BF00BF00BF61
:1037700000BF00BF00BF00BF00BF00BF00BF00BF51
:1037800000BF00BF00BF00BF00BF013CC3D1D3F8E2
:10379000044524F48024C3F804450C4600BF00BF50
:1037A00000BF00BF00BF00BF00BF00BF82422FD0DC
:1037B00000BF00BF00BF00BF00BF00BF00BF00BF11
:1037C00000BF00BF00BF00BF00BF00BF00BF00BF01
:1037D00000BF00BF00BF00BF00BF00BF00BF00BFF1
:1037E00000BF00BF00BF00BF00BF00BF00BF00BFE1
:1037F00000BF00BF00BF00BF00BF00BF00BF00BFD1
:1038000000BF00BF00BF00BF00BF00BF00BF00BFC0
:10381000013CC3D1D3F8044524F40024C3F8044583
:103820000C4600BF00BF00BF00BF00BF00BF00BF0D
:1038300000BF82422FD000BF00BF00BF00BF00BF4B
:1038400000BF00BF00BF00BF00BF00BF00BF00BF80
:1038500000BF00BF00BF00BF00BF00BF00BF00BF70
:1038600000BF00BF00BF00BF00BF00BF00BF00BF60
:1038700000BF00BF00BF00BF00BF00BF00BF00BF50
:1038800000BF00BF00BF00BF00BF00BF00BF00BF40
:1038900000BF00BF00BF013CC3D1D3F8044524F4EE
:1038A0008014C3F804450C4600BF00BF00BF00BF32
:1038B00000BF00BF00BF00BF82422FD000BF00BFCB
:1038C00000BF00BF00BF00BF00BF00BF00BF00BF00
:1038D00000BF00BF00BF00BF00BF00BF00BF00BFF0
:1038E00000BF00BF00BF00BF00BF00BF00BF00BFE0
:1038F00000BF00BF00BF00BF00BF00BF00BF00BFD0
:1039000000BF00BF00BF00BF00BF00BF00BF00BFBF
:1039100000BF00BF00BF00BF00BF00BF013CC3D15C
:10392000D3F8044544F40034C3F804450C4600BF02
:1039300000BF00BF00BF00BF00BF00BF00BF82428A
:103940002FD000BF00BF00BF00BF00BF00BF00BF3F
:1039500000BF00BF00BF00BF00BF00BF00BF00BF6F
:1039600000BF00BF00BF00BF00BF00BF00BF00BF5F
:1039700000BF00BF00BF00BF00BF00BF00BF00BF4F
:1039800000BF00BF00BF00BF00BF00BF00BF00BF3F
:1039900000BF00BF00BF00BF00BF00BF00BF00BF2F
:1039A00000BF013CC3D1D3F8044544F48024C3F8DC
:1039B00004450C4600BF00BF00BF00BF00BF00BFF2
:1039C00000BF00BF82422FD000BF00BF00BF00BFBA
:1039D00000BF00BF00BF00BF00BF00BF00BF00BFEF
:1039E00000BF00BF00BF00BF00BF00BF00BF00BFDF
:1039F00000BF00BF00BF00BF00BF00BF00BF00BFCF
:103A000000BF00BF00BF00BF00BF00BF00BF00BFBE
:103A100000BF00BF00BF00BF00BF00BF00BF00BFAE
:103A200000BF00BF00BF00BF013CC3D1D3F80445B5
:103A300044F40024C3F804450C4600BF00BF00BF97
:103A400000BF00BF00BF00BF00BF82422FD000BF39
:103A500000BF00BF00BF00BF00BF00BF00BF00BF6E
:103A600000BF00BF00BF00BF00BF00BF00BF00BF5E
:103A700000BF00BF00BF00BF00BF00BF00BF00BF4E
:103A800000BF00BF00BF00BF00BF00BF00BF00BF3E
:103A900000BF00BF00BF00BF00BF00BF00BF00BF2E
:103AA00000BF00BF00BF00BF00BF00BF00BF013CA0
:103AB000C3D1D3F8044544F48014C3F804450C463C
:103AC00000BF00BF00BF00BF00BF00BF00BF00BFFE
:103AD00082422FD000BF00BF00BF00BF00BF00BFA9
:103AE00000BF00BF00BF00BF00BF00BF00BF00BFDE
:103AF00000BF00BF00BF00BF00BF00BF00BF00BFCE
:103B000000BF00BF00BF00BF00BF00BF00BF00BFBD
:103B100000BF00BF00BF00BF00BF00BF00BF00BFAD
:103B200000BF00BF00BF00BF00BF00BF00BF00BF9D
:103B300000BF00BF013CC3D1E6E500BF00B585B0C2
:103B400000230390194601AA44F20100ADF80430A5
:103B5000029300F003F805B05DF804FB084B1B6806
:103B6000DB0700D5FFDEBFF34F8F0649064BCA685F
:103B700002F4E0621343CB60BFF34F8F00BFFDE759
:103B8000F0ED00E000ED00E00400FA0501600B68D4
:103B900043604A68934204BF00234360704700BFFC
:103BA000436843B1026891680B4443605268934292
:103BB00004BF00234360704700B583B068460849DE
:103BC000FFF7E4FF019B43B158681A6890476846C5
:103BD000FFF7E6FF019B002BF6D103B05DF804FB75
:103BE000D03C020048DF704710B5114C84B001A8EA
:103BF000FFF7F8FFA8B9214602A8FFF7C7FF039B0C
:103C0000002BF4D01A6859680198904702A8FFF772
:103C1000C7FF039B002BF5D101A8FFF7E3FF0028A6
:103C2000E9D0052801D0FFF789FF04B010BD00BF1F
:103C3000DC3C020008B5074B044613B10021AFF38A
:103C40000080054B1868836A03B19847204600F04E
:103C500031F800BF00000000E83C020070B50D4ED6
:103C60000D4CA41BA4100025A54209D10B4E0C4CF1
:103C700000F022F8A41BA4100025A54205D170BDB8
:103C800056F8253098470135EEE756F82530984725
:103C90000135F2E7CC560020CC560020CC5600204F
:103CA000D056002002440346934200D1704703F8E7
:103CB000011BF9E7FEE700BFF8B500BFF8BC08BC80
:103CC0009E467047F8B500BFF8BC08BC9E467047DA
:103CD000F03C0200F83C020008000000F03C02004A
:103CE000F03C0200080000006C56002000000000BC
:083CF000E93B020000000000A6
:083CF80074F5FF7F01000000DC
:103D00000090D00300000000000000000000000050
:103D100000000000000000000000000000000000A3
:103D20000000000000000000000000000000000093
:103D30000000000000000000000000000000000083
:103D40000000000000000000000000000000000073
:103D50000000000000000000000000000000000063
:103D600000000000253202000132020000000000C5
:04000003200032E1C6
:00000001FF
